{
  "_format": "hh-sol-artifact-1",
  "contractName": "Pool",
  "sourceName": "@aave/core-v3/contracts/protocol/pool/Pool.sol",
  "abi": [
    {
      "inputs": [
        {
          "internalType": "contract IPoolAddressesProvider",
          "name": "provider",
          "type": "address"
        }
      ],
      "stateMutability": "nonpayable",
      "type": "constructor"
    },
    {
      "anonymous": false,
      "inputs": [
        {
          "indexed": true,
          "internalType": "address",
          "name": "reserve",
          "type": "address"
        },
        {
          "indexed": true,
          "internalType": "address",
          "name": "backer",
          "type": "address"
        },
        {
          "indexed": false,
          "internalType": "uint256",
          "name": "amount",
          "type": "uint256"
        },
        {
          "indexed": false,
          "internalType": "uint256",
          "name": "fee",
          "type": "uint256"
        }
      ],
      "name": "BackUnbacked",
      "type": "event"
    },
    {
      "anonymous": false,
      "inputs": [
        {
          "indexed": true,
          "internalType": "address",
          "name": "reserve",
          "type": "address"
        },
        {
          "indexed": false,
          "internalType": "address",
          "name": "user",
          "type": "address"
        },
        {
          "indexed": true,
          "internalType": "address",
          "name": "onBehalfOf",
          "type": "address"
        },
        {
          "indexed": false,
          "internalType": "uint256",
          "name": "amount",
          "type": "uint256"
        },
        {
          "indexed": false,
          "internalType": "enum DataTypes.InterestRateMode",
          "name": "interestRateMode",
          "type": "uint8"
        },
        {
          "indexed": false,
          "internalType": "uint256",
          "name": "borrowRate",
          "type": "uint256"
        },
        {
          "indexed": true,
          "internalType": "uint16",
          "name": "referralCode",
          "type": "uint16"
        }
      ],
      "name": "Borrow",
      "type": "event"
    },
    {
      "anonymous": false,
      "inputs": [
        {
          "indexed": true,
          "internalType": "address",
          "name": "target",
          "type": "address"
        },
        {
          "indexed": false,
          "internalType": "address",
          "name": "initiator",
          "type": "address"
        },
        {
          "indexed": true,
          "internalType": "address",
          "name": "asset",
          "type": "address"
        },
        {
          "indexed": false,
          "internalType": "uint256",
          "name": "amount",
          "type": "uint256"
        },
        {
          "indexed": false,
          "internalType": "enum DataTypes.InterestRateMode",
          "name": "interestRateMode",
          "type": "uint8"
        },
        {
          "indexed": false,
          "internalType": "uint256",
          "name": "premium",
          "type": "uint256"
        },
        {
          "indexed": true,
          "internalType": "uint16",
          "name": "referralCode",
          "type": "uint16"
        }
      ],
      "name": "FlashLoan",
      "type": "event"
    },
    {
      "anonymous": false,
      "inputs": [
        {
          "indexed": true,
          "internalType": "address",
          "name": "asset",
          "type": "address"
        },
        {
          "indexed": false,
          "internalType": "uint256",
          "name": "totalDebt",
          "type": "uint256"
        }
      ],
      "name": "IsolationModeTotalDebtUpdated",
      "type": "event"
    },
    {
      "anonymous": false,
      "inputs": [
        {
          "indexed": true,
          "internalType": "address",
          "name": "collateralAsset",
          "type": "address"
        },
        {
          "indexed": true,
          "internalType": "address",
          "name": "debtAsset",
          "type": "address"
        },
        {
          "indexed": true,
          "internalType": "address",
          "name": "user",
          "type": "address"
        },
        {
          "indexed": false,
          "internalType": "uint256",
          "name": "debtToCover",
          "type": "uint256"
        },
        {
          "indexed": false,
          "internalType": "uint256",
          "name": "liquidatedCollateralAmount",
          "type": "uint256"
        },
        {
          "indexed": false,
          "internalType": "address",
          "name": "liquidator",
          "type": "address"
        },
        {
          "indexed": false,
          "internalType": "bool",
          "name": "receiveAToken",
          "type": "bool"
        }
      ],
      "name": "LiquidationCall",
      "type": "event"
    },
    {
      "anonymous": false,
      "inputs": [
        {
          "indexed": true,
          "internalType": "address",
          "name": "reserve",
          "type": "address"
        },
        {
          "indexed": false,
          "internalType": "address",
          "name": "user",
          "type": "address"
        },
        {
          "indexed": true,
          "internalType": "address",
          "name": "onBehalfOf",
          "type": "address"
        },
        {
          "indexed": false,
          "internalType": "uint256",
          "name": "amount",
          "type": "uint256"
        },
        {
          "indexed": true,
          "internalType": "uint16",
          "name": "referralCode",
          "type": "uint16"
        }
      ],
      "name": "MintUnbacked",
      "type": "event"
    },
    {
      "anonymous": false,
      "inputs": [
        {
          "indexed": true,
          "internalType": "address",
          "name": "reserve",
          "type": "address"
        },
        {
          "indexed": false,
          "internalType": "uint256",
          "name": "amountMinted",
          "type": "uint256"
        }
      ],
      "name": "MintedToTreasury",
      "type": "event"
    },
    {
      "anonymous": false,
      "inputs": [
        {
          "indexed": true,
          "internalType": "address",
          "name": "reserve",
          "type": "address"
        },
        {
          "indexed": true,
          "internalType": "address",
          "name": "user",
          "type": "address"
        }
      ],
      "name": "RebalanceStableBorrowRate",
      "type": "event"
    },
    {
      "anonymous": false,
      "inputs": [
        {
          "indexed": true,
          "internalType": "address",
          "name": "reserve",
          "type": "address"
        },
        {
          "indexed": true,
          "internalType": "address",
          "name": "user",
          "type": "address"
        },
        {
          "indexed": true,
          "internalType": "address",
          "name": "repayer",
          "type": "address"
        },
        {
          "indexed": false,
          "internalType": "uint256",
          "name": "amount",
          "type": "uint256"
        },
        {
          "indexed": false,
          "internalType": "bool",
          "name": "useATokens",
          "type": "bool"
        }
      ],
      "name": "Repay",
      "type": "event"
    },
    {
      "anonymous": false,
      "inputs": [
        {
          "indexed": true,
          "internalType": "address",
          "name": "reserve",
          "type": "address"
        },
        {
          "indexed": false,
          "internalType": "uint256",
          "name": "liquidityRate",
          "type": "uint256"
        },
        {
          "indexed": false,
          "internalType": "uint256",
          "name": "stableBorrowRate",
          "type": "uint256"
        },
        {
          "indexed": false,
          "internalType": "uint256",
          "name": "variableBorrowRate",
          "type": "uint256"
        },
        {
          "indexed": false,
          "internalType": "uint256",
          "name": "liquidityIndex",
          "type": "uint256"
        },
        {
          "indexed": false,
          "internalType": "uint256",
          "name": "variableBorrowIndex",
          "type": "uint256"
        }
      ],
      "name": "ReserveDataUpdated",
      "type": "event"
    },
    {
      "anonymous": false,
      "inputs": [
        {
          "indexed": true,
          "internalType": "address",
          "name": "reserve",
          "type": "address"
        },
        {
          "indexed": true,
          "internalType": "address",
          "name": "user",
          "type": "address"
        }
      ],
      "name": "ReserveUsedAsCollateralDisabled",
      "type": "event"
    },
    {
      "anonymous": false,
      "inputs": [
        {
          "indexed": true,
          "internalType": "address",
          "name": "reserve",
          "type": "address"
        },
        {
          "indexed": true,
          "internalType": "address",
          "name": "user",
          "type": "address"
        }
      ],
      "name": "ReserveUsedAsCollateralEnabled",
      "type": "event"
    },
    {
      "anonymous": false,
      "inputs": [
        {
          "indexed": true,
          "internalType": "address",
          "name": "reserve",
          "type": "address"
        },
        {
          "indexed": false,
          "internalType": "address",
          "name": "user",
          "type": "address"
        },
        {
          "indexed": true,
          "internalType": "address",
          "name": "onBehalfOf",
          "type": "address"
        },
        {
          "indexed": false,
          "internalType": "uint256",
          "name": "amount",
          "type": "uint256"
        },
        {
          "indexed": true,
          "internalType": "uint16",
          "name": "referralCode",
          "type": "uint16"
        }
      ],
      "name": "Supply",
      "type": "event"
    },
    {
      "anonymous": false,
      "inputs": [
        {
          "indexed": true,
          "internalType": "address",
          "name": "reserve",
          "type": "address"
        },
        {
          "indexed": true,
          "internalType": "address",
          "name": "user",
          "type": "address"
        },
        {
          "indexed": false,
          "internalType": "enum DataTypes.InterestRateMode",
          "name": "interestRateMode",
          "type": "uint8"
        }
      ],
      "name": "SwapBorrowRateMode",
      "type": "event"
    },
    {
      "anonymous": false,
      "inputs": [
        {
          "indexed": true,
          "internalType": "address",
          "name": "user",
          "type": "address"
        },
        {
          "indexed": false,
          "internalType": "uint8",
          "name": "categoryId",
          "type": "uint8"
        }
      ],
      "name": "UserEModeSet",
      "type": "event"
    },
    {
      "anonymous": false,
      "inputs": [
        {
          "indexed": true,
          "internalType": "address",
          "name": "reserve",
          "type": "address"
        },
        {
          "indexed": true,
          "internalType": "address",
          "name": "user",
          "type": "address"
        },
        {
          "indexed": true,
          "internalType": "address",
          "name": "to",
          "type": "address"
        },
        {
          "indexed": false,
          "internalType": "uint256",
          "name": "amount",
          "type": "uint256"
        }
      ],
      "name": "Withdraw",
      "type": "event"
    },
    {
      "inputs": [],
      "name": "ADDRESSES_PROVIDER",
      "outputs": [
        {
          "internalType": "contract IPoolAddressesProvider",
          "name": "",
          "type": "address"
        }
      ],
      "stateMutability": "view",
      "type": "function"
    },
    {
      "inputs": [],
      "name": "BRIDGE_PROTOCOL_FEE",
      "outputs": [
        {
          "internalType": "uint256",
          "name": "",
          "type": "uint256"
        }
      ],
      "stateMutability": "view",
      "type": "function"
    },
    {
      "inputs": [],
      "name": "FLASHLOAN_PREMIUM_TOTAL",
      "outputs": [
        {
          "internalType": "uint128",
          "name": "",
          "type": "uint128"
        }
      ],
      "stateMutability": "view",
      "type": "function"
    },
    {
      "inputs": [],
      "name": "FLASHLOAN_PREMIUM_TO_PROTOCOL",
      "outputs": [
        {
          "internalType": "uint128",
          "name": "",
          "type": "uint128"
        }
      ],
      "stateMutability": "view",
      "type": "function"
    },
    {
      "inputs": [],
      "name": "MAX_NUMBER_RESERVES",
      "outputs": [
        {
          "internalType": "uint16",
          "name": "",
          "type": "uint16"
        }
      ],
      "stateMutability": "view",
      "type": "function"
    },
    {
      "inputs": [],
      "name": "MAX_STABLE_RATE_BORROW_SIZE_PERCENT",
      "outputs": [
        {
          "internalType": "uint256",
          "name": "",
          "type": "uint256"
        }
      ],
      "stateMutability": "view",
      "type": "function"
    },
    {
      "inputs": [],
      "name": "POOL_REVISION",
      "outputs": [
        {
          "internalType": "uint256",
          "name": "",
          "type": "uint256"
        }
      ],
      "stateMutability": "view",
      "type": "function"
    },
    {
      "inputs": [
        {
          "internalType": "address",
          "name": "asset",
          "type": "address"
        },
        {
          "internalType": "uint256",
          "name": "amount",
          "type": "uint256"
        },
        {
          "internalType": "uint256",
          "name": "fee",
          "type": "uint256"
        }
      ],
      "name": "backUnbacked",
      "outputs": [],
      "stateMutability": "nonpayable",
      "type": "function"
    },
    {
      "inputs": [
        {
          "internalType": "address",
          "name": "asset",
          "type": "address"
        },
        {
          "internalType": "uint256",
          "name": "amount",
          "type": "uint256"
        },
        {
          "internalType": "uint256",
          "name": "interestRateMode",
          "type": "uint256"
        },
        {
          "internalType": "uint16",
          "name": "referralCode",
          "type": "uint16"
        },
        {
          "internalType": "address",
          "name": "onBehalfOf",
          "type": "address"
        }
      ],
      "name": "borrow",
      "outputs": [],
      "stateMutability": "nonpayable",
      "type": "function"
    },
    {
      "inputs": [
        {
          "internalType": "uint8",
          "name": "id",
          "type": "uint8"
        },
        {
          "components": [
            {
              "internalType": "uint16",
              "name": "ltv",
              "type": "uint16"
            },
            {
              "internalType": "uint16",
              "name": "liquidationThreshold",
              "type": "uint16"
            },
            {
              "internalType": "uint16",
              "name": "liquidationBonus",
              "type": "uint16"
            },
            {
              "internalType": "address",
              "name": "priceSource",
              "type": "address"
            },
            {
              "internalType": "string",
              "name": "label",
              "type": "string"
            }
          ],
          "internalType": "struct DataTypes.EModeCategory",
          "name": "category",
          "type": "tuple"
        }
      ],
      "name": "configureEModeCategory",
      "outputs": [],
      "stateMutability": "nonpayable",
      "type": "function"
    },
    {
      "inputs": [
        {
          "internalType": "address",
          "name": "asset",
          "type": "address"
        },
        {
          "internalType": "uint256",
          "name": "amount",
          "type": "uint256"
        },
        {
          "internalType": "address",
          "name": "onBehalfOf",
          "type": "address"
        },
        {
          "internalType": "uint16",
          "name": "referralCode",
          "type": "uint16"
        }
      ],
      "name": "deposit",
      "outputs": [],
      "stateMutability": "nonpayable",
      "type": "function"
    },
    {
      "inputs": [
        {
          "internalType": "address",
          "name": "asset",
          "type": "address"
        }
      ],
      "name": "dropReserve",
      "outputs": [],
      "stateMutability": "nonpayable",
      "type": "function"
    },
    {
      "inputs": [
        {
          "internalType": "address",
          "name": "asset",
          "type": "address"
        },
        {
          "internalType": "address",
          "name": "from",
          "type": "address"
        },
        {
          "internalType": "address",
          "name": "to",
          "type": "address"
        },
        {
          "internalType": "uint256",
          "name": "amount",
          "type": "uint256"
        },
        {
          "internalType": "uint256",
          "name": "balanceFromBefore",
          "type": "uint256"
        },
        {
          "internalType": "uint256",
          "name": "balanceToBefore",
          "type": "uint256"
        }
      ],
      "name": "finalizeTransfer",
      "outputs": [],
      "stateMutability": "nonpayable",
      "type": "function"
    },
    {
      "inputs": [
        {
          "internalType": "address",
          "name": "receiverAddress",
          "type": "address"
        },
        {
          "internalType": "address[]",
          "name": "assets",
          "type": "address[]"
        },
        {
          "internalType": "uint256[]",
          "name": "amounts",
          "type": "uint256[]"
        },
        {
          "internalType": "uint256[]",
          "name": "interestRateModes",
          "type": "uint256[]"
        },
        {
          "internalType": "address",
          "name": "onBehalfOf",
          "type": "address"
        },
        {
          "internalType": "bytes",
          "name": "params",
          "type": "bytes"
        },
        {
          "internalType": "uint16",
          "name": "referralCode",
          "type": "uint16"
        }
      ],
      "name": "flashLoan",
      "outputs": [],
      "stateMutability": "nonpayable",
      "type": "function"
    },
    {
      "inputs": [
        {
          "internalType": "address",
          "name": "receiverAddress",
          "type": "address"
        },
        {
          "internalType": "address",
          "name": "asset",
          "type": "address"
        },
        {
          "internalType": "uint256",
          "name": "amount",
          "type": "uint256"
        },
        {
          "internalType": "bytes",
          "name": "params",
          "type": "bytes"
        },
        {
          "internalType": "uint16",
          "name": "referralCode",
          "type": "uint16"
        }
      ],
      "name": "flashLoanSimple",
      "outputs": [],
      "stateMutability": "nonpayable",
      "type": "function"
    },
    {
      "inputs": [
        {
          "internalType": "address",
          "name": "asset",
          "type": "address"
        }
      ],
      "name": "getConfiguration",
      "outputs": [
        {
          "components": [
            {
              "internalType": "uint256",
              "name": "data",
              "type": "uint256"
            }
          ],
          "internalType": "struct DataTypes.ReserveConfigurationMap",
          "name": "",
          "type": "tuple"
        }
      ],
      "stateMutability": "view",
      "type": "function"
    },
    {
      "inputs": [
        {
          "internalType": "uint8",
          "name": "id",
          "type": "uint8"
        }
      ],
      "name": "getEModeCategoryData",
      "outputs": [
        {
          "components": [
            {
              "internalType": "uint16",
              "name": "ltv",
              "type": "uint16"
            },
            {
              "internalType": "uint16",
              "name": "liquidationThreshold",
              "type": "uint16"
            },
            {
              "internalType": "uint16",
              "name": "liquidationBonus",
              "type": "uint16"
            },
            {
              "internalType": "address",
              "name": "priceSource",
              "type": "address"
            },
            {
              "internalType": "string",
              "name": "label",
              "type": "string"
            }
          ],
          "internalType": "struct DataTypes.EModeCategory",
          "name": "",
          "type": "tuple"
        }
      ],
      "stateMutability": "view",
      "type": "function"
    },
    {
      "inputs": [
        {
          "internalType": "address",
          "name": "asset",
          "type": "address"
        }
      ],
      "name": "getReserveData",
      "outputs": [
        {
          "components": [
            {
              "components": [
                {
                  "internalType": "uint256",
                  "name": "data",
                  "type": "uint256"
                }
              ],
              "internalType": "struct DataTypes.ReserveConfigurationMap",
              "name": "configuration",
              "type": "tuple"
            },
            {
              "internalType": "uint128",
              "name": "liquidityIndex",
              "type": "uint128"
            },
            {
              "internalType": "uint128",
              "name": "currentLiquidityRate",
              "type": "uint128"
            },
            {
              "internalType": "uint128",
              "name": "variableBorrowIndex",
              "type": "uint128"
            },
            {
              "internalType": "uint128",
              "name": "currentVariableBorrowRate",
              "type": "uint128"
            },
            {
              "internalType": "uint128",
              "name": "currentStableBorrowRate",
              "type": "uint128"
            },
            {
              "internalType": "uint40",
              "name": "lastUpdateTimestamp",
              "type": "uint40"
            },
            {
              "internalType": "uint16",
              "name": "id",
              "type": "uint16"
            },
            {
              "internalType": "address",
              "name": "aTokenAddress",
              "type": "address"
            },
            {
              "internalType": "address",
              "name": "stableDebtTokenAddress",
              "type": "address"
            },
            {
              "internalType": "address",
              "name": "variableDebtTokenAddress",
              "type": "address"
            },
            {
              "internalType": "address",
              "name": "interestRateStrategyAddress",
              "type": "address"
            },
            {
              "internalType": "uint128",
              "name": "accruedToTreasury",
              "type": "uint128"
            },
            {
              "internalType": "uint128",
              "name": "unbacked",
              "type": "uint128"
            },
            {
              "internalType": "uint128",
              "name": "isolationModeTotalDebt",
              "type": "uint128"
            }
          ],
          "internalType": "struct DataTypes.ReserveData",
          "name": "",
          "type": "tuple"
        }
      ],
      "stateMutability": "view",
      "type": "function"
    },
    {
      "inputs": [
        {
          "internalType": "address",
          "name": "asset",
          "type": "address"
        }
      ],
      "name": "getReserveNormalizedIncome",
      "outputs": [
        {
          "internalType": "uint256",
          "name": "",
          "type": "uint256"
        }
      ],
      "stateMutability": "view",
      "type": "function"
    },
    {
      "inputs": [
        {
          "internalType": "address",
          "name": "asset",
          "type": "address"
        }
      ],
      "name": "getReserveNormalizedVariableDebt",
      "outputs": [
        {
          "internalType": "uint256",
          "name": "",
          "type": "uint256"
        }
      ],
      "stateMutability": "view",
      "type": "function"
    },
    {
      "inputs": [],
      "name": "getReservesList",
      "outputs": [
        {
          "internalType": "address[]",
          "name": "",
          "type": "address[]"
        }
      ],
      "stateMutability": "view",
      "type": "function"
    },
    {
      "inputs": [
        {
          "internalType": "address",
          "name": "user",
          "type": "address"
        }
      ],
      "name": "getUserAccountData",
      "outputs": [
        {
          "internalType": "uint256",
          "name": "totalCollateralBase",
          "type": "uint256"
        },
        {
          "internalType": "uint256",
          "name": "totalDebtBase",
          "type": "uint256"
        },
        {
          "internalType": "uint256",
          "name": "availableBorrowsBase",
          "type": "uint256"
        },
        {
          "internalType": "uint256",
          "name": "currentLiquidationThreshold",
          "type": "uint256"
        },
        {
          "internalType": "uint256",
          "name": "ltv",
          "type": "uint256"
        },
        {
          "internalType": "uint256",
          "name": "healthFactor",
          "type": "uint256"
        }
      ],
      "stateMutability": "view",
      "type": "function"
    },
    {
      "inputs": [
        {
          "internalType": "address",
          "name": "user",
          "type": "address"
        }
      ],
      "name": "getUserConfiguration",
      "outputs": [
        {
          "components": [
            {
              "internalType": "uint256",
              "name": "data",
              "type": "uint256"
            }
          ],
          "internalType": "struct DataTypes.UserConfigurationMap",
          "name": "",
          "type": "tuple"
        }
      ],
      "stateMutability": "view",
      "type": "function"
    },
    {
      "inputs": [
        {
          "internalType": "address",
          "name": "user",
          "type": "address"
        }
      ],
      "name": "getUserEMode",
      "outputs": [
        {
          "internalType": "uint256",
          "name": "",
          "type": "uint256"
        }
      ],
      "stateMutability": "view",
      "type": "function"
    },
    {
      "inputs": [
        {
          "internalType": "address",
          "name": "asset",
          "type": "address"
        },
        {
          "internalType": "address",
          "name": "aTokenAddress",
          "type": "address"
        },
        {
          "internalType": "address",
          "name": "stableDebtAddress",
          "type": "address"
        },
        {
          "internalType": "address",
          "name": "variableDebtAddress",
          "type": "address"
        },
        {
          "internalType": "address",
          "name": "interestRateStrategyAddress",
          "type": "address"
        }
      ],
      "name": "initReserve",
      "outputs": [],
      "stateMutability": "nonpayable",
      "type": "function"
    },
    {
      "inputs": [
        {
          "internalType": "contract IPoolAddressesProvider",
          "name": "provider",
          "type": "address"
        }
      ],
      "name": "initialize",
      "outputs": [],
      "stateMutability": "nonpayable",
      "type": "function"
    },
    {
      "inputs": [
        {
          "internalType": "address",
          "name": "collateralAsset",
          "type": "address"
        },
        {
          "internalType": "address",
          "name": "debtAsset",
          "type": "address"
        },
        {
          "internalType": "address",
          "name": "user",
          "type": "address"
        },
        {
          "internalType": "uint256",
          "name": "debtToCover",
          "type": "uint256"
        },
        {
          "internalType": "bool",
          "name": "receiveAToken",
          "type": "bool"
        }
      ],
      "name": "liquidationCall",
      "outputs": [],
      "stateMutability": "nonpayable",
      "type": "function"
    },
    {
      "inputs": [
        {
          "internalType": "address[]",
          "name": "assets",
          "type": "address[]"
        }
      ],
      "name": "mintToTreasury",
      "outputs": [],
      "stateMutability": "nonpayable",
      "type": "function"
    },
    {
      "inputs": [
        {
          "internalType": "address",
          "name": "asset",
          "type": "address"
        },
        {
          "internalType": "uint256",
          "name": "amount",
          "type": "uint256"
        },
        {
          "internalType": "address",
          "name": "onBehalfOf",
          "type": "address"
        },
        {
          "internalType": "uint16",
          "name": "referralCode",
          "type": "uint16"
        }
      ],
      "name": "mintUnbacked",
      "outputs": [],
      "stateMutability": "nonpayable",
      "type": "function"
    },
    {
      "inputs": [
        {
          "internalType": "address",
          "name": "asset",
          "type": "address"
        },
        {
          "internalType": "address",
          "name": "user",
          "type": "address"
        }
      ],
      "name": "rebalanceStableBorrowRate",
      "outputs": [],
      "stateMutability": "nonpayable",
      "type": "function"
    },
    {
      "inputs": [
        {
          "internalType": "address",
          "name": "asset",
          "type": "address"
        },
        {
          "internalType": "uint256",
          "name": "amount",
          "type": "uint256"
        },
        {
          "internalType": "uint256",
          "name": "interestRateMode",
          "type": "uint256"
        },
        {
          "internalType": "address",
          "name": "onBehalfOf",
          "type": "address"
        }
      ],
      "name": "repay",
      "outputs": [
        {
          "internalType": "uint256",
          "name": "",
          "type": "uint256"
        }
      ],
      "stateMutability": "nonpayable",
      "type": "function"
    },
    {
      "inputs": [
        {
          "internalType": "address",
          "name": "asset",
          "type": "address"
        },
        {
          "internalType": "uint256",
          "name": "amount",
          "type": "uint256"
        },
        {
          "internalType": "uint256",
          "name": "interestRateMode",
          "type": "uint256"
        }
      ],
      "name": "repayWithATokens",
      "outputs": [
        {
          "internalType": "uint256",
          "name": "",
          "type": "uint256"
        }
      ],
      "stateMutability": "nonpayable",
      "type": "function"
    },
    {
      "inputs": [
        {
          "internalType": "address",
          "name": "asset",
          "type": "address"
        },
        {
          "internalType": "uint256",
          "name": "amount",
          "type": "uint256"
        },
        {
          "internalType": "uint256",
          "name": "interestRateMode",
          "type": "uint256"
        },
        {
          "internalType": "address",
          "name": "onBehalfOf",
          "type": "address"
        },
        {
          "internalType": "uint256",
          "name": "deadline",
          "type": "uint256"
        },
        {
          "internalType": "uint8",
          "name": "permitV",
          "type": "uint8"
        },
        {
          "internalType": "bytes32",
          "name": "permitR",
          "type": "bytes32"
        },
        {
          "internalType": "bytes32",
          "name": "permitS",
          "type": "bytes32"
        }
      ],
      "name": "repayWithPermit",
      "outputs": [
        {
          "internalType": "uint256",
          "name": "",
          "type": "uint256"
        }
      ],
      "stateMutability": "nonpayable",
      "type": "function"
    },
    {
      "inputs": [
        {
          "internalType": "address",
          "name": "token",
          "type": "address"
        },
        {
          "internalType": "address",
          "name": "to",
          "type": "address"
        },
        {
          "internalType": "uint256",
          "name": "amount",
          "type": "uint256"
        }
      ],
      "name": "rescueTokens",
      "outputs": [],
      "stateMutability": "nonpayable",
      "type": "function"
    },
    {
      "inputs": [
        {
          "internalType": "address",
          "name": "asset",
          "type": "address"
        }
      ],
      "name": "resetIsolationModeTotalDebt",
      "outputs": [],
      "stateMutability": "nonpayable",
      "type": "function"
    },
    {
      "inputs": [
        {
          "internalType": "address",
          "name": "asset",
          "type": "address"
        },
        {
          "components": [
            {
              "internalType": "uint256",
              "name": "data",
              "type": "uint256"
            }
          ],
          "internalType": "struct DataTypes.ReserveConfigurationMap",
          "name": "configuration",
          "type": "tuple"
        }
      ],
      "name": "setConfiguration",
      "outputs": [],
      "stateMutability": "nonpayable",
      "type": "function"
    },
    {
      "inputs": [
        {
          "internalType": "address",
          "name": "asset",
          "type": "address"
        },
        {
          "internalType": "address",
          "name": "rateStrategyAddress",
          "type": "address"
        }
      ],
      "name": "setReserveInterestRateStrategyAddress",
      "outputs": [],
      "stateMutability": "nonpayable",
      "type": "function"
    },
    {
      "inputs": [
        {
          "internalType": "uint8",
          "name": "categoryId",
          "type": "uint8"
        }
      ],
      "name": "setUserEMode",
      "outputs": [],
      "stateMutability": "nonpayable",
      "type": "function"
    },
    {
      "inputs": [
        {
          "internalType": "address",
          "name": "asset",
          "type": "address"
        },
        {
          "internalType": "bool",
          "name": "useAsCollateral",
          "type": "bool"
        }
      ],
      "name": "setUserUseReserveAsCollateral",
      "outputs": [],
      "stateMutability": "nonpayable",
      "type": "function"
    },
    {
      "inputs": [
        {
          "internalType": "address",
          "name": "asset",
          "type": "address"
        },
        {
          "internalType": "uint256",
          "name": "amount",
          "type": "uint256"
        },
        {
          "internalType": "address",
          "name": "onBehalfOf",
          "type": "address"
        },
        {
          "internalType": "uint16",
          "name": "referralCode",
          "type": "uint16"
        }
      ],
      "name": "supply",
      "outputs": [],
      "stateMutability": "nonpayable",
      "type": "function"
    },
    {
      "inputs": [
        {
          "internalType": "address",
          "name": "asset",
          "type": "address"
        },
        {
          "internalType": "uint256",
          "name": "amount",
          "type": "uint256"
        },
        {
          "internalType": "address",
          "name": "onBehalfOf",
          "type": "address"
        },
        {
          "internalType": "uint16",
          "name": "referralCode",
          "type": "uint16"
        },
        {
          "internalType": "uint256",
          "name": "deadline",
          "type": "uint256"
        },
        {
          "internalType": "uint8",
          "name": "permitV",
          "type": "uint8"
        },
        {
          "internalType": "bytes32",
          "name": "permitR",
          "type": "bytes32"
        },
        {
          "internalType": "bytes32",
          "name": "permitS",
          "type": "bytes32"
        }
      ],
      "name": "supplyWithPermit",
      "outputs": [],
      "stateMutability": "nonpayable",
      "type": "function"
    },
    {
      "inputs": [
        {
          "internalType": "address",
          "name": "asset",
          "type": "address"
        },
        {
          "internalType": "uint256",
          "name": "interestRateMode",
          "type": "uint256"
        }
      ],
      "name": "swapBorrowRateMode",
      "outputs": [],
      "stateMutability": "nonpayable",
      "type": "function"
    },
    {
      "inputs": [
        {
          "internalType": "uint256",
          "name": "protocolFee",
          "type": "uint256"
        }
      ],
      "name": "updateBridgeProtocolFee",
      "outputs": [],
      "stateMutability": "nonpayable",
      "type": "function"
    },
    {
      "inputs": [
        {
          "internalType": "uint128",
          "name": "flashLoanPremiumTotal",
          "type": "uint128"
        },
        {
          "internalType": "uint128",
          "name": "flashLoanPremiumToProtocol",
          "type": "uint128"
        }
      ],
      "name": "updateFlashloanPremiums",
      "outputs": [],
      "stateMutability": "nonpayable",
      "type": "function"
    },
    {
      "inputs": [
        {
          "internalType": "address",
          "name": "asset",
          "type": "address"
        },
        {
          "internalType": "uint256",
          "name": "amount",
          "type": "uint256"
        },
        {
          "internalType": "address",
          "name": "to",
          "type": "address"
        }
      ],
      "name": "withdraw",
      "outputs": [
        {
          "internalType": "uint256",
          "name": "",
          "type": "uint256"
        }
      ],
      "stateMutability": "nonpayable",
      "type": "function"
    }
  ],
  "bytecode": "0x60a0604052600080553480156200001557600080fd5b506040516200847b3803806200847b83398181016040528101906200003b9190620000f4565b8073ffffffffffffffffffffffffffffffffffffffff1660808173ffffffffffffffffffffffffffffffffffffffff16815250505062000126565b600080fd5b600073ffffffffffffffffffffffffffffffffffffffff82169050919050565b6000620000a8826200007b565b9050919050565b6000620000bc826200009b565b9050919050565b620000ce81620000af565b8114620000da57600080fd5b50565b600081519050620000ee81620000c3565b92915050565b6000602082840312156200010d576200010c62000076565b5b60006200011d84828501620000dd565b91505092915050565b6080516182d0620001ab6000396000818161092001528181610a1f01528181610ca101528181610feb01528181611ad001528181611e430152818161264a0152818161274901528181612a6301528181612af401528181612deb01528181613031015281816137fd0152818161402c0152818161423a01526149fd01526182d06000f3fe608060405234801561001057600080fd5b506004361061027e5760003560e01c80637a708e921161015c578063d15e0053116100ce578063e82fec2f11610087578063e82fec2f146107a0578063e8eda9df146107be578063eddf1b79146107da578063ee3e210b1461080a578063f51e435b1461083a578063f8119d51146108565761027e565b8063d15e0053146106e2578063d1946dbc14610712578063d579ea7d14610730578063d5ed39331461074c578063d65dc7a114610768578063e43e88a1146107845761027e565b8063bcb6e52211610120578063bcb6e5221461060d578063bf92857c14610629578063c44b11f71461065e578063c4d66de81461068e578063cd112382146106aa578063cea9d26f146106c65761027e565b80637a708e921461058157806394ba89a21461059d5780639cd19996146105b9578063a415bcad146105d5578063ab9c4b5d146105f15761027e565b8063386497fd116101f5578063617ba037116101b9578063617ba037146104af57806363c9b860146104cb57806369328dec146104e757806369a933a5146105175780636a99c036146105335780636c6f6ae1146105515761027e565b8063386497fd146103e757806342b0b77c146104175780634417a58314610433578063573ade81146104635780635a3b74b9146104935761027e565b80631d2118f9116102475780631d2118f914610315578063272d90721461033157806328530a471461034f5780632dad97d41461036b5780633036b4391461039b57806335ea6a75146103b75761027e565b8062a718a9146102835780630148170e1461029f57806302c205f0146102bd5780630542975c146102d9578063074b2e43146102f7575b600080fd5b61029d600480360381019061029891906159da565b610874565b005b6102a7610b1c565b6040516102b49190615a64565b60405180910390f35b6102d760048036038101906102d29190615b28565b610b21565b005b6102e1610c9f565b6040516102ee9190615c3d565b60405180910390f35b6102ff610cc3565b60405161030c9190615c83565b60405180910390f35b61032f600480360381019061032a9190615c9e565b610ce9565b005b610339610f59565b6040516103469190615a64565b60405180910390f35b61036960048036038101906103649190615cde565b610f63565b005b61038560048036038101906103809190615d0b565b6110ee565b6040516103929190615a64565b60405180910390f35b6103b560048036038101906103b09190615d5e565b611230565b005b6103d160048036038101906103cc9190615d8b565b611242565b6040516103de9190615f65565b60405180910390f35b61040160048036038101906103fc9190615d8b565b6116ab565b60405161040e9190615a64565b60405180910390f35b610431600480360381019061042c9190615fe6565b6116fb565b005b61044d60048036038101906104489190615d8b565b6118b6565b60405161045a919061609c565b60405180910390f35b61047d600480360381019061047891906160b7565b611919565b60405161048a9190615a64565b60405180910390f35b6104ad60048036038101906104a8919061611e565b611a5c565b005b6104c960048036038101906104c4919061615e565b611c02565b005b6104e560048036038101906104e09190615d8b565b611d05565b005b61050160048036038101906104fc91906161c5565b611d7d565b60405161050e9190615a64565b60405180910390f35b610531600480360381019061052c919061615e565b611fa8565b005b61053b612069565b6040516105489190615c83565b60405180910390f35b61056b60048036038101906105669190615cde565b61208f565b6040516105789190616327565b60405180910390f35b61059b60048036038101906105969190616349565b61220a565b005b6105b760048036038101906105b291906163c4565b612397565b005b6105d360048036038101906105ce919061645a565b612496565b005b6105ef60048036038101906105ea91906164a7565b612506565b005b61060b60048036038101906106069190616578565b612846565b005b610627600480360381019061062291906166c8565b612cbf565b005b610643600480360381019061063e9190615d8b565b612d3d565b60405161065596959493929190616708565b60405180910390f35b61067860048036038101906106739190615d8b565b612f16565b6040516106859190616785565b60405180910390f35b6106a860048036038101906106a391906167de565b612f7c565b005b6106c460048036038101906106bf9190615c9e565b6131bc565b005b6106e060048036038101906106db919061680b565b613269565b005b6106fc60048036038101906106f79190615d8b565b6132e1565b6040516107099190615a64565b60405180910390f35b61071a613331565b604051610727919061690d565b60405180910390f35b61074a60048036038101906107459190616b11565b6134ce565b005b61076660048036038101906107619190616b6d565b613644565b005b610782600480360381019061077d9190615d0b565b613950565b005b61079e60048036038101906107999190615d8b565b613a0c565b005b6107a8613a81565b6040516107b59190615a64565b60405180910390f35b6107d860048036038101906107d3919061615e565b613aa9565b005b6107f460048036038101906107ef9190615d8b565b613bac565b6040516108019190615a64565b60405180910390f35b610824600480360381019061081f9190616bfa565b613c05565b6040516108319190615a64565b60405180910390f35b610854600480360381019061084f9190616cd4565b613dc9565b005b61085e61400a565b60405161086b9190616d23565b60405180910390f35b73__$4ae75c1292a38b6fb7c763c6480b4a24e8$__63bdcb2b8d6034603560366037604051806101200160405280603b60089054906101000a900461ffff1661ffff1681526020018981526020018c73ffffffffffffffffffffffffffffffffffffffff1681526020018b73ffffffffffffffffffffffffffffffffffffffff1681526020018a73ffffffffffffffffffffffffffffffffffffffff16815260200188151581526020017f000000000000000000000000000000000000000000000000000000000000000073ffffffffffffffffffffffffffffffffffffffff1663fca513a86040518163ffffffff1660e01b8152600401602060405180830381865afa158015610989573d6000803e3d6000fd5b505050506040513d601f19601f820116820180604052508101906109ad9190616d53565b73ffffffffffffffffffffffffffffffffffffffff168152602001603860008c73ffffffffffffffffffffffffffffffffffffffff1673ffffffffffffffffffffffffffffffffffffffff16815260200190815260200160002060009054906101000a900460ff1660ff1681526020017f000000000000000000000000000000000000000000000000000000000000000073ffffffffffffffffffffffffffffffffffffffff16635eb88d3d6040518163ffffffff1660e01b8152600401602060405180830381865afa158015610a88573d6000803e3d6000fd5b505050506040513d601f19601f82011682018060405250810190610aac9190616d53565b73ffffffffffffffffffffffffffffffffffffffff168152506040518663ffffffff1660e01b8152600401610ae5959493929190616e8f565b60006040518083038186803b158015610afd57600080fd5b505af4158015610b11573d6000803e3d6000fd5b505050505050505050565b600181565b8773ffffffffffffffffffffffffffffffffffffffff1663d505accf33308a888888886040518863ffffffff1660e01b8152600401610b669796959493929190616f10565b600060405180830381600087803b158015610b8057600080fd5b505af1158015610b94573d6000803e3d6000fd5b5050505073__$e9229d51100a3938db7663133e6dc5ffcb$__631913f16160346036603560008b73ffffffffffffffffffffffffffffffffffffffff1673ffffffffffffffffffffffffffffffffffffffff16815260200190815260200160002060405180608001604052808e73ffffffffffffffffffffffffffffffffffffffff1681526020018d81526020018c73ffffffffffffffffffffffffffffffffffffffff1681526020018b61ffff168152506040518563ffffffff1660e01b8152600401610c659493929190616fea565b60006040518083038186803b158015610c7d57600080fd5b505af4158015610c91573d6000803e3d6000fd5b505050505050505050505050565b7f000000000000000000000000000000000000000000000000000000000000000081565b6000603a60009054906101000a90046fffffffffffffffffffffffffffffffff16905090565b610cf1614013565b600073ffffffffffffffffffffffffffffffffffffffff168273ffffffffffffffffffffffffffffffffffffffff1614156040518060400160405280600281526020017f373700000000000000000000000000000000000000000000000000000000000081525090610d99576040517f08c379a0000000000000000000000000000000000000000000000000000000008152600401610d909190617079565b60405180910390fd5b506000603460008473ffffffffffffffffffffffffffffffffffffffff1673ffffffffffffffffffffffffffffffffffffffff16815260200190815260200160002060030160159054906101000a900461ffff1661ffff16141580610e5c57508173ffffffffffffffffffffffffffffffffffffffff166036600080815260200190815260200160002060009054906101000a900473ffffffffffffffffffffffffffffffffffffffff1673ffffffffffffffffffffffffffffffffffffffff16145b6040518060400160405280600281526020017f383200000000000000000000000000000000000000000000000000000000000081525090610ed3576040517f08c379a0000000000000000000000000000000000000000000000000000000008152600401610eca9190617079565b60405180910390fd5b5080603460008473ffffffffffffffffffffffffffffffffffffffff1673ffffffffffffffffffffffffffffffffffffffff16815260200190815260200160002060070160006101000a81548173ffffffffffffffffffffffffffffffffffffffff021916908373ffffffffffffffffffffffffffffffffffffffff1602179055505050565b6000603954905090565b73__$5a3f4c3d06a1537986751467788655cb94$__635d5dc3136034603660376038603560003373ffffffffffffffffffffffffffffffffffffffff1673ffffffffffffffffffffffffffffffffffffffff1681526020019081526020016000206040518060600160405280603b60089054906101000a900461ffff1661ffff1681526020017f000000000000000000000000000000000000000000000000000000000000000073ffffffffffffffffffffffffffffffffffffffff1663fca513a86040518163ffffffff1660e01b8152600401602060405180830381865afa158015611054573d6000803e3d6000fd5b505050506040513d601f19601f820116820180604052508101906110789190616d53565b73ffffffffffffffffffffffffffffffffffffffff1681526020018960ff168152506040518763ffffffff1660e01b81526004016110bb969594939291906170e4565b60006040518083038186803b1580156110d357600080fd5b505af41580156110e7573d6000803e3d6000fd5b5050505050565b600073__$f250b95a8491f1e84f401ed6d1693cd837$__6340e95de660346036603560003373ffffffffffffffffffffffffffffffffffffffff1673ffffffffffffffffffffffffffffffffffffffff1681526020019081526020016000206040518060a001604052808a73ffffffffffffffffffffffffffffffffffffffff16815260200189815260200188600281111561118d5761118c617146565b5b600281111561119f5761119e617146565b5b81526020013373ffffffffffffffffffffffffffffffffffffffff168152602001600115158152506040518563ffffffff1660e01b81526004016111e69493929190617225565b602060405180830381865af4158015611203573d6000803e3d6000fd5b505050506040513d601f19601f820116820180604052508101906112279190617280565b90509392505050565b611238614013565b8060398190555050565b61124a6155c5565b603460008373ffffffffffffffffffffffffffffffffffffffff1673ffffffffffffffffffffffffffffffffffffffff168152602001908152602001600020604051806101e00160405290816000820160405180602001604052908160008201548152505081526020016001820160009054906101000a90046fffffffffffffffffffffffffffffffff166fffffffffffffffffffffffffffffffff166fffffffffffffffffffffffffffffffff1681526020016001820160109054906101000a90046fffffffffffffffffffffffffffffffff166fffffffffffffffffffffffffffffffff166fffffffffffffffffffffffffffffffff1681526020016002820160009054906101000a90046fffffffffffffffffffffffffffffffff166fffffffffffffffffffffffffffffffff166fffffffffffffffffffffffffffffffff1681526020016002820160109054906101000a90046fffffffffffffffffffffffffffffffff166fffffffffffffffffffffffffffffffff166fffffffffffffffffffffffffffffffff1681526020016003820160009054906101000a90046fffffffffffffffffffffffffffffffff166fffffffffffffffffffffffffffffffff166fffffffffffffffffffffffffffffffff1681526020016003820160109054906101000a900464ffffffffff1664ffffffffff1664ffffffffff1681526020016003820160159054906101000a900461ffff1661ffff1661ffff1681526020016004820160009054906101000a900473ffffffffffffffffffffffffffffffffffffffff1673ffffffffffffffffffffffffffffffffffffffff1673ffffffffffffffffffffffffffffffffffffffff1681526020016005820160009054906101000a900473ffffffffffffffffffffffffffffffffffffffff1673ffffffffffffffffffffffffffffffffffffffff1673ffffffffffffffffffffffffffffffffffffffff1681526020016006820160009054906101000a900473ffffffffffffffffffffffffffffffffffffffff1673ffffffffffffffffffffffffffffffffffffffff1673ffffffffffffffffffffffffffffffffffffffff1681526020016007820160009054906101000a900473ffffffffffffffffffffffffffffffffffffffff1673ffffffffffffffffffffffffffffffffffffffff1673ffffffffffffffffffffffffffffffffffffffff1681526020016008820160009054906101000a90046fffffffffffffffffffffffffffffffff166fffffffffffffffffffffffffffffffff166fffffffffffffffffffffffffffffffff1681526020016008820160109054906101000a90046fffffffffffffffffffffffffffffffff166fffffffffffffffffffffffffffffffff166fffffffffffffffffffffffffffffffff1681526020016009820160009054906101000a90046fffffffffffffffffffffffffffffffff166fffffffffffffffffffffffffffffffff166fffffffffffffffffffffffffffffffff16815250509050919050565b60006116f4603460008473ffffffffffffffffffffffffffffffffffffffff1673ffffffffffffffffffffffffffffffffffffffff16815260200190815260200160002061414a565b9050919050565b60006040518060e001604052808873ffffffffffffffffffffffffffffffffffffffff1681526020018773ffffffffffffffffffffffffffffffffffffffff16815260200186815260200185858080601f016020809104026020016040519081016040528093929190818152602001838380828437600081840152601f19601f8201169050808301925050505050505081526020018361ffff168152602001603a60109054906101000a90046fffffffffffffffffffffffffffffffff166fffffffffffffffffffffffffffffffff168152602001603a60009054906101000a90046fffffffffffffffffffffffffffffffff166fffffffffffffffffffffffffffffffff16815250905073__$3cafd0a079d9bba6279cd462d6f4920444$__63a1fe0e8d603460008973ffffffffffffffffffffffffffffffffffffffff1673ffffffffffffffffffffffffffffffffffffffff168152602001908152602001600020836040518363ffffffff1660e01b815260040161187d9291906173a5565b60006040518083038186803b15801561189557600080fd5b505af41580156118a9573d6000803e3d6000fd5b5050505050505050505050565b6118be615734565b603560008373ffffffffffffffffffffffffffffffffffffffff1673ffffffffffffffffffffffffffffffffffffffff1681526020019081526020016000206040518060200160405290816000820154815250509050919050565b600073__$f250b95a8491f1e84f401ed6d1693cd837$__6340e95de660346036603560008773ffffffffffffffffffffffffffffffffffffffff1673ffffffffffffffffffffffffffffffffffffffff1681526020019081526020016000206040518060a001604052808b73ffffffffffffffffffffffffffffffffffffffff1681526020018a81526020018960028111156119b8576119b7617146565b5b60028111156119ca576119c9617146565b5b81526020018873ffffffffffffffffffffffffffffffffffffffff168152602001600015158152506040518563ffffffff1660e01b8152600401611a119493929190617225565b602060405180830381865af4158015611a2e573d6000803e3d6000fd5b505050506040513d601f19601f82011682018060405250810190611a529190617280565b9050949350505050565b73__$e9229d51100a3938db7663133e6dc5ffcb$__63bf697a26603460366037603560003373ffffffffffffffffffffffffffffffffffffffff1673ffffffffffffffffffffffffffffffffffffffff1681526020019081526020016000208787603b60089054906101000a900461ffff167f000000000000000000000000000000000000000000000000000000000000000073ffffffffffffffffffffffffffffffffffffffff1663fca513a86040518163ffffffff1660e01b8152600401602060405180830381865afa158015611b39573d6000803e3d6000fd5b505050506040513d601f19601f82011682018060405250810190611b5d9190616d53565b603860003373ffffffffffffffffffffffffffffffffffffffff1673ffffffffffffffffffffffffffffffffffffffff16815260200190815260200160002060009054906101000a900460ff166040518a63ffffffff1660e01b8152600401611bce99989796959493929190617433565b60006040518083038186803b158015611be657600080fd5b505af4158015611bfa573d6000803e3d6000fd5b505050505050565b73__$e9229d51100a3938db7663133e6dc5ffcb$__631913f16160346036603560008773ffffffffffffffffffffffffffffffffffffffff1673ffffffffffffffffffffffffffffffffffffffff16815260200190815260200160002060405180608001604052808a73ffffffffffffffffffffffffffffffffffffffff1681526020018981526020018873ffffffffffffffffffffffffffffffffffffffff1681526020018761ffff168152506040518563ffffffff1660e01b8152600401611ccf9493929190616fea565b60006040518083038186803b158015611ce757600080fd5b505af4158015611cfb573d6000803e3d6000fd5b5050505050505050565b611d0d614013565b73__$370dc613f77da7345d5cfe489611ba2a28$__639cf5702360346036846040518463ffffffff1660e01b8152600401611d4a939291906174c0565b60006040518083038186803b158015611d6257600080fd5b505af4158015611d76573d6000803e3d6000fd5b5050505050565b600073__$e9229d51100a3938db7663133e6dc5ffcb$__63186dea44603460366037603560003373ffffffffffffffffffffffffffffffffffffffff1673ffffffffffffffffffffffffffffffffffffffff1681526020019081526020016000206040518060c001604052808b73ffffffffffffffffffffffffffffffffffffffff1681526020018a81526020018973ffffffffffffffffffffffffffffffffffffffff168152602001603b60089054906101000a900461ffff1661ffff1681526020017f000000000000000000000000000000000000000000000000000000000000000073ffffffffffffffffffffffffffffffffffffffff1663fca513a86040518163ffffffff1660e01b8152600401602060405180830381865afa158015611eac573d6000803e3d6000fd5b505050506040513d601f19601f82011682018060405250810190611ed09190616d53565b73ffffffffffffffffffffffffffffffffffffffff168152602001603860003373ffffffffffffffffffffffffffffffffffffffff1673ffffffffffffffffffffffffffffffffffffffff16815260200190815260200160002060009054906101000a900460ff1660ff168152506040518663ffffffff1660e01b8152600401611f5e959493929190617572565b602060405180830381865af4158015611f7b573d6000803e3d6000fd5b505050506040513d601f19601f82011682018060405250810190611f9f9190617280565b90509392505050565b611fb0614238565b73__$d21c6b38ea0f6668c62b5e103f4ea47254$__630413c86f60346036603560008773ffffffffffffffffffffffffffffffffffffffff1673ffffffffffffffffffffffffffffffffffffffff168152602001908152602001600020888888886040518863ffffffff1660e01b815260040161203397969594939291906175e4565b60006040518083038186803b15801561204b57600080fd5b505af415801561205f573d6000803e3d6000fd5b5050505050505050565b6000603a60109054906101000a90046fffffffffffffffffffffffffffffffff16905090565b612097615747565b603760008360ff1660ff1681526020019081526020016000206040518060a00160405290816000820160009054906101000a900461ffff1661ffff1661ffff1681526020016000820160029054906101000a900461ffff1661ffff1661ffff1681526020016000820160049054906101000a900461ffff1661ffff1661ffff1681526020016000820160069054906101000a900473ffffffffffffffffffffffffffffffffffffffff1673ffffffffffffffffffffffffffffffffffffffff1673ffffffffffffffffffffffffffffffffffffffff16815260200160018201805461218190617682565b80601f01602080910402602001604051908101604052809291908181526020018280546121ad90617682565b80156121fa5780601f106121cf576101008083540402835291602001916121fa565b820191906000526020600020905b8154815290600101906020018083116121dd57829003601f168201915b5050505050815250509050919050565b612212614013565b73__$370dc613f77da7345d5cfe489611ba2a28$__6369fc1bdf603460366040518060e001604052808a73ffffffffffffffffffffffffffffffffffffffff1681526020018973ffffffffffffffffffffffffffffffffffffffff1681526020018873ffffffffffffffffffffffffffffffffffffffff1681526020018773ffffffffffffffffffffffffffffffffffffffff1681526020018673ffffffffffffffffffffffffffffffffffffffff168152602001603b60089054906101000a900461ffff1661ffff1681526020016122e961400a565b61ffff168152506040518463ffffffff1660e01b815260040161230e93929190617742565b602060405180830381865af415801561232b573d6000803e3d6000fd5b505050506040513d601f19601f8201168201806040525081019061234f919061778f565b1561239057603b600881819054906101000a900461ffff1680929190612374906177eb565b91906101000a81548161ffff021916908361ffff160217905550505b5050505050565b73__$f250b95a8491f1e84f401ed6d1693cd837$__63eac4d703603460008573ffffffffffffffffffffffffffffffffffffffff1673ffffffffffffffffffffffffffffffffffffffff168152602001908152602001600020603560003373ffffffffffffffffffffffffffffffffffffffff1673ffffffffffffffffffffffffffffffffffffffff1681526020019081526020016000208585600281111561244357612442617146565b5b6040518563ffffffff1660e01b81526004016124629493929190617825565b60006040518083038186803b15801561247a57600080fd5b505af415801561248e573d6000803e3d6000fd5b505050505050565b73__$370dc613f77da7345d5cfe489611ba2a28$__6348c2ca8c603484846040518463ffffffff1660e01b81526004016124d29392919061791e565b60006040518083038186803b1580156124ea57600080fd5b505af41580156124fe573d6000803e3d6000fd5b505050505050565b73__$f250b95a8491f1e84f401ed6d1693cd837$__631e6473f9603460366037603560008773ffffffffffffffffffffffffffffffffffffffff1673ffffffffffffffffffffffffffffffffffffffff1681526020019081526020016000206040518061018001604052808c73ffffffffffffffffffffffffffffffffffffffff1681526020013373ffffffffffffffffffffffffffffffffffffffff1681526020018873ffffffffffffffffffffffffffffffffffffffff1681526020018b81526020018a60028111156125de576125dd617146565b5b60028111156125f0576125ef617146565b5b81526020018961ffff168152602001600115158152602001603b60009054906101000a900467ffffffffffffffff1667ffffffffffffffff168152602001603b60089054906101000a900461ffff1661ffff1681526020017f000000000000000000000000000000000000000000000000000000000000000073ffffffffffffffffffffffffffffffffffffffff1663fca513a86040518163ffffffff1660e01b8152600401602060405180830381865afa1580156126b3573d6000803e3d6000fd5b505050506040513d601f19601f820116820180604052508101906126d79190616d53565b73ffffffffffffffffffffffffffffffffffffffff168152602001603860008a73ffffffffffffffffffffffffffffffffffffffff1673ffffffffffffffffffffffffffffffffffffffff16815260200190815260200160002060009054906101000a900460ff1660ff1681526020017f000000000000000000000000000000000000000000000000000000000000000073ffffffffffffffffffffffffffffffffffffffff16635eb88d3d6040518163ffffffff1660e01b8152600401602060405180830381865afa1580156127b2573d6000803e3d6000fd5b505050506040513d601f19601f820116820180604052508101906127d69190616d53565b73ffffffffffffffffffffffffffffffffffffffff168152506040518663ffffffff1660e01b815260040161280f959493929190617a46565b60006040518083038186803b15801561282757600080fd5b505af415801561283b573d6000803e3d6000fd5b505050505050505050565b6000604051806101c001604052808d73ffffffffffffffffffffffffffffffffffffffff1681526020018c8c80806020026020016040519081016040528093929190818152602001838360200280828437600081840152601f19601f8201169050808301925050505050505081526020018a8a80806020026020016040519081016040528093929190818152602001838360200280828437600081840152601f19601f820116905080830192505050505050508152602001888880806020026020016040519081016040528093929190818152602001838360200280828437600081840152601f19601f8201169050808301925050505050505081526020018673ffffffffffffffffffffffffffffffffffffffff16815260200185858080601f016020809104026020016040519081016040528093929190818152602001838380828437600081840152601f19601f8201169050808301925050505050505081526020018361ffff168152602001603a60109054906101000a90046fffffffffffffffffffffffffffffffff166fffffffffffffffffffffffffffffffff168152602001603a60009054906101000a90046fffffffffffffffffffffffffffffffff166fffffffffffffffffffffffffffffffff168152602001603b60009054906101000a900467ffffffffffffffff1667ffffffffffffffff168152602001603b60089054906101000a900461ffff1661ffff1681526020017f000000000000000000000000000000000000000000000000000000000000000073ffffffffffffffffffffffffffffffffffffffff168152602001603860008873ffffffffffffffffffffffffffffffffffffffff1673ffffffffffffffffffffffffffffffffffffffff16815260200190815260200160002060009054906101000a900460ff1660ff1681526020017f000000000000000000000000000000000000000000000000000000000000000073ffffffffffffffffffffffffffffffffffffffff1663707cd7166040518163ffffffff1660e01b8152600401602060405180830381865afa158015612b5d573d6000803e3d6000fd5b505050506040513d601f19601f82011682018060405250810190612b819190616d53565b73ffffffffffffffffffffffffffffffffffffffff1663fa50f297336040518263ffffffff1660e01b8152600401612bb99190617a9a565b602060405180830381865afa158015612bd6573d6000803e3d6000fd5b505050506040513d601f19601f82011682018060405250810190612bfa919061778f565b1515815250905073__$3cafd0a079d9bba6279cd462d6f4920444$__632e7263ea603460366037603560008b73ffffffffffffffffffffffffffffffffffffffff1673ffffffffffffffffffffffffffffffffffffffff168152602001908152602001600020866040518663ffffffff1660e01b8152600401612c81959493929190617d16565b60006040518083038186803b158015612c9957600080fd5b505af4158015612cad573d6000803e3d6000fd5b50505050505050505050505050505050565b612cc7614013565b81603a60006101000a8154816fffffffffffffffffffffffffffffffff02191690836fffffffffffffffffffffffffffffffff16021790555080603a60106101000a8154816fffffffffffffffffffffffffffffffff02191690836fffffffffffffffffffffffffffffffff1602179055505050565b600080600080600080612eeb6034603660376040518060a00160405280603560008e73ffffffffffffffffffffffffffffffffffffffff1673ffffffffffffffffffffffffffffffffffffffff1681526020019081526020016000206040518060200160405290816000820154815250508152602001603b60089054906101000a900461ffff1661ffff1681526020018c73ffffffffffffffffffffffffffffffffffffffff1681526020017f000000000000000000000000000000000000000000000000000000000000000073ffffffffffffffffffffffffffffffffffffffff1663fca513a86040518163ffffffff1660e01b8152600401602060405180830381865afa158015612e54573d6000803e3d6000fd5b505050506040513d601f19601f82011682018060405250810190612e789190616d53565b73ffffffffffffffffffffffffffffffffffffffff168152602001603860008e73ffffffffffffffffffffffffffffffffffffffff1673ffffffffffffffffffffffffffffffffffffffff16815260200190815260200160002060009054906101000a900460ff1660ff168152506143ba565b50809550819750829650839950849a505050505050612f0b86868461499d565b935091939550919395565b612f1e615798565b603460008373ffffffffffffffffffffffffffffffffffffffff1673ffffffffffffffffffffffffffffffffffffffff1681526020019081526020016000206000016040518060200160405290816000820154815250509050919050565b6000612f866149e1565b9050600160009054906101000a900460ff1680612fa75750612fa66149ea565b5b80612fb3575060005481115b612ff2576040517f08c379a0000000000000000000000000000000000000000000000000000000008152600401612fe990617de2565b60405180910390fd5b6000600160009054906101000a900460ff16159050801561302f5760018060006101000a81548160ff021916908315150217905550816000819055505b7f000000000000000000000000000000000000000000000000000000000000000073ffffffffffffffffffffffffffffffffffffffff168373ffffffffffffffffffffffffffffffffffffffff16146040518060400160405280600281526020017f3132000000000000000000000000000000000000000000000000000000000000815250906130f5576040517f08c379a00000000000000000000000000000000000000000000000000000000081526004016130ec9190617079565b60405180910390fd5b506109c4603b60006101000a81548167ffffffffffffffff021916908367ffffffffffffffff1602179055506009603a60006101000a8154816fffffffffffffffffffffffffffffffff02191690836fffffffffffffffffffffffffffffffff1602179055506000603a60106101000a8154816fffffffffffffffffffffffffffffffff02191690836fffffffffffffffffffffffffffffffff16021790555080156131b7576000600160006101000a81548160ff0219169083151502179055505b505050565b73__$f250b95a8491f1e84f401ed6d1693cd837$__636973f744603460008573ffffffffffffffffffffffffffffffffffffffff1673ffffffffffffffffffffffffffffffffffffffff16815260200190815260200160002084846040518463ffffffff1660e01b815260040161323593929190617e02565b60006040518083038186803b15801561324d57600080fd5b505af4158015613261573d6000803e3d6000fd5b505050505050565b6132716149fb565b73__$370dc613f77da7345d5cfe489611ba2a28$__6387b322b28484846040518463ffffffff1660e01b81526004016132ac93929190617e39565b60006040518083038186803b1580156132c457600080fd5b505af41580156132d8573d6000803e3d6000fd5b50505050505050565b600061332a603460008473ffffffffffffffffffffffffffffffffffffffff1673ffffffffffffffffffffffffffffffffffffffff168152602001908152602001600020614b7d565b9050919050565b60606000603b60089054906101000a900461ffff1661ffff1690506000808267ffffffffffffffff81111561336957613368616934565b5b6040519080825280602002602001820160405280156133975781602001602082028036833780820191505090505b50905060005b838110156134bf57600073ffffffffffffffffffffffffffffffffffffffff166036600083815260200190815260200160002060009054906101000a900473ffffffffffffffffffffffffffffffffffffffff1673ffffffffffffffffffffffffffffffffffffffff161461349d576036600082815260200190815260200160002060009054906101000a900473ffffffffffffffffffffffffffffffffffffffff1682848361344d9190617e70565b8151811061345e5761345d617ea4565b5b602002602001019073ffffffffffffffffffffffffffffffffffffffff16908173ffffffffffffffffffffffffffffffffffffffff16815250506134ac565b82806134a890617ed3565b9350505b80806134b790617ed3565b91505061339d565b50818303815280935050505090565b6134d6614013565b60008260ff1614156040518060400160405280600281526020017f313600000000000000000000000000000000000000000000000000000000000081525090613555576040517f08c379a000000000000000000000000000000000000000000000000000000000815260040161354c9190617079565b60405180910390fd5b5080603760008460ff1660ff16815260200190815260200160002060008201518160000160006101000a81548161ffff021916908361ffff16021790555060208201518160000160026101000a81548161ffff021916908361ffff16021790555060408201518160000160046101000a81548161ffff021916908361ffff16021790555060608201518160000160066101000a81548173ffffffffffffffffffffffffffffffffffffffff021916908373ffffffffffffffffffffffffffffffffffffffff160217905550608082015181600101908051906020019061363c9291906157ab565b509050505050565b603460008773ffffffffffffffffffffffffffffffffffffffff1673ffffffffffffffffffffffffffffffffffffffff16815260200190815260200160002060040160009054906101000a900473ffffffffffffffffffffffffffffffffffffffff1673ffffffffffffffffffffffffffffffffffffffff163373ffffffffffffffffffffffffffffffffffffffff16146040518060400160405280600281526020017f31310000000000000000000000000000000000000000000000000000000000008152509061374c576040517f08c379a00000000000000000000000000000000000000000000000000000000081526004016137439190617079565b60405180910390fd5b5073__$e9229d51100a3938db7663133e6dc5ffcb$__638a5dadd160346036603760356040518061012001604052808d73ffffffffffffffffffffffffffffffffffffffff1681526020018c73ffffffffffffffffffffffffffffffffffffffff1681526020018b73ffffffffffffffffffffffffffffffffffffffff1681526020018a8152602001898152602001888152602001603b60089054906101000a900461ffff1661ffff1681526020017f000000000000000000000000000000000000000000000000000000000000000073ffffffffffffffffffffffffffffffffffffffff1663fca513a86040518163ffffffff1660e01b8152600401602060405180830381865afa158015613866573d6000803e3d6000fd5b505050506040513d601f19601f8201168201806040525081019061388a9190616d53565b73ffffffffffffffffffffffffffffffffffffffff168152602001603860008e73ffffffffffffffffffffffffffffffffffffffff1673ffffffffffffffffffffffffffffffffffffffff16815260200190815260200160002060009054906101000a900460ff1660ff168152506040518663ffffffff1660e01b8152600401613918959493929190617fd3565b60006040518083038186803b15801561393057600080fd5b505af4158015613944573d6000803e3d6000fd5b50505050505050505050565b613958614238565b73__$d21c6b38ea0f6668c62b5e103f4ea47254$__638e743248603460008673ffffffffffffffffffffffffffffffffffffffff1673ffffffffffffffffffffffffffffffffffffffff1681526020019081526020016000208585856039546040518663ffffffff1660e01b81526004016139d7959493929190618027565b60006040518083038186803b1580156139ef57600080fd5b505af4158015613a03573d6000803e3d6000fd5b50505050505050565b613a14614013565b73__$370dc613f77da7345d5cfe489611ba2a28$__631e3b41456034836040518363ffffffff1660e01b8152600401613a4e92919061807a565b60006040518083038186803b158015613a6657600080fd5b505af4158015613a7a573d6000803e3d6000fd5b5050505050565b6000603b60009054906101000a900467ffffffffffffffff1667ffffffffffffffff16905090565b73__$e9229d51100a3938db7663133e6dc5ffcb$__631913f16160346036603560008773ffffffffffffffffffffffffffffffffffffffff1673ffffffffffffffffffffffffffffffffffffffff16815260200190815260200160002060405180608001604052808a73ffffffffffffffffffffffffffffffffffffffff1681526020018981526020018873ffffffffffffffffffffffffffffffffffffffff1681526020018761ffff168152506040518563ffffffff1660e01b8152600401613b769493929190616fea565b60006040518083038186803b158015613b8e57600080fd5b505af4158015613ba2573d6000803e3d6000fd5b5050505050505050565b6000603860008373ffffffffffffffffffffffffffffffffffffffff1673ffffffffffffffffffffffffffffffffffffffff16815260200190815260200160002060009054906101000a900460ff1660ff169050919050565b60008873ffffffffffffffffffffffffffffffffffffffff1663d505accf33308b898989896040518863ffffffff1660e01b8152600401613c4c9796959493929190616f10565b600060405180830381600087803b158015613c6657600080fd5b505af1158015613c7a573d6000803e3d6000fd5b5050505060006040518060a001604052808b73ffffffffffffffffffffffffffffffffffffffff1681526020018a8152602001896002811115613cc057613cbf617146565b5b6002811115613cd257613cd1617146565b5b81526020018873ffffffffffffffffffffffffffffffffffffffff16815260200160001515815250905073__$f250b95a8491f1e84f401ed6d1693cd837$__6340e95de660346036603560008c73ffffffffffffffffffffffffffffffffffffffff1673ffffffffffffffffffffffffffffffffffffffff168152602001908152602001600020856040518563ffffffff1660e01b8152600401613d799493929190617225565b602060405180830381865af4158015613d96573d6000803e3d6000fd5b505050506040513d601f19601f82011682018060405250810190613dba9190617280565b91505098975050505050505050565b613dd1614013565b600073ffffffffffffffffffffffffffffffffffffffff168273ffffffffffffffffffffffffffffffffffffffff1614156040518060400160405280600281526020017f373700000000000000000000000000000000000000000000000000000000000081525090613e79576040517f08c379a0000000000000000000000000000000000000000000000000000000008152600401613e709190617079565b60405180910390fd5b506000603460008473ffffffffffffffffffffffffffffffffffffffff1673ffffffffffffffffffffffffffffffffffffffff16815260200190815260200160002060030160159054906101000a900461ffff1661ffff16141580613f3c57508173ffffffffffffffffffffffffffffffffffffffff166036600080815260200190815260200160002060009054906101000a900473ffffffffffffffffffffffffffffffffffffffff1673ffffffffffffffffffffffffffffffffffffffff16145b6040518060400160405280600281526020017f383200000000000000000000000000000000000000000000000000000000000081525090613fb3576040517f08c379a0000000000000000000000000000000000000000000000000000000008152600401613faa9190617079565b60405180910390fd5b5080603460008473ffffffffffffffffffffffffffffffffffffffff1673ffffffffffffffffffffffffffffffffffffffff1681526020019081526020016000206000018181614003919061817c565b9050505050565b60006080905090565b3373ffffffffffffffffffffffffffffffffffffffff167f000000000000000000000000000000000000000000000000000000000000000073ffffffffffffffffffffffffffffffffffffffff1663631adfca6040518163ffffffff1660e01b8152600401602060405180830381865afa158015614095573d6000803e3d6000fd5b505050506040513d601f19601f820116820180604052508101906140b99190616d53565b73ffffffffffffffffffffffffffffffffffffffff16146040518060400160405280600281526020017f313000000000000000000000000000000000000000000000000000000000000081525090614147576040517f08c379a000000000000000000000000000000000000000000000000000000000815260040161413e9190617079565b60405180910390fd5b50565b6000808260030160109054906101000a900464ffffffffff169050428164ffffffffff1614156141af578260020160009054906101000a90046fffffffffffffffffffffffffffffffff166fffffffffffffffffffffffffffffffff16915050614233565b61422f8360020160009054906101000a90046fffffffffffffffffffffffffffffffff166fffffffffffffffffffffffffffffffff166142218560020160109054906101000a90046fffffffffffffffffffffffffffffffff166fffffffffffffffffffffffffffffffff1684614c6b565b614c8090919063ffffffff16565b9150505b919050565b7f000000000000000000000000000000000000000000000000000000000000000073ffffffffffffffffffffffffffffffffffffffff1663707cd7166040518163ffffffff1660e01b8152600401602060405180830381865afa1580156142a3573d6000803e3d6000fd5b505050506040513d601f19601f820116820180604052508101906142c79190616d53565b73ffffffffffffffffffffffffffffffffffffffff1663726600ce336040518263ffffffff1660e01b81526004016142ff9190617a9a565b602060405180830381865afa15801561431c573d6000803e3d6000fd5b505050506040513d601f19601f82011682018060405250810190614340919061778f565b6040518060400160405280600181526020017f3600000000000000000000000000000000000000000000000000000000000000815250906143b7576040517f08c379a00000000000000000000000000000000000000000000000000000000081526004016143ae9190617079565b60405180910390fd5b50565b6000806000806000806143d08760000151614ccb565b1561440f576000806000807fffffffffffffffffffffffffffffffffffffffffffffffffffffffffffffffff6000955095509550955095509550614990565b614417615831565b6000886080015160ff161461446e5761444f8960008a6080015160ff1660ff1681526020019081526020016000208960600151614cdb565b836101a001846101c00185610180018381525083815250838152505050505b5b87602001518160c0015110156148785761449a8160c001518960000151614e0390919063ffffffff16565b6144b2578060c001805160010190818152505061446f565b8960008260c00151815260200190815260200160002060009054906101000a900473ffffffffffffffffffffffffffffffffffffffff1681610200019073ffffffffffffffffffffffffffffffffffffffff16908173ffffffffffffffffffffffffffffffffffffffff1681525050600073ffffffffffffffffffffffffffffffffffffffff1681610200015173ffffffffffffffffffffffffffffffffffffffff16141561456f578060c001805160010190818152505061446f565b60008b600083610200015173ffffffffffffffffffffffffffffffffffffffff1673ffffffffffffffffffffffffffffffffffffffff16815260200190815260200160002090506145d781600001604051806020016040529081600082015481525050614ea0565b909192509050856080018660a00187606001886101e00184815250848152508481525084815250505050508160600151600a0a8260200181815250506000826101800151141580156146345750816101e00151896080015160ff16145b6146c057886060015173ffffffffffffffffffffffffffffffffffffffff1663b3596f078361020001516040518263ffffffff1660e01b815260040161467a9190617a9a565b602060405180830381865afa158015614697573d6000803e3d6000fd5b505050506040513d601f19601f820116820180604052508101906146bb9190617280565b6146c7565b8161018001515b82600001818152505060008260a00151141580156146fc57506146fb8260c001518a60000151614fb490919063ffffffff16565b5b156148115761471989604001518284600001518560200151615053565b82604001818152505081604001518261010001818151614739919061818a565b91508181525050614756896080015160ff16836101e0015161513d565b8261024001901515908115158152505060008260800151146147ba5781610240015161478657816080015161478d565b816101a001515b826040015161479c91906181e0565b82610140018181516147ae919061818a565b915081815250506147cd565b6001826102200190151590811515815250505b8161024001516147e1578160a001516147e8565b816101c001515b82604001516147f791906181e0565b8261016001818151614809919061818a565b915081815250505b61482c8260c001518a6000015161515690919063ffffffff16565b1561486357614849896040015182846000015185602001516151f2565b826101200181815161485b919061818a565b915081815250505b8160c00180516001019081815250505061446f565b6000816101000151141561488d5760006148a9565b806101000151816101400151816148a7576148a661823a565b5b045b81610140018181525050600081610100015114156148c85760006148e4565b806101000151816101600151816148e2576148e161823a565b5b045b816101600181815250506000816101200151146149345761492f81610120015161492183610160015184610100015161539090919063ffffffff16565b6153bd90919063ffffffff16565b614956565b7fffffffffffffffffffffffffffffffffffffffffffffffffffffffffffffffff5b8160e00181815250508061010001518161012001518261014001518361016001518460e00151856102200151965096509650965096509650505b9499939850945094509450565b6000806149b3838661539090919063ffffffff16565b9050838110156149c75760009150506149da565b83816149d39190617e70565b9050809150505b9392505050565b60006001905090565b600080303b90506000811491505090565b7f000000000000000000000000000000000000000000000000000000000000000073ffffffffffffffffffffffffffffffffffffffff1663707cd7166040518163ffffffff1660e01b8152600401602060405180830381865afa158015614a66573d6000803e3d6000fd5b505050506040513d601f19601f82011682018060405250810190614a8a9190616d53565b73ffffffffffffffffffffffffffffffffffffffff16637be53ca1336040518263ffffffff1660e01b8152600401614ac29190617a9a565b602060405180830381865afa158015614adf573d6000803e3d6000fd5b505050506040513d601f19601f82011682018060405250810190614b03919061778f565b6040518060400160405280600181526020017f310000000000000000000000000000000000000000000000000000000000000081525090614b7a576040517f08c379a0000000000000000000000000000000000000000000000000000000008152600401614b719190617079565b60405180910390fd5b50565b6000808260030160109054906101000a900464ffffffffff169050428164ffffffffff161415614be2578260010160009054906101000a90046fffffffffffffffffffffffffffffffff166fffffffffffffffffffffffffffffffff16915050614c66565b614c628360010160009054906101000a90046fffffffffffffffffffffffffffffffff166fffffffffffffffffffffffffffffffff16614c548560010160109054906101000a90046fffffffffffffffffffffffffffffffff166fffffffffffffffffffffffffffffffff16846153fc565b614c8090919063ffffffff16565b9150505b919050565b6000614c78838342615457565b905092915050565b6000816b019d971e4fe8401e740000006000190304831115821517614ca457600080fd5b6b033b2e3c9fd0803ce80000006b019d971e4fe8401e740000008385020104905092915050565b6000808260000151149050919050565b6000806000806000905060008660000160069054906101000a900473ffffffffffffffffffffffffffffffffffffffff169050600073ffffffffffffffffffffffffffffffffffffffff168173ffffffffffffffffffffffffffffffffffffffff1614614dbf578573ffffffffffffffffffffffffffffffffffffffff1663b3596f07826040518263ffffffff1660e01b8152600401614d7b9190617a9a565b602060405180830381865afa158015614d98573d6000803e3d6000fd5b505050506040513d601f19601f82011682018060405250810190614dbc9190617280565b91505b8660000160009054906101000a900461ffff168760000160029054906101000a900461ffff16838261ffff1692508161ffff16915094509450945050509250925092565b6000608061ffff1682106040518060400160405280600281526020017f373400000000000000000000000000000000000000000000000000000000000081525090614e84576040517f08c379a0000000000000000000000000000000000000000000000000000000008152600401614e7b9190617079565b60405180910390fd5b5060006003600184901b8560000151901c161415905092915050565b6000806000806000806000876000015190507fffffffffffffffffffffffffffffffffffffffffffffffffffffffffffff000019811660107fffffffffffffffffffffffffffffffffffffffffffffffffffffffff0000ffff198316901c60207fffffffffffffffffffffffffffffffffffffffffffffffffffff0000ffffffff198416901c60307fffffffffffffffffffffffffffffffffffffffffffffffffff00ffffffffffff198516901c60407fffffffffffffffffffffffffffffffffffffffffffff0000ffffffffffffffff198616901c60a87fffffffffffffffffffff00ffffffffffffffffffffffffffffffffffffffffff198716901c9650965096509650965096505091939550919395565b6000608061ffff1682106040518060400160405280600281526020017f373400000000000000000000000000000000000000000000000000000000000081525090615035576040517f08c379a000000000000000000000000000000000000000000000000000000000815260040161502c9190617079565b60405180910390fd5b506000600180600185901b018560000151901c161415905092915050565b60008061505f85614b7d565b9050600084615114838860040160009054906101000a900473ffffffffffffffffffffffffffffffffffffffff1673ffffffffffffffffffffffffffffffffffffffff16631da24f3e8b6040518263ffffffff1660e01b81526004016150c59190617a9a565b602060405180830381865afa1580156150e2573d6000803e3d6000fd5b505050506040513d601f19601f820116820180604052508101906151069190617280565b614c8090919063ffffffff16565b61511e91906181e0565b90508381816151305761512f61823a565b5b0492505050949350505050565b600080831415801561514e57508282145b905092915050565b6000608061ffff1682106040518060400160405280600281526020017f3734000000000000000000000000000000000000000000000000000000000000815250906151d7576040517f08c379a00000000000000000000000000000000000000000000000000000000081526004016151ce9190617079565b60405180910390fd5b50600060018084901b8560000151901c161415905092915050565b6000808460060160009054906101000a900473ffffffffffffffffffffffffffffffffffffffff1673ffffffffffffffffffffffffffffffffffffffff16631da24f3e876040518263ffffffff1660e01b81526004016152529190617a9a565b602060405180830381865afa15801561526f573d6000803e3d6000fd5b505050506040513d601f19601f820116820180604052508101906152939190617280565b9050600081146152bb576152b86152a98661414a565b82614c8090919063ffffffff16565b90505b8460050160009054906101000a900473ffffffffffffffffffffffffffffffffffffffff1673ffffffffffffffffffffffffffffffffffffffff166370a08231876040518263ffffffff1660e01b81526004016153189190617a9a565b602060405180830381865afa158015615335573d6000803e3d6000fd5b505050506040513d601f19601f820116820180604052508101906153599190617280565b81615364919061818a565b9050808461537291906181e0565b90508281816153845761538361823a565b5b04915050949350505050565b60008161138860001903048311158215176153aa57600080fd5b6127106113888385020104905092915050565b6000670de0b6b3a764000060028304600019030483111515821517156153e257600080fd5b8160028304670de0b6b3a764000085020104905092915050565b6000808264ffffffffff16426154129190617e70565b8461541d91906181e0565b90506301e1338081816154335761543261823a565b5b049050806b033b2e3c9fd0803ce800000061544e919061818a565b91505092915050565b6000808364ffffffffff168361546d9190617e70565b9050600081141561548d576b033b2e3c9fd0803ce80000009150506155be565b600080600080600185039350600285116154a85760006154ad565b600285035b92506301e1338080026154c98a8b614c8090919063ffffffff16565b816154d7576154d661823a565b5b0491506301e133806154f28a84614c8090919063ffffffff16565b81615500576154ff61823a565b5b049050600082858761551291906181e0565b61551c91906181e0565b90506002818161552f5761552e61823a565b5b04905060008285878961554291906181e0565b61554c91906181e0565b61555691906181e0565b9050600681816155695761556861823a565b5b04905080826301e13380898e61557f91906181e0565b6155899190618269565b6b033b2e3c9fd0803ce80000006155a0919061818a565b6155aa919061818a565b6155b4919061818a565b9750505050505050505b9392505050565b604051806101e001604052806155d9615798565b815260200160006fffffffffffffffffffffffffffffffff16815260200160006fffffffffffffffffffffffffffffffff16815260200160006fffffffffffffffffffffffffffffffff16815260200160006fffffffffffffffffffffffffffffffff16815260200160006fffffffffffffffffffffffffffffffff168152602001600064ffffffffff168152602001600061ffff168152602001600073ffffffffffffffffffffffffffffffffffffffff168152602001600073ffffffffffffffffffffffffffffffffffffffff168152602001600073ffffffffffffffffffffffffffffffffffffffff168152602001600073ffffffffffffffffffffffffffffffffffffffff16815260200160006fffffffffffffffffffffffffffffffff16815260200160006fffffffffffffffffffffffffffffffff16815260200160006fffffffffffffffffffffffffffffffff1681525090565b6040518060200160405280600081525090565b6040518060a00160405280600061ffff168152602001600061ffff168152602001600061ffff168152602001600073ffffffffffffffffffffffffffffffffffffffff168152602001606081525090565b6040518060200160405280600081525090565b8280546157b790617682565b90600052602060002090601f0160209004810192826157d95760008555615820565b82601f106157f257805160ff1916838001178555615820565b82800160010185558215615820579182015b8281111561581f578251825591602001919060010190615804565b5b50905061582d91906158dd565b5090565b60405180610260016040528060008152602001600081526020016000815260200160008152602001600081526020016000815260200160008152602001600081526020016000815260200160008152602001600081526020016000815260200160008152602001600081526020016000815260200160008152602001600073ffffffffffffffffffffffffffffffffffffffff1681526020016000151581526020016000151581525090565b5b808211156158f65760008160009055506001016158de565b5090565b6000604051905090565b600080fd5b600080fd5b600073ffffffffffffffffffffffffffffffffffffffff82169050919050565b60006159398261590e565b9050919050565b6159498161592e565b811461595457600080fd5b50565b60008135905061596681615940565b92915050565b6000819050919050565b61597f8161596c565b811461598a57600080fd5b50565b60008135905061599c81615976565b92915050565b60008115159050919050565b6159b7816159a2565b81146159c257600080fd5b50565b6000813590506159d4816159ae565b92915050565b600080600080600060a086880312156159f6576159f5615904565b5b6000615a0488828901615957565b9550506020615a1588828901615957565b9450506040615a2688828901615957565b9350506060615a378882890161598d565b9250506080615a48888289016159c5565b9150509295509295909350565b615a5e8161596c565b82525050565b6000602082019050615a796000830184615a55565b92915050565b600061ffff82169050919050565b615a9681615a7f565b8114615aa157600080fd5b50565b600081359050615ab381615a8d565b92915050565b600060ff82169050919050565b615acf81615ab9565b8114615ada57600080fd5b50565b600081359050615aec81615ac6565b92915050565b6000819050919050565b615b0581615af2565b8114615b1057600080fd5b50565b600081359050615b2281615afc565b92915050565b600080600080600080600080610100898b031215615b4957615b48615904565b5b6000615b578b828c01615957565b9850506020615b688b828c0161598d565b9750506040615b798b828c01615957565b9650506060615b8a8b828c01615aa4565b9550506080615b9b8b828c0161598d565b94505060a0615bac8b828c01615add565b93505060c0615bbd8b828c01615b13565b92505060e0615bce8b828c01615b13565b9150509295985092959890939650565b6000819050919050565b6000615c03615bfe615bf98461590e565b615bde565b61590e565b9050919050565b6000615c1582615be8565b9050919050565b6000615c2782615c0a565b9050919050565b615c3781615c1c565b82525050565b6000602082019050615c526000830184615c2e565b92915050565b60006fffffffffffffffffffffffffffffffff82169050919050565b615c7d81615c58565b82525050565b6000602082019050615c986000830184615c74565b92915050565b60008060408385031215615cb557615cb4615904565b5b6000615cc385828601615957565b9250506020615cd485828601615957565b9150509250929050565b600060208284031215615cf457615cf3615904565b5b6000615d0284828501615add565b91505092915050565b600080600060608486031215615d2457615d23615904565b5b6000615d3286828701615957565b9350506020615d438682870161598d565b9250506040615d548682870161598d565b9150509250925092565b600060208284031215615d7457615d73615904565b5b6000615d828482850161598d565b91505092915050565b600060208284031215615da157615da0615904565b5b6000615daf84828501615957565b91505092915050565b615dc18161596c565b82525050565b602082016000820151615ddd6000850182615db8565b50505050565b615dec81615c58565b82525050565b600064ffffffffff82169050919050565b615e0c81615df2565b82525050565b615e1b81615a7f565b82525050565b615e2a8161592e565b82525050565b6101e082016000820151615e476000850182615dc7565b506020820151615e5a6020850182615de3565b506040820151615e6d6040850182615de3565b506060820151615e806060850182615de3565b506080820151615e936080850182615de3565b5060a0820151615ea660a0850182615de3565b5060c0820151615eb960c0850182615e03565b5060e0820151615ecc60e0850182615e12565b50610100820151615ee1610100850182615e21565b50610120820151615ef6610120850182615e21565b50610140820151615f0b610140850182615e21565b50610160820151615f20610160850182615e21565b50610180820151615f35610180850182615de3565b506101a0820151615f4a6101a0850182615de3565b506101c0820151615f5f6101c0850182615de3565b50505050565b60006101e082019050615f7b6000830184615e30565b92915050565b600080fd5b600080fd5b600080fd5b60008083601f840112615fa657615fa5615f81565b5b8235905067ffffffffffffffff811115615fc357615fc2615f86565b5b602083019150836001820283011115615fdf57615fde615f8b565b5b9250929050565b60008060008060008060a0878903121561600357616002615904565b5b600061601189828a01615957565b965050602061602289828a01615957565b955050604061603389828a0161598d565b945050606087013567ffffffffffffffff81111561605457616053615909565b5b61606089828a01615f90565b9350935050608061607389828a01615aa4565b9150509295509295509295565b6020820160008201516160966000850182615db8565b50505050565b60006020820190506160b16000830184616080565b92915050565b600080600080608085870312156160d1576160d0615904565b5b60006160df87828801615957565b94505060206160f08782880161598d565b93505060406161018782880161598d565b925050606061611287828801615957565b91505092959194509250565b6000806040838503121561613557616134615904565b5b600061614385828601615957565b9250506020616154858286016159c5565b9150509250929050565b6000806000806080858703121561617857616177615904565b5b600061618687828801615957565b94505060206161978782880161598d565b93505060406161a887828801615957565b92505060606161b987828801615aa4565b91505092959194509250565b6000806000606084860312156161de576161dd615904565b5b60006161ec86828701615957565b93505060206161fd8682870161598d565b925050604061620e86828701615957565b9150509250925092565b600081519050919050565b600082825260208201905092915050565b60005b83811015616252578082015181840152602081019050616237565b83811115616261576000848401525b50505050565b6000601f19601f8301169050919050565b600061628382616218565b61628d8185616223565b935061629d818560208601616234565b6162a681616267565b840191505092915050565b600060a0830160008301516162c96000860182615e12565b5060208301516162dc6020860182615e12565b5060408301516162ef6040860182615e12565b5060608301516163026060860182615e21565b506080830151848203608086015261631a8282616278565b9150508091505092915050565b6000602082019050818103600083015261634181846162b1565b905092915050565b600080600080600060a0868803121561636557616364615904565b5b600061637388828901615957565b955050602061638488828901615957565b945050604061639588828901615957565b93505060606163a688828901615957565b92505060806163b788828901615957565b9150509295509295909350565b600080604083850312156163db576163da615904565b5b60006163e985828601615957565b92505060206163fa8582860161598d565b9150509250929050565b60008083601f84011261641a57616419615f81565b5b8235905067ffffffffffffffff81111561643757616436615f86565b5b60208301915083602082028301111561645357616452615f8b565b5b9250929050565b6000806020838503121561647157616470615904565b5b600083013567ffffffffffffffff81111561648f5761648e615909565b5b61649b85828601616404565b92509250509250929050565b600080600080600060a086880312156164c3576164c2615904565b5b60006164d188828901615957565b95505060206164e28882890161598d565b94505060406164f38882890161598d565b935050606061650488828901615aa4565b925050608061651588828901615957565b9150509295509295909350565b60008083601f84011261653857616537615f81565b5b8235905067ffffffffffffffff81111561655557616554615f86565b5b60208301915083602082028301111561657157616570615f8b565b5b9250929050565b600080600080600080600080600080600060e08c8e03121561659d5761659c615904565b5b60006165ab8e828f01615957565b9b505060208c013567ffffffffffffffff8111156165cc576165cb615909565b5b6165d88e828f01616404565b9a509a505060408c013567ffffffffffffffff8111156165fb576165fa615909565b5b6166078e828f01616522565b985098505060608c013567ffffffffffffffff81111561662a57616629615909565b5b6166368e828f01616522565b965096505060806166498e828f01615957565b94505060a08c013567ffffffffffffffff81111561666a57616669615909565b5b6166768e828f01615f90565b935093505060c06166898e828f01615aa4565b9150509295989b509295989b9093969950565b6166a581615c58565b81146166b057600080fd5b50565b6000813590506166c28161669c565b92915050565b600080604083850312156166df576166de615904565b5b60006166ed858286016166b3565b92505060206166fe858286016166b3565b9150509250929050565b600060c08201905061671d6000830189615a55565b61672a6020830188615a55565b6167376040830187615a55565b6167446060830186615a55565b6167516080830185615a55565b61675e60a0830184615a55565b979650505050505050565b60208201600082015161677f6000850182615db8565b50505050565b600060208201905061679a6000830184616769565b92915050565b60006167ab8261592e565b9050919050565b6167bb816167a0565b81146167c657600080fd5b50565b6000813590506167d8816167b2565b92915050565b6000602082840312156167f4576167f3615904565b5b6000616802848285016167c9565b91505092915050565b60008060006060848603121561682457616823615904565b5b600061683286828701615957565b935050602061684386828701615957565b92505060406168548682870161598d565b9150509250925092565b600081519050919050565b600082825260208201905092915050565b6000819050602082019050919050565b60006168968383615e21565b60208301905092915050565b6000602082019050919050565b60006168ba8261685e565b6168c48185616869565b93506168cf8361687a565b8060005b838110156169005781516168e7888261688a565b97506168f2836168a2565b9250506001810190506168d3565b5085935050505092915050565b6000602082019050818103600083015261692781846168af565b905092915050565b600080fd5b7f4e487b7100000000000000000000000000000000000000000000000000000000600052604160045260246000fd5b61696c82616267565b810181811067ffffffffffffffff8211171561698b5761698a616934565b5b80604052505050565b600061699e6158fa565b90506169aa8282616963565b919050565b600080fd5b600080fd5b600067ffffffffffffffff8211156169d4576169d3616934565b5b6169dd82616267565b9050602081019050919050565b82818337600083830152505050565b6000616a0c616a07846169b9565b616994565b905082815260208101848484011115616a2857616a276169b4565b5b616a338482856169ea565b509392505050565b600082601f830112616a5057616a4f615f81565b5b8135616a608482602086016169f9565b91505092915050565b600060a08284031215616a7f57616a7e61692f565b5b616a8960a0616994565b90506000616a9984828501615aa4565b6000830152506020616aad84828501615aa4565b6020830152506040616ac184828501615aa4565b6040830152506060616ad584828501615957565b606083015250608082013567ffffffffffffffff811115616af957616af86169af565b5b616b0584828501616a3b565b60808301525092915050565b60008060408385031215616b2857616b27615904565b5b6000616b3685828601615add565b925050602083013567ffffffffffffffff811115616b5757616b56615909565b5b616b6385828601616a69565b9150509250929050565b60008060008060008060c08789031215616b8a57616b89615904565b5b6000616b9889828a01615957565b9650506020616ba989828a01615957565b9550506040616bba89828a01615957565b9450506060616bcb89828a0161598d565b9350506080616bdc89828a0161598d565b92505060a0616bed89828a0161598d565b9150509295509295509295565b600080600080600080600080610100898b031215616c1b57616c1a615904565b5b6000616c298b828c01615957565b9850506020616c3a8b828c0161598d565b9750506040616c4b8b828c0161598d565b9650506060616c5c8b828c01615957565b9550506080616c6d8b828c0161598d565b94505060a0616c7e8b828c01615add565b93505060c0616c8f8b828c01615b13565b92505060e0616ca08b828c01615b13565b9150509295985092959890939650565b600080fd5b600060208284031215616ccb57616cca616cb0565b5b81905092915050565b60008060408385031215616ceb57616cea615904565b5b6000616cf985828601615957565b9250506020616d0a85828601616cb5565b9150509250929050565b616d1d81615a7f565b82525050565b6000602082019050616d386000830184616d14565b92915050565b600081519050616d4d81615940565b92915050565b600060208284031215616d6957616d68615904565b5b6000616d7784828501616d3e565b91505092915050565b8082525050565b8082525050565b8082525050565b8082525050565b616da58161596c565b82525050565b616db48161592e565b82525050565b616dc3816159a2565b82525050565b616dd281615ab9565b82525050565b61012082016000820151616def6000850182616d9c565b506020820151616e026020850182616d9c565b506040820151616e156040850182616dab565b506060820151616e286060850182616dab565b506080820151616e3b6080850182616dab565b5060a0820151616e4e60a0850182616dba565b5060c0820151616e6160c0850182616dab565b5060e0820151616e7460e0850182616dc9565b50610100820151616e89610100850182616dab565b50505050565b60006101a082019050616ea56000830188616d80565b616eb26020830187616d87565b616ebf6040830186616d8e565b616ecc6060830185616d95565b616ed96080830184616dd8565b9695505050505050565b616eec8161592e565b82525050565b616efb81615ab9565b82525050565b616f0a81615af2565b82525050565b600060e082019050616f25600083018a616ee3565b616f326020830189616ee3565b616f3f6040830188615a55565b616f4c6060830187615a55565b616f596080830186616ef2565b616f6660a0830185616f01565b616f7360c0830184616f01565b98975050505050505050565b8082525050565b616f8f81615a7f565b82525050565b608082016000820151616fab6000850182616dab565b506020820151616fbe6020850182616d9c565b506040820151616fd16040850182616dab565b506060820151616fe46060850182616f86565b50505050565b600060e082019050616fff6000830187616d80565b61700c6020830186616d8e565b6170196040830185616f7f565b6170266060830184616f95565b95945050505050565b600082825260208201905092915050565b600061704b82616218565b617055818561702f565b9350617065818560208601616234565b61706e81616267565b840191505092915050565b600060208201905081810360008301526170938184617040565b905092915050565b8082525050565b6060820160008201516170b86000850182616d9c565b5060208201516170cb6020850182616dab565b5060408201516170de6040850182616dc9565b50505050565b6000610100820190506170fa6000830189616d80565b6171076020830188616d8e565b6171146040830187616d95565b617121606083018661709b565b61712e6080830185616f7f565b61713b60a08301846170a2565b979650505050505050565b7f4e487b7100000000000000000000000000000000000000000000000000000000600052602160045260246000fd5b6003811061718657617185617146565b5b50565b600081905061719782617175565b919050565b60006171a782617189565b9050919050565b6171b78161719c565b82525050565b60a0820160008201516171d36000850182616dab565b5060208201516171e66020850182616d9c565b5060408201516171f960408501826171ae565b50606082015161720c6060850182616dab565b50608082015161721f6080850182616dba565b50505050565b60006101008201905061723b6000830187616d80565b6172486020830186616d8e565b6172556040830185616f7f565b61726260608301846171bd565b95945050505050565b60008151905061727a81615976565b92915050565b60006020828403121561729657617295615904565b5b60006172a48482850161726b565b91505092915050565b8082525050565b600081519050919050565b600082825260208201905092915050565b60006172db826172b4565b6172e581856172bf565b93506172f5818560208601616234565b6172fe81616267565b840191505092915050565b600060e0830160008301516173216000860182616dab565b5060208301516173346020860182616dab565b5060408301516173476040860182616d9c565b506060830151848203606086015261735f82826172d0565b91505060808301516173746080860182616f86565b5060a083015161738760a0860182616d9c565b5060c083015161739a60c0860182616d9c565b508091505092915050565b60006040820190506173ba60008301856172ad565b81810360208301526173cc8184617309565b90509392505050565b6173de8161592e565b82525050565b6173ed816159a2565b82525050565b600061740e61740961740484615a7f565b615bde565b61596c565b9050919050565b61741e816173f3565b82525050565b61742d81615ab9565b82525050565b600061012082019050617449600083018c616d80565b617456602083018b616d8e565b617463604083018a616d95565b6174706060830189616f7f565b61747d60808301886173d5565b61748a60a08301876173e4565b61749760c0830186617415565b6174a460e08301856173d5565b6174b2610100830184617424565b9a9950505050505050505050565b60006060820190506174d56000830186616d80565b6174e26020830185616d8e565b6174ef60408301846173d5565b949350505050565b60c08201600082015161750d6000850182616dab565b5060208201516175206020850182616d9c565b5060408201516175336040850182616dab565b5060608201516175466060850182616d9c565b5060808201516175596080850182616dab565b5060a082015161756c60a0850182616dc9565b50505050565b6000610140820190506175886000830188616d80565b6175956020830187616d8e565b6175a26040830186616d95565b6175af6060830185616f7f565b6175bc60808301846174f7565b9695505050505050565b6175cf8161596c565b82525050565b6175de81615a7f565b82525050565b600060e0820190506175f9600083018a616d80565b6176066020830189616d8e565b6176136040830188616f7f565b61762060608301876173d5565b61762d60808301866175c6565b61763a60a08301856173d5565b61764760c08301846175d5565b98975050505050505050565b7f4e487b7100000000000000000000000000000000000000000000000000000000600052602260045260246000fd5b6000600282049050600182168061769a57607f821691505b602082108114156176ae576176ad617653565b5b50919050565b60e0820160008201516176ca6000850182616dab565b5060208201516176dd6020850182616dab565b5060408201516176f06040850182616dab565b5060608201516177036060850182616dab565b5060808201516177166080850182616dab565b5060a082015161772960a0850182616f86565b5060c082015161773c60c0850182616f86565b50505050565b6000610120820190506177586000830186616d80565b6177656020830185616d8e565b61777260408301846176b4565b949350505050565b600081519050617789816159ae565b92915050565b6000602082840312156177a5576177a4615904565b5b60006177b38482850161777a565b91505092915050565b7f4e487b7100000000000000000000000000000000000000000000000000000000600052601160045260246000fd5b60006177f682615a7f565b915061ffff82141561780b5761780a6177bc565b5b600182019050919050565b61781f8161719c565b82525050565b600060808201905061783a60008301876172ad565b6178476020830186616f7f565b61785460408301856173d5565b6178616060830184617816565b95945050505050565b600082825260208201905092915050565b6000819050919050565b60006178918383616dab565b60208301905092915050565b60006178ac6020840184615957565b905092915050565b6000602082019050919050565b60006178cd838561786a565b93506178d88261787b565b8060005b85811015617911576178ee828461789d565b6178f88882617885565b9750617903836178b4565b9250506001810190506178dc565b5085925050509392505050565b60006040820190506179336000830186616d80565b81810360208301526179468184866178c1565b9050949350505050565b610180820160008201516179676000850182616dab565b50602082015161797a6020850182616dab565b50604082015161798d6040850182616dab565b5060608201516179a06060850182616d9c565b5060808201516179b360808501826171ae565b5060a08201516179c660a0850182616f86565b5060c08201516179d960c0850182616dba565b5060e08201516179ec60e0850182616d9c565b50610100820151617a01610100850182616d9c565b50610120820151617a16610120850182616dab565b50610140820151617a2b610140850182616dc9565b50610160820151617a40610160850182616dab565b50505050565b600061020082019050617a5c6000830188616d80565b617a696020830187616d8e565b617a766040830186616d95565b617a836060830185616f7f565b617a906080830184617950565b9695505050505050565b6000602082019050617aaf6000830184616ee3565b92915050565b600082825260208201905092915050565b6000617ad18261685e565b617adb8185617ab5565b9350617ae68361687a565b8060005b83811015617b17578151617afe8882617885565b9750617b09836168a2565b925050600181019050617aea565b5085935050505092915050565b600081519050919050565b600082825260208201905092915050565b6000819050602082019050919050565b6000617b5c8383616d9c565b60208301905092915050565b6000602082019050919050565b6000617b8082617b24565b617b8a8185617b2f565b9350617b9583617b40565b8060005b83811015617bc6578151617bad8882617b50565b9750617bb883617b68565b925050600181019050617b99565b5085935050505092915050565b60006101c083016000830151617bec6000860182616dab565b5060208301518482036020860152617c048282617ac6565b91505060408301518482036040860152617c1e8282617b75565b91505060608301518482036060860152617c388282617b75565b9150506080830151617c4d6080860182616dab565b5060a083015184820360a0860152617c6582826172d0565b91505060c0830151617c7a60c0860182616f86565b5060e0830151617c8d60e0860182616d9c565b50610100830151617ca2610100860182616d9c565b50610120830151617cb7610120860182616d9c565b50610140830151617ccc610140860182616d9c565b50610160830151617ce1610160860182616dab565b50610180830151617cf6610180860182616dc9565b506101a0830151617d0b6101a0860182616dba565b508091505092915050565b600060a082019050617d2b6000830188616d80565b617d386020830187616d8e565b617d456040830186616d95565b617d526060830185616f7f565b8181036080830152617d648184617bd3565b90509695505050505050565b7f436f6e747261637420696e7374616e63652068617320616c726561647920626560008201527f656e20696e697469616c697a6564000000000000000000000000000000000000602082015250565b6000617dcc602e8361702f565b9150617dd782617d70565b604082019050919050565b60006020820190508181036000830152617dfb81617dbf565b9050919050565b6000606082019050617e1760008301866172ad565b617e2460208301856173d5565b617e3160408301846173d5565b949350505050565b6000606082019050617e4e60008301866173d5565b617e5b60208301856173d5565b617e6860408301846175c6565b949350505050565b6000617e7b8261596c565b9150617e868361596c565b925082821015617e9957617e986177bc565b5b828203905092915050565b7f4e487b7100000000000000000000000000000000000000000000000000000000600052603260045260246000fd5b6000617ede8261596c565b91507fffffffffffffffffffffffffffffffffffffffffffffffffffffffffffffffff821415617f1157617f106177bc565b5b600182019050919050565b61012082016000820151617f336000850182616dab565b506020820151617f466020850182616dab565b506040820151617f596040850182616dab565b506060820151617f6c6060850182616d9c565b506080820151617f7f6080850182616d9c565b5060a0820151617f9260a0850182616d9c565b5060c0820151617fa560c0850182616d9c565b5060e0820151617fb860e0850182616dab565b50610100820151617fcd610100850182616dc9565b50505050565b60006101a082019050617fe96000830188616d80565b617ff66020830187616d8e565b6180036040830186616d95565b6180106060830185616d87565b61801d6080830184617f1c565b9695505050505050565b600060a08201905061803c60008301886172ad565b61804960208301876173d5565b61805660408301866175c6565b61806360608301856175c6565b61807060808301846175c6565b9695505050505050565b600060408201905061808f6000830185616d80565b61809c60208301846173d5565b9392505050565b600081356180b081615976565b80915050919050565b60008160001b9050919050565b60007fffffffffffffffffffffffffffffffffffffffffffffffffffffffffffffffff6180f2846180b9565b9350801983169250808416831791505092915050565b600061812361811e6181198461596c565b615bde565b61596c565b9050919050565b6000819050919050565b61813d82618108565b6181506181498261812a565b83546180c6565b8255505050565b600081016000830180618169816180a3565b90506181758184618134565b5050505050565b6181868282618157565b5050565b60006181958261596c565b91506181a08361596c565b9250827fffffffffffffffffffffffffffffffffffffffffffffffffffffffffffffffff038211156181d5576181d46177bc565b5b828201905092915050565b60006181eb8261596c565b91506181f68361596c565b9250817fffffffffffffffffffffffffffffffffffffffffffffffffffffffffffffffff048311821515161561822f5761822e6177bc565b5b828202905092915050565b7f4e487b7100000000000000000000000000000000000000000000000000000000600052601260045260246000fd5b60006182748261596c565b915061827f8361596c565b92508261828f5761828e61823a565b5b82820490509291505056fea2646970667358221220ff1376c0d968d1b5a1e131d02c0845983090279533d4ed38c22a5d467e251edb64736f6c634300080a0033",
  "linkReferences": {
    "@aave/core-v3/contracts/protocol/libraries/logic/BorrowLogic.sol": {
      "BorrowLogic": [
        {
          "length": 20,
          "start": 4765
        },
        {
          "length": 20,
          "start": 6856
        },
        {
          "length": 20,
          "start": 9540
        },
        {
          "length": 20,
          "start": 9907
        },
        {
          "length": 20,
          "start": 13161
        },
        {
          "length": 20,
          "start": 16041
        }
      ]
    },
    "@aave/core-v3/contracts/protocol/libraries/logic/BridgeLogic.sol": {
      "BridgeLogic": [
        {
          "length": 20,
          "start": 8541
        },
        {
          "length": 20,
          "start": 15109
        }
      ]
    },
    "@aave/core-v3/contracts/protocol/libraries/logic/EModeLogic.sol": {
      "EModeLogic": [
        {
          "length": 20,
          "start": 4368
        }
      ]
    },
    "@aave/core-v3/contracts/protocol/libraries/logic/FlashLoanLogic.sol": {
      "FlashLoanLogic": [
        {
          "length": 20,
          "start": 6579
        },
        {
          "length": 20,
          "start": 11694
        }
      ]
    },
    "@aave/core-v3/contracts/protocol/libraries/logic/LiquidationLogic.sol": {
      "LiquidationLogic": [
        {
          "length": 20,
          "start": 2593
        }
      ]
    },
    "@aave/core-v3/contracts/protocol/libraries/logic/PoolLogic.sol": {
      "PoolLogic": [
        {
          "length": 20,
          "start": 7866
        },
        {
          "length": 20,
          "start": 9151
        },
        {
          "length": 20,
          "start": 9795
        },
        {
          "length": 20,
          "start": 13342
        },
        {
          "length": 20,
          "start": 15297
        }
      ]
    },
    "@aave/core-v3/contracts/protocol/libraries/logic/SupplyLogic.sol": {
      "SupplyLogic": [
        {
          "length": 20,
          "start": 3397
        },
        {
          "length": 20,
          "start": 7177
        },
        {
          "length": 20,
          "start": 7599
        },
        {
          "length": 20,
          "start": 7980
        },
        {
          "length": 20,
          "start": 14586
        },
        {
          "length": 20,
          "start": 15446
        }
      ]
    }
  },
  "deployedLinkReferences": {
    "@aave/core-v3/contracts/protocol/libraries/logic/BorrowLogic.sol": {
      "BorrowLogic": [
        {
          "length": 20,
          "start": 4338
        },
        {
          "length": 20,
          "start": 6429
        },
        {
          "length": 20,
          "start": 9113
        },
        {
          "length": 20,
          "start": 9480
        },
        {
          "length": 20,
          "start": 12734
        },
        {
          "length": 20,
          "start": 15614
        }
      ]
    },
    "@aave/core-v3/contracts/protocol/libraries/logic/BridgeLogic.sol": {
      "BridgeLogic": [
        {
          "length": 20,
          "start": 8114
        },
        {
          "length": 20,
          "start": 14682
        }
      ]
    },
    "@aave/core-v3/contracts/protocol/libraries/logic/EModeLogic.sol": {
      "EModeLogic": [
        {
          "length": 20,
          "start": 3941
        }
      ]
    },
    "@aave/core-v3/contracts/protocol/libraries/logic/FlashLoanLogic.sol": {
      "FlashLoanLogic": [
        {
          "length": 20,
          "start": 6152
        },
        {
          "length": 20,
          "start": 11267
        }
      ]
    },
    "@aave/core-v3/contracts/protocol/libraries/logic/LiquidationLogic.sol": {
      "LiquidationLogic": [
        {
          "length": 20,
          "start": 2166
        }
      ]
    },
    "@aave/core-v3/contracts/protocol/libraries/logic/PoolLogic.sol": {
      "PoolLogic": [
        {
          "length": 20,
          "start": 7439
        },
        {
          "length": 20,
          "start": 8724
        },
        {
          "length": 20,
          "start": 9368
        },
        {
          "length": 20,
          "start": 12915
        },
        {
          "length": 20,
          "start": 14870
        }
      ]
    },
    "@aave/core-v3/contracts/protocol/libraries/logic/SupplyLogic.sol": {
      "SupplyLogic": [
        {
          "length": 20,
          "start": 2970
        },
        {
          "length": 20,
          "start": 6750
        },
        {
          "length": 20,
          "start": 7172
        },
        {
          "length": 20,
          "start": 7553
        },
        {
          "length": 20,
          "start": 14159
        },
        {
          "length": 20,
          "start": 15019
        }
      ]
    }
  }
}