{
  "_format": "hh-sol-artifact-1",
  "contractName": "LiquidationLogic",
  "sourceName": "@aave/core-v3/contracts/protocol/libraries/logic/LiquidationLogic.sol",
  "abi": [
    {
      "anonymous": false,
      "inputs": [
        {
          "indexed": true,
          "internalType": "address",
          "name": "collateralAsset",
          "type": "address"
        },
        {
          "indexed": true,
          "internalType": "address",
          "name": "debtAsset",
          "type": "address"
        },
        {
          "indexed": true,
          "internalType": "address",
          "name": "user",
          "type": "address"
        },
        {
          "indexed": false,
          "internalType": "uint256",
          "name": "debtToCover",
          "type": "uint256"
        },
        {
          "indexed": false,
          "internalType": "uint256",
          "name": "liquidatedCollateralAmount",
          "type": "uint256"
        },
        {
          "indexed": false,
          "internalType": "address",
          "name": "liquidator",
          "type": "address"
        },
        {
          "indexed": false,
          "internalType": "bool",
          "name": "receiveAToken",
          "type": "bool"
        }
      ],
      "name": "LiquidationCall",
      "type": "event"
    },
    {
      "anonymous": false,
      "inputs": [
        {
          "indexed": true,
          "internalType": "address",
          "name": "reserve",
          "type": "address"
        },
        {
          "indexed": true,
          "internalType": "address",
          "name": "user",
          "type": "address"
        }
      ],
      "name": "ReserveUsedAsCollateralDisabled",
      "type": "event"
    },
    {
      "anonymous": false,
      "inputs": [
        {
          "indexed": true,
          "internalType": "address",
          "name": "reserve",
          "type": "address"
        },
        {
          "indexed": true,
          "internalType": "address",
          "name": "user",
          "type": "address"
        }
      ],
      "name": "ReserveUsedAsCollateralEnabled",
      "type": "event"
    },
    {
      "inputs": [],
      "name": "CLOSE_FACTOR_HF_THRESHOLD",
      "outputs": [
        {
          "internalType": "uint256",
          "name": "",
          "type": "uint256"
        }
      ],
      "stateMutability": "view",
      "type": "function"
    },
    {
      "inputs": [],
      "name": "MAX_LIQUIDATION_CLOSE_FACTOR",
      "outputs": [
        {
          "internalType": "uint256",
          "name": "",
          "type": "uint256"
        }
      ],
      "stateMutability": "view",
      "type": "function"
    }
  ],
  "bytecode": "0x615029610053600b82828239805160001a607314610046577f4e487b7100000000000000000000000000000000000000000000000000000000600052600060045260246000fd5b30600052607381538281f3fe730000000000000000000000000000000000000000301460806040526004361061004b5760003560e01c8063a18964a514610050578063bdcb2b8d1461006e578063d246754414610097575b600080fd5b6100586100b5565b60405161006591906141b5565b60405180910390f35b81801561007a57600080fd5b5061009560048036038101906100909190614523565b6100c1565b005b61009f610dfa565b6040516100ac91906141b5565b60405180910390f35b670d2f13f7789f000081565b6100c9613e40565b6000866000846040015173ffffffffffffffffffffffffffffffffffffffff1673ffffffffffffffffffffffffffffffffffffffff16815260200190815260200160002090506000876000856060015173ffffffffffffffffffffffffffffffffffffffff1673ffffffffffffffffffffffffffffffffffffffff16815260200190815260200160002090506000876000866080015173ffffffffffffffffffffffffffffffffffffffff1673ffffffffffffffffffffffffffffffffffffffff16815260200190815260200160002090506101a482610e00565b846101e001819052506101c5846101e00151836111d590919063ffffffff16565b6101d88560800151856101e001516111ed565b856020018660400182815250828152505050836040015184602001516101fe91906145ce565b8460600181815250508460c00151846101c0019073ffffffffffffffffffffffffffffffffffffffff16908173ffffffffffffffffffffffffffffffffffffffff16815250506102ca8988886040518060a001604052808660405180602001604052908160008201548152505081526020018a6000015181526020018a6080015173ffffffffffffffffffffffffffffffffffffffff1681526020018a60c0015173ffffffffffffffffffffffffffffffffffffffff1681526020018a60e0015160ff168152506112f9565b909192939450909192935090919250909150508461014001818152505061033b81846040518060800160405280886101e00151815260200188606001518152602001886101400151815260200189610100015173ffffffffffffffffffffffffffffffffffffffff168152506118dc565b8260040160009054906101000a900473ffffffffffffffffffffffffffffffffffffffff16846101a0019073ffffffffffffffffffffffffffffffffffffffff16908173ffffffffffffffffffffffffffffffffffffffff1681525050836101a0015173ffffffffffffffffffffffffffffffffffffffff166370a0823186608001516040518263ffffffff1660e01b81526004016103da9190614633565b602060405180830381865afa1580156103f7573d6000803e3d6000fd5b505050506040513d601f19601f8201168201806040525081019061041b9190614663565b846000018181525050670d2f13f7789f00008461014001511161044057612710610444565b6113885b8461018001818152505061046a8461018001518560600151611db490919063ffffffff16565b846080018181525050836080015185602001511161048c578460200151610492565b83608001515b8460a00181815250506104cc8560e0015160ff166104c785600001604051806020016040529081600082015481525050611de1565b611e16565b6104e1576104dc83600001611e2f565b610514565b8560008660e0015160ff1660ff16815260200190815260200160002060000160049054906101000a900461ffff1661ffff165b8461012001818152505061054d83856101e00151876040015188606001518860a0015189600001518a61012001518b6101c00151611e64565b8660c0018760e00188610160018381525083815250838152505050508360a001518460e001511015610588578360e001518460a00181815250505b8360a00151846060015114156105c5576105c48260030160159054906101000a900461ffff1661ffff166000836121b99092919063ffffffff16565b5b8360a0015184604001511061068357836101e00151610220015173ffffffffffffffffffffffffffffffffffffffff1663f5298aca86608001518660a00151876101e0015161014001516040518463ffffffff1660e01b815260040161062d9392919061469f565b6020604051808303816000875af115801561064c573d6000803e3d6000fd5b505050506040513d601f19601f820116820180604052508101906106709190614663565b846101e0015160200181815250506107f5565b600084604001511461073a57836101e00151610220015173ffffffffffffffffffffffffffffffffffffffff1663f5298aca86608001518660400151876101e0015161014001516040518463ffffffff1660e01b81526004016106e89392919061469f565b6020604051808303816000875af1158015610707573d6000803e3d6000fd5b505050506040513d601f19601f8201168201806040525081019061072b9190614663565b846101e0015160200181815250505b836101e00151610200015173ffffffffffffffffffffffffffffffffffffffff16639dc29fac866080015186604001518760a0015161077991906146d6565b6040518363ffffffff1660e01b815260040161079692919061470a565b60408051808303816000875af11580156107b4573d6000803e3d6000fd5b505050506040513d601f19601f820116820180604052508101906107d89190614733565b856101e0015160c001866101e0015160a001828152508281525050505b61081c846101e0015186606001518660a0015160008661227d90949392919063ffffffff16565b610832898883876101e001518860a0015161257d565b8460a0015115610a3757836101a0015173ffffffffffffffffffffffffffffffffffffffff166370a08231336040518263ffffffff1660e01b815260040161087a9190614633565b602060405180830381865afa158015610897573d6000803e3d6000fd5b505050506040513d601f19601f820116820180604052508101906108bb9190614663565b84610100018181525050836101a0015173ffffffffffffffffffffffffffffffffffffffff1663f866c3198660800151338760c001516040518463ffffffff1660e01b815260040161090f93929190614773565b600060405180830381600087803b15801561092957600080fd5b505af115801561093d573d6000803e3d6000fd5b5050505060008461010001511415610a325760008860003373ffffffffffffffffffffffffffffffffffffffff1673ffffffffffffffffffffffffffffffffffffffff16815260200190815260200160002090506109a18a89838960400151612840565b15610a30576109d28460030160159054906101000a900461ffff1661ffff1660018361291a9092919063ffffffff16565b3373ffffffffffffffffffffffffffffffffffffffff16866040015173ffffffffffffffffffffffffffffffffffffffff167e058a56ea94653cdf4f152d227ace22d4c00ad99e2a43f58cb7d9e3feb295f260405160405180910390a35b505b610afe565b6000610a4284610e00565b9050610a5781856111d590919063ffffffff16565b610a7981876040015160008860c001518861227d90949392919063ffffffff16565b846101a0015173ffffffffffffffffffffffffffffffffffffffff1663d7020d0a8760800151338860c001518561010001516040518563ffffffff1660e01b8152600401610aca94939291906147aa565b600060405180830381600087803b158015610ae457600080fd5b505af1158015610af8573d6000803e3d6000fd5b50505050505b600084610160015114610bfc57836101a0015173ffffffffffffffffffffffffffffffffffffffff1663f866c3198660800151866101a0015173ffffffffffffffffffffffffffffffffffffffff1663ae1673356040518163ffffffff1660e01b8152600401602060405180830381865afa158015610b81573d6000803e3d6000fd5b505050506040513d601f19601f82011682018060405250810190610ba59190614804565b8761016001516040518463ffffffff1660e01b8152600401610bc993929190614773565b600060405180830381600087803b158015610be357600080fd5b505af1158015610bf7573d6000803e3d6000fd5b505050505b83600001518460c001511415610c9b57610c388360030160159054906101000a900461ffff1661ffff1660008361291a9092919063ffffffff16565b846080015173ffffffffffffffffffffffffffffffffffffffff16856040015173ffffffffffffffffffffffffffffffffffffffff167f44c58d81365b66dd4b1a7f36c25aa97b8c71c361ee4937adc1a00000227db5dd60405160405180910390a35b610cda33856101e001516101e001518660a00151886060015173ffffffffffffffffffffffffffffffffffffffff166129e0909392919063ffffffff16565b836101e001516101e0015173ffffffffffffffffffffffffffffffffffffffff166388dd91a1338660a001516040518363ffffffff1660e01b8152600401610d2392919061470a565b600060405180830381600087803b158015610d3d57600080fd5b505af1158015610d51573d6000803e3d6000fd5b50505050846080015173ffffffffffffffffffffffffffffffffffffffff16856060015173ffffffffffffffffffffffffffffffffffffffff16866040015173ffffffffffffffffffffffffffffffffffffffff167fe413a321e8681d831f4dbccbca790d2952b56f977908e45be37335533e0052868760a001518860c00151338b60a00151604051610de79493929190614840565b60405180910390a4505050505050505050565b61271081565b610e08613eef565b610e10613eef565b82600001604051806020016040529081600082015481525050816101c00181905250610e40816101c00151612a99565b816101a00181815250508260010160009054906101000a90046fffffffffffffffffffffffffffffffff166fffffffffffffffffffffffffffffffff168160e00181815250508260020160009054906101000a90046fffffffffffffffffffffffffffffffff166fffffffffffffffffffffffffffffffff16816101200181815250508260010160109054906101000a90046fffffffffffffffffffffffffffffffff166fffffffffffffffffffffffffffffffff16816101600181815250508260020160109054906101000a90046fffffffffffffffffffffffffffffffff166fffffffffffffffffffffffffffffffff16816101800181815250508260040160009054906101000a900473ffffffffffffffffffffffffffffffffffffffff16816101e0019073ffffffffffffffffffffffffffffffffffffffff16908173ffffffffffffffffffffffffffffffffffffffff16815250508260050160009054906101000a900473ffffffffffffffffffffffffffffffffffffffff1681610200019073ffffffffffffffffffffffffffffffffffffffff16908173ffffffffffffffffffffffffffffffffffffffff16815250508260060160009054906101000a900473ffffffffffffffffffffffffffffffffffffffff1681610220019073ffffffffffffffffffffffffffffffffffffffff16908173ffffffffffffffffffffffffffffffffffffffff16815250508260030160109054906101000a900464ffffffffff1681610240019064ffffffffff16908164ffffffffff168152505080610220015173ffffffffffffffffffffffffffffffffffffffff1663b1bf962d6040518163ffffffff1660e01b8152600401602060405180830381865afa1580156110d4573d6000803e3d6000fd5b505050506040513d601f19601f820116820180604052508101906110f89190614663565b816020018181525081600001818152505080610200015173ffffffffffffffffffffffffffffffffffffffff1663797743386040518163ffffffff1660e01b8152600401608060405180830381865afa158015611159573d6000803e3d6000fd5b505050506040513d601f19601f8201168201806040525081019061117d91906148c2565b84604001856080018660600187610260018464ffffffffff1664ffffffffff168152508481525084815250848152505050505080608001518160c001818152505080606001518160a001818152505080915050919050565b6111df8282612ace565b6111e98282612c36565b5050565b60008082610200015173ffffffffffffffffffffffffffffffffffffffff166370a08231856040518263ffffffff1660e01b815260040161122e9190614633565b602060405180830381865afa15801561124b573d6000803e3d6000fd5b505050506040513d601f19601f8201168201806040525081019061126f9190614663565b83610220015173ffffffffffffffffffffffffffffffffffffffff166370a08231866040518263ffffffff1660e01b81526004016112ad9190614633565b602060405180830381865afa1580156112ca573d6000803e3d6000fd5b505050506040513d601f19601f820116820180604052508101906112ee9190614663565b915091509250929050565b60008060008060008061130f8760000151612de4565b1561134e576000806000807fffffffffffffffffffffffffffffffffffffffffffffffffffffffffffffffff60009550955095509550955095506118cf565b611356613fde565b6000886080015160ff16146113ad5761138e8960008a6080015160ff1660ff1681526020019081526020016000208960600151612df4565b836101a001846101c00185610180018381525083815250838152505050505b5b87602001518160c0015110156117b7576113d98160c001518960000151612f1c90919063ffffffff16565b6113f1578060c00180516001019081815250506113ae565b8960008260c00151815260200190815260200160002060009054906101000a900473ffffffffffffffffffffffffffffffffffffffff1681610200019073ffffffffffffffffffffffffffffffffffffffff16908173ffffffffffffffffffffffffffffffffffffffff1681525050600073ffffffffffffffffffffffffffffffffffffffff1681610200015173ffffffffffffffffffffffffffffffffffffffff1614156114ae578060c00180516001019081815250506113ae565b60008b600083610200015173ffffffffffffffffffffffffffffffffffffffff1673ffffffffffffffffffffffffffffffffffffffff168152602001908152602001600020905061151681600001604051806020016040529081600082015481525050612fb9565b909192509050856080018660a00187606001886101e00184815250848152508481525084815250505050508160600151600a0a8260200181815250506000826101800151141580156115735750816101e00151896080015160ff16145b6115ff57886060015173ffffffffffffffffffffffffffffffffffffffff1663b3596f078361020001516040518263ffffffff1660e01b81526004016115b99190614633565b602060405180830381865afa1580156115d6573d6000803e3d6000fd5b505050506040513d601f19601f820116820180604052508101906115fa9190614663565b611606565b8161018001515b82600001818152505060008260a001511415801561163b575061163a8260c001518a600001516130cd90919063ffffffff16565b5b15611750576116588960400151828460000151856020015161316c565b8260400181815250508160400151826101000181815161167891906145ce565b91508181525050611695896080015160ff16836101e00151611e16565b8261024001901515908115158152505060008260800151146116f9578161024001516116c55781608001516116cc565b816101a001515b82604001516116db9190614929565b82610140018181516116ed91906145ce565b9150818152505061170c565b6001826102200190151590811515815250505b816102400151611720578160a00151611727565b816101c001515b82604001516117369190614929565b826101600181815161174891906145ce565b915081815250505b61176b8260c001518a6000015161325690919063ffffffff16565b156117a257611788896040015182846000015185602001516132f2565b826101200181815161179a91906145ce565b915081815250505b8160c0018051600101908181525050506113ae565b600081610100015114156117cc5760006117e8565b806101000151816101400151816117e6576117e5614983565b5b045b8161014001818152505060008161010001511415611807576000611823565b8061010001518161016001518161182157611820614983565b5b045b816101600181815250506000816101200151146118735761186e816101200151611860836101600151846101000151611db490919063ffffffff16565b61349090919063ffffffff16565b611895565b7fffffffffffffffffffffffffffffffffffffffffffffffffffffffffffffffff5b8160e00181815250508061010001518161012001518261014001518361016001518460e00151856102200151965096509650965096509650505b9499939850945094509450565b6118e461408a565b611905836000016040518060200160405290816000820154815250506134cf565b909192509091509050826000018360200182151515158152508215151515815250505061193a82600001516101c001516134cf565b90919250909150905082604001836060018215151515815250821515151581525050508060000151801561196f575080604001515b6040518060400160405280600281526020017f3237000000000000000000000000000000000000000000000000000000000000815250906119e6576040517f08c379a00000000000000000000000000000000000000000000000000000000081526004016119dd9190614a3a565b60405180910390fd5b5080602001511580156119fb57508060600151155b6040518060400160405280600281526020017f323900000000000000000000000000000000000000000000000000000000000081525090611a72576040517f08c379a0000000000000000000000000000000000000000000000000000000008152600401611a699190614a3a565b60405180910390fd5b50600073ffffffffffffffffffffffffffffffffffffffff16826060015173ffffffffffffffffffffffffffffffffffffffff161480611abd5750670d2f13f7789f00008260400151105b80611b375750816060015173ffffffffffffffffffffffffffffffffffffffff16637a5d20ea6040518163ffffffff1660e01b8152600401602060405180830381865afa158015611b12573d6000803e3d6000fd5b505050506040513d601f19601f82011682018060405250810190611b369190614a71565b5b6040518060400160405280600281526020017f353900000000000000000000000000000000000000000000000000000000000081525090611bae576040517f08c379a0000000000000000000000000000000000000000000000000000000008152600401611ba59190614a3a565b60405180910390fd5b50670de0b6b3a76400008260400151106040518060400160405280600281526020017f343500000000000000000000000000000000000000000000000000000000000081525090611c35576040517f08c379a0000000000000000000000000000000000000000000000000000000008152600401611c2c9190614a3a565b60405180910390fd5b506000611c59846000016040518060200160405290816000820154815250506135bb565b14158015611ca15750611ca08360030160159054906101000a900461ffff1661ffff16856040518060200160405290816000820154815250506130cd90919063ffffffff16565b5b81608001901515908115158152505080608001516040518060400160405280600281526020017f343600000000000000000000000000000000000000000000000000000000000081525090611d2c576040517f08c379a0000000000000000000000000000000000000000000000000000000008152600401611d239190614a3a565b60405180910390fd5b506000826020015114156040518060400160405280600281526020017f343700000000000000000000000000000000000000000000000000000000000081525090611dad576040517f08c379a0000000000000000000000000000000000000000000000000000000008152600401611da49190614a3a565b60405180910390fd5b5050505050565b6000816113886000190304831115821517611dce57600080fd5b6127106113888385020104905092915050565b600060a87fffffffffffffffffffff00ffffffffffffffffffffffffffffffffffffffffff19836000015116901c9050919050565b6000808314158015611e2757508282145b905092915050565b600060207fffffffffffffffffffffffffffffffffffffffffffffffffffff0000ffffffff19836000015416901c9050919050565b6000806000611e716140c3565b8473ffffffffffffffffffffffffffffffffffffffff1663b3596f078b6040518263ffffffff1660e01b8152600401611eaa9190614633565b602060405180830381865afa158015611ec7573d6000803e3d6000fd5b505050506040513d601f19601f82011682018060405250810190611eeb9190614663565b8160000181815250508473ffffffffffffffffffffffffffffffffffffffff1663b3596f078a6040518263ffffffff1660e01b8152600401611f2d9190614633565b602060405180830381865afa158015611f4a573d6000803e3d6000fd5b505050506040513d601f19601f82011682018060405250810190611f6e9190614663565b816020018181525050611f988c6000016040518060200160405290816000820154815250506135f0565b8160c0018181525050611faf8b6101c001516135f0565b8160a00181815250508060c00151600a0a8160e00181815250508060a00151600a0a81610100018181525050611ffc8c600001604051806020016040529081600082015481525050613625565b81610160018181525050806101000151816000015161201b9190614929565b8160e001518983602001516120309190614929565b61203a9190614929565b6120449190614a9e565b816060018181525050612064868260600151611db490919063ffffffff16565b81604001818152505086816040015111156120e85786816101200181815250506120d9868260e00151836020015161209c9190614929565b83610100015184610120015185600001516120b79190614929565b6120c19190614929565b6120cb9190614a9e565b61365a90919063ffffffff16565b81610140018181525050612103565b80604001518161012001818152505087816101400181815250505b600081610160015114612195576121288682610120015161365a90919063ffffffff16565b81610120015161213891906146d6565b81608001818152505061215d8161016001518260800151611db490919063ffffffff16565b8161018001818152505080610180015181610120015161217d91906146d6565b816101400151826101800151935093509350506121ab565b8061012001518161014001516000935093509350505b985098509895505050505050565b608061ffff1682106040518060400160405280600281526020017f373400000000000000000000000000000000000000000000000000000000000081525090612238576040517f08c379a000000000000000000000000000000000000000000000000000000000815260040161222f9190614a3a565b60405180910390fd5b506000600183901b6001901b9050811561226357808460000160008282541792505081905550612277565b801984600001600082825416925050819055505b50505050565b61228561412b565b6122a1856101400151866020015161368d90919063ffffffff16565b8160600181815250508560070160009054906101000a900473ffffffffffffffffffffffffffffffffffffffff1673ffffffffffffffffffffffffffffffffffffffff1663a589870960405180610120016040528060006123068a6101c001516136d8565b1415612313576000612335565b8960080160109054906101000a90046fffffffffffffffffffffffffffffffff165b6fffffffffffffffffffffffffffffffff1681526020018681526020018581526020018860c001518152602001846060015181526020018860a001518152602001886101a0015181526020018773ffffffffffffffffffffffffffffffffffffffff168152602001886101e0015173ffffffffffffffffffffffffffffffffffffffff168152506040518263ffffffff1660e01b81526004016123d89190614ba4565b606060405180830381865afa1580156123f5573d6000803e3d6000fd5b505050506040513d601f19601f820116820180604052508101906124199190614bc0565b836000018460200185604001838152508381525083815250505050612441816000015161370d565b8660010160106101000a8154816fffffffffffffffffffffffffffffffff02191690836fffffffffffffffffffffffffffffffff160217905550612488816020015161370d565b8660030160006101000a8154816fffffffffffffffffffffffffffffffff02191690836fffffffffffffffffffffffffffffffff1602179055506124cf816040015161370d565b8660020160106101000a8154816fffffffffffffffffffffffffffffffff02191690836fffffffffffffffffffffffffffffffff1602179055508373ffffffffffffffffffffffffffffffffffffffff167f804c9b842b2748a22bb64b345453a3de7ca54a6ca45ce00d415894979e22897a8260000151836020015184604001518961010001518a610140015160405161256d959493929190614c13565b60405180910390a2505050505050565b6000806125aa87878760405180602001604052908160008201548152505061376c9092919063ffffffff16565b509150915081156128375760008760008373ffffffffffffffffffffffffffffffffffffffff1673ffffffffffffffffffffffffffffffffffffffff16815260200190815260200160002060090160009054906101000a90046fffffffffffffffffffffffffffffffff1690506000612652600261262c886101c001516135f0565b61263691906146d6565b600a6126429190614d99565b8661264d9190614a9e565b61370d565b9050806fffffffffffffffffffffffffffffffff16826fffffffffffffffffffffffffffffffff161161274c5760008960008573ffffffffffffffffffffffffffffffffffffffff1673ffffffffffffffffffffffffffffffffffffffff16815260200190815260200160002060090160006101000a8154816fffffffffffffffffffffffffffffffff02191690836fffffffffffffffffffffffffffffffff1602179055508273ffffffffffffffffffffffffffffffffffffffff167faef84d3b40895fd58c561f3998000f0583abb992a52fbdc99ace8e8de4d676a5600060405161273f9190614e29565b60405180910390a2612834565b6000818361275a9190614e60565b8a60008673ffffffffffffffffffffffffffffffffffffffff1673ffffffffffffffffffffffffffffffffffffffff16815260200190815260200160002060090160006101000a8154816fffffffffffffffffffffffffffffffff02191690836fffffffffffffffffffffffffffffffff16021790556fffffffffffffffffffffffffffffffff1690508373ffffffffffffffffffffffffffffffffffffffff167faef84d3b40895fd58c561f3998000f0583abb992a52fbdc99ace8e8de4d676a58260405161282a9190614e94565b60405180910390a2505b50505b50505050505050565b600061286083604051806020016040529081600082015481525050613858565b61286d5760019050612912565b600061289986868660405180602001604052908160008201548152505061376c9092919063ffffffff16565b5050905060008660008573ffffffffffffffffffffffffffffffffffffffff1673ffffffffffffffffffffffffffffffffffffffff16815260200190815260200160002060000160405180602001604052908160008201548152505090508115801561290d5750600061290b8261388b565b145b925050505b949350505050565b608061ffff1682106040518060400160405280600281526020017f373400000000000000000000000000000000000000000000000000000000000081525090612999576040517f08c379a00000000000000000000000000000000000000000000000000000000081526004016129909190614a3a565b60405180910390fd5b50600060018084901b016001901b905081156129c6578084600001600082825417925050819055506129da565b801984600001600082825416925050819055505b50505050565b60006323b872dd60e01b905060405181815273ffffffffffffffffffffffffffffffffffffffff8516600482015273ffffffffffffffffffffffffffffffffffffffff8416602482015282604482015260008060648360008a5af1612a49573d6000803e3d6000fd5b50612a53856138c0565b612a92576040517f08c379a0000000000000000000000000000000000000000000000000000000008152600401612a8990614efb565b60405180910390fd5b5050505050565b600060407fffffffffffffffffffffffffffffffffffffffffffff0000ffffffffffffffff19836000015116901c9050919050565b8060e001518161010001818152505080610120015181610140018181525050600081610160015114612c0d576000612b1082610160015183610240015161398d565b9050612b298260e001518261368d90919063ffffffff16565b82610100018181525050612b4182610100015161370d565b8360010160006101000a8154816fffffffffffffffffffffffffffffffff02191690836fffffffffffffffffffffffffffffffff1602179055506000826000015114612c0b576000612b9d8361018001518461024001516139e8565b9050612bb78361012001518261368d90919063ffffffff16565b83610140018181525050612bcf83610140015161370d565b8460020160006101000a8154816fffffffffffffffffffffffffffffffff02191690836fffffffffffffffffffffffffffffffff160217905550505b505b428260030160106101000a81548164ffffffffff021916908364ffffffffff1602179055505050565b612c3e614153565b6000826101a001511415612c525750612de0565b612c6e826101200151836000015161368d90919063ffffffff16565b816020018181525050612c93826101400151836000015161368d90919063ffffffff16565b816040018181525050612cbc826060015183610260015184610240015164ffffffffff166139fd565b816060018181525050612ce08160600151836040015161368d90919063ffffffff16565b8160000181815250508060000151816020015183608001518360400151612d0791906145ce565b612d1191906146d6565b612d1b91906146d6565b816080018181525050612d40826101a001518260800151611db490919063ffffffff16565b8160a001818152505060008160a0015114612dde57612d79612d748361010001518360a00151613b6b90919063ffffffff16565b61370d565b8360080160008282829054906101000a90046fffffffffffffffffffffffffffffffff16612da79190614f1b565b92506101000a8154816fffffffffffffffffffffffffffffffff02191690836fffffffffffffffffffffffffffffffff1602179055505b505b5050565b6000808260000151149050919050565b6000806000806000905060008660000160069054906101000a900473ffffffffffffffffffffffffffffffffffffffff169050600073ffffffffffffffffffffffffffffffffffffffff168173ffffffffffffffffffffffffffffffffffffffff1614612ed8578573ffffffffffffffffffffffffffffffffffffffff1663b3596f07826040518263ffffffff1660e01b8152600401612e949190614633565b602060405180830381865afa158015612eb1573d6000803e3d6000fd5b505050506040513d601f19601f82011682018060405250810190612ed59190614663565b91505b8660000160009054906101000a900461ffff168760000160029054906101000a900461ffff16838261ffff1692508161ffff16915094509450945050509250925092565b6000608061ffff1682106040518060400160405280600281526020017f373400000000000000000000000000000000000000000000000000000000000081525090612f9d576040517f08c379a0000000000000000000000000000000000000000000000000000000008152600401612f949190614a3a565b60405180910390fd5b5060006003600184901b8560000151901c161415905092915050565b6000806000806000806000876000015190507fffffffffffffffffffffffffffffffffffffffffffffffffffffffffffff000019811660107fffffffffffffffffffffffffffffffffffffffffffffffffffffffff0000ffff198316901c60207fffffffffffffffffffffffffffffffffffffffffffffffffffff0000ffffffff198416901c60307fffffffffffffffffffffffffffffffffffffffffffffffffff00ffffffffffff198516901c60407fffffffffffffffffffffffffffffffffffffffffffff0000ffffffffffffffff198616901c60a87fffffffffffffffffffff00ffffffffffffffffffffffffffffffffffffffffff198716901c9650965096509650965096505091939550919395565b6000608061ffff1682106040518060400160405280600281526020017f37340000000000000000000000000000000000000000000000000000000000008152509061314e576040517f08c379a00000000000000000000000000000000000000000000000000000000081526004016131459190614a3a565b60405180910390fd5b506000600180600185901b018560000151901c161415905092915050565b60008061317885613bb2565b905060008461322d838860040160009054906101000a900473ffffffffffffffffffffffffffffffffffffffff1673ffffffffffffffffffffffffffffffffffffffff16631da24f3e8b6040518263ffffffff1660e01b81526004016131de9190614633565b602060405180830381865afa1580156131fb573d6000803e3d6000fd5b505050506040513d601f19601f8201168201806040525081019061321f9190614663565b61368d90919063ffffffff16565b6132379190614929565b905083818161324957613248614983565b5b0492505050949350505050565b6000608061ffff1682106040518060400160405280600281526020017f3734000000000000000000000000000000000000000000000000000000000000815250906132d7576040517f08c379a00000000000000000000000000000000000000000000000000000000081526004016132ce9190614a3a565b60405180910390fd5b50600060018084901b8560000151901c161415905092915050565b6000808460060160009054906101000a900473ffffffffffffffffffffffffffffffffffffffff1673ffffffffffffffffffffffffffffffffffffffff16631da24f3e876040518263ffffffff1660e01b81526004016133529190614633565b602060405180830381865afa15801561336f573d6000803e3d6000fd5b505050506040513d601f19601f820116820180604052508101906133939190614663565b9050600081146133bb576133b86133a986613ca0565b8261368d90919063ffffffff16565b90505b8460050160009054906101000a900473ffffffffffffffffffffffffffffffffffffffff1673ffffffffffffffffffffffffffffffffffffffff166370a08231876040518263ffffffff1660e01b81526004016134189190614633565b602060405180830381865afa158015613435573d6000803e3d6000fd5b505050506040513d601f19601f820116820180604052508101906134599190614663565b8161346491906145ce565b905080846134729190614929565b905082818161348457613483614983565b5b04915050949350505050565b6000670de0b6b3a764000060028304600019030483111515821517156134b557600080fd5b8160028304670de0b6b3a764000085020104905092915050565b6000806000806000808660000151905060007ffffffffffffffffffffffffffffffffffffffffffffffffffeffffffffffffff198216141560007ffffffffffffffffffffffffffffffffffffffffffffffffffdffffffffffffff198316141560007ffffffffffffffffffffffffffffffffffffffffffffffffffbffffffffffffff198416141560007ffffffffffffffffffffffffffffffffffffffffffffffffff7ffffffffffffff198516141560007fffffffffffffffffffffffffffffffffffffffffffffffffefffffffffffffff1986161415955095509550955095505091939590929450565b600060107fffffffffffffffffffffffffffffffffffffffffffffffffffffffff0000ffff19836000015116901c9050919050565b600060307fffffffffffffffffffffffffffffffffffffffffffffffffff00ffffffffffff19836000015116901c9050919050565b600060987fffffffffffffffffffffff0000ffffffffffffffffffffffffffffffffffffff19836000015116901c9050919050565b6000612710600283046000190304831115158215171561367957600080fd5b816002830461271085020104905092915050565b6000816b019d971e4fe8401e7400000060001903048311158215176136b157600080fd5b6b033b2e3c9fd0803ce80000006b019d971e4fe8401e740000008385020104905092915050565b600060b07ffffffffffff000000000ffffffffffffffffffffffffffffffffffffffffffff19836000015116901c9050919050565b60006fffffffffffffffffffffffffffffffff8016821115613764576040517f08c379a000000000000000000000000000000000000000000000000000000000815260040161375b90614fd3565b60405180910390fd5b819050919050565b600080600061377a86613d8e565b1561384357600061378a87613de1565b9050600085600083815260200190815260200160002060009054906101000a900473ffffffffffffffffffffffffffffffffffffffff16905060006138238860008473ffffffffffffffffffffffffffffffffffffffff1673ffffffffffffffffffffffffffffffffffffffff16815260200190815260200160002060000160405180602001604052908160008201548152505061388b565b90506000811461383f576001828295509550955050505061384f565b5050505b60008060009250925092505b93509350939050565b6000807faaaaaaaaaaaaaaaaaaaaaaaaaaaaaaaaaaaaaaaaaaaaaaaaaaaaaaaaaaaaaaaa83600001511614159050919050565b600060d47ff0000000000fffffffffffffffffffffffffffffffffffffffffffffffffffff19836000015116901c9050919050565b60006138fe565b7f08c379a0000000000000000000000000000000000000000000000000000000006000526020600452806024528160445260646000fd5b3d6000811461393f576020811461397a5761393a7f475076323a206d616c666f726d6564207472616e7366657220726573756c7400601f6138c7565b613987565b823b613971576139707f475076323a206e6f74206120636f6e747261637400000000000000000000000060146138c7565b5b60019150613987565b3d6000803e600051151591505b50919050565b6000808264ffffffffff16426139a391906146d6565b846139ae9190614929565b90506301e1338081816139c4576139c3614983565b5b049050806b033b2e3c9fd0803ce80000006139df91906145ce565b91505092915050565b60006139f58383426139fd565b905092915050565b6000808364ffffffffff1683613a1391906146d6565b90506000811415613a33576b033b2e3c9fd0803ce8000000915050613b64565b60008060008060018503935060028511613a4e576000613a53565b600285035b92506301e133808002613a6f8a8b61368d90919063ffffffff16565b81613a7d57613a7c614983565b5b0491506301e13380613a988a8461368d90919063ffffffff16565b81613aa657613aa5614983565b5b0490506000828587613ab89190614929565b613ac29190614929565b905060028181613ad557613ad4614983565b5b049050600082858789613ae89190614929565b613af29190614929565b613afc9190614929565b905060068181613b0f57613b0e614983565b5b04905080826301e13380898e613b259190614929565b613b2f9190614a9e565b6b033b2e3c9fd0803ce8000000613b4691906145ce565b613b5091906145ce565b613b5a91906145ce565b9750505050505050505b9392505050565b60006b033b2e3c9fd0803ce80000006002830460001903048311151582151715613b9457600080fd5b81600283046b033b2e3c9fd0803ce800000085020104905092915050565b6000808260030160109054906101000a900464ffffffffff169050428164ffffffffff161415613c17578260010160009054906101000a90046fffffffffffffffffffffffffffffffff166fffffffffffffffffffffffffffffffff16915050613c9b565b613c978360010160009054906101000a90046fffffffffffffffffffffffffffffffff166fffffffffffffffffffffffffffffffff16613c898560010160109054906101000a90046fffffffffffffffffffffffffffffffff166fffffffffffffffffffffffffffffffff168461398d565b61368d90919063ffffffff16565b9150505b919050565b6000808260030160109054906101000a900464ffffffffff169050428164ffffffffff161415613d05578260020160009054906101000a90046fffffffffffffffffffffffffffffffff166fffffffffffffffffffffffffffffffff16915050613d89565b613d858360020160009054906101000a90046fffffffffffffffffffffffffffffffff166fffffffffffffffffffffffffffffffff16613d778560020160109054906101000a90046fffffffffffffffffffffffffffffffff166fffffffffffffffffffffffffffffffff16846139e8565b61368d90919063ffffffff16565b9150505b919050565b6000807faaaaaaaaaaaaaaaaaaaaaaaaaaaaaaaaaaaaaaaaaaaaaaaaaaaaaaaaaaaaaaaa836000015116905060008114158015613dd957506000600182613dd591906146d6565b8216145b915050919050565b6000807faaaaaaaaaaaaaaaaaaaaaaaaaaaaaaaaaaaaaaaaaaaaaaaaaaaaaaaaaaaaaaaa8360000151169050600060018203198216905060005b6000600283901c92508214613e3557600181019050613e1b565b809350505050919050565b60405180610200016040528060008152602001600081526020016000815260200160008152602001600081526020016000815260200160008152602001600081526020016000815260200160008152602001600081526020016000815260200160008152602001600073ffffffffffffffffffffffffffffffffffffffff168152602001600073ffffffffffffffffffffffffffffffffffffffff168152602001613ee9613eef565b81525090565b6040518061028001604052806000815260200160008152602001600081526020016000815260200160008152602001600081526020016000815260200160008152602001600081526020016000815260200160008152602001600081526020016000815260200160008152602001613f65614189565b8152602001600073ffffffffffffffffffffffffffffffffffffffff168152602001600073ffffffffffffffffffffffffffffffffffffffff168152602001600073ffffffffffffffffffffffffffffffffffffffff168152602001600064ffffffffff168152602001600064ffffffffff1681525090565b60405180610260016040528060008152602001600081526020016000815260200160008152602001600081526020016000815260200160008152602001600081526020016000815260200160008152602001600081526020016000815260200160008152602001600081526020016000815260200160008152602001600073ffffffffffffffffffffffffffffffffffffffff1681526020016000151581526020016000151581525090565b6040518060a001604052806000151581526020016000151581526020016000151581526020016000151581526020016000151581525090565b604051806101a00160405280600081526020016000815260200160008152602001600081526020016000815260200160008152602001600081526020016000815260200160008152602001600081526020016000815260200160008152602001600081525090565b6040518060800160405280600081526020016000815260200160008152602001600081525090565b6040518060c001604052806000815260200160008152602001600081526020016000815260200160008152602001600081525090565b6040518060200160405280600081525090565b6000819050919050565b6141af8161419c565b82525050565b60006020820190506141ca60008301846141a6565b92915050565b6000604051905090565b600080fd5b6000819050919050565b6141f2816141df565b81146141fd57600080fd5b50565b60008135905061420f816141e9565b92915050565b6000819050919050565b61422881614215565b811461423357600080fd5b50565b6000813590506142458161421f565b92915050565b6000819050919050565b61425e8161424b565b811461426957600080fd5b50565b60008135905061427b81614255565b92915050565b6000819050919050565b61429481614281565b811461429f57600080fd5b50565b6000813590506142b18161428b565b92915050565b600080fd5b6000601f19601f8301169050919050565b7f4e487b7100000000000000000000000000000000000000000000000000000000600052604160045260246000fd5b614305826142bc565b810181811067ffffffffffffffff82111715614324576143236142cd565b5b80604052505050565b60006143376141d0565b905061434382826142fc565b919050565b6143518161419c565b811461435c57600080fd5b50565b60008135905061436e81614348565b92915050565b600073ffffffffffffffffffffffffffffffffffffffff82169050919050565b600061439f82614374565b9050919050565b6143af81614394565b81146143ba57600080fd5b50565b6000813590506143cc816143a6565b92915050565b60008115159050919050565b6143e7816143d2565b81146143f257600080fd5b50565b600081359050614404816143de565b92915050565b600060ff82169050919050565b6144208161440a565b811461442b57600080fd5b50565b60008135905061443d81614417565b92915050565b6000610120828403121561445a576144596142b7565b5b61446561012061432d565b905060006144758482850161435f565b60008301525060206144898482850161435f565b602083015250604061449d848285016143bd565b60408301525060606144b1848285016143bd565b60608301525060806144c5848285016143bd565b60808301525060a06144d9848285016143f5565b60a08301525060c06144ed848285016143bd565b60c08301525060e06145018482850161442e565b60e083015250610100614516848285016143bd565b6101008301525092915050565b60008060008060006101a086880312156145405761453f6141da565b5b600061454e88828901614200565b955050602061455f88828901614236565b94505060406145708882890161426c565b9350506060614581888289016142a2565b925050608061459288828901614443565b9150509295509295909350565b7f4e487b7100000000000000000000000000000000000000000000000000000000600052601160045260246000fd5b60006145d98261419c565b91506145e48361419c565b9250827fffffffffffffffffffffffffffffffffffffffffffffffffffffffffffffffff038211156146195761461861459f565b5b828201905092915050565b61462d81614394565b82525050565b60006020820190506146486000830184614624565b92915050565b60008151905061465d81614348565b92915050565b600060208284031215614679576146786141da565b5b60006146878482850161464e565b91505092915050565b6146998161419c565b82525050565b60006060820190506146b46000830186614624565b6146c16020830185614690565b6146ce6040830184614690565b949350505050565b60006146e18261419c565b91506146ec8361419c565b9250828210156146ff576146fe61459f565b5b828203905092915050565b600060408201905061471f6000830185614624565b61472c6020830184614690565b9392505050565b6000806040838503121561474a576147496141da565b5b60006147588582860161464e565b92505060206147698582860161464e565b9150509250929050565b60006060820190506147886000830186614624565b6147956020830185614624565b6147a26040830184614690565b949350505050565b60006080820190506147bf6000830187614624565b6147cc6020830186614624565b6147d96040830185614690565b6147e66060830184614690565b95945050505050565b6000815190506147fe816143a6565b92915050565b60006020828403121561481a576148196141da565b5b6000614828848285016147ef565b91505092915050565b61483a816143d2565b82525050565b60006080820190506148556000830187614690565b6148626020830186614690565b61486f6040830185614624565b61487c6060830184614831565b95945050505050565b600064ffffffffff82169050919050565b61489f81614885565b81146148aa57600080fd5b50565b6000815190506148bc81614896565b92915050565b600080600080608085870312156148dc576148db6141da565b5b60006148ea8782880161464e565b94505060206148fb8782880161464e565b935050604061490c8782880161464e565b925050606061491d878288016148ad565b91505092959194509250565b60006149348261419c565b915061493f8361419c565b9250817fffffffffffffffffffffffffffffffffffffffffffffffffffffffffffffffff04831182151516156149785761497761459f565b5b828202905092915050565b7f4e487b7100000000000000000000000000000000000000000000000000000000600052601260045260246000fd5b600081519050919050565b600082825260208201905092915050565b60005b838110156149ec5780820151818401526020810190506149d1565b838111156149fb576000848401525b50505050565b6000614a0c826149b2565b614a1681856149bd565b9350614a268185602086016149ce565b614a2f816142bc565b840191505092915050565b60006020820190508181036000830152614a548184614a01565b905092915050565b600081519050614a6b816143de565b92915050565b600060208284031215614a8757614a866141da565b5b6000614a9584828501614a5c565b91505092915050565b6000614aa98261419c565b9150614ab48361419c565b925082614ac457614ac3614983565b5b828204905092915050565b614ad88161419c565b82525050565b614ae781614394565b82525050565b61012082016000820151614b046000850182614acf565b506020820151614b176020850182614acf565b506040820151614b2a6040850182614acf565b506060820151614b3d6060850182614acf565b506080820151614b506080850182614acf565b5060a0820151614b6360a0850182614acf565b5060c0820151614b7660c0850182614acf565b5060e0820151614b8960e0850182614ade565b50610100820151614b9e610100850182614ade565b50505050565b600061012082019050614bba6000830184614aed565b92915050565b600080600060608486031215614bd957614bd86141da565b5b6000614be78682870161464e565b9350506020614bf88682870161464e565b9250506040614c098682870161464e565b9150509250925092565b600060a082019050614c286000830188614690565b614c356020830187614690565b614c426040830186614690565b614c4f6060830185614690565b614c5c6080830184614690565b9695505050505050565b60008160011c9050919050565b6000808291508390505b6001851115614cbd57808604811115614c9957614c9861459f565b5b6001851615614ca85780820291505b8081029050614cb685614c66565b9450614c7d565b94509492505050565b600082614cd65760019050614d92565b81614ce45760009050614d92565b8160018114614cfa5760028114614d0457614d33565b6001915050614d92565b60ff841115614d1657614d1561459f565b5b8360020a915084821115614d2d57614d2c61459f565b5b50614d92565b5060208310610133831016604e8410600b8410161715614d685782820a905083811115614d6357614d6261459f565b5b614d92565b614d758484846001614c73565b92509050818404811115614d8c57614d8b61459f565b5b81810290505b9392505050565b6000614da48261419c565b9150614daf8361419c565b9250614ddc7fffffffffffffffffffffffffffffffffffffffffffffffffffffffffffffffff8484614cc6565b905092915050565b6000819050919050565b6000819050919050565b6000614e13614e0e614e0984614de4565b614dee565b61419c565b9050919050565b614e2381614df8565b82525050565b6000602082019050614e3e6000830184614e1a565b92915050565b60006fffffffffffffffffffffffffffffffff82169050919050565b6000614e6b82614e44565b9150614e7683614e44565b925082821015614e8957614e8861459f565b5b828203905092915050565b6000602082019050614ea96000830184614690565b92915050565b7f475076323a206661696c6564207472616e7366657246726f6d00000000000000600082015250565b6000614ee56019836149bd565b9150614ef082614eaf565b602082019050919050565b60006020820190508181036000830152614f1481614ed8565b9050919050565b6000614f2682614e44565b9150614f3183614e44565b9250826fffffffffffffffffffffffffffffffff03821115614f5657614f5561459f565b5b828201905092915050565b7f53616665436173743a2076616c756520646f65736e27742066697420696e203160008201527f3238206269747300000000000000000000000000000000000000000000000000602082015250565b6000614fbd6027836149bd565b9150614fc882614f61565b604082019050919050565b60006020820190508181036000830152614fec81614fb0565b905091905056fea264697066735822122050a10e03a8cba092c84c95cded77895ac5fdee9ffd2271f3db3f6263c39fff2964736f6c634300080a0033",
  "linkReferences": {},
  "deployedLinkReferences": {}
}