{
  "_format": "hh-sol-artifact-1",
  "contractName": "ValidationLogic",
  "sourceName": "@aave/core-v3/contracts/protocol/libraries/logic/ValidationLogic.sol",
  "abi": [
    {
      "inputs": [],
      "name": "HEALTH_FACTOR_LIQUIDATION_THRESHOLD",
      "outputs": [
        {
          "internalType": "uint256",
          "name": "",
          "type": "uint256"
        }
      ],
      "stateMutability": "view",
      "type": "function"
    },
    {
      "inputs": [],
      "name": "MINIMUM_HEALTH_FACTOR_LIQUIDATION_THRESHOLD",
      "outputs": [
        {
          "internalType": "uint256",
          "name": "",
          "type": "uint256"
        }
      ],
      "stateMutability": "view",
      "type": "function"
    },
    {
      "inputs": [],
      "name": "REBALANCE_UP_LIQUIDITY_RATE_THRESHOLD",
      "outputs": [
        {
          "internalType": "uint256",
          "name": "",
          "type": "uint256"
        }
      ],
      "stateMutability": "view",
      "type": "function"
    },
    {
      "inputs": [],
      "name": "REBALANCE_UP_USAGE_RATIO_THRESHOLD",
      "outputs": [
        {
          "internalType": "uint256",
          "name": "",
          "type": "uint256"
        }
      ],
      "stateMutability": "view",
      "type": "function"
    }
  ],
  "bytecode": "0x61016b610053600b82828239805160001a607314610046577f4e487b7100000000000000000000000000000000000000000000000000000000600052600060045260246000fd5b30600052607381538281f3fe73000000000000000000000000000000000000000030146080604052600436106100565760003560e01c80635494eb8a1461005b578063561cbec914610079578063abfcc86a14610097578063c3525c28146100b5575b600080fd5b6100636100d3565b604051610070919061011a565b60405180910390f35b6100816100e3565b60405161008e919061011a565b60405180910390f35b61009f6100ef565b6040516100ac919061011a565b60405180910390f35b6100bd6100f5565b6040516100ca919061011a565b60405180910390f35b6b0311d253316c79d37600000081565b670d2f13f7789f000081565b610fa081565b670de0b6b3a764000081565b6000819050919050565b61011481610101565b82525050565b600060208201905061012f600083018461010b565b9291505056fea26469706673582212204f0407f5f04f51629d69f84cd078aa015473fb094dd1bb17e2bb7b0b0123618a64736f6c634300080a0033",
  "linkReferences": {},
  "deployedLinkReferences": {}
}