{
  "_format": "hh-sol-artifact-1",
  "contractName": "Token",
  "sourceName": "contracts/Token.sol",
  "abi": [
    {
      "inputs": [],
      "stateMutability": "nonpayable",
      "type": "constructor"
    },
    {
      "anonymous": false,
      "inputs": [
        {
          "indexed": true,
          "internalType": "address",
          "name": "account",
          "type": "address"
        },
        {
          "indexed": true,
          "internalType": "address",
          "name": "operator",
          "type": "address"
        },
        {
          "indexed": false,
          "internalType": "bool",
          "name": "approved",
          "type": "bool"
        }
      ],
      "name": "ApprovalForAll",
      "type": "event"
    },
    {
      "anonymous": false,
      "inputs": [
        {
          "indexed": true,
          "internalType": "address",
          "name": "previousOwner",
          "type": "address"
        },
        {
          "indexed": true,
          "internalType": "address",
          "name": "newOwner",
          "type": "address"
        }
      ],
      "name": "OwnershipTransferred",
      "type": "event"
    },
    {
      "anonymous": false,
      "inputs": [
        {
          "indexed": true,
          "internalType": "address",
          "name": "operator",
          "type": "address"
        },
        {
          "indexed": true,
          "internalType": "address",
          "name": "from",
          "type": "address"
        },
        {
          "indexed": true,
          "internalType": "address",
          "name": "to",
          "type": "address"
        },
        {
          "indexed": false,
          "internalType": "uint256[]",
          "name": "ids",
          "type": "uint256[]"
        },
        {
          "indexed": false,
          "internalType": "uint256[]",
          "name": "values",
          "type": "uint256[]"
        }
      ],
      "name": "TransferBatch",
      "type": "event"
    },
    {
      "anonymous": false,
      "inputs": [
        {
          "indexed": true,
          "internalType": "address",
          "name": "operator",
          "type": "address"
        },
        {
          "indexed": true,
          "internalType": "address",
          "name": "from",
          "type": "address"
        },
        {
          "indexed": true,
          "internalType": "address",
          "name": "to",
          "type": "address"
        },
        {
          "indexed": false,
          "internalType": "uint256",
          "name": "id",
          "type": "uint256"
        },
        {
          "indexed": false,
          "internalType": "uint256",
          "name": "value",
          "type": "uint256"
        }
      ],
      "name": "TransferSingle",
      "type": "event"
    },
    {
      "anonymous": false,
      "inputs": [
        {
          "indexed": false,
          "internalType": "string",
          "name": "value",
          "type": "string"
        },
        {
          "indexed": true,
          "internalType": "uint256",
          "name": "id",
          "type": "uint256"
        }
      ],
      "name": "URI",
      "type": "event"
    },
    {
      "inputs": [
        {
          "internalType": "address",
          "name": "account",
          "type": "address"
        },
        {
          "internalType": "uint256",
          "name": "id",
          "type": "uint256"
        }
      ],
      "name": "balanceOf",
      "outputs": [
        {
          "internalType": "uint256",
          "name": "",
          "type": "uint256"
        }
      ],
      "stateMutability": "view",
      "type": "function"
    },
    {
      "inputs": [
        {
          "internalType": "address[]",
          "name": "accounts",
          "type": "address[]"
        },
        {
          "internalType": "uint256[]",
          "name": "ids",
          "type": "uint256[]"
        }
      ],
      "name": "balanceOfBatch",
      "outputs": [
        {
          "internalType": "uint256[]",
          "name": "",
          "type": "uint256[]"
        }
      ],
      "stateMutability": "view",
      "type": "function"
    },
    {
      "inputs": [],
      "name": "buyAAVE",
      "outputs": [],
      "stateMutability": "nonpayable",
      "type": "function"
    },
    {
      "inputs": [],
      "name": "drawWinner",
      "outputs": [],
      "stateMutability": "nonpayable",
      "type": "function"
    },
    {
      "inputs": [
        {
          "internalType": "address",
          "name": "account",
          "type": "address"
        },
        {
          "internalType": "address",
          "name": "operator",
          "type": "address"
        }
      ],
      "name": "isApprovedForAll",
      "outputs": [
        {
          "internalType": "bool",
          "name": "",
          "type": "bool"
        }
      ],
      "stateMutability": "view",
      "type": "function"
    },
    {
      "inputs": [
        {
          "internalType": "address",
          "name": "account",
          "type": "address"
        },
        {
          "internalType": "uint256",
          "name": "id",
          "type": "uint256"
        },
        {
          "internalType": "uint256",
          "name": "amount",
          "type": "uint256"
        },
        {
          "internalType": "bytes",
          "name": "data",
          "type": "bytes"
        }
      ],
      "name": "mint",
      "outputs": [],
      "stateMutability": "payable",
      "type": "function"
    },
    {
      "inputs": [
        {
          "internalType": "address",
          "name": "to",
          "type": "address"
        },
        {
          "internalType": "uint256[]",
          "name": "ids",
          "type": "uint256[]"
        },
        {
          "internalType": "uint256[]",
          "name": "amounts",
          "type": "uint256[]"
        },
        {
          "internalType": "bytes",
          "name": "data",
          "type": "bytes"
        }
      ],
      "name": "mintBatch",
      "outputs": [],
      "stateMutability": "nonpayable",
      "type": "function"
    },
    {
      "inputs": [],
      "name": "mintPrice",
      "outputs": [
        {
          "internalType": "uint256",
          "name": "",
          "type": "uint256"
        }
      ],
      "stateMutability": "view",
      "type": "function"
    },
    {
      "inputs": [],
      "name": "name",
      "outputs": [
        {
          "internalType": "string",
          "name": "",
          "type": "string"
        }
      ],
      "stateMutability": "view",
      "type": "function"
    },
    {
      "inputs": [],
      "name": "owner",
      "outputs": [
        {
          "internalType": "address",
          "name": "",
          "type": "address"
        }
      ],
      "stateMutability": "view",
      "type": "function"
    },
    {
      "inputs": [
        {
          "internalType": "uint256",
          "name": "",
          "type": "uint256"
        }
      ],
      "name": "particapants",
      "outputs": [
        {
          "internalType": "address",
          "name": "",
          "type": "address"
        }
      ],
      "stateMutability": "view",
      "type": "function"
    },
    {
      "inputs": [],
      "name": "renounceOwnership",
      "outputs": [],
      "stateMutability": "nonpayable",
      "type": "function"
    },
    {
      "inputs": [
        {
          "internalType": "address",
          "name": "from",
          "type": "address"
        },
        {
          "internalType": "address",
          "name": "to",
          "type": "address"
        },
        {
          "internalType": "uint256[]",
          "name": "ids",
          "type": "uint256[]"
        },
        {
          "internalType": "uint256[]",
          "name": "amounts",
          "type": "uint256[]"
        },
        {
          "internalType": "bytes",
          "name": "data",
          "type": "bytes"
        }
      ],
      "name": "safeBatchTransferFrom",
      "outputs": [],
      "stateMutability": "nonpayable",
      "type": "function"
    },
    {
      "inputs": [
        {
          "internalType": "address",
          "name": "from",
          "type": "address"
        },
        {
          "internalType": "address",
          "name": "to",
          "type": "address"
        },
        {
          "internalType": "uint256",
          "name": "id",
          "type": "uint256"
        },
        {
          "internalType": "uint256",
          "name": "amount",
          "type": "uint256"
        },
        {
          "internalType": "bytes",
          "name": "data",
          "type": "bytes"
        }
      ],
      "name": "safeTransferFrom",
      "outputs": [],
      "stateMutability": "nonpayable",
      "type": "function"
    },
    {
      "inputs": [
        {
          "internalType": "address",
          "name": "operator",
          "type": "address"
        },
        {
          "internalType": "bool",
          "name": "approved",
          "type": "bool"
        }
      ],
      "name": "setApprovalForAll",
      "outputs": [],
      "stateMutability": "nonpayable",
      "type": "function"
    },
    {
      "inputs": [
        {
          "internalType": "string",
          "name": "newuri",
          "type": "string"
        }
      ],
      "name": "setURI",
      "outputs": [],
      "stateMutability": "nonpayable",
      "type": "function"
    },
    {
      "inputs": [
        {
          "internalType": "bytes4",
          "name": "interfaceId",
          "type": "bytes4"
        }
      ],
      "name": "supportsInterface",
      "outputs": [
        {
          "internalType": "bool",
          "name": "",
          "type": "bool"
        }
      ],
      "stateMutability": "view",
      "type": "function"
    },
    {
      "inputs": [],
      "name": "symbol",
      "outputs": [
        {
          "internalType": "string",
          "name": "",
          "type": "string"
        }
      ],
      "stateMutability": "view",
      "type": "function"
    },
    {
      "inputs": [
        {
          "internalType": "address",
          "name": "newOwner",
          "type": "address"
        }
      ],
      "name": "transferOwnership",
      "outputs": [],
      "stateMutability": "nonpayable",
      "type": "function"
    },
    {
      "inputs": [
        {
          "internalType": "uint256",
          "name": "",
          "type": "uint256"
        }
      ],
      "name": "uri",
      "outputs": [
        {
          "internalType": "string",
          "name": "",
          "type": "string"
        }
      ],
      "stateMutability": "view",
      "type": "function"
    }
  ],
  "bytecode": "0x6080604052670de0b6b3a764000060065560006007553480156200002257600080fd5b506040518060200160405280600081525062000044816200010760201b60201c565b5062000065620000596200012360201b60201c565b6200012b60201b60201c565b6040518060400160405280600c81526020017f41415645204c6f7474657279000000000000000000000000000000000000000081525060049080519060200190620000b2929190620001f1565b506040518060400160405280600381526020017f4c4f5400000000000000000000000000000000000000000000000000000000008152506005908051906020019062000100929190620001f1565b5062000306565b80600290805190602001906200011f929190620001f1565b5050565b600033905090565b6000600360009054906101000a900473ffffffffffffffffffffffffffffffffffffffff16905081600360006101000a81548173ffffffffffffffffffffffffffffffffffffffff021916908373ffffffffffffffffffffffffffffffffffffffff1602179055508173ffffffffffffffffffffffffffffffffffffffff168173ffffffffffffffffffffffffffffffffffffffff167f8be0079c531659141344cd1fd0a4f28419497f9722a3daafe3b4186f6b6457e060405160405180910390a35050565b828054620001ff90620002a1565b90600052602060002090601f0160209004810192826200022357600085556200026f565b82601f106200023e57805160ff19168380011785556200026f565b828001600101855582156200026f579182015b828111156200026e57825182559160200191906001019062000251565b5b5090506200027e919062000282565b5090565b5b808211156200029d57600081600090555060010162000283565b5090565b60006002820490506001821680620002ba57607f821691505b60208210811415620002d157620002d0620002d7565b5b50919050565b7f4e487b7100000000000000000000000000000000000000000000000000000000600052602260045260246000fd5b61399380620003166000396000f3fe60806040526004361061011e5760003560e01c8063715018a6116100a0578063a863458711610064578063a8634587146103b1578063b2185bb1146103ee578063e985e9c514610405578063f242432a14610442578063f2fde38b1461046b5761011e565b8063715018a6146102ff578063731133e9146103165780638da5cb5b1461033257806395d89b411461035d578063a22cb465146103885761011e565b80631f7fdffa116100e75780631f7fdffa1461022e5780632eb2c2d6146102575780634e1273f41461028057806354893110146102bd5780636817c76c146102d45761011e565b8062fdd58e1461012357806301ffc9a71461016057806302fe53051461019d57806306fdde03146101c65780630e89341c146101f1575b600080fd5b34801561012f57600080fd5b5061014a600480360381019061014591906126ba565b610494565b6040516101579190612f88565b60405180910390f35b34801561016c57600080fd5b50610187600480360381019061018291906127dd565b61055d565b6040516101949190612d6b565b60405180910390f35b3480156101a957600080fd5b506101c460048036038101906101bf919061282f565b61063f565b005b3480156101d257600080fd5b506101db610653565b6040516101e89190612d86565b60405180910390f35b3480156101fd57600080fd5b5061021860048036038101906102139190612870565b6106e1565b6040516102259190612d86565b60405180910390f35b34801561023a57600080fd5b50610255600480360381019061025091906125d3565b610775565b005b34801561026357600080fd5b5061027e60048036038101906102799190612485565b61078f565b005b34801561028c57600080fd5b506102a760048036038101906102a29190612771565b610830565b6040516102b49190612d12565b60405180910390f35b3480156102c957600080fd5b506102d26109e1565b005b3480156102e057600080fd5b506102e96109e3565b6040516102f69190612f88565b60405180910390f35b34801561030b57600080fd5b506103146109e9565b005b610330600480360381019061032b91906126f6565b6109fd565b005b34801561033e57600080fd5b50610347610aa5565b6040516103549190612c35565b60405180910390f35b34801561036957600080fd5b50610372610acf565b60405161037f9190612d86565b60405180910390f35b34801561039457600080fd5b506103af60048036038101906103aa919061267e565b610b5d565b005b3480156103bd57600080fd5b506103d860048036038101906103d39190612870565b610b73565b6040516103e59190612c35565b60405180910390f35b3480156103fa57600080fd5b50610403610bb2565b005b34801561041157600080fd5b5061042c60048036038101906104279190612449565b610ccb565b6040516104399190612d6b565b60405180910390f35b34801561044e57600080fd5b5061046960048036038101906104649190612544565b610d5f565b005b34801561047757600080fd5b50610492600480360381019061048d9190612420565b610e00565b005b60008073ffffffffffffffffffffffffffffffffffffffff168373ffffffffffffffffffffffffffffffffffffffff161415610505576040517f08c379a00000000000000000000000000000000000000000000000000000000081526004016104fc90612e28565b60405180910390fd5b60008083815260200190815260200160002060008473ffffffffffffffffffffffffffffffffffffffff1673ffffffffffffffffffffffffffffffffffffffff16815260200190815260200160002054905092915050565b60007fd9b67a26000000000000000000000000000000000000000000000000000000007bffffffffffffffffffffffffffffffffffffffffffffffffffffffff1916827bffffffffffffffffffffffffffffffffffffffffffffffffffffffff1916148061062857507f0e89341c000000000000000000000000000000000000000000000000000000007bffffffffffffffffffffffffffffffffffffffffffffffffffffffff1916827bffffffffffffffffffffffffffffffffffffffffffffffffffffffff1916145b80610638575061063782610e84565b5b9050919050565b610647610eee565b61065081610f6c565b50565b6004805461066090613228565b80601f016020809104026020016040519081016040528092919081815260200182805461068c90613228565b80156106d95780601f106106ae576101008083540402835291602001916106d9565b820191906000526020600020905b8154815290600101906020018083116106bc57829003601f168201915b505050505081565b6060600280546106f090613228565b80601f016020809104026020016040519081016040528092919081815260200182805461071c90613228565b80156107695780601f1061073e57610100808354040283529160200191610769565b820191906000526020600020905b81548152906001019060200180831161074c57829003601f168201915b50505050509050919050565b61077d610eee565b61078984848484610f86565b50505050565b6107976111ff565b73ffffffffffffffffffffffffffffffffffffffff168573ffffffffffffffffffffffffffffffffffffffff1614806107dd57506107dc856107d76111ff565b610ccb565b5b61081c576040517f08c379a000000000000000000000000000000000000000000000000000000000815260040161081390612dc8565b60405180910390fd5b6108298585858585611207565b5050505050565b60608151835114610876576040517f08c379a000000000000000000000000000000000000000000000000000000000815260040161086d90612f28565b60405180910390fd5b6000835167ffffffffffffffff8111156108b9577f4e487b7100000000000000000000000000000000000000000000000000000000600052604160045260246000fd5b6040519080825280602002602001820160405280156108e75781602001602082028036833780820191505090505b50905060005b84518110156109d657610980858281518110610932577f4e487b7100000000000000000000000000000000000000000000000000000000600052603260045260246000fd5b6020026020010151858381518110610973577f4e487b7100000000000000000000000000000000000000000000000000000000600052603260045260246000fd5b6020026020010151610494565b8282815181106109b9577f4e487b7100000000000000000000000000000000000000000000000000000000600052603260045260246000fd5b602002602001018181525050806109cf9061328b565b90506108ed565b508091505092915050565b565b60065481565b6109f1610eee565b6109fb6000611575565b565b600654341015610a42576040517f08c379a0000000000000000000000000000000000000000000000000000000008152600401610a3990612ec8565b60405180910390fd5b82600011158015610a54575060038311155b610a93576040517f08c379a0000000000000000000000000000000000000000000000000000000008152600401610a8a90612ee8565b60405180910390fd5b610a9f8484848461163b565b50505050565b6000600360009054906101000a900473ffffffffffffffffffffffffffffffffffffffff16905090565b60058054610adc90613228565b80601f0160208091040260200160405190810160405280929190818152602001828054610b0890613228565b8015610b555780601f10610b2a57610100808354040283529160200191610b55565b820191906000526020600020905b815481529060010190602001808311610b3857829003601f168201915b505050505081565b610b6f610b686111ff565b83836117ec565b5050565b60088181548110610b8357600080fd5b906000526020600020016000915054906101000a900473ffffffffffffffffffffffffffffffffffffffff1681565b62093a80600954610bc3919061311c565b4211610c04576040517f08c379a0000000000000000000000000000000000000000000000000000000008152600401610bfb90612e88565b60405180910390fd5b6000610c14600880549050611959565b905060088181548110610c50577f4e487b7100000000000000000000000000000000000000000000000000000000600052603260045260246000fd5b9060005260206000200160009054906101000a900473ffffffffffffffffffffffffffffffffffffffff1673ffffffffffffffffffffffffffffffffffffffff166108fc479081150290604051600060405180830381858888f19350505050158015610cc0573d6000803e3d6000fd5b504260098190555050565b6000600160008473ffffffffffffffffffffffffffffffffffffffff1673ffffffffffffffffffffffffffffffffffffffff16815260200190815260200160002060008373ffffffffffffffffffffffffffffffffffffffff1673ffffffffffffffffffffffffffffffffffffffff16815260200190815260200160002060009054906101000a900460ff16905092915050565b610d676111ff565b73ffffffffffffffffffffffffffffffffffffffff168573ffffffffffffffffffffffffffffffffffffffff161480610dad5750610dac85610da76111ff565b610ccb565b5b610dec576040517f08c379a0000000000000000000000000000000000000000000000000000000008152600401610de390612dc8565b60405180910390fd5b610df985858585856119b5565b5050505050565b610e08610eee565b600073ffffffffffffffffffffffffffffffffffffffff168173ffffffffffffffffffffffffffffffffffffffff161415610e78576040517f08c379a0000000000000000000000000000000000000000000000000000000008152600401610e6f90612e08565b60405180910390fd5b610e8181611575565b50565b60007f01ffc9a7000000000000000000000000000000000000000000000000000000007bffffffffffffffffffffffffffffffffffffffffffffffffffffffff1916827bffffffffffffffffffffffffffffffffffffffffffffffffffffffff1916149050919050565b610ef66111ff565b73ffffffffffffffffffffffffffffffffffffffff16610f14610aa5565b73ffffffffffffffffffffffffffffffffffffffff1614610f6a576040517f08c379a0000000000000000000000000000000000000000000000000000000008152600401610f6190612ea8565b60405180910390fd5b565b8060029080519060200190610f82929190612118565b5050565b600073ffffffffffffffffffffffffffffffffffffffff168473ffffffffffffffffffffffffffffffffffffffff161415610ff6576040517f08c379a0000000000000000000000000000000000000000000000000000000008152600401610fed90612f68565b60405180910390fd5b815183511461103a576040517f08c379a000000000000000000000000000000000000000000000000000000000815260040161103190612f48565b60405180910390fd5b60006110446111ff565b905061105581600087878787611c51565b60005b845181101561115a5783818151811061109a577f4e487b7100000000000000000000000000000000000000000000000000000000600052603260045260246000fd5b60200260200101516000808784815181106110de577f4e487b7100000000000000000000000000000000000000000000000000000000600052603260045260246000fd5b6020026020010151815260200190815260200160002060008873ffffffffffffffffffffffffffffffffffffffff1673ffffffffffffffffffffffffffffffffffffffff1681526020019081526020016000206000828254611140919061311c565b9250508190555080806111529061328b565b915050611058565b508473ffffffffffffffffffffffffffffffffffffffff16600073ffffffffffffffffffffffffffffffffffffffff168273ffffffffffffffffffffffffffffffffffffffff167f4a39dc06d4c0dbc64b70af90fd698a233a518aa5d07e595d983b8c0526c8f7fb87876040516111d2929190612d34565b60405180910390a46111e981600087878787611c59565b6111f881600087878787611c61565b5050505050565b600033905090565b815183511461124b576040517f08c379a000000000000000000000000000000000000000000000000000000000815260040161124290612f48565b60405180910390fd5b600073ffffffffffffffffffffffffffffffffffffffff168473ffffffffffffffffffffffffffffffffffffffff1614156112bb576040517f08c379a00000000000000000000000000000000000000000000000000000000081526004016112b290612e48565b60405180910390fd5b60006112c56111ff565b90506112d5818787878787611c51565b60005b84518110156114d257600085828151811061131c577f4e487b7100000000000000000000000000000000000000000000000000000000600052603260045260246000fd5b602002602001015190506000858381518110611361577f4e487b7100000000000000000000000000000000000000000000000000000000600052603260045260246000fd5b60200260200101519050600080600084815260200190815260200160002060008b73ffffffffffffffffffffffffffffffffffffffff1673ffffffffffffffffffffffffffffffffffffffff16815260200190815260200160002054905081811015611402576040517f08c379a00000000000000000000000000000000000000000000000000000000081526004016113f990612e68565b60405180910390fd5b81810360008085815260200190815260200160002060008c73ffffffffffffffffffffffffffffffffffffffff1673ffffffffffffffffffffffffffffffffffffffff168152602001908152602001600020819055508160008085815260200190815260200160002060008b73ffffffffffffffffffffffffffffffffffffffff1673ffffffffffffffffffffffffffffffffffffffff16815260200190815260200160002060008282546114b7919061311c565b92505081905550505050806114cb9061328b565b90506112d8565b508473ffffffffffffffffffffffffffffffffffffffff168673ffffffffffffffffffffffffffffffffffffffff168273ffffffffffffffffffffffffffffffffffffffff167f4a39dc06d4c0dbc64b70af90fd698a233a518aa5d07e595d983b8c0526c8f7fb8787604051611549929190612d34565b60405180910390a461155f818787878787611c59565b61156d818787878787611c61565b505050505050565b6000600360009054906101000a900473ffffffffffffffffffffffffffffffffffffffff16905081600360006101000a81548173ffffffffffffffffffffffffffffffffffffffff021916908373ffffffffffffffffffffffffffffffffffffffff1602179055508173ffffffffffffffffffffffffffffffffffffffff168173ffffffffffffffffffffffffffffffffffffffff167f8be0079c531659141344cd1fd0a4f28419497f9722a3daafe3b4186f6b6457e060405160405180910390a35050565b600073ffffffffffffffffffffffffffffffffffffffff168473ffffffffffffffffffffffffffffffffffffffff1614156116ab576040517f08c379a00000000000000000000000000000000000000000000000000000000081526004016116a290612f68565b60405180910390fd5b60006116b56111ff565b905060006116c285611e48565b905060006116cf85611e48565b90506116e083600089858589611c51565b8460008088815260200190815260200160002060008973ffffffffffffffffffffffffffffffffffffffff1673ffffffffffffffffffffffffffffffffffffffff168152602001908152602001600020600082825461173f919061311c565b925050819055508673ffffffffffffffffffffffffffffffffffffffff16600073ffffffffffffffffffffffffffffffffffffffff168473ffffffffffffffffffffffffffffffffffffffff167fc3d58168c5ae7397731d063d5bbf3d657854427343f4c083240f7aacaa2d0f6289896040516117bd929190612fa3565b60405180910390a46117d483600089858589611c59565b6117e383600089898989611f0e565b50505050505050565b8173ffffffffffffffffffffffffffffffffffffffff168373ffffffffffffffffffffffffffffffffffffffff16141561185b576040517f08c379a000000000000000000000000000000000000000000000000000000000815260040161185290612f08565b60405180910390fd5b80600160008573ffffffffffffffffffffffffffffffffffffffff1673ffffffffffffffffffffffffffffffffffffffff16815260200190815260200160002060008473ffffffffffffffffffffffffffffffffffffffff1673ffffffffffffffffffffffffffffffffffffffff16815260200190815260200160002060006101000a81548160ff0219169083151502179055508173ffffffffffffffffffffffffffffffffffffffff168373ffffffffffffffffffffffffffffffffffffffff167f17307eab39ab6107e8899845ad3d59bd9653f200f220920489ca2b5937696c318360405161194c9190612d6b565b60405180910390a3505050565b60006007600081548092919061196e9061328b565b919050555081423360075460405160200161198b93929190612bf8565b6040516020818303038152906040528051906020012060001c6119ae9190613302565b9050919050565b600073ffffffffffffffffffffffffffffffffffffffff168473ffffffffffffffffffffffffffffffffffffffff161415611a25576040517f08c379a0000000000000000000000000000000000000000000000000000000008152600401611a1c90612e48565b60405180910390fd5b6000611a2f6111ff565b90506000611a3c85611e48565b90506000611a4985611e48565b9050611a59838989858589611c51565b600080600088815260200190815260200160002060008a73ffffffffffffffffffffffffffffffffffffffff1673ffffffffffffffffffffffffffffffffffffffff16815260200190815260200160002054905085811015611af0576040517f08c379a0000000000000000000000000000000000000000000000000000000008152600401611ae790612e68565b60405180910390fd5b85810360008089815260200190815260200160002060008b73ffffffffffffffffffffffffffffffffffffffff1673ffffffffffffffffffffffffffffffffffffffff168152602001908152602001600020819055508560008089815260200190815260200160002060008a73ffffffffffffffffffffffffffffffffffffffff1673ffffffffffffffffffffffffffffffffffffffff1681526020019081526020016000206000828254611ba5919061311c565b925050819055508773ffffffffffffffffffffffffffffffffffffffff168973ffffffffffffffffffffffffffffffffffffffff168573ffffffffffffffffffffffffffffffffffffffff167fc3d58168c5ae7397731d063d5bbf3d657854427343f4c083240f7aacaa2d0f628a8a604051611c22929190612fa3565b60405180910390a4611c38848a8a86868a611c59565b611c46848a8a8a8a8a611f0e565b505050505050505050565b505050505050565b505050505050565b611c808473ffffffffffffffffffffffffffffffffffffffff166120f5565b15611e40578373ffffffffffffffffffffffffffffffffffffffff1663bc197c8187878686866040518663ffffffff1660e01b8152600401611cc6959493929190612c50565b602060405180830381600087803b158015611ce057600080fd5b505af1925050508015611d1157506040513d601f19601f82011682018060405250810190611d0e9190612806565b60015b611db757611d1d6133ef565b806308c379a01415611d7a5750611d3261386b565b80611d3d5750611d7c565b806040517f08c379a0000000000000000000000000000000000000000000000000000000008152600401611d719190612d86565b60405180910390fd5b505b6040517f08c379a0000000000000000000000000000000000000000000000000000000008152600401611dae90612da8565b60405180910390fd5b63bc197c8160e01b7bffffffffffffffffffffffffffffffffffffffffffffffffffffffff1916817bffffffffffffffffffffffffffffffffffffffffffffffffffffffff191614611e3e576040517f08c379a0000000000000000000000000000000000000000000000000000000008152600401611e3590612de8565b60405180910390fd5b505b505050505050565b60606000600167ffffffffffffffff811115611e8d577f4e487b7100000000000000000000000000000000000000000000000000000000600052604160045260246000fd5b604051908082528060200260200182016040528015611ebb5781602001602082028036833780820191505090505b5090508281600081518110611ef9577f4e487b7100000000000000000000000000000000000000000000000000000000600052603260045260246000fd5b60200260200101818152505080915050919050565b611f2d8473ffffffffffffffffffffffffffffffffffffffff166120f5565b156120ed578373ffffffffffffffffffffffffffffffffffffffff1663f23a6e6187878686866040518663ffffffff1660e01b8152600401611f73959493929190612cb8565b602060405180830381600087803b158015611f8d57600080fd5b505af1925050508015611fbe57506040513d601f19601f82011682018060405250810190611fbb9190612806565b60015b61206457611fca6133ef565b806308c379a014156120275750611fdf61386b565b80611fea5750612029565b806040517f08c379a000000000000000000000000000000000000000000000000000000000815260040161201e9190612d86565b60405180910390fd5b505b6040517f08c379a000000000000000000000000000000000000000000000000000000000815260040161205b90612da8565b60405180910390fd5b63f23a6e6160e01b7bffffffffffffffffffffffffffffffffffffffffffffffffffffffff1916817bffffffffffffffffffffffffffffffffffffffffffffffffffffffff1916146120eb576040517f08c379a00000000000000000000000000000000000000000000000000000000081526004016120e290612de8565b60405180910390fd5b505b505050505050565b6000808273ffffffffffffffffffffffffffffffffffffffff163b119050919050565b82805461212490613228565b90600052602060002090601f016020900481019282612146576000855561218d565b82601f1061215f57805160ff191683800117855561218d565b8280016001018555821561218d579182015b8281111561218c578251825591602001919060010190612171565b5b50905061219a919061219e565b5090565b5b808211156121b757600081600090555060010161219f565b5090565b60006121ce6121c984612ff1565b612fcc565b905080838252602082019050828560208602820111156121ed57600080fd5b60005b8581101561221d5781612203888261230f565b8452602084019350602083019250506001810190506121f0565b5050509392505050565b600061223a6122358461301d565b612fcc565b9050808382526020820190508285602086028201111561225957600080fd5b60005b85811015612289578161226f888261240b565b84526020840193506020830192505060018101905061225c565b5050509392505050565b60006122a66122a184613049565b612fcc565b9050828152602081018484840111156122be57600080fd5b6122c98482856131e6565b509392505050565b60006122e46122df8461307a565b612fcc565b9050828152602081018484840111156122fc57600080fd5b6123078482856131e6565b509392505050565b60008135905061231e81613901565b92915050565b600082601f83011261233557600080fd5b81356123458482602086016121bb565b91505092915050565b600082601f83011261235f57600080fd5b813561236f848260208601612227565b91505092915050565b60008135905061238781613918565b92915050565b60008135905061239c8161392f565b92915050565b6000815190506123b18161392f565b92915050565b600082601f8301126123c857600080fd5b81356123d8848260208601612293565b91505092915050565b600082601f8301126123f257600080fd5b81356124028482602086016122d1565b91505092915050565b60008135905061241a81613946565b92915050565b60006020828403121561243257600080fd5b60006124408482850161230f565b91505092915050565b6000806040838503121561245c57600080fd5b600061246a8582860161230f565b925050602061247b8582860161230f565b9150509250929050565b600080600080600060a0868803121561249d57600080fd5b60006124ab8882890161230f565b95505060206124bc8882890161230f565b945050604086013567ffffffffffffffff8111156124d957600080fd5b6124e58882890161234e565b935050606086013567ffffffffffffffff81111561250257600080fd5b61250e8882890161234e565b925050608086013567ffffffffffffffff81111561252b57600080fd5b612537888289016123b7565b9150509295509295909350565b600080600080600060a0868803121561255c57600080fd5b600061256a8882890161230f565b955050602061257b8882890161230f565b945050604061258c8882890161240b565b935050606061259d8882890161240b565b925050608086013567ffffffffffffffff8111156125ba57600080fd5b6125c6888289016123b7565b9150509295509295909350565b600080600080608085870312156125e957600080fd5b60006125f78782880161230f565b945050602085013567ffffffffffffffff81111561261457600080fd5b6126208782880161234e565b935050604085013567ffffffffffffffff81111561263d57600080fd5b6126498782880161234e565b925050606085013567ffffffffffffffff81111561266657600080fd5b612672878288016123b7565b91505092959194509250565b6000806040838503121561269157600080fd5b600061269f8582860161230f565b92505060206126b085828601612378565b9150509250929050565b600080604083850312156126cd57600080fd5b60006126db8582860161230f565b92505060206126ec8582860161240b565b9150509250929050565b6000806000806080858703121561270c57600080fd5b600061271a8782880161230f565b945050602061272b8782880161240b565b935050604061273c8782880161240b565b925050606085013567ffffffffffffffff81111561275957600080fd5b612765878288016123b7565b91505092959194509250565b6000806040838503121561278457600080fd5b600083013567ffffffffffffffff81111561279e57600080fd5b6127aa85828601612324565b925050602083013567ffffffffffffffff8111156127c757600080fd5b6127d38582860161234e565b9150509250929050565b6000602082840312156127ef57600080fd5b60006127fd8482850161238d565b91505092915050565b60006020828403121561281857600080fd5b6000612826848285016123a2565b91505092915050565b60006020828403121561284157600080fd5b600082013567ffffffffffffffff81111561285b57600080fd5b612867848285016123e1565b91505092915050565b60006020828403121561288257600080fd5b60006128908482850161240b565b91505092915050565b60006128a58383612bc3565b60208301905092915050565b6128ba81613172565b82525050565b6128d16128cc82613172565b6132d4565b82525050565b60006128e2826130bb565b6128ec81856130e9565b93506128f7836130ab565b8060005b8381101561292857815161290f8882612899565b975061291a836130dc565b9250506001810190506128fb565b5085935050505092915050565b61293e81613184565b82525050565b600061294f826130c6565b61295981856130fa565b93506129698185602086016131f5565b61297281613411565b840191505092915050565b6000612988826130d1565b612992818561310b565b93506129a28185602086016131f5565b6129ab81613411565b840191505092915050565b60006129c360348361310b565b91506129ce8261343c565b604082019050919050565b60006129e6602f8361310b565b91506129f18261348b565b604082019050919050565b6000612a0960288361310b565b9150612a14826134da565b604082019050919050565b6000612a2c60268361310b565b9150612a3782613529565b604082019050919050565b6000612a4f602a8361310b565b9150612a5a82613578565b604082019050919050565b6000612a7260258361310b565b9150612a7d826135c7565b604082019050919050565b6000612a95602a8361310b565b9150612aa082613616565b604082019050919050565b6000612ab8601e8361310b565b9150612ac382613665565b602082019050919050565b6000612adb60208361310b565b9150612ae68261368e565b602082019050919050565b6000612afe60238361310b565b9150612b09826136b7565b604082019050919050565b6000612b21601c8361310b565b9150612b2c82613706565b602082019050919050565b6000612b4460298361310b565b9150612b4f8261372f565b604082019050919050565b6000612b6760298361310b565b9150612b728261377e565b604082019050919050565b6000612b8a60288361310b565b9150612b95826137cd565b604082019050919050565b6000612bad60218361310b565b9150612bb88261381c565b604082019050919050565b612bcc816131dc565b82525050565b612bdb816131dc565b82525050565b612bf2612bed826131dc565b6132f8565b82525050565b6000612c048286612be1565b602082019150612c1482856128c0565b601482019150612c248284612be1565b602082019150819050949350505050565b6000602082019050612c4a60008301846128b1565b92915050565b600060a082019050612c6560008301886128b1565b612c7260208301876128b1565b8181036040830152612c8481866128d7565b90508181036060830152612c9881856128d7565b90508181036080830152612cac8184612944565b90509695505050505050565b600060a082019050612ccd60008301886128b1565b612cda60208301876128b1565b612ce76040830186612bd2565b612cf46060830185612bd2565b8181036080830152612d068184612944565b90509695505050505050565b60006020820190508181036000830152612d2c81846128d7565b905092915050565b60006040820190508181036000830152612d4e81856128d7565b90508181036020830152612d6281846128d7565b90509392505050565b6000602082019050612d806000830184612935565b92915050565b60006020820190508181036000830152612da0818461297d565b905092915050565b60006020820190508181036000830152612dc1816129b6565b9050919050565b60006020820190508181036000830152612de1816129d9565b9050919050565b60006020820190508181036000830152612e01816129fc565b9050919050565b60006020820190508181036000830152612e2181612a1f565b9050919050565b60006020820190508181036000830152612e4181612a42565b9050919050565b60006020820190508181036000830152612e6181612a65565b9050919050565b60006020820190508181036000830152612e8181612a88565b9050919050565b60006020820190508181036000830152612ea181612aab565b9050919050565b60006020820190508181036000830152612ec181612ace565b9050919050565b60006020820190508181036000830152612ee181612af1565b9050919050565b60006020820190508181036000830152612f0181612b14565b9050919050565b60006020820190508181036000830152612f2181612b37565b9050919050565b60006020820190508181036000830152612f4181612b5a565b9050919050565b60006020820190508181036000830152612f6181612b7d565b9050919050565b60006020820190508181036000830152612f8181612ba0565b9050919050565b6000602082019050612f9d6000830184612bd2565b92915050565b6000604082019050612fb86000830185612bd2565b612fc56020830184612bd2565b9392505050565b6000612fd6612fe7565b9050612fe2828261325a565b919050565b6000604051905090565b600067ffffffffffffffff82111561300c5761300b6133c0565b5b602082029050602081019050919050565b600067ffffffffffffffff821115613038576130376133c0565b5b602082029050602081019050919050565b600067ffffffffffffffff821115613064576130636133c0565b5b61306d82613411565b9050602081019050919050565b600067ffffffffffffffff821115613095576130946133c0565b5b61309e82613411565b9050602081019050919050565b6000819050602082019050919050565b600081519050919050565b600081519050919050565b600081519050919050565b6000602082019050919050565b600082825260208201905092915050565b600082825260208201905092915050565b600082825260208201905092915050565b6000613127826131dc565b9150613132836131dc565b9250827fffffffffffffffffffffffffffffffffffffffffffffffffffffffffffffffff0382111561316757613166613333565b5b828201905092915050565b600061317d826131bc565b9050919050565b60008115159050919050565b60007fffffffff0000000000000000000000000000000000000000000000000000000082169050919050565b600073ffffffffffffffffffffffffffffffffffffffff82169050919050565b6000819050919050565b82818337600083830152505050565b60005b838110156132135780820151818401526020810190506131f8565b83811115613222576000848401525b50505050565b6000600282049050600182168061324057607f821691505b6020821081141561325457613253613391565b5b50919050565b61326382613411565b810181811067ffffffffffffffff82111715613282576132816133c0565b5b80604052505050565b6000613296826131dc565b91507fffffffffffffffffffffffffffffffffffffffffffffffffffffffffffffffff8214156132c9576132c8613333565b5b600182019050919050565b60006132df826132e6565b9050919050565b60006132f182613422565b9050919050565b6000819050919050565b600061330d826131dc565b9150613318836131dc565b92508261332857613327613362565b5b828206905092915050565b7f4e487b7100000000000000000000000000000000000000000000000000000000600052601160045260246000fd5b7f4e487b7100000000000000000000000000000000000000000000000000000000600052601260045260246000fd5b7f4e487b7100000000000000000000000000000000000000000000000000000000600052602260045260246000fd5b7f4e487b7100000000000000000000000000000000000000000000000000000000600052604160045260246000fd5b600060033d111561340e5760046000803e61340b60005161342f565b90505b90565b6000601f19601f8301169050919050565b60008160601b9050919050565b60008160e01c9050919050565b7f455243313135353a207472616e7366657220746f206e6f6e204552433131353560008201527f526563656976657220696d706c656d656e746572000000000000000000000000602082015250565b7f455243313135353a2063616c6c6572206973206e6f7420746f6b656e206f776e60008201527f6572206e6f7220617070726f7665640000000000000000000000000000000000602082015250565b7f455243313135353a204552433131353552656365697665722072656a6563746560008201527f6420746f6b656e73000000000000000000000000000000000000000000000000602082015250565b7f4f776e61626c653a206e6577206f776e657220697320746865207a65726f206160008201527f6464726573730000000000000000000000000000000000000000000000000000602082015250565b7f455243313135353a2061646472657373207a65726f206973206e6f742061207660008201527f616c6964206f776e657200000000000000000000000000000000000000000000602082015250565b7f455243313135353a207472616e7366657220746f20746865207a65726f20616460008201527f6472657373000000000000000000000000000000000000000000000000000000602082015250565b7f455243313135353a20696e73756666696369656e742062616c616e636520666f60008201527f72207472616e7366657200000000000000000000000000000000000000000000602082015250565b7f77616974696e6720706572696f6420686173206e6f7420657870697265640000600082015250565b7f4f776e61626c653a2063616c6c6572206973206e6f7420746865206f776e6572600082015250565b7f596f7520646f6e2774206861766520656e6f75676820657468657220746f206d60008201527f696e740000000000000000000000000000000000000000000000000000000000602082015250565b7f596f752063616e206d696e74206f6e6c792069643d302c312c322c3300000000600082015250565b7f455243313135353a2073657474696e6720617070726f76616c2073746174757360008201527f20666f722073656c660000000000000000000000000000000000000000000000602082015250565b7f455243313135353a206163636f756e747320616e6420696473206c656e67746860008201527f206d69736d617463680000000000000000000000000000000000000000000000602082015250565b7f455243313135353a2069647320616e6420616d6f756e7473206c656e6774682060008201527f6d69736d61746368000000000000000000000000000000000000000000000000602082015250565b7f455243313135353a206d696e7420746f20746865207a65726f2061646472657360008201527f7300000000000000000000000000000000000000000000000000000000000000602082015250565b600060443d101561387b576138fe565b613883612fe7565b60043d036004823e80513d602482011167ffffffffffffffff821117156138ab5750506138fe565b808201805167ffffffffffffffff8111156138c957505050506138fe565b80602083010160043d0385018111156138e65750505050506138fe565b6138f58260200185018661325a565b82955050505050505b90565b61390a81613172565b811461391557600080fd5b50565b61392181613184565b811461392c57600080fd5b50565b61393881613190565b811461394357600080fd5b50565b61394f816131dc565b811461395a57600080fd5b5056fea2646970667358221220e5072d933c46ce3030c503753e91ce5a9a17dfd78b0f66cf355b31ceed10430164736f6c63430008020033",
  "linkReferences": {},
  "deployedLinkReferences": {}
}