{
  "_format": "hh-sol-artifact-1",
  "contractName": "Token",
  "sourceName": "contracts/Token.sol",
  "abi": [
    {
      "inputs": [],
      "stateMutability": "nonpayable",
      "type": "constructor"
    },
    {
      "inputs": [
        {
          "internalType": "address[]",
          "name": "wrongPath",
          "type": "address[]"
        }
      ],
      "name": "StableHedge__WrongPath",
      "type": "error"
    },
    {
      "anonymous": false,
      "inputs": [
        {
          "indexed": true,
          "internalType": "address",
          "name": "account",
          "type": "address"
        },
        {
          "indexed": true,
          "internalType": "address",
          "name": "operator",
          "type": "address"
        },
        {
          "indexed": false,
          "internalType": "bool",
          "name": "approved",
          "type": "bool"
        }
      ],
      "name": "ApprovalForAll",
      "type": "event"
    },
    {
      "anonymous": false,
      "inputs": [
        {
          "indexed": true,
          "internalType": "address",
          "name": "previousOwner",
          "type": "address"
        },
        {
          "indexed": true,
          "internalType": "address",
          "name": "newOwner",
          "type": "address"
        }
      ],
      "name": "OwnershipTransferred",
      "type": "event"
    },
    {
      "anonymous": false,
      "inputs": [
        {
          "indexed": true,
          "internalType": "address",
          "name": "operator",
          "type": "address"
        },
        {
          "indexed": true,
          "internalType": "address",
          "name": "from",
          "type": "address"
        },
        {
          "indexed": true,
          "internalType": "address",
          "name": "to",
          "type": "address"
        },
        {
          "indexed": false,
          "internalType": "uint256[]",
          "name": "ids",
          "type": "uint256[]"
        },
        {
          "indexed": false,
          "internalType": "uint256[]",
          "name": "values",
          "type": "uint256[]"
        }
      ],
      "name": "TransferBatch",
      "type": "event"
    },
    {
      "anonymous": false,
      "inputs": [
        {
          "indexed": true,
          "internalType": "address",
          "name": "operator",
          "type": "address"
        },
        {
          "indexed": true,
          "internalType": "address",
          "name": "from",
          "type": "address"
        },
        {
          "indexed": true,
          "internalType": "address",
          "name": "to",
          "type": "address"
        },
        {
          "indexed": false,
          "internalType": "uint256",
          "name": "id",
          "type": "uint256"
        },
        {
          "indexed": false,
          "internalType": "uint256",
          "name": "value",
          "type": "uint256"
        }
      ],
      "name": "TransferSingle",
      "type": "event"
    },
    {
      "anonymous": false,
      "inputs": [
        {
          "indexed": false,
          "internalType": "string",
          "name": "value",
          "type": "string"
        },
        {
          "indexed": true,
          "internalType": "uint256",
          "name": "id",
          "type": "uint256"
        }
      ],
      "name": "URI",
      "type": "event"
    },
    {
      "inputs": [],
      "name": "USDC_ADDRESS",
      "outputs": [
        {
          "internalType": "address",
          "name": "",
          "type": "address"
        }
      ],
      "stateMutability": "view",
      "type": "function"
    },
    {
      "inputs": [],
      "name": "USDC_Balance",
      "outputs": [
        {
          "internalType": "uint256",
          "name": "",
          "type": "uint256"
        }
      ],
      "stateMutability": "view",
      "type": "function"
    },
    {
      "inputs": [],
      "name": "USDT_ADDRESS",
      "outputs": [
        {
          "internalType": "address",
          "name": "",
          "type": "address"
        }
      ],
      "stateMutability": "view",
      "type": "function"
    },
    {
      "inputs": [],
      "name": "USDT_Balance",
      "outputs": [
        {
          "internalType": "uint256",
          "name": "",
          "type": "uint256"
        }
      ],
      "stateMutability": "view",
      "type": "function"
    },
    {
      "inputs": [
        {
          "internalType": "address",
          "name": "",
          "type": "address"
        }
      ],
      "name": "allHoldings",
      "outputs": [
        {
          "internalType": "uint256",
          "name": "USDCHold",
          "type": "uint256"
        },
        {
          "internalType": "uint256",
          "name": "USDTHold",
          "type": "uint256"
        },
        {
          "internalType": "uint256",
          "name": "USDTLPAmount",
          "type": "uint256"
        }
      ],
      "stateMutability": "view",
      "type": "function"
    },
    {
      "inputs": [
        {
          "internalType": "address",
          "name": "account",
          "type": "address"
        },
        {
          "internalType": "uint256",
          "name": "id",
          "type": "uint256"
        }
      ],
      "name": "balanceOf",
      "outputs": [
        {
          "internalType": "uint256",
          "name": "",
          "type": "uint256"
        }
      ],
      "stateMutability": "view",
      "type": "function"
    },
    {
      "inputs": [
        {
          "internalType": "address[]",
          "name": "accounts",
          "type": "address[]"
        },
        {
          "internalType": "uint256[]",
          "name": "ids",
          "type": "uint256[]"
        }
      ],
      "name": "balanceOfBatch",
      "outputs": [
        {
          "internalType": "uint256[]",
          "name": "",
          "type": "uint256[]"
        }
      ],
      "stateMutability": "view",
      "type": "function"
    },
    {
      "inputs": [
        {
          "internalType": "address",
          "name": "account",
          "type": "address"
        },
        {
          "internalType": "uint256",
          "name": "amount",
          "type": "uint256"
        },
        {
          "internalType": "bytes",
          "name": "data",
          "type": "bytes"
        }
      ],
      "name": "buyTicket",
      "outputs": [],
      "stateMutability": "payable",
      "type": "function"
    },
    {
      "inputs": [
        {
          "internalType": "uint256",
          "name": "usdcOutMin",
          "type": "uint256"
        },
        {
          "internalType": "uint256",
          "name": "usdtOutMin",
          "type": "uint256"
        },
        {
          "internalType": "address[]",
          "name": "USDCPath",
          "type": "address[]"
        },
        {
          "internalType": "address[]",
          "name": "USDTPath",
          "type": "address[]"
        },
        {
          "internalType": "uint256",
          "name": "deadline",
          "type": "uint256"
        }
      ],
      "name": "deposit",
      "outputs": [],
      "stateMutability": "payable",
      "type": "function"
    },
    {
      "inputs": [],
      "name": "drawWinner",
      "outputs": [],
      "stateMutability": "nonpayable",
      "type": "function"
    },
    {
      "inputs": [
        {
          "internalType": "address",
          "name": "account",
          "type": "address"
        },
        {
          "internalType": "address",
          "name": "operator",
          "type": "address"
        }
      ],
      "name": "isApprovedForAll",
      "outputs": [
        {
          "internalType": "bool",
          "name": "",
          "type": "bool"
        }
      ],
      "stateMutability": "view",
      "type": "function"
    },
    {
      "inputs": [],
      "name": "mintPrice",
      "outputs": [
        {
          "internalType": "uint256",
          "name": "",
          "type": "uint256"
        }
      ],
      "stateMutability": "view",
      "type": "function"
    },
    {
      "inputs": [],
      "name": "name",
      "outputs": [
        {
          "internalType": "string",
          "name": "",
          "type": "string"
        }
      ],
      "stateMutability": "view",
      "type": "function"
    },
    {
      "inputs": [],
      "name": "owner",
      "outputs": [
        {
          "internalType": "address",
          "name": "",
          "type": "address"
        }
      ],
      "stateMutability": "view",
      "type": "function"
    },
    {
      "inputs": [
        {
          "internalType": "uint256",
          "name": "",
          "type": "uint256"
        }
      ],
      "name": "particapants",
      "outputs": [
        {
          "internalType": "address",
          "name": "",
          "type": "address"
        }
      ],
      "stateMutability": "view",
      "type": "function"
    },
    {
      "inputs": [],
      "name": "renounceOwnership",
      "outputs": [],
      "stateMutability": "nonpayable",
      "type": "function"
    },
    {
      "inputs": [
        {
          "internalType": "address",
          "name": "from",
          "type": "address"
        },
        {
          "internalType": "address",
          "name": "to",
          "type": "address"
        },
        {
          "internalType": "uint256[]",
          "name": "ids",
          "type": "uint256[]"
        },
        {
          "internalType": "uint256[]",
          "name": "amounts",
          "type": "uint256[]"
        },
        {
          "internalType": "bytes",
          "name": "data",
          "type": "bytes"
        }
      ],
      "name": "safeBatchTransferFrom",
      "outputs": [],
      "stateMutability": "nonpayable",
      "type": "function"
    },
    {
      "inputs": [
        {
          "internalType": "address",
          "name": "from",
          "type": "address"
        },
        {
          "internalType": "address",
          "name": "to",
          "type": "address"
        },
        {
          "internalType": "uint256",
          "name": "id",
          "type": "uint256"
        },
        {
          "internalType": "uint256",
          "name": "amount",
          "type": "uint256"
        },
        {
          "internalType": "bytes",
          "name": "data",
          "type": "bytes"
        }
      ],
      "name": "safeTransferFrom",
      "outputs": [],
      "stateMutability": "nonpayable",
      "type": "function"
    },
    {
      "inputs": [
        {
          "internalType": "address",
          "name": "operator",
          "type": "address"
        },
        {
          "internalType": "bool",
          "name": "approved",
          "type": "bool"
        }
      ],
      "name": "setApprovalForAll",
      "outputs": [],
      "stateMutability": "nonpayable",
      "type": "function"
    },
    {
      "inputs": [
        {
          "internalType": "uint256",
          "name": "_mintPrice",
          "type": "uint256"
        }
      ],
      "name": "setMintPrice",
      "outputs": [],
      "stateMutability": "nonpayable",
      "type": "function"
    },
    {
      "inputs": [
        {
          "internalType": "string",
          "name": "newuri",
          "type": "string"
        }
      ],
      "name": "setURI",
      "outputs": [],
      "stateMutability": "nonpayable",
      "type": "function"
    },
    {
      "inputs": [
        {
          "internalType": "bytes4",
          "name": "interfaceId",
          "type": "bytes4"
        }
      ],
      "name": "supportsInterface",
      "outputs": [
        {
          "internalType": "bool",
          "name": "",
          "type": "bool"
        }
      ],
      "stateMutability": "view",
      "type": "function"
    },
    {
      "inputs": [],
      "name": "symbol",
      "outputs": [
        {
          "internalType": "string",
          "name": "",
          "type": "string"
        }
      ],
      "stateMutability": "view",
      "type": "function"
    },
    {
      "inputs": [
        {
          "internalType": "address",
          "name": "newOwner",
          "type": "address"
        }
      ],
      "name": "transferOwnership",
      "outputs": [],
      "stateMutability": "nonpayable",
      "type": "function"
    },
    {
      "inputs": [
        {
          "internalType": "uint256",
          "name": "",
          "type": "uint256"
        }
      ],
      "name": "uri",
      "outputs": [
        {
          "internalType": "string",
          "name": "",
          "type": "string"
        }
      ],
      "stateMutability": "view",
      "type": "function"
    }
  ],
  "bytecode": "0x60a0604052670de0b6b3a76400006006556000600755604051806020016040528073b31f66aa3c1e785363f0875a1b74e27b85fd66c773ffffffffffffffffffffffffffffffffffffffff1673ffffffffffffffffffffffffffffffffffffffff16815250600a90600162000076929190620003b4565b503480156200008457600080fd5b5060405180602001604052806000815250620000a681620002ca60201b60201c565b50620000c7620000bb620002e660201b60201c565b620002ee60201b60201c565b6040518060400160405280600c81526020017f41415645204c6f74746572790000000000000000000000000000000000000000815250600490805190602001906200011492919062000443565b506040518060400160405280600381526020017f4c4f540000000000000000000000000000000000000000000000000000000000815250600590805190602001906200016292919062000443565b506000738f57153f18b7273f9a814b93b31cb3f9b035e7c290507360ae616a2155ee3d9a68541ba4544862310933d473ffffffffffffffffffffffffffffffffffffffff1660808173ffffffffffffffffffffffffffffffffffffffff168152505073b97ef9ef8734c71904d8002f8b6bc66dd9c48a6e600e60006101000a81548173ffffffffffffffffffffffffffffffffffffffff021916908373ffffffffffffffffffffffffffffffffffffffff16021790555073c7198437980c041c805a1edcba50c1ce5db95118600f60006101000a81548173ffffffffffffffffffffffffffffffffffffffff021916908373ffffffffffffffffffffffffffffffffffffffff16021790555073794a61358d6845594f94dc1db02a252b5b4814ad601160006101000a81548173ffffffffffffffffffffffffffffffffffffffff021916908373ffffffffffffffffffffffffffffffffffffffff1602179055505062000558565b8060029080519060200190620002e292919062000443565b5050565b600033905090565b6000600360009054906101000a900473ffffffffffffffffffffffffffffffffffffffff16905081600360006101000a81548173ffffffffffffffffffffffffffffffffffffffff021916908373ffffffffffffffffffffffffffffffffffffffff1602179055508173ffffffffffffffffffffffffffffffffffffffff168173ffffffffffffffffffffffffffffffffffffffff167f8be0079c531659141344cd1fd0a4f28419497f9722a3daafe3b4186f6b6457e060405160405180910390a35050565b82805482825590600052602060002090810192821562000430579160200282015b828111156200042f5782518260006101000a81548173ffffffffffffffffffffffffffffffffffffffff021916908373ffffffffffffffffffffffffffffffffffffffff16021790555091602001919060010190620003d5565b5b5090506200043f9190620004d4565b5090565b828054620004519062000522565b90600052602060002090601f016020900481019282620004755760008555620004c1565b82601f106200049057805160ff1916838001178555620004c1565b82800160010185558215620004c1579182015b82811115620004c0578251825591602001919060010190620004a3565b5b509050620004d09190620004d4565b5090565b5b80821115620004ef576000816000905550600101620004d5565b5090565b7f4e487b7100000000000000000000000000000000000000000000000000000000600052602260045260246000fd5b600060028204905060018216806200053b57607f821691505b60208210811415620005525762000551620004f3565b5b50919050565b60805161467e6200058960003960008181610abd01528181610c68015281816119300152611a5a015261467e6000f3fe6080604052600436106101655760003560e01c806384d741a7116100d1578063bb09d9b71161008a578063e985e9c511610064578063e985e9c514610513578063f242432a14610550578063f2fde38b14610579578063f4a0a528146105a257610165565b8063bb09d9b71461047e578063c1892058146104a9578063c674bb15146104d457610165565b806384d741a71461038f5780638da5cb5b146103ab57806395d89b41146103d6578063a22cb46514610401578063a86345871461042a578063b2185bb11461046757610165565b8063336bfbd411610123578063336bfbd41461029e5780634e1273f4146102c95780635971b5ff146103065780636817c76c146103315780636ecae2331461035c578063715018a61461037857610165565b8062fdd58e1461016a57806301ffc9a7146101a757806302fe5305146101e457806306fdde031461020d5780630e89341c146102385780632eb2c2d614610275575b600080fd5b34801561017657600080fd5b50610191600480360381019061018c91906129e7565b6105cb565b60405161019e9190612a36565b60405180910390f35b3480156101b357600080fd5b506101ce60048036038101906101c99190612aa9565b610694565b6040516101db9190612af1565b60405180910390f35b3480156101f057600080fd5b5061020b60048036038101906102069190612c52565b610776565b005b34801561021957600080fd5b5061022261078a565b60405161022f9190612d23565b60405180910390f35b34801561024457600080fd5b5061025f600480360381019061025a9190612d45565b610818565b60405161026c9190612d23565b60405180910390f35b34801561028157600080fd5b5061029c60048036038101906102979190612edb565b6108ac565b005b3480156102aa57600080fd5b506102b361094d565b6040516102c09190612a36565b60405180910390f35b3480156102d557600080fd5b506102f060048036038101906102eb919061306d565b610953565b6040516102fd91906131a3565b60405180910390f35b34801561031257600080fd5b5061031b610a6c565b6040516103289190612a36565b60405180910390f35b34801561033d57600080fd5b50610346610a72565b6040516103539190612a36565b60405180910390f35b61037660048036038101906103719190613220565b610a78565b005b34801561038457600080fd5b5061038d611070565b005b6103a960048036038101906103a491906132dc565b611084565b005b3480156103b757600080fd5b506103c06110db565b6040516103cd919061335a565b60405180910390f35b3480156103e257600080fd5b506103eb611105565b6040516103f89190612d23565b60405180910390f35b34801561040d57600080fd5b50610428600480360381019061042391906133a1565b611193565b005b34801561043657600080fd5b50610451600480360381019061044c9190612d45565b6111a9565b60405161045e919061335a565b60405180910390f35b34801561047357600080fd5b5061047c6111e8565b005b34801561048a57600080fd5b506104936112db565b6040516104a0919061335a565b60405180910390f35b3480156104b557600080fd5b506104be6112f3565b6040516104cb919061335a565b60405180910390f35b3480156104e057600080fd5b506104fb60048036038101906104f691906133e1565b61130b565b60405161050a9392919061340e565b60405180910390f35b34801561051f57600080fd5b5061053a60048036038101906105359190613445565b611335565b6040516105479190612af1565b60405180910390f35b34801561055c57600080fd5b5061057760048036038101906105729190613485565b6113c9565b005b34801561058557600080fd5b506105a0600480360381019061059b91906133e1565b61146a565b005b3480156105ae57600080fd5b506105c960048036038101906105c49190612d45565b6114ee565b005b60008073ffffffffffffffffffffffffffffffffffffffff168373ffffffffffffffffffffffffffffffffffffffff16141561063c576040517f08c379a00000000000000000000000000000000000000000000000000000000081526004016106339061358e565b60405180910390fd5b60008083815260200190815260200160002060008473ffffffffffffffffffffffffffffffffffffffff1673ffffffffffffffffffffffffffffffffffffffff16815260200190815260200160002054905092915050565b60007fd9b67a26000000000000000000000000000000000000000000000000000000007bffffffffffffffffffffffffffffffffffffffffffffffffffffffff1916827bffffffffffffffffffffffffffffffffffffffffffffffffffffffff1916148061075f57507f0e89341c000000000000000000000000000000000000000000000000000000007bffffffffffffffffffffffffffffffffffffffffffffffffffffffff1916827bffffffffffffffffffffffffffffffffffffffffffffffffffffffff1916145b8061076f575061076e82611500565b5b9050919050565b61077e61156a565b610787816115e8565b50565b60048054610797906135dd565b80601f01602080910402602001604051908101604052809291908181526020018280546107c3906135dd565b80156108105780601f106107e557610100808354040283529160200191610810565b820191906000526020600020905b8154815290600101906020018083116107f357829003601f168201915b505050505081565b606060028054610827906135dd565b80601f0160208091040260200160405190810160405280929190818152602001828054610853906135dd565b80156108a05780601f10610875576101008083540402835291602001916108a0565b820191906000526020600020905b81548152906001019060200180831161088357829003601f168201915b50505050509050919050565b6108b4611602565b73ffffffffffffffffffffffffffffffffffffffff168573ffffffffffffffffffffffffffffffffffffffff1614806108fa57506108f9856108f4611602565b611335565b5b610939576040517f08c379a000000000000000000000000000000000000000000000000000000000815260040161093090613681565b60405180910390fd5b610946858585858561160a565b5050505050565b600d5481565b60608151835114610999576040517f08c379a000000000000000000000000000000000000000000000000000000000815260040161099090613713565b60405180910390fd5b6000835167ffffffffffffffff8111156109b6576109b5612b27565b5b6040519080825280602002602001820160405280156109e45781602001602082028036833780820191505090505b50905060005b8451811015610a6157610a31858281518110610a0957610a08613733565b5b6020026020010151858381518110610a2457610a23613733565b5b60200260200101516105cb565b828281518110610a4457610a43613733565b5b60200260200101818152505080610a5a90613791565b90506109ea565b508091505092915050565b600c5481565b60065481565b60003411610abb576040517f08c379a0000000000000000000000000000000000000000000000000000000008152600401610ab290613826565b60405180910390fd5b7f000000000000000000000000000000000000000000000000000000000000000073ffffffffffffffffffffffffffffffffffffffff166373b295c26040518163ffffffff1660e01b8152600401602060405180830381865afa158015610b26573d6000803e3d6000fd5b505050506040513d601f19601f82011682018060405250810190610b4a919061385b565b73ffffffffffffffffffffffffffffffffffffffff1685856000818110610b7457610b73613733565b5b9050602002016020810190610b8991906133e1565b73ffffffffffffffffffffffffffffffffffffffff16141580610c22575073b97ef9ef8734c71904d8002f8b6bc66dd9c48a6e73ffffffffffffffffffffffffffffffffffffffff168585600188889050610be49190613888565b818110610bf457610bf3613733565b5b9050602002016020810190610c0991906133e1565b73ffffffffffffffffffffffffffffffffffffffff1614155b15610c665784846040517f945b7687000000000000000000000000000000000000000000000000000000008152600401610c5d92919061397f565b60405180910390fd5b7f000000000000000000000000000000000000000000000000000000000000000073ffffffffffffffffffffffffffffffffffffffff166373b295c26040518163ffffffff1660e01b8152600401602060405180830381865afa158015610cd1573d6000803e3d6000fd5b505050506040513d601f19601f82011682018060405250810190610cf5919061385b565b73ffffffffffffffffffffffffffffffffffffffff1683836000818110610d1f57610d1e613733565b5b9050602002016020810190610d3491906133e1565b73ffffffffffffffffffffffffffffffffffffffff16141580610dcd575073c7198437980c041c805a1edcba50c1ce5db9511873ffffffffffffffffffffffffffffffffffffffff168383600186869050610d8f9190613888565b818110610d9f57610d9e613733565b5b9050602002016020810190610db491906133e1565b73ffffffffffffffffffffffffffffffffffffffff1614155b15610e115782826040517f945b7687000000000000000000000000000000000000000000000000000000008152600401610e0892919061397f565b60405180910390fd5b6000610e38888787308660648034610e2991906139a3565b610e339190613a2c565b61192c565b90506000610e6c888686308760648034610e5291906139a3565b610e5c9190613a2c565b34610e679190613888565b61192c565b90508160018351610e7d9190613888565b81518110610e8e57610e8d613733565b5b6020026020010151600c6000828254610ea79190613a5d565b925050819055508160018351610ebd9190613888565b81518110610ece57610ecd613733565b5b6020026020010151600b60003373ffffffffffffffffffffffffffffffffffffffff1673ffffffffffffffffffffffffffffffffffffffff1681526020019081526020016000206000016000828254610f279190613a5d565b925050819055508060018251610f3d9190613888565b81518110610f4e57610f4d613733565b5b6020026020010151600d6000828254610f679190613a5d565b925050819055508060018251610f7d9190613888565b81518110610f8e57610f8d613733565b5b6020026020010151600b60003373ffffffffffffffffffffffffffffffffffffffff1673ffffffffffffffffffffffffffffffffffffffff1681526020019081526020016000206001016000828254610fe79190613a5d565b9250508190555061103373b97ef9ef8734c71904d8002f8b6bc66dd9c48a6e83600185516110159190613888565b8151811061102657611025613733565b5b6020026020010151611b12565b61106481600183516110459190613888565b8151811061105657611055613733565b5b602002602001015184611c5f565b50505050505050505050565b61107861156a565b6110826000611d63565b565b6006543410156110c9576040517f08c379a00000000000000000000000000000000000000000000000000000000081526004016110c090613b25565b60405180910390fd5b6110d68360018484611e29565b505050565b6000600360009054906101000a900473ffffffffffffffffffffffffffffffffffffffff16905090565b60058054611112906135dd565b80601f016020809104026020016040519081016040528092919081815260200182805461113e906135dd565b801561118b5780601f106111605761010080835404028352916020019161118b565b820191906000526020600020905b81548152906001019060200180831161116e57829003601f168201915b505050505081565b6111a561119e611602565b8383611fda565b5050565b600881815481106111b957600080fd5b906000526020600020016000915054906101000a900473ffffffffffffffffffffffffffffffffffffffff1681565b62093a806009546111f99190613a5d565b421161123a576040517f08c379a000000000000000000000000000000000000000000000000000000000815260040161123190613b91565b60405180910390fd5b600061124a600880549050612147565b9050600881815481106112605761125f613733565b5b9060005260206000200160009054906101000a900473ffffffffffffffffffffffffffffffffffffffff1673ffffffffffffffffffffffffffffffffffffffff166108fc479081150290604051600060405180830381858888f193505050501580156112d0573d6000803e3d6000fd5b504260098190555050565b73b97ef9ef8734c71904d8002f8b6bc66dd9c48a6e81565b73c7198437980c041c805a1edcba50c1ce5db9511881565b600b6020528060005260406000206000915090508060000154908060010154908060020154905083565b6000600160008473ffffffffffffffffffffffffffffffffffffffff1673ffffffffffffffffffffffffffffffffffffffff16815260200190815260200160002060008373ffffffffffffffffffffffffffffffffffffffff1673ffffffffffffffffffffffffffffffffffffffff16815260200190815260200160002060009054906101000a900460ff16905092915050565b6113d1611602565b73ffffffffffffffffffffffffffffffffffffffff168573ffffffffffffffffffffffffffffffffffffffff161480611417575061141685611411611602565b611335565b5b611456576040517f08c379a000000000000000000000000000000000000000000000000000000000815260040161144d90613681565b60405180910390fd5b61146385858585856121a3565b5050505050565b61147261156a565b600073ffffffffffffffffffffffffffffffffffffffff168173ffffffffffffffffffffffffffffffffffffffff1614156114e2576040517f08c379a00000000000000000000000000000000000000000000000000000000081526004016114d990613c23565b60405180910390fd5b6114eb81611d63565b50565b6114f661156a565b8060068190555050565b60007f01ffc9a7000000000000000000000000000000000000000000000000000000007bffffffffffffffffffffffffffffffffffffffffffffffffffffffff1916827bffffffffffffffffffffffffffffffffffffffffffffffffffffffff1916149050919050565b611572611602565b73ffffffffffffffffffffffffffffffffffffffff166115906110db565b73ffffffffffffffffffffffffffffffffffffffff16146115e6576040517f08c379a00000000000000000000000000000000000000000000000000000000081526004016115dd90613c8f565b60405180910390fd5b565b80600290805190602001906115fe92919061289c565b5050565b600033905090565b815183511461164e576040517f08c379a000000000000000000000000000000000000000000000000000000000815260040161164590613d21565b60405180910390fd5b600073ffffffffffffffffffffffffffffffffffffffff168473ffffffffffffffffffffffffffffffffffffffff1614156116be576040517f08c379a00000000000000000000000000000000000000000000000000000000081526004016116b590613db3565b60405180910390fd5b60006116c8611602565b90506116d881878787878761243f565b60005b84518110156118895760008582815181106116f9576116f8613733565b5b60200260200101519050600085838151811061171857611717613733565b5b60200260200101519050600080600084815260200190815260200160002060008b73ffffffffffffffffffffffffffffffffffffffff1673ffffffffffffffffffffffffffffffffffffffff168152602001908152602001600020549050818110156117b9576040517f08c379a00000000000000000000000000000000000000000000000000000000081526004016117b090613e45565b60405180910390fd5b81810360008085815260200190815260200160002060008c73ffffffffffffffffffffffffffffffffffffffff1673ffffffffffffffffffffffffffffffffffffffff168152602001908152602001600020819055508160008085815260200190815260200160002060008b73ffffffffffffffffffffffffffffffffffffffff1673ffffffffffffffffffffffffffffffffffffffff168152602001908152602001600020600082825461186e9190613a5d565b925050819055505050508061188290613791565b90506116db565b508473ffffffffffffffffffffffffffffffffffffffff168673ffffffffffffffffffffffffffffffffffffffff168273ffffffffffffffffffffffffffffffffffffffff167f4a39dc06d4c0dbc64b70af90fd698a233a518aa5d07e595d983b8c0526c8f7fb8787604051611900929190613e65565b60405180910390a4611916818787878787612447565b61192481878787878761244f565b505050505050565b60607f000000000000000000000000000000000000000000000000000000000000000073ffffffffffffffffffffffffffffffffffffffff166373b295c26040518163ffffffff1660e01b8152600401602060405180830381865afa158015611999573d6000803e3d6000fd5b505050506040513d601f19601f820116820180604052508101906119bd919061385b565b73ffffffffffffffffffffffffffffffffffffffff16868660008181106119e7576119e6613733565b5b90506020020160208101906119fc91906133e1565b73ffffffffffffffffffffffffffffffffffffffff1614611a565785856040517f945b7687000000000000000000000000000000000000000000000000000000008152600401611a4d92919061397f565b60405180910390fd5b60007f000000000000000000000000000000000000000000000000000000000000000073ffffffffffffffffffffffffffffffffffffffff1663a2a1623d848a8a8a8a8a6040518763ffffffff1660e01b8152600401611aba959493929190613e9c565b60006040518083038185885af1158015611ad8573d6000803e3d6000fd5b50505050506040513d6000823e3d601f19601f82011682018060405250810190611b029190613f96565b9050809150509695505050505050565b600e60009054906101000a900473ffffffffffffffffffffffffffffffffffffffff1673ffffffffffffffffffffffffffffffffffffffff1663095ea7b373794a61358d6845594f94dc1db02a252b5b4814ad836040518363ffffffff1660e01b8152600401611b83929190613fdf565b6020604051808303816000875af1158015611ba2573d6000803e3d6000fd5b505050506040513d601f19601f82011682018060405250810190611bc6919061401d565b50601160009054906101000a900473ffffffffffffffffffffffffffffffffffffffff1673ffffffffffffffffffffffffffffffffffffffff1663617ba03783833060006040518563ffffffff1660e01b8152600401611c29949392919061409d565b600060405180830381600087803b158015611c4357600080fd5b505af1158015611c57573d6000803e3d6000fd5b505050505050565b600080600b60003373ffffffffffffffffffffffffffffffffffffffff1673ffffffffffffffffffffffffffffffffffffffff16815260200190815260200160002060010181905550600f60009054906101000a900473ffffffffffffffffffffffffffffffffffffffff1673ffffffffffffffffffffffffffffffffffffffff1663095ea7b37366357dcace80431aee0a7507e2e361b7e2402370856040518363ffffffff1660e01b8152600401611d19929190613fdf565b6020604051808303816000875af1158015611d38573d6000803e3d6000fd5b505050506040513d601f19601f82011682018060405250810190611d5c919061401d565b5092915050565b6000600360009054906101000a900473ffffffffffffffffffffffffffffffffffffffff16905081600360006101000a81548173ffffffffffffffffffffffffffffffffffffffff021916908373ffffffffffffffffffffffffffffffffffffffff1602179055508173ffffffffffffffffffffffffffffffffffffffff168173ffffffffffffffffffffffffffffffffffffffff167f8be0079c531659141344cd1fd0a4f28419497f9722a3daafe3b4186f6b6457e060405160405180910390a35050565b600073ffffffffffffffffffffffffffffffffffffffff168473ffffffffffffffffffffffffffffffffffffffff161415611e99576040517f08c379a0000000000000000000000000000000000000000000000000000000008152600401611e9090614154565b60405180910390fd5b6000611ea3611602565b90506000611eb085612627565b90506000611ebd85612627565b9050611ece8360008985858961243f565b8460008088815260200190815260200160002060008973ffffffffffffffffffffffffffffffffffffffff1673ffffffffffffffffffffffffffffffffffffffff1681526020019081526020016000206000828254611f2d9190613a5d565b925050819055508673ffffffffffffffffffffffffffffffffffffffff16600073ffffffffffffffffffffffffffffffffffffffff168473ffffffffffffffffffffffffffffffffffffffff167fc3d58168c5ae7397731d063d5bbf3d657854427343f4c083240f7aacaa2d0f628989604051611fab929190614174565b60405180910390a4611fc283600089858589612447565b611fd1836000898989896126a1565b50505050505050565b8173ffffffffffffffffffffffffffffffffffffffff168373ffffffffffffffffffffffffffffffffffffffff161415612049576040517f08c379a00000000000000000000000000000000000000000000000000000000081526004016120409061420f565b60405180910390fd5b80600160008573ffffffffffffffffffffffffffffffffffffffff1673ffffffffffffffffffffffffffffffffffffffff16815260200190815260200160002060008473ffffffffffffffffffffffffffffffffffffffff1673ffffffffffffffffffffffffffffffffffffffff16815260200190815260200160002060006101000a81548160ff0219169083151502179055508173ffffffffffffffffffffffffffffffffffffffff168373ffffffffffffffffffffffffffffffffffffffff167f17307eab39ab6107e8899845ad3d59bd9653f200f220920489ca2b5937696c318360405161213a9190612af1565b60405180910390a3505050565b60006007600081548092919061215c90613791565b919050555081423360075460405160200161217993929190614298565b6040516020818303038152906040528051906020012060001c61219c91906142d5565b9050919050565b600073ffffffffffffffffffffffffffffffffffffffff168473ffffffffffffffffffffffffffffffffffffffff161415612213576040517f08c379a000000000000000000000000000000000000000000000000000000000815260040161220a90613db3565b60405180910390fd5b600061221d611602565b9050600061222a85612627565b9050600061223785612627565b905061224783898985858961243f565b600080600088815260200190815260200160002060008a73ffffffffffffffffffffffffffffffffffffffff1673ffffffffffffffffffffffffffffffffffffffff168152602001908152602001600020549050858110156122de576040517f08c379a00000000000000000000000000000000000000000000000000000000081526004016122d590613e45565b60405180910390fd5b85810360008089815260200190815260200160002060008b73ffffffffffffffffffffffffffffffffffffffff1673ffffffffffffffffffffffffffffffffffffffff168152602001908152602001600020819055508560008089815260200190815260200160002060008a73ffffffffffffffffffffffffffffffffffffffff1673ffffffffffffffffffffffffffffffffffffffff16815260200190815260200160002060008282546123939190613a5d565b925050819055508773ffffffffffffffffffffffffffffffffffffffff168973ffffffffffffffffffffffffffffffffffffffff168573ffffffffffffffffffffffffffffffffffffffff167fc3d58168c5ae7397731d063d5bbf3d657854427343f4c083240f7aacaa2d0f628a8a604051612410929190614174565b60405180910390a4612426848a8a86868a612447565b612434848a8a8a8a8a6126a1565b505050505050505050565b505050505050565b505050505050565b61246e8473ffffffffffffffffffffffffffffffffffffffff16612879565b1561261f578373ffffffffffffffffffffffffffffffffffffffff1663bc197c8187878686866040518663ffffffff1660e01b81526004016124b495949392919061435b565b6020604051808303816000875af19250505080156124f057506040513d601f19601f820116820180604052508101906124ed91906143d8565b60015b612596576124fc614412565b806308c379a014156125595750612511614434565b8061251c575061255b565b806040517f08c379a00000000000000000000000000000000000000000000000000000000081526004016125509190612d23565b60405180910390fd5b505b6040517f08c379a000000000000000000000000000000000000000000000000000000000815260040161258d9061453c565b60405180910390fd5b63bc197c8160e01b7bffffffffffffffffffffffffffffffffffffffffffffffffffffffff1916817bffffffffffffffffffffffffffffffffffffffffffffffffffffffff19161461261d576040517f08c379a0000000000000000000000000000000000000000000000000000000008152600401612614906145ce565b60405180910390fd5b505b505050505050565b60606000600167ffffffffffffffff81111561264657612645612b27565b5b6040519080825280602002602001820160405280156126745781602001602082028036833780820191505090505b509050828160008151811061268c5761268b613733565b5b60200260200101818152505080915050919050565b6126c08473ffffffffffffffffffffffffffffffffffffffff16612879565b15612871578373ffffffffffffffffffffffffffffffffffffffff1663f23a6e6187878686866040518663ffffffff1660e01b81526004016127069594939291906145ee565b6020604051808303816000875af192505050801561274257506040513d601f19601f8201168201806040525081019061273f91906143d8565b60015b6127e85761274e614412565b806308c379a014156127ab5750612763614434565b8061276e57506127ad565b806040517f08c379a00000000000000000000000000000000000000000000000000000000081526004016127a29190612d23565b60405180910390fd5b505b6040517f08c379a00000000000000000000000000000000000000000000000000000000081526004016127df9061453c565b60405180910390fd5b63f23a6e6160e01b7bffffffffffffffffffffffffffffffffffffffffffffffffffffffff1916817bffffffffffffffffffffffffffffffffffffffffffffffffffffffff19161461286f576040517f08c379a0000000000000000000000000000000000000000000000000000000008152600401612866906145ce565b60405180910390fd5b505b505050505050565b6000808273ffffffffffffffffffffffffffffffffffffffff163b119050919050565b8280546128a8906135dd565b90600052602060002090601f0160209004810192826128ca5760008555612911565b82601f106128e357805160ff1916838001178555612911565b82800160010185558215612911579182015b828111156129105782518255916020019190600101906128f5565b5b50905061291e9190612922565b5090565b5b8082111561293b576000816000905550600101612923565b5090565b6000604051905090565b600080fd5b600080fd5b600073ffffffffffffffffffffffffffffffffffffffff82169050919050565b600061297e82612953565b9050919050565b61298e81612973565b811461299957600080fd5b50565b6000813590506129ab81612985565b92915050565b6000819050919050565b6129c4816129b1565b81146129cf57600080fd5b50565b6000813590506129e1816129bb565b92915050565b600080604083850312156129fe576129fd612949565b5b6000612a0c8582860161299c565b9250506020612a1d858286016129d2565b9150509250929050565b612a30816129b1565b82525050565b6000602082019050612a4b6000830184612a27565b92915050565b60007fffffffff0000000000000000000000000000000000000000000000000000000082169050919050565b612a8681612a51565b8114612a9157600080fd5b50565b600081359050612aa381612a7d565b92915050565b600060208284031215612abf57612abe612949565b5b6000612acd84828501612a94565b91505092915050565b60008115159050919050565b612aeb81612ad6565b82525050565b6000602082019050612b066000830184612ae2565b92915050565b600080fd5b600080fd5b6000601f19601f8301169050919050565b7f4e487b7100000000000000000000000000000000000000000000000000000000600052604160045260246000fd5b612b5f82612b16565b810181811067ffffffffffffffff82111715612b7e57612b7d612b27565b5b80604052505050565b6000612b9161293f565b9050612b9d8282612b56565b919050565b600067ffffffffffffffff821115612bbd57612bbc612b27565b5b612bc682612b16565b9050602081019050919050565b82818337600083830152505050565b6000612bf5612bf084612ba2565b612b87565b905082815260208101848484011115612c1157612c10612b11565b5b612c1c848285612bd3565b509392505050565b600082601f830112612c3957612c38612b0c565b5b8135612c49848260208601612be2565b91505092915050565b600060208284031215612c6857612c67612949565b5b600082013567ffffffffffffffff811115612c8657612c8561294e565b5b612c9284828501612c24565b91505092915050565b600081519050919050565b600082825260208201905092915050565b60005b83811015612cd5578082015181840152602081019050612cba565b83811115612ce4576000848401525b50505050565b6000612cf582612c9b565b612cff8185612ca6565b9350612d0f818560208601612cb7565b612d1881612b16565b840191505092915050565b60006020820190508181036000830152612d3d8184612cea565b905092915050565b600060208284031215612d5b57612d5a612949565b5b6000612d69848285016129d2565b91505092915050565b600067ffffffffffffffff821115612d8d57612d8c612b27565b5b602082029050602081019050919050565b600080fd5b6000612db6612db184612d72565b612b87565b90508083825260208201905060208402830185811115612dd957612dd8612d9e565b5b835b81811015612e025780612dee88826129d2565b845260208401935050602081019050612ddb565b5050509392505050565b600082601f830112612e2157612e20612b0c565b5b8135612e31848260208601612da3565b91505092915050565b600067ffffffffffffffff821115612e5557612e54612b27565b5b612e5e82612b16565b9050602081019050919050565b6000612e7e612e7984612e3a565b612b87565b905082815260208101848484011115612e9a57612e99612b11565b5b612ea5848285612bd3565b509392505050565b600082601f830112612ec257612ec1612b0c565b5b8135612ed2848260208601612e6b565b91505092915050565b600080600080600060a08688031215612ef757612ef6612949565b5b6000612f058882890161299c565b9550506020612f168882890161299c565b945050604086013567ffffffffffffffff811115612f3757612f3661294e565b5b612f4388828901612e0c565b935050606086013567ffffffffffffffff811115612f6457612f6361294e565b5b612f7088828901612e0c565b925050608086013567ffffffffffffffff811115612f9157612f9061294e565b5b612f9d88828901612ead565b9150509295509295909350565b600067ffffffffffffffff821115612fc557612fc4612b27565b5b602082029050602081019050919050565b6000612fe9612fe484612faa565b612b87565b9050808382526020820190506020840283018581111561300c5761300b612d9e565b5b835b818110156130355780613021888261299c565b84526020840193505060208101905061300e565b5050509392505050565b600082601f83011261305457613053612b0c565b5b8135613064848260208601612fd6565b91505092915050565b6000806040838503121561308457613083612949565b5b600083013567ffffffffffffffff8111156130a2576130a161294e565b5b6130ae8582860161303f565b925050602083013567ffffffffffffffff8111156130cf576130ce61294e565b5b6130db85828601612e0c565b9150509250929050565b600081519050919050565b600082825260208201905092915050565b6000819050602082019050919050565b61311a816129b1565b82525050565b600061312c8383613111565b60208301905092915050565b6000602082019050919050565b6000613150826130e5565b61315a81856130f0565b935061316583613101565b8060005b8381101561319657815161317d8882613120565b975061318883613138565b925050600181019050613169565b5085935050505092915050565b600060208201905081810360008301526131bd8184613145565b905092915050565b600080fd5b60008083601f8401126131e0576131df612b0c565b5b8235905067ffffffffffffffff8111156131fd576131fc6131c5565b5b60208301915083602082028301111561321957613218612d9e565b5b9250929050565b600080600080600080600060a0888a03121561323f5761323e612949565b5b600061324d8a828b016129d2565b975050602061325e8a828b016129d2565b965050604088013567ffffffffffffffff81111561327f5761327e61294e565b5b61328b8a828b016131ca565b9550955050606088013567ffffffffffffffff8111156132ae576132ad61294e565b5b6132ba8a828b016131ca565b935093505060806132cd8a828b016129d2565b91505092959891949750929550565b6000806000606084860312156132f5576132f4612949565b5b60006133038682870161299c565b9350506020613314868287016129d2565b925050604084013567ffffffffffffffff8111156133355761333461294e565b5b61334186828701612ead565b9150509250925092565b61335481612973565b82525050565b600060208201905061336f600083018461334b565b92915050565b61337e81612ad6565b811461338957600080fd5b50565b60008135905061339b81613375565b92915050565b600080604083850312156133b8576133b7612949565b5b60006133c68582860161299c565b92505060206133d78582860161338c565b9150509250929050565b6000602082840312156133f7576133f6612949565b5b60006134058482850161299c565b91505092915050565b60006060820190506134236000830186612a27565b6134306020830185612a27565b61343d6040830184612a27565b949350505050565b6000806040838503121561345c5761345b612949565b5b600061346a8582860161299c565b925050602061347b8582860161299c565b9150509250929050565b600080600080600060a086880312156134a1576134a0612949565b5b60006134af8882890161299c565b95505060206134c08882890161299c565b94505060406134d1888289016129d2565b93505060606134e2888289016129d2565b925050608086013567ffffffffffffffff8111156135035761350261294e565b5b61350f88828901612ead565b9150509295509295909350565b7f455243313135353a2061646472657373207a65726f206973206e6f742061207660008201527f616c6964206f776e657200000000000000000000000000000000000000000000602082015250565b6000613578602a83612ca6565b91506135838261351c565b604082019050919050565b600060208201905081810360008301526135a78161356b565b9050919050565b7f4e487b7100000000000000000000000000000000000000000000000000000000600052602260045260246000fd5b600060028204905060018216806135f557607f821691505b60208210811415613609576136086135ae565b5b50919050565b7f455243313135353a2063616c6c6572206973206e6f7420746f6b656e206f776e60008201527f6572206e6f7220617070726f7665640000000000000000000000000000000000602082015250565b600061366b602f83612ca6565b91506136768261360f565b604082019050919050565b6000602082019050818103600083015261369a8161365e565b9050919050565b7f455243313135353a206163636f756e747320616e6420696473206c656e67746860008201527f206d69736d617463680000000000000000000000000000000000000000000000602082015250565b60006136fd602983612ca6565b9150613708826136a1565b604082019050919050565b6000602082019050818103600083015261372c816136f0565b9050919050565b7f4e487b7100000000000000000000000000000000000000000000000000000000600052603260045260246000fd5b7f4e487b7100000000000000000000000000000000000000000000000000000000600052601160045260246000fd5b600061379c826129b1565b91507fffffffffffffffffffffffffffffffffffffffffffffffffffffffffffffffff8214156137cf576137ce613762565b5b600182019050919050565b7f596f752063616e2774206465706f736974203000000000000000000000000000600082015250565b6000613810601383612ca6565b915061381b826137da565b602082019050919050565b6000602082019050818103600083015261383f81613803565b9050919050565b60008151905061385581612985565b92915050565b60006020828403121561387157613870612949565b5b600061387f84828501613846565b91505092915050565b6000613893826129b1565b915061389e836129b1565b9250828210156138b1576138b0613762565b5b828203905092915050565b600082825260208201905092915050565b6000819050919050565b6138e081612973565b82525050565b60006138f283836138d7565b60208301905092915050565b600061390d602084018461299c565b905092915050565b6000602082019050919050565b600061392e83856138bc565b9350613939826138cd565b8060005b858110156139725761394f82846138fe565b61395988826138e6565b975061396483613915565b92505060018101905061393d565b5085925050509392505050565b6000602082019050818103600083015261399a818486613922565b90509392505050565b60006139ae826129b1565b91506139b9836129b1565b9250817fffffffffffffffffffffffffffffffffffffffffffffffffffffffffffffffff04831182151516156139f2576139f1613762565b5b828202905092915050565b7f4e487b7100000000000000000000000000000000000000000000000000000000600052601260045260246000fd5b6000613a37826129b1565b9150613a42836129b1565b925082613a5257613a516139fd565b5b828204905092915050565b6000613a68826129b1565b9150613a73836129b1565b9250827fffffffffffffffffffffffffffffffffffffffffffffffffffffffffffffffff03821115613aa857613aa7613762565b5b828201905092915050565b7f596f7520646f6e2774206861766520656e6f75676820657468657220746f206d60008201527f696e740000000000000000000000000000000000000000000000000000000000602082015250565b6000613b0f602383612ca6565b9150613b1a82613ab3565b604082019050919050565b60006020820190508181036000830152613b3e81613b02565b9050919050565b7f77616974696e6720706572696f6420686173206e6f7420657870697265640000600082015250565b6000613b7b601e83612ca6565b9150613b8682613b45565b602082019050919050565b60006020820190508181036000830152613baa81613b6e565b9050919050565b7f4f776e61626c653a206e6577206f776e657220697320746865207a65726f206160008201527f6464726573730000000000000000000000000000000000000000000000000000602082015250565b6000613c0d602683612ca6565b9150613c1882613bb1565b604082019050919050565b60006020820190508181036000830152613c3c81613c00565b9050919050565b7f4f776e61626c653a2063616c6c6572206973206e6f7420746865206f776e6572600082015250565b6000613c79602083612ca6565b9150613c8482613c43565b602082019050919050565b60006020820190508181036000830152613ca881613c6c565b9050919050565b7f455243313135353a2069647320616e6420616d6f756e7473206c656e6774682060008201527f6d69736d61746368000000000000000000000000000000000000000000000000602082015250565b6000613d0b602883612ca6565b9150613d1682613caf565b604082019050919050565b60006020820190508181036000830152613d3a81613cfe565b9050919050565b7f455243313135353a207472616e7366657220746f20746865207a65726f20616460008201527f6472657373000000000000000000000000000000000000000000000000000000602082015250565b6000613d9d602583612ca6565b9150613da882613d41565b604082019050919050565b60006020820190508181036000830152613dcc81613d90565b9050919050565b7f455243313135353a20696e73756666696369656e742062616c616e636520666f60008201527f72207472616e7366657200000000000000000000000000000000000000000000602082015250565b6000613e2f602a83612ca6565b9150613e3a82613dd3565b604082019050919050565b60006020820190508181036000830152613e5e81613e22565b9050919050565b60006040820190508181036000830152613e7f8185613145565b90508181036020830152613e938184613145565b90509392505050565b6000608082019050613eb16000830188612a27565b8181036020830152613ec4818688613922565b9050613ed3604083018561334b565b613ee06060830184612a27565b9695505050505050565b600081519050613ef9816129bb565b92915050565b6000613f12613f0d84612d72565b612b87565b90508083825260208201905060208402830185811115613f3557613f34612d9e565b5b835b81811015613f5e5780613f4a8882613eea565b845260208401935050602081019050613f37565b5050509392505050565b600082601f830112613f7d57613f7c612b0c565b5b8151613f8d848260208601613eff565b91505092915050565b600060208284031215613fac57613fab612949565b5b600082015167ffffffffffffffff811115613fca57613fc961294e565b5b613fd684828501613f68565b91505092915050565b6000604082019050613ff4600083018561334b565b6140016020830184612a27565b9392505050565b60008151905061401781613375565b92915050565b60006020828403121561403357614032612949565b5b600061404184828501614008565b91505092915050565b6000819050919050565b600061ffff82169050919050565b6000819050919050565b600061408761408261407d8461404a565b614062565b614054565b9050919050565b6140978161406c565b82525050565b60006080820190506140b2600083018761334b565b6140bf6020830186612a27565b6140cc604083018561334b565b6140d9606083018461408e565b95945050505050565b7f455243313135353a206d696e7420746f20746865207a65726f2061646472657360008201527f7300000000000000000000000000000000000000000000000000000000000000602082015250565b600061413e602183612ca6565b9150614149826140e2565b604082019050919050565b6000602082019050818103600083015261416d81614131565b9050919050565b60006040820190506141896000830185612a27565b6141966020830184612a27565b9392505050565b7f455243313135353a2073657474696e6720617070726f76616c2073746174757360008201527f20666f722073656c660000000000000000000000000000000000000000000000602082015250565b60006141f9602983612ca6565b91506142048261419d565b604082019050919050565b60006020820190508181036000830152614228816141ec565b9050919050565b6000819050919050565b61424a614245826129b1565b61422f565b82525050565b60008160601b9050919050565b600061426882614250565b9050919050565b600061427a8261425d565b9050919050565b61429261428d82612973565b61426f565b82525050565b60006142a48286614239565b6020820191506142b48285614281565b6014820191506142c48284614239565b602082019150819050949350505050565b60006142e0826129b1565b91506142eb836129b1565b9250826142fb576142fa6139fd565b5b828206905092915050565b600081519050919050565b600082825260208201905092915050565b600061432d82614306565b6143378185614311565b9350614347818560208601612cb7565b61435081612b16565b840191505092915050565b600060a082019050614370600083018861334b565b61437d602083018761334b565b818103604083015261438f8186613145565b905081810360608301526143a38185613145565b905081810360808301526143b78184614322565b90509695505050505050565b6000815190506143d281612a7d565b92915050565b6000602082840312156143ee576143ed612949565b5b60006143fc848285016143c3565b91505092915050565b60008160e01c9050919050565b600060033d11156144315760046000803e61442e600051614405565b90505b90565b600060443d1015614444576144c7565b61444c61293f565b60043d036004823e80513d602482011167ffffffffffffffff821117156144745750506144c7565b808201805167ffffffffffffffff81111561449257505050506144c7565b80602083010160043d0385018111156144af5750505050506144c7565b6144be82602001850186612b56565b82955050505050505b90565b7f455243313135353a207472616e7366657220746f206e6f6e204552433131353560008201527f526563656976657220696d706c656d656e746572000000000000000000000000602082015250565b6000614526603483612ca6565b9150614531826144ca565b604082019050919050565b6000602082019050818103600083015261455581614519565b9050919050565b7f455243313135353a204552433131353552656365697665722072656a6563746560008201527f6420746f6b656e73000000000000000000000000000000000000000000000000602082015250565b60006145b8602883612ca6565b91506145c38261455c565b604082019050919050565b600060208201905081810360008301526145e7816145ab565b9050919050565b600060a082019050614603600083018861334b565b614610602083018761334b565b61461d6040830186612a27565b61462a6060830185612a27565b818103608083015261463c8184614322565b9050969550505050505056fea2646970667358221220e2cb47b2c9ac505f45ad0bd28ba064d28ebe9079460ea8cabec291720284aea664736f6c634300080a0033",
  "linkReferences": {},
  "deployedLinkReferences": {}
}