{
  "_format": "hh-sol-artifact-1",
  "contractName": "Token",
  "sourceName": "contracts/Token.sol",
  "abi": [
    {
      "inputs": [],
      "stateMutability": "nonpayable",
      "type": "constructor"
    },
    {
      "anonymous": false,
      "inputs": [
        {
          "indexed": true,
          "internalType": "address",
          "name": "account",
          "type": "address"
        },
        {
          "indexed": true,
          "internalType": "address",
          "name": "operator",
          "type": "address"
        },
        {
          "indexed": false,
          "internalType": "bool",
          "name": "approved",
          "type": "bool"
        }
      ],
      "name": "ApprovalForAll",
      "type": "event"
    },
    {
      "anonymous": false,
      "inputs": [
        {
          "indexed": true,
          "internalType": "address",
          "name": "previousOwner",
          "type": "address"
        },
        {
          "indexed": true,
          "internalType": "address",
          "name": "newOwner",
          "type": "address"
        }
      ],
      "name": "OwnershipTransferred",
      "type": "event"
    },
    {
      "anonymous": false,
      "inputs": [
        {
          "indexed": true,
          "internalType": "address",
          "name": "operator",
          "type": "address"
        },
        {
          "indexed": true,
          "internalType": "address",
          "name": "from",
          "type": "address"
        },
        {
          "indexed": true,
          "internalType": "address",
          "name": "to",
          "type": "address"
        },
        {
          "indexed": false,
          "internalType": "uint256[]",
          "name": "ids",
          "type": "uint256[]"
        },
        {
          "indexed": false,
          "internalType": "uint256[]",
          "name": "values",
          "type": "uint256[]"
        }
      ],
      "name": "TransferBatch",
      "type": "event"
    },
    {
      "anonymous": false,
      "inputs": [
        {
          "indexed": true,
          "internalType": "address",
          "name": "operator",
          "type": "address"
        },
        {
          "indexed": true,
          "internalType": "address",
          "name": "from",
          "type": "address"
        },
        {
          "indexed": true,
          "internalType": "address",
          "name": "to",
          "type": "address"
        },
        {
          "indexed": false,
          "internalType": "uint256",
          "name": "id",
          "type": "uint256"
        },
        {
          "indexed": false,
          "internalType": "uint256",
          "name": "value",
          "type": "uint256"
        }
      ],
      "name": "TransferSingle",
      "type": "event"
    },
    {
      "anonymous": false,
      "inputs": [
        {
          "indexed": false,
          "internalType": "string",
          "name": "value",
          "type": "string"
        },
        {
          "indexed": true,
          "internalType": "uint256",
          "name": "id",
          "type": "uint256"
        }
      ],
      "name": "URI",
      "type": "event"
    },
    {
      "inputs": [
        {
          "internalType": "address",
          "name": "account",
          "type": "address"
        },
        {
          "internalType": "uint256",
          "name": "id",
          "type": "uint256"
        }
      ],
      "name": "balanceOf",
      "outputs": [
        {
          "internalType": "uint256",
          "name": "",
          "type": "uint256"
        }
      ],
      "stateMutability": "view",
      "type": "function"
    },
    {
      "inputs": [
        {
          "internalType": "address[]",
          "name": "accounts",
          "type": "address[]"
        },
        {
          "internalType": "uint256[]",
          "name": "ids",
          "type": "uint256[]"
        }
      ],
      "name": "balanceOfBatch",
      "outputs": [
        {
          "internalType": "uint256[]",
          "name": "",
          "type": "uint256[]"
        }
      ],
      "stateMutability": "view",
      "type": "function"
    },
    {
      "inputs": [],
      "name": "drawWinner",
      "outputs": [],
      "stateMutability": "nonpayable",
      "type": "function"
    },
    {
      "inputs": [
        {
          "internalType": "address",
          "name": "account",
          "type": "address"
        },
        {
          "internalType": "address",
          "name": "operator",
          "type": "address"
        }
      ],
      "name": "isApprovedForAll",
      "outputs": [
        {
          "internalType": "bool",
          "name": "",
          "type": "bool"
        }
      ],
      "stateMutability": "view",
      "type": "function"
    },
    {
      "inputs": [
        {
          "internalType": "address",
          "name": "account",
          "type": "address"
        },
        {
          "internalType": "uint256",
          "name": "amount",
          "type": "uint256"
        },
        {
          "internalType": "bytes",
          "name": "data",
          "type": "bytes"
        }
      ],
      "name": "mint",
      "outputs": [],
      "stateMutability": "payable",
      "type": "function"
    },
    {
      "inputs": [
        {
          "internalType": "address",
          "name": "to",
          "type": "address"
        },
        {
          "internalType": "uint256[]",
          "name": "ids",
          "type": "uint256[]"
        },
        {
          "internalType": "uint256[]",
          "name": "amounts",
          "type": "uint256[]"
        },
        {
          "internalType": "bytes",
          "name": "data",
          "type": "bytes"
        }
      ],
      "name": "mintBatch",
      "outputs": [],
      "stateMutability": "nonpayable",
      "type": "function"
    },
    {
      "inputs": [],
      "name": "mintPrice",
      "outputs": [
        {
          "internalType": "uint256",
          "name": "",
          "type": "uint256"
        }
      ],
      "stateMutability": "view",
      "type": "function"
    },
    {
      "inputs": [],
      "name": "name",
      "outputs": [
        {
          "internalType": "string",
          "name": "",
          "type": "string"
        }
      ],
      "stateMutability": "view",
      "type": "function"
    },
    {
      "inputs": [],
      "name": "owner",
      "outputs": [
        {
          "internalType": "address",
          "name": "",
          "type": "address"
        }
      ],
      "stateMutability": "view",
      "type": "function"
    },
    {
      "inputs": [
        {
          "internalType": "uint256",
          "name": "",
          "type": "uint256"
        }
      ],
      "name": "particapants",
      "outputs": [
        {
          "internalType": "address",
          "name": "",
          "type": "address"
        }
      ],
      "stateMutability": "view",
      "type": "function"
    },
    {
      "inputs": [],
      "name": "renounceOwnership",
      "outputs": [],
      "stateMutability": "nonpayable",
      "type": "function"
    },
    {
      "inputs": [
        {
          "internalType": "address",
          "name": "from",
          "type": "address"
        },
        {
          "internalType": "address",
          "name": "to",
          "type": "address"
        },
        {
          "internalType": "uint256[]",
          "name": "ids",
          "type": "uint256[]"
        },
        {
          "internalType": "uint256[]",
          "name": "amounts",
          "type": "uint256[]"
        },
        {
          "internalType": "bytes",
          "name": "data",
          "type": "bytes"
        }
      ],
      "name": "safeBatchTransferFrom",
      "outputs": [],
      "stateMutability": "nonpayable",
      "type": "function"
    },
    {
      "inputs": [
        {
          "internalType": "address",
          "name": "from",
          "type": "address"
        },
        {
          "internalType": "address",
          "name": "to",
          "type": "address"
        },
        {
          "internalType": "uint256",
          "name": "id",
          "type": "uint256"
        },
        {
          "internalType": "uint256",
          "name": "amount",
          "type": "uint256"
        },
        {
          "internalType": "bytes",
          "name": "data",
          "type": "bytes"
        }
      ],
      "name": "safeTransferFrom",
      "outputs": [],
      "stateMutability": "nonpayable",
      "type": "function"
    },
    {
      "inputs": [
        {
          "internalType": "address",
          "name": "operator",
          "type": "address"
        },
        {
          "internalType": "bool",
          "name": "approved",
          "type": "bool"
        }
      ],
      "name": "setApprovalForAll",
      "outputs": [],
      "stateMutability": "nonpayable",
      "type": "function"
    },
    {
      "inputs": [
        {
          "internalType": "uint256",
          "name": "_mintPrice",
          "type": "uint256"
        }
      ],
      "name": "setMintPrice",
      "outputs": [],
      "stateMutability": "nonpayable",
      "type": "function"
    },
    {
      "inputs": [
        {
          "internalType": "string",
          "name": "newuri",
          "type": "string"
        }
      ],
      "name": "setURI",
      "outputs": [],
      "stateMutability": "nonpayable",
      "type": "function"
    },
    {
      "inputs": [
        {
          "internalType": "bytes4",
          "name": "interfaceId",
          "type": "bytes4"
        }
      ],
      "name": "supportsInterface",
      "outputs": [
        {
          "internalType": "bool",
          "name": "",
          "type": "bool"
        }
      ],
      "stateMutability": "view",
      "type": "function"
    },
    {
      "inputs": [],
      "name": "symbol",
      "outputs": [
        {
          "internalType": "string",
          "name": "",
          "type": "string"
        }
      ],
      "stateMutability": "view",
      "type": "function"
    },
    {
      "inputs": [
        {
          "internalType": "address",
          "name": "newOwner",
          "type": "address"
        }
      ],
      "name": "transferOwnership",
      "outputs": [],
      "stateMutability": "nonpayable",
      "type": "function"
    },
    {
      "inputs": [
        {
          "internalType": "uint256",
          "name": "",
          "type": "uint256"
        }
      ],
      "name": "uri",
      "outputs": [
        {
          "internalType": "string",
          "name": "",
          "type": "string"
        }
      ],
      "stateMutability": "view",
      "type": "function"
    }
  ],
  "bytecode": "0x6080604052670de0b6b3a764000060075560006008553480156200002257600080fd5b506040518060200160405280600081525062000044816200015c60201b60201c565b5062000065620000596200017860201b60201c565b6200018060201b60201c565b6040518060400160405280600c81526020017f41415645204c6f7474657279000000000000000000000000000000000000000081525060059080519060200190620000b292919062000246565b506040518060400160405280600381526020017f4c4f540000000000000000000000000000000000000000000000000000000000815250600690805190602001906200010092919062000246565b5073407287b03d1167593af113d32093942be13a535f600460006101000a81548173ffffffffffffffffffffffffffffffffffffffff021916908373ffffffffffffffffffffffffffffffffffffffff1602179055506200035b565b80600290805190602001906200017492919062000246565b5050565b600033905090565b6000600360009054906101000a900473ffffffffffffffffffffffffffffffffffffffff16905081600360006101000a81548173ffffffffffffffffffffffffffffffffffffffff021916908373ffffffffffffffffffffffffffffffffffffffff1602179055508173ffffffffffffffffffffffffffffffffffffffff168173ffffffffffffffffffffffffffffffffffffffff167f8be0079c531659141344cd1fd0a4f28419497f9722a3daafe3b4186f6b6457e060405160405180910390a35050565b828054620002549062000325565b90600052602060002090601f016020900481019282620002785760008555620002c4565b82601f106200029357805160ff1916838001178555620002c4565b82800160010185558215620002c4579182015b82811115620002c3578251825591602001919060010190620002a6565b5b509050620002d39190620002d7565b5090565b5b80821115620002f2576000816000905550600101620002d8565b5090565b7f4e487b7100000000000000000000000000000000000000000000000000000000600052602260045260246000fd5b600060028204905060018216806200033e57607f821691505b60208210811415620003555762000354620002f6565b5b50919050565b6137de806200036b6000396000f3fe60806040526004361061011e5760003560e01c80638da5cb5b116100a0578063b2185bb111610064578063b2185bb1146103d7578063e985e9c5146103ee578063f242432a1461042b578063f2fde38b14610454578063f4a0a5281461047d5761011e565b80638da5cb5b146102ff57806394d008ef1461032a57806395d89b4114610346578063a22cb46514610371578063a86345871461039a5761011e565b80631f7fdffa116100e75780631f7fdffa1461022e5780632eb2c2d6146102575780634e1273f4146102805780636817c76c146102bd578063715018a6146102e85761011e565b8062fdd58e1461012357806301ffc9a71461016057806302fe53051461019d57806306fdde03146101c65780630e89341c146101f1575b600080fd5b34801561012f57600080fd5b5061014a60048036038101906101459190612074565b6104a6565b60405161015791906120c3565b60405180910390f35b34801561016c57600080fd5b5061018760048036038101906101829190612136565b61056f565b604051610194919061217e565b60405180910390f35b3480156101a957600080fd5b506101c460048036038101906101bf91906122df565b610651565b005b3480156101d257600080fd5b506101db610665565b6040516101e891906123b0565b60405180910390f35b3480156101fd57600080fd5b50610218600480360381019061021391906123d2565b6106f3565b60405161022591906123b0565b60405180910390f35b34801561023a57600080fd5b5061025560048036038101906102509190612568565b610787565b005b34801561026357600080fd5b5061027e60048036038101906102799190612623565b6107a1565b005b34801561028c57600080fd5b506102a760048036038101906102a291906127b5565b610842565b6040516102b491906128eb565b60405180910390f35b3480156102c957600080fd5b506102d261095b565b6040516102df91906120c3565b60405180910390f35b3480156102f457600080fd5b506102fd610961565b005b34801561030b57600080fd5b50610314610975565b604051610321919061291c565b60405180910390f35b610344600480360381019061033f9190612937565b61099f565b005b34801561035257600080fd5b5061035b6109f6565b60405161036891906123b0565b60405180910390f35b34801561037d57600080fd5b50610398600480360381019061039391906129d2565b610a84565b005b3480156103a657600080fd5b506103c160048036038101906103bc91906123d2565b610a9a565b6040516103ce919061291c565b60405180910390f35b3480156103e357600080fd5b506103ec610ad9565b005b3480156103fa57600080fd5b5061041560048036038101906104109190612a12565b610bcc565b604051610422919061217e565b60405180910390f35b34801561043757600080fd5b50610452600480360381019061044d9190612a52565b610c60565b005b34801561046057600080fd5b5061047b60048036038101906104769190612ae9565b610d01565b005b34801561048957600080fd5b506104a4600480360381019061049f91906123d2565b610d85565b005b60008073ffffffffffffffffffffffffffffffffffffffff168373ffffffffffffffffffffffffffffffffffffffff161415610517576040517f08c379a000000000000000000000000000000000000000000000000000000000815260040161050e90612b88565b60405180910390fd5b60008083815260200190815260200160002060008473ffffffffffffffffffffffffffffffffffffffff1673ffffffffffffffffffffffffffffffffffffffff16815260200190815260200160002054905092915050565b60007fd9b67a26000000000000000000000000000000000000000000000000000000007bffffffffffffffffffffffffffffffffffffffffffffffffffffffff1916827bffffffffffffffffffffffffffffffffffffffffffffffffffffffff1916148061063a57507f0e89341c000000000000000000000000000000000000000000000000000000007bffffffffffffffffffffffffffffffffffffffffffffffffffffffff1916827bffffffffffffffffffffffffffffffffffffffffffffffffffffffff1916145b8061064a575061064982610d97565b5b9050919050565b610659610e01565b61066281610e7f565b50565b6005805461067290612bd7565b80601f016020809104026020016040519081016040528092919081815260200182805461069e90612bd7565b80156106eb5780601f106106c0576101008083540402835291602001916106eb565b820191906000526020600020905b8154815290600101906020018083116106ce57829003601f168201915b505050505081565b60606002805461070290612bd7565b80601f016020809104026020016040519081016040528092919081815260200182805461072e90612bd7565b801561077b5780601f106107505761010080835404028352916020019161077b565b820191906000526020600020905b81548152906001019060200180831161075e57829003601f168201915b50505050509050919050565b61078f610e01565b61079b84848484610e99565b50505050565b6107a96110c6565b73ffffffffffffffffffffffffffffffffffffffff168573ffffffffffffffffffffffffffffffffffffffff1614806107ef57506107ee856107e96110c6565b610bcc565b5b61082e576040517f08c379a000000000000000000000000000000000000000000000000000000000815260040161082590612c7b565b60405180910390fd5b61083b85858585856110ce565b5050505050565b60608151835114610888576040517f08c379a000000000000000000000000000000000000000000000000000000000815260040161087f90612d0d565b60405180910390fd5b6000835167ffffffffffffffff8111156108a5576108a46121b4565b5b6040519080825280602002602001820160405280156108d35781602001602082028036833780820191505090505b50905060005b8451811015610950576109208582815181106108f8576108f7612d2d565b5b602002602001015185838151811061091357610912612d2d565b5b60200260200101516104a6565b82828151811061093357610932612d2d565b5b6020026020010181815250508061094990612d8b565b90506108d9565b508091505092915050565b60075481565b610969610e01565b61097360006113f0565b565b6000600360009054906101000a900473ffffffffffffffffffffffffffffffffffffffff16905090565b6007543410156109e4576040517f08c379a00000000000000000000000000000000000000000000000000000000081526004016109db90612e46565b60405180910390fd5b6109f183600184846114b6565b505050565b60068054610a0390612bd7565b80601f0160208091040260200160405190810160405280929190818152602001828054610a2f90612bd7565b8015610a7c5780601f10610a5157610100808354040283529160200191610a7c565b820191906000526020600020905b815481529060010190602001808311610a5f57829003601f168201915b505050505081565b610a96610a8f6110c6565b8383611667565b5050565b60098181548110610aaa57600080fd5b906000526020600020016000915054906101000a900473ffffffffffffffffffffffffffffffffffffffff1681565b62093a80600a54610aea9190612e66565b4211610b2b576040517f08c379a0000000000000000000000000000000000000000000000000000000008152600401610b2290612f08565b60405180910390fd5b6000610b3b6009805490506117d4565b905060098181548110610b5157610b50612d2d565b5b9060005260206000200160009054906101000a900473ffffffffffffffffffffffffffffffffffffffff1673ffffffffffffffffffffffffffffffffffffffff166108fc479081150290604051600060405180830381858888f19350505050158015610bc1573d6000803e3d6000fd5b5042600a8190555050565b6000600160008473ffffffffffffffffffffffffffffffffffffffff1673ffffffffffffffffffffffffffffffffffffffff16815260200190815260200160002060008373ffffffffffffffffffffffffffffffffffffffff1673ffffffffffffffffffffffffffffffffffffffff16815260200190815260200160002060009054906101000a900460ff16905092915050565b610c686110c6565b73ffffffffffffffffffffffffffffffffffffffff168573ffffffffffffffffffffffffffffffffffffffff161480610cae5750610cad85610ca86110c6565b610bcc565b5b610ced576040517f08c379a0000000000000000000000000000000000000000000000000000000008152600401610ce490612c7b565b60405180910390fd5b610cfa8585858585611830565b5050505050565b610d09610e01565b600073ffffffffffffffffffffffffffffffffffffffff168173ffffffffffffffffffffffffffffffffffffffff161415610d79576040517f08c379a0000000000000000000000000000000000000000000000000000000008152600401610d7090612f9a565b60405180910390fd5b610d82816113f0565b50565b610d8d610e01565b8060078190555050565b60007f01ffc9a7000000000000000000000000000000000000000000000000000000007bffffffffffffffffffffffffffffffffffffffffffffffffffffffff1916827bffffffffffffffffffffffffffffffffffffffffffffffffffffffff1916149050919050565b610e096110c6565b73ffffffffffffffffffffffffffffffffffffffff16610e27610975565b73ffffffffffffffffffffffffffffffffffffffff1614610e7d576040517f08c379a0000000000000000000000000000000000000000000000000000000008152600401610e7490613006565b60405180910390fd5b565b8060029080519060200190610e95929190611f29565b5050565b600073ffffffffffffffffffffffffffffffffffffffff168473ffffffffffffffffffffffffffffffffffffffff161415610f09576040517f08c379a0000000000000000000000000000000000000000000000000000000008152600401610f0090613098565b60405180910390fd5b8151835114610f4d576040517f08c379a0000000000000000000000000000000000000000000000000000000008152600401610f449061312a565b60405180910390fd5b6000610f576110c6565b9050610f6881600087878787611acc565b60005b845181101561102157838181518110610f8757610f86612d2d565b5b6020026020010151600080878481518110610fa557610fa4612d2d565b5b6020026020010151815260200190815260200160002060008873ffffffffffffffffffffffffffffffffffffffff1673ffffffffffffffffffffffffffffffffffffffff16815260200190815260200160002060008282546110079190612e66565b92505081905550808061101990612d8b565b915050610f6b565b508473ffffffffffffffffffffffffffffffffffffffff16600073ffffffffffffffffffffffffffffffffffffffff168273ffffffffffffffffffffffffffffffffffffffff167f4a39dc06d4c0dbc64b70af90fd698a233a518aa5d07e595d983b8c0526c8f7fb878760405161109992919061314a565b60405180910390a46110b081600087878787611ad4565b6110bf81600087878787611adc565b5050505050565b600033905090565b8151835114611112576040517f08c379a00000000000000000000000000000000000000000000000000000000081526004016111099061312a565b60405180910390fd5b600073ffffffffffffffffffffffffffffffffffffffff168473ffffffffffffffffffffffffffffffffffffffff161415611182576040517f08c379a0000000000000000000000000000000000000000000000000000000008152600401611179906131f3565b60405180910390fd5b600061118c6110c6565b905061119c818787878787611acc565b60005b845181101561134d5760008582815181106111bd576111bc612d2d565b5b6020026020010151905060008583815181106111dc576111db612d2d565b5b60200260200101519050600080600084815260200190815260200160002060008b73ffffffffffffffffffffffffffffffffffffffff1673ffffffffffffffffffffffffffffffffffffffff1681526020019081526020016000205490508181101561127d576040517f08c379a000000000000000000000000000000000000000000000000000000000815260040161127490613285565b60405180910390fd5b81810360008085815260200190815260200160002060008c73ffffffffffffffffffffffffffffffffffffffff1673ffffffffffffffffffffffffffffffffffffffff168152602001908152602001600020819055508160008085815260200190815260200160002060008b73ffffffffffffffffffffffffffffffffffffffff1673ffffffffffffffffffffffffffffffffffffffff16815260200190815260200160002060008282546113329190612e66565b925050819055505050508061134690612d8b565b905061119f565b508473ffffffffffffffffffffffffffffffffffffffff168673ffffffffffffffffffffffffffffffffffffffff168273ffffffffffffffffffffffffffffffffffffffff167f4a39dc06d4c0dbc64b70af90fd698a233a518aa5d07e595d983b8c0526c8f7fb87876040516113c492919061314a565b60405180910390a46113da818787878787611ad4565b6113e8818787878787611adc565b505050505050565b6000600360009054906101000a900473ffffffffffffffffffffffffffffffffffffffff16905081600360006101000a81548173ffffffffffffffffffffffffffffffffffffffff021916908373ffffffffffffffffffffffffffffffffffffffff1602179055508173ffffffffffffffffffffffffffffffffffffffff168173ffffffffffffffffffffffffffffffffffffffff167f8be0079c531659141344cd1fd0a4f28419497f9722a3daafe3b4186f6b6457e060405160405180910390a35050565b600073ffffffffffffffffffffffffffffffffffffffff168473ffffffffffffffffffffffffffffffffffffffff161415611526576040517f08c379a000000000000000000000000000000000000000000000000000000000815260040161151d90613098565b60405180910390fd5b60006115306110c6565b9050600061153d85611cb4565b9050600061154a85611cb4565b905061155b83600089858589611acc565b8460008088815260200190815260200160002060008973ffffffffffffffffffffffffffffffffffffffff1673ffffffffffffffffffffffffffffffffffffffff16815260200190815260200160002060008282546115ba9190612e66565b925050819055508673ffffffffffffffffffffffffffffffffffffffff16600073ffffffffffffffffffffffffffffffffffffffff168473ffffffffffffffffffffffffffffffffffffffff167fc3d58168c5ae7397731d063d5bbf3d657854427343f4c083240f7aacaa2d0f6289896040516116389291906132a5565b60405180910390a461164f83600089858589611ad4565b61165e83600089898989611d2e565b50505050505050565b8173ffffffffffffffffffffffffffffffffffffffff168373ffffffffffffffffffffffffffffffffffffffff1614156116d6576040517f08c379a00000000000000000000000000000000000000000000000000000000081526004016116cd90613340565b60405180910390fd5b80600160008573ffffffffffffffffffffffffffffffffffffffff1673ffffffffffffffffffffffffffffffffffffffff16815260200190815260200160002060008473ffffffffffffffffffffffffffffffffffffffff1673ffffffffffffffffffffffffffffffffffffffff16815260200190815260200160002060006101000a81548160ff0219169083151502179055508173ffffffffffffffffffffffffffffffffffffffff168373ffffffffffffffffffffffffffffffffffffffff167f17307eab39ab6107e8899845ad3d59bd9653f200f220920489ca2b5937696c31836040516117c7919061217e565b60405180910390a3505050565b6000600860008154809291906117e990612d8b565b9190505550814233600854604051602001611806939291906133c9565b6040516020818303038152906040528051906020012060001c6118299190613435565b9050919050565b600073ffffffffffffffffffffffffffffffffffffffff168473ffffffffffffffffffffffffffffffffffffffff1614156118a0576040517f08c379a0000000000000000000000000000000000000000000000000000000008152600401611897906131f3565b60405180910390fd5b60006118aa6110c6565b905060006118b785611cb4565b905060006118c485611cb4565b90506118d4838989858589611acc565b600080600088815260200190815260200160002060008a73ffffffffffffffffffffffffffffffffffffffff1673ffffffffffffffffffffffffffffffffffffffff1681526020019081526020016000205490508581101561196b576040517f08c379a000000000000000000000000000000000000000000000000000000000815260040161196290613285565b60405180910390fd5b85810360008089815260200190815260200160002060008b73ffffffffffffffffffffffffffffffffffffffff1673ffffffffffffffffffffffffffffffffffffffff168152602001908152602001600020819055508560008089815260200190815260200160002060008a73ffffffffffffffffffffffffffffffffffffffff1673ffffffffffffffffffffffffffffffffffffffff1681526020019081526020016000206000828254611a209190612e66565b925050819055508773ffffffffffffffffffffffffffffffffffffffff168973ffffffffffffffffffffffffffffffffffffffff168573ffffffffffffffffffffffffffffffffffffffff167fc3d58168c5ae7397731d063d5bbf3d657854427343f4c083240f7aacaa2d0f628a8a604051611a9d9291906132a5565b60405180910390a4611ab3848a8a86868a611ad4565b611ac1848a8a8a8a8a611d2e565b505050505050505050565b505050505050565b505050505050565b611afb8473ffffffffffffffffffffffffffffffffffffffff16611f06565b15611cac578373ffffffffffffffffffffffffffffffffffffffff1663bc197c8187878686866040518663ffffffff1660e01b8152600401611b419594939291906134bb565b6020604051808303816000875af1925050508015611b7d57506040513d601f19601f82011682018060405250810190611b7a9190613538565b60015b611c2357611b89613572565b806308c379a01415611be65750611b9e613594565b80611ba95750611be8565b806040517f08c379a0000000000000000000000000000000000000000000000000000000008152600401611bdd91906123b0565b60405180910390fd5b505b6040517f08c379a0000000000000000000000000000000000000000000000000000000008152600401611c1a9061369c565b60405180910390fd5b63bc197c8160e01b7bffffffffffffffffffffffffffffffffffffffffffffffffffffffff1916817bffffffffffffffffffffffffffffffffffffffffffffffffffffffff191614611caa576040517f08c379a0000000000000000000000000000000000000000000000000000000008152600401611ca19061372e565b60405180910390fd5b505b505050505050565b60606000600167ffffffffffffffff811115611cd357611cd26121b4565b5b604051908082528060200260200182016040528015611d015781602001602082028036833780820191505090505b5090508281600081518110611d1957611d18612d2d565b5b60200260200101818152505080915050919050565b611d4d8473ffffffffffffffffffffffffffffffffffffffff16611f06565b15611efe578373ffffffffffffffffffffffffffffffffffffffff1663f23a6e6187878686866040518663ffffffff1660e01b8152600401611d9395949392919061374e565b6020604051808303816000875af1925050508015611dcf57506040513d601f19601f82011682018060405250810190611dcc9190613538565b60015b611e7557611ddb613572565b806308c379a01415611e385750611df0613594565b80611dfb5750611e3a565b806040517f08c379a0000000000000000000000000000000000000000000000000000000008152600401611e2f91906123b0565b60405180910390fd5b505b6040517f08c379a0000000000000000000000000000000000000000000000000000000008152600401611e6c9061369c565b60405180910390fd5b63f23a6e6160e01b7bffffffffffffffffffffffffffffffffffffffffffffffffffffffff1916817bffffffffffffffffffffffffffffffffffffffffffffffffffffffff191614611efc576040517f08c379a0000000000000000000000000000000000000000000000000000000008152600401611ef39061372e565b60405180910390fd5b505b505050505050565b6000808273ffffffffffffffffffffffffffffffffffffffff163b119050919050565b828054611f3590612bd7565b90600052602060002090601f016020900481019282611f575760008555611f9e565b82601f10611f7057805160ff1916838001178555611f9e565b82800160010185558215611f9e579182015b82811115611f9d578251825591602001919060010190611f82565b5b509050611fab9190611faf565b5090565b5b80821115611fc8576000816000905550600101611fb0565b5090565b6000604051905090565b600080fd5b600080fd5b600073ffffffffffffffffffffffffffffffffffffffff82169050919050565b600061200b82611fe0565b9050919050565b61201b81612000565b811461202657600080fd5b50565b60008135905061203881612012565b92915050565b6000819050919050565b6120518161203e565b811461205c57600080fd5b50565b60008135905061206e81612048565b92915050565b6000806040838503121561208b5761208a611fd6565b5b600061209985828601612029565b92505060206120aa8582860161205f565b9150509250929050565b6120bd8161203e565b82525050565b60006020820190506120d860008301846120b4565b92915050565b60007fffffffff0000000000000000000000000000000000000000000000000000000082169050919050565b612113816120de565b811461211e57600080fd5b50565b6000813590506121308161210a565b92915050565b60006020828403121561214c5761214b611fd6565b5b600061215a84828501612121565b91505092915050565b60008115159050919050565b61217881612163565b82525050565b6000602082019050612193600083018461216f565b92915050565b600080fd5b600080fd5b6000601f19601f8301169050919050565b7f4e487b7100000000000000000000000000000000000000000000000000000000600052604160045260246000fd5b6121ec826121a3565b810181811067ffffffffffffffff8211171561220b5761220a6121b4565b5b80604052505050565b600061221e611fcc565b905061222a82826121e3565b919050565b600067ffffffffffffffff82111561224a576122496121b4565b5b612253826121a3565b9050602081019050919050565b82818337600083830152505050565b600061228261227d8461222f565b612214565b90508281526020810184848401111561229e5761229d61219e565b5b6122a9848285612260565b509392505050565b600082601f8301126122c6576122c5612199565b5b81356122d684826020860161226f565b91505092915050565b6000602082840312156122f5576122f4611fd6565b5b600082013567ffffffffffffffff81111561231357612312611fdb565b5b61231f848285016122b1565b91505092915050565b600081519050919050565b600082825260208201905092915050565b60005b83811015612362578082015181840152602081019050612347565b83811115612371576000848401525b50505050565b600061238282612328565b61238c8185612333565b935061239c818560208601612344565b6123a5816121a3565b840191505092915050565b600060208201905081810360008301526123ca8184612377565b905092915050565b6000602082840312156123e8576123e7611fd6565b5b60006123f68482850161205f565b91505092915050565b600067ffffffffffffffff82111561241a576124196121b4565b5b602082029050602081019050919050565b600080fd5b600061244361243e846123ff565b612214565b905080838252602082019050602084028301858111156124665761246561242b565b5b835b8181101561248f578061247b888261205f565b845260208401935050602081019050612468565b5050509392505050565b600082601f8301126124ae576124ad612199565b5b81356124be848260208601612430565b91505092915050565b600067ffffffffffffffff8211156124e2576124e16121b4565b5b6124eb826121a3565b9050602081019050919050565b600061250b612506846124c7565b612214565b9050828152602081018484840111156125275761252661219e565b5b612532848285612260565b509392505050565b600082601f83011261254f5761254e612199565b5b813561255f8482602086016124f8565b91505092915050565b6000806000806080858703121561258257612581611fd6565b5b600061259087828801612029565b945050602085013567ffffffffffffffff8111156125b1576125b0611fdb565b5b6125bd87828801612499565b935050604085013567ffffffffffffffff8111156125de576125dd611fdb565b5b6125ea87828801612499565b925050606085013567ffffffffffffffff81111561260b5761260a611fdb565b5b6126178782880161253a565b91505092959194509250565b600080600080600060a0868803121561263f5761263e611fd6565b5b600061264d88828901612029565b955050602061265e88828901612029565b945050604086013567ffffffffffffffff81111561267f5761267e611fdb565b5b61268b88828901612499565b935050606086013567ffffffffffffffff8111156126ac576126ab611fdb565b5b6126b888828901612499565b925050608086013567ffffffffffffffff8111156126d9576126d8611fdb565b5b6126e58882890161253a565b9150509295509295909350565b600067ffffffffffffffff82111561270d5761270c6121b4565b5b602082029050602081019050919050565b600061273161272c846126f2565b612214565b905080838252602082019050602084028301858111156127545761275361242b565b5b835b8181101561277d57806127698882612029565b845260208401935050602081019050612756565b5050509392505050565b600082601f83011261279c5761279b612199565b5b81356127ac84826020860161271e565b91505092915050565b600080604083850312156127cc576127cb611fd6565b5b600083013567ffffffffffffffff8111156127ea576127e9611fdb565b5b6127f685828601612787565b925050602083013567ffffffffffffffff81111561281757612816611fdb565b5b61282385828601612499565b9150509250929050565b600081519050919050565b600082825260208201905092915050565b6000819050602082019050919050565b6128628161203e565b82525050565b60006128748383612859565b60208301905092915050565b6000602082019050919050565b60006128988261282d565b6128a28185612838565b93506128ad83612849565b8060005b838110156128de5781516128c58882612868565b97506128d083612880565b9250506001810190506128b1565b5085935050505092915050565b60006020820190508181036000830152612905818461288d565b905092915050565b61291681612000565b82525050565b6000602082019050612931600083018461290d565b92915050565b6000806000606084860312156129505761294f611fd6565b5b600061295e86828701612029565b935050602061296f8682870161205f565b925050604084013567ffffffffffffffff8111156129905761298f611fdb565b5b61299c8682870161253a565b9150509250925092565b6129af81612163565b81146129ba57600080fd5b50565b6000813590506129cc816129a6565b92915050565b600080604083850312156129e9576129e8611fd6565b5b60006129f785828601612029565b9250506020612a08858286016129bd565b9150509250929050565b60008060408385031215612a2957612a28611fd6565b5b6000612a3785828601612029565b9250506020612a4885828601612029565b9150509250929050565b600080600080600060a08688031215612a6e57612a6d611fd6565b5b6000612a7c88828901612029565b9550506020612a8d88828901612029565b9450506040612a9e8882890161205f565b9350506060612aaf8882890161205f565b925050608086013567ffffffffffffffff811115612ad057612acf611fdb565b5b612adc8882890161253a565b9150509295509295909350565b600060208284031215612aff57612afe611fd6565b5b6000612b0d84828501612029565b91505092915050565b7f455243313135353a2061646472657373207a65726f206973206e6f742061207660008201527f616c6964206f776e657200000000000000000000000000000000000000000000602082015250565b6000612b72602a83612333565b9150612b7d82612b16565b604082019050919050565b60006020820190508181036000830152612ba181612b65565b9050919050565b7f4e487b7100000000000000000000000000000000000000000000000000000000600052602260045260246000fd5b60006002820490506001821680612bef57607f821691505b60208210811415612c0357612c02612ba8565b5b50919050565b7f455243313135353a2063616c6c6572206973206e6f7420746f6b656e206f776e60008201527f6572206e6f7220617070726f7665640000000000000000000000000000000000602082015250565b6000612c65602f83612333565b9150612c7082612c09565b604082019050919050565b60006020820190508181036000830152612c9481612c58565b9050919050565b7f455243313135353a206163636f756e747320616e6420696473206c656e67746860008201527f206d69736d617463680000000000000000000000000000000000000000000000602082015250565b6000612cf7602983612333565b9150612d0282612c9b565b604082019050919050565b60006020820190508181036000830152612d2681612cea565b9050919050565b7f4e487b7100000000000000000000000000000000000000000000000000000000600052603260045260246000fd5b7f4e487b7100000000000000000000000000000000000000000000000000000000600052601160045260246000fd5b6000612d968261203e565b91507fffffffffffffffffffffffffffffffffffffffffffffffffffffffffffffffff821415612dc957612dc8612d5c565b5b600182019050919050565b7f596f7520646f6e2774206861766520656e6f75676820657468657220746f206d60008201527f696e740000000000000000000000000000000000000000000000000000000000602082015250565b6000612e30602383612333565b9150612e3b82612dd4565b604082019050919050565b60006020820190508181036000830152612e5f81612e23565b9050919050565b6000612e718261203e565b9150612e7c8361203e565b9250827fffffffffffffffffffffffffffffffffffffffffffffffffffffffffffffffff03821115612eb157612eb0612d5c565b5b828201905092915050565b7f77616974696e6720706572696f6420686173206e6f7420657870697265640000600082015250565b6000612ef2601e83612333565b9150612efd82612ebc565b602082019050919050565b60006020820190508181036000830152612f2181612ee5565b9050919050565b7f4f776e61626c653a206e6577206f776e657220697320746865207a65726f206160008201527f6464726573730000000000000000000000000000000000000000000000000000602082015250565b6000612f84602683612333565b9150612f8f82612f28565b604082019050919050565b60006020820190508181036000830152612fb381612f77565b9050919050565b7f4f776e61626c653a2063616c6c6572206973206e6f7420746865206f776e6572600082015250565b6000612ff0602083612333565b9150612ffb82612fba565b602082019050919050565b6000602082019050818103600083015261301f81612fe3565b9050919050565b7f455243313135353a206d696e7420746f20746865207a65726f2061646472657360008201527f7300000000000000000000000000000000000000000000000000000000000000602082015250565b6000613082602183612333565b915061308d82613026565b604082019050919050565b600060208201905081810360008301526130b181613075565b9050919050565b7f455243313135353a2069647320616e6420616d6f756e7473206c656e6774682060008201527f6d69736d61746368000000000000000000000000000000000000000000000000602082015250565b6000613114602883612333565b915061311f826130b8565b604082019050919050565b6000602082019050818103600083015261314381613107565b9050919050565b60006040820190508181036000830152613164818561288d565b90508181036020830152613178818461288d565b90509392505050565b7f455243313135353a207472616e7366657220746f20746865207a65726f20616460008201527f6472657373000000000000000000000000000000000000000000000000000000602082015250565b60006131dd602583612333565b91506131e882613181565b604082019050919050565b6000602082019050818103600083015261320c816131d0565b9050919050565b7f455243313135353a20696e73756666696369656e742062616c616e636520666f60008201527f72207472616e7366657200000000000000000000000000000000000000000000602082015250565b600061326f602a83612333565b915061327a82613213565b604082019050919050565b6000602082019050818103600083015261329e81613262565b9050919050565b60006040820190506132ba60008301856120b4565b6132c760208301846120b4565b9392505050565b7f455243313135353a2073657474696e6720617070726f76616c2073746174757360008201527f20666f722073656c660000000000000000000000000000000000000000000000602082015250565b600061332a602983612333565b9150613335826132ce565b604082019050919050565b600060208201905081810360008301526133598161331d565b9050919050565b6000819050919050565b61337b6133768261203e565b613360565b82525050565b60008160601b9050919050565b600061339982613381565b9050919050565b60006133ab8261338e565b9050919050565b6133c36133be82612000565b6133a0565b82525050565b60006133d5828661336a565b6020820191506133e582856133b2565b6014820191506133f5828461336a565b602082019150819050949350505050565b7f4e487b7100000000000000000000000000000000000000000000000000000000600052601260045260246000fd5b60006134408261203e565b915061344b8361203e565b92508261345b5761345a613406565b5b828206905092915050565b600081519050919050565b600082825260208201905092915050565b600061348d82613466565b6134978185613471565b93506134a7818560208601612344565b6134b0816121a3565b840191505092915050565b600060a0820190506134d0600083018861290d565b6134dd602083018761290d565b81810360408301526134ef818661288d565b90508181036060830152613503818561288d565b905081810360808301526135178184613482565b90509695505050505050565b6000815190506135328161210a565b92915050565b60006020828403121561354e5761354d611fd6565b5b600061355c84828501613523565b91505092915050565b60008160e01c9050919050565b600060033d11156135915760046000803e61358e600051613565565b90505b90565b600060443d10156135a457613627565b6135ac611fcc565b60043d036004823e80513d602482011167ffffffffffffffff821117156135d4575050613627565b808201805167ffffffffffffffff8111156135f25750505050613627565b80602083010160043d03850181111561360f575050505050613627565b61361e826020018501866121e3565b82955050505050505b90565b7f455243313135353a207472616e7366657220746f206e6f6e204552433131353560008201527f526563656976657220696d706c656d656e746572000000000000000000000000602082015250565b6000613686603483612333565b91506136918261362a565b604082019050919050565b600060208201905081810360008301526136b581613679565b9050919050565b7f455243313135353a204552433131353552656365697665722072656a6563746560008201527f6420746f6b656e73000000000000000000000000000000000000000000000000602082015250565b6000613718602883612333565b9150613723826136bc565b604082019050919050565b600060208201905081810360008301526137478161370b565b9050919050565b600060a082019050613763600083018861290d565b613770602083018761290d565b61377d60408301866120b4565b61378a60608301856120b4565b818103608083015261379c8184613482565b9050969550505050505056fea2646970667358221220ec748d7330a117c7823ec74491cc7d01a2b0e2ba750a42999501943b90c75bba64736f6c634300080a0033",
  "linkReferences": {},
  "deployedLinkReferences": {}
}