{
  "_format": "hh-sol-artifact-1",
  "contractName": "Token",
  "sourceName": "contracts/Token.sol",
  "abi": [
    {
      "inputs": [],
      "stateMutability": "nonpayable",
      "type": "constructor"
    },
    {
      "anonymous": false,
      "inputs": [
        {
          "indexed": true,
          "internalType": "address",
          "name": "account",
          "type": "address"
        },
        {
          "indexed": true,
          "internalType": "address",
          "name": "operator",
          "type": "address"
        },
        {
          "indexed": false,
          "internalType": "bool",
          "name": "approved",
          "type": "bool"
        }
      ],
      "name": "ApprovalForAll",
      "type": "event"
    },
    {
      "anonymous": false,
      "inputs": [
        {
          "indexed": true,
          "internalType": "address",
          "name": "previousOwner",
          "type": "address"
        },
        {
          "indexed": true,
          "internalType": "address",
          "name": "newOwner",
          "type": "address"
        }
      ],
      "name": "OwnershipTransferred",
      "type": "event"
    },
    {
      "anonymous": false,
      "inputs": [
        {
          "indexed": true,
          "internalType": "address",
          "name": "operator",
          "type": "address"
        },
        {
          "indexed": true,
          "internalType": "address",
          "name": "from",
          "type": "address"
        },
        {
          "indexed": true,
          "internalType": "address",
          "name": "to",
          "type": "address"
        },
        {
          "indexed": false,
          "internalType": "uint256[]",
          "name": "ids",
          "type": "uint256[]"
        },
        {
          "indexed": false,
          "internalType": "uint256[]",
          "name": "values",
          "type": "uint256[]"
        }
      ],
      "name": "TransferBatch",
      "type": "event"
    },
    {
      "anonymous": false,
      "inputs": [
        {
          "indexed": true,
          "internalType": "address",
          "name": "operator",
          "type": "address"
        },
        {
          "indexed": true,
          "internalType": "address",
          "name": "from",
          "type": "address"
        },
        {
          "indexed": true,
          "internalType": "address",
          "name": "to",
          "type": "address"
        },
        {
          "indexed": false,
          "internalType": "uint256",
          "name": "id",
          "type": "uint256"
        },
        {
          "indexed": false,
          "internalType": "uint256",
          "name": "value",
          "type": "uint256"
        }
      ],
      "name": "TransferSingle",
      "type": "event"
    },
    {
      "anonymous": false,
      "inputs": [
        {
          "indexed": false,
          "internalType": "string",
          "name": "value",
          "type": "string"
        },
        {
          "indexed": true,
          "internalType": "uint256",
          "name": "id",
          "type": "uint256"
        }
      ],
      "name": "URI",
      "type": "event"
    },
    {
      "inputs": [
        {
          "internalType": "address",
          "name": "account",
          "type": "address"
        },
        {
          "internalType": "uint256",
          "name": "id",
          "type": "uint256"
        }
      ],
      "name": "balanceOf",
      "outputs": [
        {
          "internalType": "uint256",
          "name": "",
          "type": "uint256"
        }
      ],
      "stateMutability": "view",
      "type": "function"
    },
    {
      "inputs": [
        {
          "internalType": "address[]",
          "name": "accounts",
          "type": "address[]"
        },
        {
          "internalType": "uint256[]",
          "name": "ids",
          "type": "uint256[]"
        }
      ],
      "name": "balanceOfBatch",
      "outputs": [
        {
          "internalType": "uint256[]",
          "name": "",
          "type": "uint256[]"
        }
      ],
      "stateMutability": "view",
      "type": "function"
    },
    {
      "inputs": [
        {
          "internalType": "address",
          "name": "account",
          "type": "address"
        },
        {
          "internalType": "uint256",
          "name": "amount",
          "type": "uint256"
        },
        {
          "internalType": "bytes",
          "name": "data",
          "type": "bytes"
        }
      ],
      "name": "buyTicket",
      "outputs": [],
      "stateMutability": "payable",
      "type": "function"
    },
    {
      "inputs": [],
      "name": "drawWinner",
      "outputs": [],
      "stateMutability": "nonpayable",
      "type": "function"
    },
    {
      "inputs": [],
      "name": "getWethBalance",
      "outputs": [],
      "stateMutability": "view",
      "type": "function"
    },
    {
      "inputs": [
        {
          "internalType": "address",
          "name": "account",
          "type": "address"
        },
        {
          "internalType": "address",
          "name": "operator",
          "type": "address"
        }
      ],
      "name": "isApprovedForAll",
      "outputs": [
        {
          "internalType": "bool",
          "name": "",
          "type": "bool"
        }
      ],
      "stateMutability": "view",
      "type": "function"
    },
    {
      "inputs": [],
      "name": "mintPrice",
      "outputs": [
        {
          "internalType": "uint256",
          "name": "",
          "type": "uint256"
        }
      ],
      "stateMutability": "view",
      "type": "function"
    },
    {
      "inputs": [],
      "name": "name",
      "outputs": [
        {
          "internalType": "string",
          "name": "",
          "type": "string"
        }
      ],
      "stateMutability": "view",
      "type": "function"
    },
    {
      "inputs": [],
      "name": "owner",
      "outputs": [
        {
          "internalType": "address",
          "name": "",
          "type": "address"
        }
      ],
      "stateMutability": "view",
      "type": "function"
    },
    {
      "inputs": [
        {
          "internalType": "uint256",
          "name": "",
          "type": "uint256"
        }
      ],
      "name": "participants",
      "outputs": [
        {
          "internalType": "address",
          "name": "",
          "type": "address"
        }
      ],
      "stateMutability": "view",
      "type": "function"
    },
    {
      "inputs": [],
      "name": "renounceOwnership",
      "outputs": [],
      "stateMutability": "nonpayable",
      "type": "function"
    },
    {
      "inputs": [
        {
          "internalType": "address",
          "name": "from",
          "type": "address"
        },
        {
          "internalType": "address",
          "name": "to",
          "type": "address"
        },
        {
          "internalType": "uint256[]",
          "name": "ids",
          "type": "uint256[]"
        },
        {
          "internalType": "uint256[]",
          "name": "amounts",
          "type": "uint256[]"
        },
        {
          "internalType": "bytes",
          "name": "data",
          "type": "bytes"
        }
      ],
      "name": "safeBatchTransferFrom",
      "outputs": [],
      "stateMutability": "nonpayable",
      "type": "function"
    },
    {
      "inputs": [
        {
          "internalType": "address",
          "name": "from",
          "type": "address"
        },
        {
          "internalType": "address",
          "name": "to",
          "type": "address"
        },
        {
          "internalType": "uint256",
          "name": "id",
          "type": "uint256"
        },
        {
          "internalType": "uint256",
          "name": "amount",
          "type": "uint256"
        },
        {
          "internalType": "bytes",
          "name": "data",
          "type": "bytes"
        }
      ],
      "name": "safeTransferFrom",
      "outputs": [],
      "stateMutability": "nonpayable",
      "type": "function"
    },
    {
      "inputs": [
        {
          "internalType": "address",
          "name": "operator",
          "type": "address"
        },
        {
          "internalType": "bool",
          "name": "approved",
          "type": "bool"
        }
      ],
      "name": "setApprovalForAll",
      "outputs": [],
      "stateMutability": "nonpayable",
      "type": "function"
    },
    {
      "inputs": [
        {
          "internalType": "uint256",
          "name": "_mintPrice",
          "type": "uint256"
        }
      ],
      "name": "setMintPrice",
      "outputs": [],
      "stateMutability": "nonpayable",
      "type": "function"
    },
    {
      "inputs": [
        {
          "internalType": "string",
          "name": "newuri",
          "type": "string"
        }
      ],
      "name": "setURI",
      "outputs": [],
      "stateMutability": "nonpayable",
      "type": "function"
    },
    {
      "inputs": [
        {
          "internalType": "bytes4",
          "name": "interfaceId",
          "type": "bytes4"
        }
      ],
      "name": "supportsInterface",
      "outputs": [
        {
          "internalType": "bool",
          "name": "",
          "type": "bool"
        }
      ],
      "stateMutability": "view",
      "type": "function"
    },
    {
      "inputs": [],
      "name": "symbol",
      "outputs": [
        {
          "internalType": "string",
          "name": "",
          "type": "string"
        }
      ],
      "stateMutability": "view",
      "type": "function"
    },
    {
      "inputs": [
        {
          "internalType": "address",
          "name": "newOwner",
          "type": "address"
        }
      ],
      "name": "transferOwnership",
      "outputs": [],
      "stateMutability": "nonpayable",
      "type": "function"
    },
    {
      "inputs": [
        {
          "internalType": "uint256",
          "name": "",
          "type": "uint256"
        }
      ],
      "name": "uri",
      "outputs": [
        {
          "internalType": "string",
          "name": "",
          "type": "string"
        }
      ],
      "stateMutability": "view",
      "type": "function"
    }
  ],
  "bytecode": "0x60a0604052670de0b6b3a76400006007556000600855604051806020016040528073b31f66aa3c1e785363f0875a1b74e27b85fd66c773ffffffffffffffffffffffffffffffffffffffff1673ffffffffffffffffffffffffffffffffffffffff16815250600d90600162000076929190620003b4565b503480156200008457600080fd5b5060405180602001604052806000815250620000a681620002ca60201b60201c565b50620000c7620000bb620002e660201b60201c565b620002ee60201b60201c565b6040518060400160405280600c81526020017f41415645204c6f74746572790000000000000000000000000000000000000000815250600590805190602001906200011492919062000443565b506040518060400160405280600381526020017f4c4f540000000000000000000000000000000000000000000000000000000000815250600690805190602001906200016292919062000443565b506000738f57153f18b7273f9a814b93b31cb3f9b035e7c2905073407287b03d1167593af113d32093942be13a535f600460006101000a81548173ffffffffffffffffffffffffffffffffffffffff021916908373ffffffffffffffffffffffffffffffffffffffff1602179055507360ae616a2155ee3d9a68541ba4544862310933d473ffffffffffffffffffffffffffffffffffffffff1660808173ffffffffffffffffffffffffffffffffffffffff168152505073794a61358d6845594f94dc1db02a252b5b4814ad600c60006101000a81548173ffffffffffffffffffffffffffffffffffffffff021916908373ffffffffffffffffffffffffffffffffffffffff16021790555073929ec64c34a17401f460460d4b9390518e5b473e600e60006101000a81548173ffffffffffffffffffffffffffffffffffffffff021916908373ffffffffffffffffffffffffffffffffffffffff1602179055505062000558565b8060029080519060200190620002e292919062000443565b5050565b600033905090565b6000600360009054906101000a900473ffffffffffffffffffffffffffffffffffffffff16905081600360006101000a81548173ffffffffffffffffffffffffffffffffffffffff021916908373ffffffffffffffffffffffffffffffffffffffff1602179055508173ffffffffffffffffffffffffffffffffffffffff168173ffffffffffffffffffffffffffffffffffffffff167f8be0079c531659141344cd1fd0a4f28419497f9722a3daafe3b4186f6b6457e060405160405180910390a35050565b82805482825590600052602060002090810192821562000430579160200282015b828111156200042f5782518260006101000a81548173ffffffffffffffffffffffffffffffffffffffff021916908373ffffffffffffffffffffffffffffffffffffffff16021790555091602001919060010190620003d5565b5b5090506200043f9190620004d4565b5090565b828054620004519062000522565b90600052602060002090601f016020900481019282620004755760008555620004c1565b82601f106200049057805160ff1916838001178555620004c1565b82800160010185558215620004c1579182015b82811115620004c0578251825591602001919060010190620004a3565b5b509050620004d09190620004d4565b5090565b5b80821115620004ef576000816000905550600101620004d5565b5090565b7f4e487b7100000000000000000000000000000000000000000000000000000000600052602260045260246000fd5b600060028204905060018216806200053b57607f821691505b60208210811415620005525762000551620004f3565b5b50919050565b608051613d506200057160003960005050613d506000f3fe60806040526004361061011e5760003560e01c806384d741a7116100a0578063b2185bb111610064578063b2185bb1146103c5578063e985e9c5146103dc578063f242432a14610419578063f2fde38b14610442578063f4a0a5281461046b5761011e565b806384d741a7146103135780638da5cb5b1461032f57806395d89b411461035a5780639dd58b5814610385578063a22cb4651461039c5761011e565b80632eb2c2d6116100e75780632eb2c2d61461022e57806335c1d349146102575780634e1273f4146102945780636817c76c146102d1578063715018a6146102fc5761011e565b8062fdd58e1461012357806301ffc9a71461016057806302fe53051461019d57806306fdde03146101c65780630e89341c146101f1575b600080fd5b34801561012f57600080fd5b5061014a6004803603810190610145919061224d565b610494565b604051610157919061229c565b60405180910390f35b34801561016c57600080fd5b506101876004803603810190610182919061230f565b61055d565b6040516101949190612357565b60405180910390f35b3480156101a957600080fd5b506101c460048036038101906101bf91906124b8565b61063f565b005b3480156101d257600080fd5b506101db610653565b6040516101e89190612589565b60405180910390f35b3480156101fd57600080fd5b50610218600480360381019061021391906125ab565b6106e1565b6040516102259190612589565b60405180910390f35b34801561023a57600080fd5b5061025560048036038101906102509190612741565b610775565b005b34801561026357600080fd5b5061027e600480360381019061027991906125ab565b610816565b60405161028b919061281f565b60405180910390f35b3480156102a057600080fd5b506102bb60048036038101906102b691906128fd565b610855565b6040516102c89190612a33565b60405180910390f35b3480156102dd57600080fd5b506102e661096e565b6040516102f3919061229c565b60405180910390f35b34801561030857600080fd5b50610311610974565b005b61032d60048036038101906103289190612a55565b610988565b005b34801561033b57600080fd5b506103446109ef565b604051610351919061281f565b60405180910390f35b34801561036657600080fd5b5061036f610a19565b60405161037c9190612589565b60405180910390f35b34801561039157600080fd5b5061039a610aa7565b005b3480156103a857600080fd5b506103c360048036038101906103be9190612af0565b610b46565b005b3480156103d157600080fd5b506103da610b5c565b005b3480156103e857600080fd5b5061040360048036038101906103fe9190612b30565b610d55565b6040516104109190612357565b60405180910390f35b34801561042557600080fd5b50610440600480360381019061043b9190612b70565b610de9565b005b34801561044e57600080fd5b5061046960048036038101906104649190612c07565b610e8a565b005b34801561047757600080fd5b50610492600480360381019061048d91906125ab565b610f0e565b005b60008073ffffffffffffffffffffffffffffffffffffffff168373ffffffffffffffffffffffffffffffffffffffff161415610505576040517f08c379a00000000000000000000000000000000000000000000000000000000081526004016104fc90612ca6565b60405180910390fd5b60008083815260200190815260200160002060008473ffffffffffffffffffffffffffffffffffffffff1673ffffffffffffffffffffffffffffffffffffffff16815260200190815260200160002054905092915050565b60007fd9b67a26000000000000000000000000000000000000000000000000000000007bffffffffffffffffffffffffffffffffffffffffffffffffffffffff1916827bffffffffffffffffffffffffffffffffffffffffffffffffffffffff1916148061062857507f0e89341c000000000000000000000000000000000000000000000000000000007bffffffffffffffffffffffffffffffffffffffffffffffffffffffff1916827bffffffffffffffffffffffffffffffffffffffffffffffffffffffff1916145b80610638575061063782610f20565b5b9050919050565b610647610f8a565b61065081611008565b50565b6005805461066090612cf5565b80601f016020809104026020016040519081016040528092919081815260200182805461068c90612cf5565b80156106d95780601f106106ae576101008083540402835291602001916106d9565b820191906000526020600020905b8154815290600101906020018083116106bc57829003601f168201915b505050505081565b6060600280546106f090612cf5565b80601f016020809104026020016040519081016040528092919081815260200182805461071c90612cf5565b80156107695780601f1061073e57610100808354040283529160200191610769565b820191906000526020600020905b81548152906001019060200180831161074c57829003601f168201915b50505050509050919050565b61077d611022565b73ffffffffffffffffffffffffffffffffffffffff168573ffffffffffffffffffffffffffffffffffffffff1614806107c357506107c2856107bd611022565b610d55565b5b610802576040517f08c379a00000000000000000000000000000000000000000000000000000000081526004016107f990612d99565b60405180910390fd5b61080f858585858561102a565b5050505050565b6009818154811061082657600080fd5b906000526020600020016000915054906101000a900473ffffffffffffffffffffffffffffffffffffffff1681565b6060815183511461089b576040517f08c379a000000000000000000000000000000000000000000000000000000000815260040161089290612e2b565b60405180910390fd5b6000835167ffffffffffffffff8111156108b8576108b761238d565b5b6040519080825280602002602001820160405280156108e65781602001602082028036833780820191505090505b50905060005b84518110156109635761093385828151811061090b5761090a612e4b565b5b602002602001015185838151811061092657610925612e4b565b5b6020026020010151610494565b82828151811061094657610945612e4b565b5b6020026020010181815250508061095c90612ea9565b90506108ec565b508091505092915050565b60075481565b61097c610f8a565b610986600061134c565b565b6007543410156109cd576040517f08c379a00000000000000000000000000000000000000000000000000000000081526004016109c490612f64565b60405180910390fd5b6109da8360018484611412565b6109e26115c3565b6109ea611648565b505050565b6000600360009054906101000a900473ffffffffffffffffffffffffffffffffffffffff16905090565b60068054610a2690612cf5565b80601f0160208091040260200160405190810160405280929190818152602001828054610a5290612cf5565b8015610a9f5780601f10610a7457610100808354040283529160200191610a9f565b820191906000526020600020905b815481529060010190602001808311610a8257829003601f168201915b505050505081565b600460009054906101000a900473ffffffffffffffffffffffffffffffffffffffff1673ffffffffffffffffffffffffffffffffffffffff166370a08231306040518263ffffffff1660e01b8152600401610b02919061281f565b602060405180830381865afa158015610b1f573d6000803e3d6000fd5b505050506040513d601f19601f82011682018060405250810190610b439190612f99565b50565b610b58610b51611022565b8383611796565b5050565b62093a80600a54610b6d9190612fc6565b4211610bae576040517f08c379a0000000000000000000000000000000000000000000000000000000008152600401610ba590613068565b60405180910390fd5b6000610bbe600980549050611903565b9050610bc861195f565b600460009054906101000a900473ffffffffffffffffffffffffffffffffffffffff1673ffffffffffffffffffffffffffffffffffffffff166370a08231306040518263ffffffff1660e01b8152600401610c23919061281f565b602060405180830381865afa158015610c40573d6000803e3d6000fd5b505050506040513d601f19601f82011682018060405250810190610c649190612f99565b600b81905550600460009054906101000a900473ffffffffffffffffffffffffffffffffffffffff1673ffffffffffffffffffffffffffffffffffffffff1663a9059cbb60098381548110610cbc57610cbb612e4b565b5b9060005260206000200160009054906101000a900473ffffffffffffffffffffffffffffffffffffffff16600b546040518363ffffffff1660e01b8152600401610d07929190613088565b6020604051808303816000875af1158015610d26573d6000803e3d6000fd5b505050506040513d601f19601f82011682018060405250810190610d4a91906130c6565b5042600a8190555050565b6000600160008473ffffffffffffffffffffffffffffffffffffffff1673ffffffffffffffffffffffffffffffffffffffff16815260200190815260200160002060008373ffffffffffffffffffffffffffffffffffffffff1673ffffffffffffffffffffffffffffffffffffffff16815260200190815260200160002060009054906101000a900460ff16905092915050565b610df1611022565b73ffffffffffffffffffffffffffffffffffffffff168573ffffffffffffffffffffffffffffffffffffffff161480610e375750610e3685610e31611022565b610d55565b5b610e76576040517f08c379a0000000000000000000000000000000000000000000000000000000008152600401610e6d90612d99565b60405180910390fd5b610e838585858585611a09565b5050505050565b610e92610f8a565b600073ffffffffffffffffffffffffffffffffffffffff168173ffffffffffffffffffffffffffffffffffffffff161415610f02576040517f08c379a0000000000000000000000000000000000000000000000000000000008152600401610ef990613165565b60405180910390fd5b610f0b8161134c565b50565b610f16610f8a565b8060078190555050565b60007f01ffc9a7000000000000000000000000000000000000000000000000000000007bffffffffffffffffffffffffffffffffffffffffffffffffffffffff1916827bffffffffffffffffffffffffffffffffffffffffffffffffffffffff1916149050919050565b610f92611022565b73ffffffffffffffffffffffffffffffffffffffff16610fb06109ef565b73ffffffffffffffffffffffffffffffffffffffff1614611006576040517f08c379a0000000000000000000000000000000000000000000000000000000008152600401610ffd906131d1565b60405180910390fd5b565b806002908051906020019061101e929190612102565b5050565b600033905090565b815183511461106e576040517f08c379a000000000000000000000000000000000000000000000000000000000815260040161106590613263565b60405180910390fd5b600073ffffffffffffffffffffffffffffffffffffffff168473ffffffffffffffffffffffffffffffffffffffff1614156110de576040517f08c379a00000000000000000000000000000000000000000000000000000000081526004016110d5906132f5565b60405180910390fd5b60006110e8611022565b90506110f8818787878787611ca5565b60005b84518110156112a957600085828151811061111957611118612e4b565b5b60200260200101519050600085838151811061113857611137612e4b565b5b60200260200101519050600080600084815260200190815260200160002060008b73ffffffffffffffffffffffffffffffffffffffff1673ffffffffffffffffffffffffffffffffffffffff168152602001908152602001600020549050818110156111d9576040517f08c379a00000000000000000000000000000000000000000000000000000000081526004016111d090613387565b60405180910390fd5b81810360008085815260200190815260200160002060008c73ffffffffffffffffffffffffffffffffffffffff1673ffffffffffffffffffffffffffffffffffffffff168152602001908152602001600020819055508160008085815260200190815260200160002060008b73ffffffffffffffffffffffffffffffffffffffff1673ffffffffffffffffffffffffffffffffffffffff168152602001908152602001600020600082825461128e9190612fc6565b92505081905550505050806112a290612ea9565b90506110fb565b508473ffffffffffffffffffffffffffffffffffffffff168673ffffffffffffffffffffffffffffffffffffffff168273ffffffffffffffffffffffffffffffffffffffff167f4a39dc06d4c0dbc64b70af90fd698a233a518aa5d07e595d983b8c0526c8f7fb87876040516113209291906133a7565b60405180910390a4611336818787878787611cad565b611344818787878787611cb5565b505050505050565b6000600360009054906101000a900473ffffffffffffffffffffffffffffffffffffffff16905081600360006101000a81548173ffffffffffffffffffffffffffffffffffffffff021916908373ffffffffffffffffffffffffffffffffffffffff1602179055508173ffffffffffffffffffffffffffffffffffffffff168173ffffffffffffffffffffffffffffffffffffffff167f8be0079c531659141344cd1fd0a4f28419497f9722a3daafe3b4186f6b6457e060405160405180910390a35050565b600073ffffffffffffffffffffffffffffffffffffffff168473ffffffffffffffffffffffffffffffffffffffff161415611482576040517f08c379a000000000000000000000000000000000000000000000000000000000815260040161147990613450565b60405180910390fd5b600061148c611022565b9050600061149985611e8d565b905060006114a685611e8d565b90506114b783600089858589611ca5565b8460008088815260200190815260200160002060008973ffffffffffffffffffffffffffffffffffffffff1673ffffffffffffffffffffffffffffffffffffffff16815260200190815260200160002060008282546115169190612fc6565b925050819055508673ffffffffffffffffffffffffffffffffffffffff16600073ffffffffffffffffffffffffffffffffffffffff168473ffffffffffffffffffffffffffffffffffffffff167fc3d58168c5ae7397731d063d5bbf3d657854427343f4c083240f7aacaa2d0f628989604051611594929190613470565b60405180910390a46115ab83600089858589611cad565b6115ba83600089898989611f07565b50505050505050565b600460009054906101000a900473ffffffffffffffffffffffffffffffffffffffff1673ffffffffffffffffffffffffffffffffffffffff1663d0e30db0476040518263ffffffff1660e01b81526004016000604051808303818588803b15801561162d57600080fd5b505af1158015611641573d6000803e3d6000fd5b5050505050565b600460009054906101000a900473ffffffffffffffffffffffffffffffffffffffff1673ffffffffffffffffffffffffffffffffffffffff166370a08231306040518263ffffffff1660e01b81526004016116a3919061281f565b602060405180830381865afa1580156116c0573d6000803e3d6000fd5b505050506040513d601f19601f820116820180604052508101906116e49190612f99565b600b81905550600c60009054906101000a900473ffffffffffffffffffffffffffffffffffffffff1673ffffffffffffffffffffffffffffffffffffffff1663617ba03773407287b03d1167593af113d32093942be13a535f600b543060006040518563ffffffff1660e01b815260040161176294939291906134ec565b600060405180830381600087803b15801561177c57600080fd5b505af1158015611790573d6000803e3d6000fd5b50505050565b8173ffffffffffffffffffffffffffffffffffffffff168373ffffffffffffffffffffffffffffffffffffffff161415611805576040517f08c379a00000000000000000000000000000000000000000000000000000000081526004016117fc906135a3565b60405180910390fd5b80600160008573ffffffffffffffffffffffffffffffffffffffff1673ffffffffffffffffffffffffffffffffffffffff16815260200190815260200160002060008473ffffffffffffffffffffffffffffffffffffffff1673ffffffffffffffffffffffffffffffffffffffff16815260200190815260200160002060006101000a81548160ff0219169083151502179055508173ffffffffffffffffffffffffffffffffffffffff168373ffffffffffffffffffffffffffffffffffffffff167f17307eab39ab6107e8899845ad3d59bd9653f200f220920489ca2b5937696c31836040516118f69190612357565b60405180910390a3505050565b60006008600081548092919061191890612ea9565b91905055508142336008546040516020016119359392919061362c565b6040516020818303038152906040528051906020012060001c6119589190613698565b9050919050565b600e60009054906101000a900473ffffffffffffffffffffffffffffffffffffffff1673ffffffffffffffffffffffffffffffffffffffff1663bb492bf5600d306040518363ffffffff1660e01b81526004016119bd9291906137ed565b6000604051808303816000875af11580156119dc573d6000803e3d6000fd5b505050506040513d6000823e3d601f19601f82011682018060405250810190611a059190613960565b5050565b600073ffffffffffffffffffffffffffffffffffffffff168473ffffffffffffffffffffffffffffffffffffffff161415611a79576040517f08c379a0000000000000000000000000000000000000000000000000000000008152600401611a70906132f5565b60405180910390fd5b6000611a83611022565b90506000611a9085611e8d565b90506000611a9d85611e8d565b9050611aad838989858589611ca5565b600080600088815260200190815260200160002060008a73ffffffffffffffffffffffffffffffffffffffff1673ffffffffffffffffffffffffffffffffffffffff16815260200190815260200160002054905085811015611b44576040517f08c379a0000000000000000000000000000000000000000000000000000000008152600401611b3b90613387565b60405180910390fd5b85810360008089815260200190815260200160002060008b73ffffffffffffffffffffffffffffffffffffffff1673ffffffffffffffffffffffffffffffffffffffff168152602001908152602001600020819055508560008089815260200190815260200160002060008a73ffffffffffffffffffffffffffffffffffffffff1673ffffffffffffffffffffffffffffffffffffffff1681526020019081526020016000206000828254611bf99190612fc6565b925050819055508773ffffffffffffffffffffffffffffffffffffffff168973ffffffffffffffffffffffffffffffffffffffff168573ffffffffffffffffffffffffffffffffffffffff167fc3d58168c5ae7397731d063d5bbf3d657854427343f4c083240f7aacaa2d0f628a8a604051611c76929190613470565b60405180910390a4611c8c848a8a86868a611cad565b611c9a848a8a8a8a8a611f07565b505050505050505050565b505050505050565b505050505050565b611cd48473ffffffffffffffffffffffffffffffffffffffff166120df565b15611e85578373ffffffffffffffffffffffffffffffffffffffff1663bc197c8187878686866040518663ffffffff1660e01b8152600401611d1a959493929190613a2d565b6020604051808303816000875af1925050508015611d5657506040513d601f19601f82011682018060405250810190611d539190613aaa565b60015b611dfc57611d62613ae4565b806308c379a01415611dbf5750611d77613b06565b80611d825750611dc1565b806040517f08c379a0000000000000000000000000000000000000000000000000000000008152600401611db69190612589565b60405180910390fd5b505b6040517f08c379a0000000000000000000000000000000000000000000000000000000008152600401611df390613c0e565b60405180910390fd5b63bc197c8160e01b7bffffffffffffffffffffffffffffffffffffffffffffffffffffffff1916817bffffffffffffffffffffffffffffffffffffffffffffffffffffffff191614611e83576040517f08c379a0000000000000000000000000000000000000000000000000000000008152600401611e7a90613ca0565b60405180910390fd5b505b505050505050565b60606000600167ffffffffffffffff811115611eac57611eab61238d565b5b604051908082528060200260200182016040528015611eda5781602001602082028036833780820191505090505b5090508281600081518110611ef257611ef1612e4b565b5b60200260200101818152505080915050919050565b611f268473ffffffffffffffffffffffffffffffffffffffff166120df565b156120d7578373ffffffffffffffffffffffffffffffffffffffff1663f23a6e6187878686866040518663ffffffff1660e01b8152600401611f6c959493929190613cc0565b6020604051808303816000875af1925050508015611fa857506040513d601f19601f82011682018060405250810190611fa59190613aaa565b60015b61204e57611fb4613ae4565b806308c379a014156120115750611fc9613b06565b80611fd45750612013565b806040517f08c379a00000000000000000000000000000000000000000000000000000000081526004016120089190612589565b60405180910390fd5b505b6040517f08c379a000000000000000000000000000000000000000000000000000000000815260040161204590613c0e565b60405180910390fd5b63f23a6e6160e01b7bffffffffffffffffffffffffffffffffffffffffffffffffffffffff1916817bffffffffffffffffffffffffffffffffffffffffffffffffffffffff1916146120d5576040517f08c379a00000000000000000000000000000000000000000000000000000000081526004016120cc90613ca0565b60405180910390fd5b505b505050505050565b6000808273ffffffffffffffffffffffffffffffffffffffff163b119050919050565b82805461210e90612cf5565b90600052602060002090601f0160209004810192826121305760008555612177565b82601f1061214957805160ff1916838001178555612177565b82800160010185558215612177579182015b8281111561217657825182559160200191906001019061215b565b5b5090506121849190612188565b5090565b5b808211156121a1576000816000905550600101612189565b5090565b6000604051905090565b600080fd5b600080fd5b600073ffffffffffffffffffffffffffffffffffffffff82169050919050565b60006121e4826121b9565b9050919050565b6121f4816121d9565b81146121ff57600080fd5b50565b600081359050612211816121eb565b92915050565b6000819050919050565b61222a81612217565b811461223557600080fd5b50565b60008135905061224781612221565b92915050565b60008060408385031215612264576122636121af565b5b600061227285828601612202565b925050602061228385828601612238565b9150509250929050565b61229681612217565b82525050565b60006020820190506122b1600083018461228d565b92915050565b60007fffffffff0000000000000000000000000000000000000000000000000000000082169050919050565b6122ec816122b7565b81146122f757600080fd5b50565b600081359050612309816122e3565b92915050565b600060208284031215612325576123246121af565b5b6000612333848285016122fa565b91505092915050565b60008115159050919050565b6123518161233c565b82525050565b600060208201905061236c6000830184612348565b92915050565b600080fd5b600080fd5b6000601f19601f8301169050919050565b7f4e487b7100000000000000000000000000000000000000000000000000000000600052604160045260246000fd5b6123c58261237c565b810181811067ffffffffffffffff821117156123e4576123e361238d565b5b80604052505050565b60006123f76121a5565b905061240382826123bc565b919050565b600067ffffffffffffffff8211156124235761242261238d565b5b61242c8261237c565b9050602081019050919050565b82818337600083830152505050565b600061245b61245684612408565b6123ed565b90508281526020810184848401111561247757612476612377565b5b612482848285612439565b509392505050565b600082601f83011261249f5761249e612372565b5b81356124af848260208601612448565b91505092915050565b6000602082840312156124ce576124cd6121af565b5b600082013567ffffffffffffffff8111156124ec576124eb6121b4565b5b6124f88482850161248a565b91505092915050565b600081519050919050565b600082825260208201905092915050565b60005b8381101561253b578082015181840152602081019050612520565b8381111561254a576000848401525b50505050565b600061255b82612501565b612565818561250c565b935061257581856020860161251d565b61257e8161237c565b840191505092915050565b600060208201905081810360008301526125a38184612550565b905092915050565b6000602082840312156125c1576125c06121af565b5b60006125cf84828501612238565b91505092915050565b600067ffffffffffffffff8211156125f3576125f261238d565b5b602082029050602081019050919050565b600080fd5b600061261c612617846125d8565b6123ed565b9050808382526020820190506020840283018581111561263f5761263e612604565b5b835b8181101561266857806126548882612238565b845260208401935050602081019050612641565b5050509392505050565b600082601f83011261268757612686612372565b5b8135612697848260208601612609565b91505092915050565b600067ffffffffffffffff8211156126bb576126ba61238d565b5b6126c48261237c565b9050602081019050919050565b60006126e46126df846126a0565b6123ed565b905082815260208101848484011115612700576126ff612377565b5b61270b848285612439565b509392505050565b600082601f83011261272857612727612372565b5b81356127388482602086016126d1565b91505092915050565b600080600080600060a0868803121561275d5761275c6121af565b5b600061276b88828901612202565b955050602061277c88828901612202565b945050604086013567ffffffffffffffff81111561279d5761279c6121b4565b5b6127a988828901612672565b935050606086013567ffffffffffffffff8111156127ca576127c96121b4565b5b6127d688828901612672565b925050608086013567ffffffffffffffff8111156127f7576127f66121b4565b5b61280388828901612713565b9150509295509295909350565b612819816121d9565b82525050565b60006020820190506128346000830184612810565b92915050565b600067ffffffffffffffff8211156128555761285461238d565b5b602082029050602081019050919050565b60006128796128748461283a565b6123ed565b9050808382526020820190506020840283018581111561289c5761289b612604565b5b835b818110156128c557806128b18882612202565b84526020840193505060208101905061289e565b5050509392505050565b600082601f8301126128e4576128e3612372565b5b81356128f4848260208601612866565b91505092915050565b60008060408385031215612914576129136121af565b5b600083013567ffffffffffffffff811115612932576129316121b4565b5b61293e858286016128cf565b925050602083013567ffffffffffffffff81111561295f5761295e6121b4565b5b61296b85828601612672565b9150509250929050565b600081519050919050565b600082825260208201905092915050565b6000819050602082019050919050565b6129aa81612217565b82525050565b60006129bc83836129a1565b60208301905092915050565b6000602082019050919050565b60006129e082612975565b6129ea8185612980565b93506129f583612991565b8060005b83811015612a26578151612a0d88826129b0565b9750612a18836129c8565b9250506001810190506129f9565b5085935050505092915050565b60006020820190508181036000830152612a4d81846129d5565b905092915050565b600080600060608486031215612a6e57612a6d6121af565b5b6000612a7c86828701612202565b9350506020612a8d86828701612238565b925050604084013567ffffffffffffffff811115612aae57612aad6121b4565b5b612aba86828701612713565b9150509250925092565b612acd8161233c565b8114612ad857600080fd5b50565b600081359050612aea81612ac4565b92915050565b60008060408385031215612b0757612b066121af565b5b6000612b1585828601612202565b9250506020612b2685828601612adb565b9150509250929050565b60008060408385031215612b4757612b466121af565b5b6000612b5585828601612202565b9250506020612b6685828601612202565b9150509250929050565b600080600080600060a08688031215612b8c57612b8b6121af565b5b6000612b9a88828901612202565b9550506020612bab88828901612202565b9450506040612bbc88828901612238565b9350506060612bcd88828901612238565b925050608086013567ffffffffffffffff811115612bee57612bed6121b4565b5b612bfa88828901612713565b9150509295509295909350565b600060208284031215612c1d57612c1c6121af565b5b6000612c2b84828501612202565b91505092915050565b7f455243313135353a2061646472657373207a65726f206973206e6f742061207660008201527f616c6964206f776e657200000000000000000000000000000000000000000000602082015250565b6000612c90602a8361250c565b9150612c9b82612c34565b604082019050919050565b60006020820190508181036000830152612cbf81612c83565b9050919050565b7f4e487b7100000000000000000000000000000000000000000000000000000000600052602260045260246000fd5b60006002820490506001821680612d0d57607f821691505b60208210811415612d2157612d20612cc6565b5b50919050565b7f455243313135353a2063616c6c6572206973206e6f7420746f6b656e206f776e60008201527f6572206e6f7220617070726f7665640000000000000000000000000000000000602082015250565b6000612d83602f8361250c565b9150612d8e82612d27565b604082019050919050565b60006020820190508181036000830152612db281612d76565b9050919050565b7f455243313135353a206163636f756e747320616e6420696473206c656e67746860008201527f206d69736d617463680000000000000000000000000000000000000000000000602082015250565b6000612e1560298361250c565b9150612e2082612db9565b604082019050919050565b60006020820190508181036000830152612e4481612e08565b9050919050565b7f4e487b7100000000000000000000000000000000000000000000000000000000600052603260045260246000fd5b7f4e487b7100000000000000000000000000000000000000000000000000000000600052601160045260246000fd5b6000612eb482612217565b91507fffffffffffffffffffffffffffffffffffffffffffffffffffffffffffffffff821415612ee757612ee6612e7a565b5b600182019050919050565b7f596f7520646f6e2774206861766520656e6f75676820657468657220746f206d60008201527f696e740000000000000000000000000000000000000000000000000000000000602082015250565b6000612f4e60238361250c565b9150612f5982612ef2565b604082019050919050565b60006020820190508181036000830152612f7d81612f41565b9050919050565b600081519050612f9381612221565b92915050565b600060208284031215612faf57612fae6121af565b5b6000612fbd84828501612f84565b91505092915050565b6000612fd182612217565b9150612fdc83612217565b9250827fffffffffffffffffffffffffffffffffffffffffffffffffffffffffffffffff0382111561301157613010612e7a565b5b828201905092915050565b7f77616974696e6720706572696f6420686173206e6f7420657870697265640000600082015250565b6000613052601e8361250c565b915061305d8261301c565b602082019050919050565b6000602082019050818103600083015261308181613045565b9050919050565b600060408201905061309d6000830185612810565b6130aa602083018461228d565b9392505050565b6000815190506130c081612ac4565b92915050565b6000602082840312156130dc576130db6121af565b5b60006130ea848285016130b1565b91505092915050565b7f4f776e61626c653a206e6577206f776e657220697320746865207a65726f206160008201527f6464726573730000000000000000000000000000000000000000000000000000602082015250565b600061314f60268361250c565b915061315a826130f3565b604082019050919050565b6000602082019050818103600083015261317e81613142565b9050919050565b7f4f776e61626c653a2063616c6c6572206973206e6f7420746865206f776e6572600082015250565b60006131bb60208361250c565b91506131c682613185565b602082019050919050565b600060208201905081810360008301526131ea816131ae565b9050919050565b7f455243313135353a2069647320616e6420616d6f756e7473206c656e6774682060008201527f6d69736d61746368000000000000000000000000000000000000000000000000602082015250565b600061324d60288361250c565b9150613258826131f1565b604082019050919050565b6000602082019050818103600083015261327c81613240565b9050919050565b7f455243313135353a207472616e7366657220746f20746865207a65726f20616460008201527f6472657373000000000000000000000000000000000000000000000000000000602082015250565b60006132df60258361250c565b91506132ea82613283565b604082019050919050565b6000602082019050818103600083015261330e816132d2565b9050919050565b7f455243313135353a20696e73756666696369656e742062616c616e636520666f60008201527f72207472616e7366657200000000000000000000000000000000000000000000602082015250565b6000613371602a8361250c565b915061337c82613315565b604082019050919050565b600060208201905081810360008301526133a081613364565b9050919050565b600060408201905081810360008301526133c181856129d5565b905081810360208301526133d581846129d5565b90509392505050565b7f455243313135353a206d696e7420746f20746865207a65726f2061646472657360008201527f7300000000000000000000000000000000000000000000000000000000000000602082015250565b600061343a60218361250c565b9150613445826133de565b604082019050919050565b600060208201905081810360008301526134698161342d565b9050919050565b6000604082019050613485600083018561228d565b613492602083018461228d565b9392505050565b6000819050919050565b600061ffff82169050919050565b6000819050919050565b60006134d66134d16134cc84613499565b6134b1565b6134a3565b9050919050565b6134e6816134bb565b82525050565b60006080820190506135016000830187612810565b61350e602083018661228d565b61351b6040830185612810565b61352860608301846134dd565b95945050505050565b7f455243313135353a2073657474696e6720617070726f76616c2073746174757360008201527f20666f722073656c660000000000000000000000000000000000000000000000602082015250565b600061358d60298361250c565b915061359882613531565b604082019050919050565b600060208201905081810360008301526135bc81613580565b9050919050565b6000819050919050565b6135de6135d982612217565b6135c3565b82525050565b60008160601b9050919050565b60006135fc826135e4565b9050919050565b600061360e826135f1565b9050919050565b613626613621826121d9565b613603565b82525050565b600061363882866135cd565b6020820191506136488285613615565b60148201915061365882846135cd565b602082019150819050949350505050565b7f4e487b7100000000000000000000000000000000000000000000000000000000600052601260045260246000fd5b60006136a382612217565b91506136ae83612217565b9250826136be576136bd613669565b5b828206905092915050565b600081549050919050565b600082825260208201905092915050565b60008190508160005260206000209050919050565b613703816121d9565b82525050565b600061371583836136fa565b60208301905092915050565b60008160001c9050919050565b600073ffffffffffffffffffffffffffffffffffffffff82169050919050565b600061376161375c83613721565b61372e565b9050919050565b6000613774825461374e565b9050919050565b6000600182019050919050565b6000613793826136c9565b61379d81856136d4565b93506137a8836136e5565b8060005b838110156137e0576137bd82613768565b6137c78882613709565b97506137d28361377b565b9250506001810190506137ac565b5085935050505092915050565b600060408201905081810360008301526138078185613788565b90506138166020830184612810565b9392505050565b60008151905061382c816121eb565b92915050565b60006138456138408461283a565b6123ed565b9050808382526020820190506020840283018581111561386857613867612604565b5b835b81811015613891578061387d888261381d565b84526020840193505060208101905061386a565b5050509392505050565b600082601f8301126138b0576138af612372565b5b81516138c0848260208601613832565b91505092915050565b60006138dc6138d7846125d8565b6123ed565b905080838252602082019050602084028301858111156138ff576138fe612604565b5b835b8181101561392857806139148882612f84565b845260208401935050602081019050613901565b5050509392505050565b600082601f83011261394757613946612372565b5b81516139578482602086016138c9565b91505092915050565b60008060408385031215613977576139766121af565b5b600083015167ffffffffffffffff811115613995576139946121b4565b5b6139a18582860161389b565b925050602083015167ffffffffffffffff8111156139c2576139c16121b4565b5b6139ce85828601613932565b9150509250929050565b600081519050919050565b600082825260208201905092915050565b60006139ff826139d8565b613a0981856139e3565b9350613a1981856020860161251d565b613a228161237c565b840191505092915050565b600060a082019050613a426000830188612810565b613a4f6020830187612810565b8181036040830152613a6181866129d5565b90508181036060830152613a7581856129d5565b90508181036080830152613a8981846139f4565b90509695505050505050565b600081519050613aa4816122e3565b92915050565b600060208284031215613ac057613abf6121af565b5b6000613ace84828501613a95565b91505092915050565b60008160e01c9050919050565b600060033d1115613b035760046000803e613b00600051613ad7565b90505b90565b600060443d1015613b1657613b99565b613b1e6121a5565b60043d036004823e80513d602482011167ffffffffffffffff82111715613b46575050613b99565b808201805167ffffffffffffffff811115613b645750505050613b99565b80602083010160043d038501811115613b81575050505050613b99565b613b90826020018501866123bc565b82955050505050505b90565b7f455243313135353a207472616e7366657220746f206e6f6e204552433131353560008201527f526563656976657220696d706c656d656e746572000000000000000000000000602082015250565b6000613bf860348361250c565b9150613c0382613b9c565b604082019050919050565b60006020820190508181036000830152613c2781613beb565b9050919050565b7f455243313135353a204552433131353552656365697665722072656a6563746560008201527f6420746f6b656e73000000000000000000000000000000000000000000000000602082015250565b6000613c8a60288361250c565b9150613c9582613c2e565b604082019050919050565b60006020820190508181036000830152613cb981613c7d565b9050919050565b600060a082019050613cd56000830188612810565b613ce26020830187612810565b613cef604083018661228d565b613cfc606083018561228d565b8181036080830152613d0e81846139f4565b9050969550505050505056fea2646970667358221220d3cb3fca29bff8c270c911083dc19ed3eac583e8e1633c875dda321383fe184964736f6c634300080a0033",
  "linkReferences": {},
  "deployedLinkReferences": {}
}