{
  "_format": "hh-sol-artifact-1",
  "contractName": "Token",
  "sourceName": "contracts/Token.sol",
  "abi": [
    {
      "inputs": [],
      "stateMutability": "nonpayable",
      "type": "constructor"
    },
    {
      "anonymous": false,
      "inputs": [
        {
          "indexed": true,
          "internalType": "address",
          "name": "account",
          "type": "address"
        },
        {
          "indexed": true,
          "internalType": "address",
          "name": "operator",
          "type": "address"
        },
        {
          "indexed": false,
          "internalType": "bool",
          "name": "approved",
          "type": "bool"
        }
      ],
      "name": "ApprovalForAll",
      "type": "event"
    },
    {
      "anonymous": false,
      "inputs": [
        {
          "indexed": true,
          "internalType": "address",
          "name": "previousOwner",
          "type": "address"
        },
        {
          "indexed": true,
          "internalType": "address",
          "name": "newOwner",
          "type": "address"
        }
      ],
      "name": "OwnershipTransferred",
      "type": "event"
    },
    {
      "anonymous": false,
      "inputs": [
        {
          "indexed": true,
          "internalType": "address",
          "name": "operator",
          "type": "address"
        },
        {
          "indexed": true,
          "internalType": "address",
          "name": "from",
          "type": "address"
        },
        {
          "indexed": true,
          "internalType": "address",
          "name": "to",
          "type": "address"
        },
        {
          "indexed": false,
          "internalType": "uint256[]",
          "name": "ids",
          "type": "uint256[]"
        },
        {
          "indexed": false,
          "internalType": "uint256[]",
          "name": "values",
          "type": "uint256[]"
        }
      ],
      "name": "TransferBatch",
      "type": "event"
    },
    {
      "anonymous": false,
      "inputs": [
        {
          "indexed": true,
          "internalType": "address",
          "name": "operator",
          "type": "address"
        },
        {
          "indexed": true,
          "internalType": "address",
          "name": "from",
          "type": "address"
        },
        {
          "indexed": true,
          "internalType": "address",
          "name": "to",
          "type": "address"
        },
        {
          "indexed": false,
          "internalType": "uint256",
          "name": "id",
          "type": "uint256"
        },
        {
          "indexed": false,
          "internalType": "uint256",
          "name": "value",
          "type": "uint256"
        }
      ],
      "name": "TransferSingle",
      "type": "event"
    },
    {
      "anonymous": false,
      "inputs": [
        {
          "indexed": false,
          "internalType": "string",
          "name": "value",
          "type": "string"
        },
        {
          "indexed": true,
          "internalType": "uint256",
          "name": "id",
          "type": "uint256"
        }
      ],
      "name": "URI",
      "type": "event"
    },
    {
      "inputs": [
        {
          "internalType": "address",
          "name": "account",
          "type": "address"
        },
        {
          "internalType": "uint256",
          "name": "id",
          "type": "uint256"
        }
      ],
      "name": "balanceOf",
      "outputs": [
        {
          "internalType": "uint256",
          "name": "",
          "type": "uint256"
        }
      ],
      "stateMutability": "view",
      "type": "function"
    },
    {
      "inputs": [
        {
          "internalType": "address[]",
          "name": "accounts",
          "type": "address[]"
        },
        {
          "internalType": "uint256[]",
          "name": "ids",
          "type": "uint256[]"
        }
      ],
      "name": "balanceOfBatch",
      "outputs": [
        {
          "internalType": "uint256[]",
          "name": "",
          "type": "uint256[]"
        }
      ],
      "stateMutability": "view",
      "type": "function"
    },
    {
      "inputs": [],
      "name": "buyAAVE",
      "outputs": [],
      "stateMutability": "nonpayable",
      "type": "function"
    },
    {
      "inputs": [],
      "name": "drawWinner",
      "outputs": [],
      "stateMutability": "nonpayable",
      "type": "function"
    },
    {
      "inputs": [
        {
          "internalType": "address",
          "name": "account",
          "type": "address"
        },
        {
          "internalType": "address",
          "name": "operator",
          "type": "address"
        }
      ],
      "name": "isApprovedForAll",
      "outputs": [
        {
          "internalType": "bool",
          "name": "",
          "type": "bool"
        }
      ],
      "stateMutability": "view",
      "type": "function"
    },
    {
      "inputs": [
        {
          "internalType": "address",
          "name": "account",
          "type": "address"
        },
        {
          "internalType": "uint256",
          "name": "amount",
          "type": "uint256"
        },
        {
          "internalType": "bytes",
          "name": "data",
          "type": "bytes"
        }
      ],
      "name": "mint",
      "outputs": [],
      "stateMutability": "payable",
      "type": "function"
    },
    {
      "inputs": [
        {
          "internalType": "address",
          "name": "to",
          "type": "address"
        },
        {
          "internalType": "uint256[]",
          "name": "ids",
          "type": "uint256[]"
        },
        {
          "internalType": "uint256[]",
          "name": "amounts",
          "type": "uint256[]"
        },
        {
          "internalType": "bytes",
          "name": "data",
          "type": "bytes"
        }
      ],
      "name": "mintBatch",
      "outputs": [],
      "stateMutability": "nonpayable",
      "type": "function"
    },
    {
      "inputs": [],
      "name": "mintPrice",
      "outputs": [
        {
          "internalType": "uint256",
          "name": "",
          "type": "uint256"
        }
      ],
      "stateMutability": "view",
      "type": "function"
    },
    {
      "inputs": [],
      "name": "name",
      "outputs": [
        {
          "internalType": "string",
          "name": "",
          "type": "string"
        }
      ],
      "stateMutability": "view",
      "type": "function"
    },
    {
      "inputs": [],
      "name": "owner",
      "outputs": [
        {
          "internalType": "address",
          "name": "",
          "type": "address"
        }
      ],
      "stateMutability": "view",
      "type": "function"
    },
    {
      "inputs": [
        {
          "internalType": "uint256",
          "name": "",
          "type": "uint256"
        }
      ],
      "name": "particapants",
      "outputs": [
        {
          "internalType": "address",
          "name": "",
          "type": "address"
        }
      ],
      "stateMutability": "view",
      "type": "function"
    },
    {
      "inputs": [],
      "name": "renounceOwnership",
      "outputs": [],
      "stateMutability": "nonpayable",
      "type": "function"
    },
    {
      "inputs": [
        {
          "internalType": "address",
          "name": "from",
          "type": "address"
        },
        {
          "internalType": "address",
          "name": "to",
          "type": "address"
        },
        {
          "internalType": "uint256[]",
          "name": "ids",
          "type": "uint256[]"
        },
        {
          "internalType": "uint256[]",
          "name": "amounts",
          "type": "uint256[]"
        },
        {
          "internalType": "bytes",
          "name": "data",
          "type": "bytes"
        }
      ],
      "name": "safeBatchTransferFrom",
      "outputs": [],
      "stateMutability": "nonpayable",
      "type": "function"
    },
    {
      "inputs": [
        {
          "internalType": "address",
          "name": "from",
          "type": "address"
        },
        {
          "internalType": "address",
          "name": "to",
          "type": "address"
        },
        {
          "internalType": "uint256",
          "name": "id",
          "type": "uint256"
        },
        {
          "internalType": "uint256",
          "name": "amount",
          "type": "uint256"
        },
        {
          "internalType": "bytes",
          "name": "data",
          "type": "bytes"
        }
      ],
      "name": "safeTransferFrom",
      "outputs": [],
      "stateMutability": "nonpayable",
      "type": "function"
    },
    {
      "inputs": [
        {
          "internalType": "address",
          "name": "operator",
          "type": "address"
        },
        {
          "internalType": "bool",
          "name": "approved",
          "type": "bool"
        }
      ],
      "name": "setApprovalForAll",
      "outputs": [],
      "stateMutability": "nonpayable",
      "type": "function"
    },
    {
      "inputs": [
        {
          "internalType": "uint256",
          "name": "_mintPrice",
          "type": "uint256"
        }
      ],
      "name": "setMintPrice",
      "outputs": [],
      "stateMutability": "nonpayable",
      "type": "function"
    },
    {
      "inputs": [
        {
          "internalType": "string",
          "name": "newuri",
          "type": "string"
        }
      ],
      "name": "setURI",
      "outputs": [],
      "stateMutability": "nonpayable",
      "type": "function"
    },
    {
      "inputs": [
        {
          "internalType": "bytes4",
          "name": "interfaceId",
          "type": "bytes4"
        }
      ],
      "name": "supportsInterface",
      "outputs": [
        {
          "internalType": "bool",
          "name": "",
          "type": "bool"
        }
      ],
      "stateMutability": "view",
      "type": "function"
    },
    {
      "inputs": [],
      "name": "symbol",
      "outputs": [
        {
          "internalType": "string",
          "name": "",
          "type": "string"
        }
      ],
      "stateMutability": "view",
      "type": "function"
    },
    {
      "inputs": [
        {
          "internalType": "address",
          "name": "newOwner",
          "type": "address"
        }
      ],
      "name": "transferOwnership",
      "outputs": [],
      "stateMutability": "nonpayable",
      "type": "function"
    },
    {
      "inputs": [
        {
          "internalType": "uint256",
          "name": "",
          "type": "uint256"
        }
      ],
      "name": "uri",
      "outputs": [
        {
          "internalType": "string",
          "name": "",
          "type": "string"
        }
      ],
      "stateMutability": "view",
      "type": "function"
    }
  ],
  "bytecode": "0x6080604052670de0b6b3a764000060075560006008553480156200002257600080fd5b506040518060200160405280600081525062000044816200012160201b60201c565b5062000065620000596200013d60201b60201c565b6200014560201b60201c565b6040518060400160405280600c81526020017f41415645204c6f7474657279000000000000000000000000000000000000000081525060059080519060200190620000b29291906200020b565b506040518060400160405280600381526020017f4c4f54000000000000000000000000000000000000000000000000000000000081525060069080519060200190620001009291906200020b565b506000738f57153f18b7273f9a814b93b31cb3f9b035e7c290505062000320565b8060029080519060200190620001399291906200020b565b5050565b600033905090565b6000600360009054906101000a900473ffffffffffffffffffffffffffffffffffffffff16905081600360006101000a81548173ffffffffffffffffffffffffffffffffffffffff021916908373ffffffffffffffffffffffffffffffffffffffff1602179055508173ffffffffffffffffffffffffffffffffffffffff168173ffffffffffffffffffffffffffffffffffffffff167f8be0079c531659141344cd1fd0a4f28419497f9722a3daafe3b4186f6b6457e060405160405180910390a35050565b8280546200021990620002ea565b90600052602060002090601f0160209004810192826200023d576000855562000289565b82601f106200025857805160ff191683800117855562000289565b8280016001018555821562000289579182015b82811115620002885782518255916020019190600101906200026b565b5b5090506200029891906200029c565b5090565b5b80821115620002b75760008160009055506001016200029d565b5090565b7f4e487b7100000000000000000000000000000000000000000000000000000000600052602260045260246000fd5b600060028204905060018216806200030357607f821691505b602082108114156200031a5762000319620002bb565b5b50919050565b61380280620003306000396000f3fe6080604052600436106101295760003560e01c8063715018a6116100ab578063a86345871161006f578063a8634587146103bc578063b2185bb1146103f9578063e985e9c514610410578063f242432a1461044d578063f2fde38b14610476578063f4a0a5281461049f57610129565b8063715018a61461030a5780638da5cb5b1461032157806394d008ef1461034c57806395d89b4114610368578063a22cb4651461039357610129565b80631f7fdffa116100f25780631f7fdffa146102395780632eb2c2d6146102625780634e1273f41461028b57806354893110146102c85780636817c76c146102df57610129565b8062fdd58e1461012e57806301ffc9a71461016b57806302fe5305146101a857806306fdde03146101d15780630e89341c146101fc575b600080fd5b34801561013a57600080fd5b5061015560048036038101906101509190612098565b6104c8565b60405161016291906120e7565b60405180910390f35b34801561017757600080fd5b50610192600480360381019061018d919061215a565b610591565b60405161019f91906121a2565b60405180910390f35b3480156101b457600080fd5b506101cf60048036038101906101ca9190612303565b610673565b005b3480156101dd57600080fd5b506101e6610687565b6040516101f391906123d4565b60405180910390f35b34801561020857600080fd5b50610223600480360381019061021e91906123f6565b610715565b60405161023091906123d4565b60405180910390f35b34801561024557600080fd5b50610260600480360381019061025b919061258c565b6107a9565b005b34801561026e57600080fd5b5061028960048036038101906102849190612647565b6107c3565b005b34801561029757600080fd5b506102b260048036038101906102ad91906127d9565b610864565b6040516102bf919061290f565b60405180910390f35b3480156102d457600080fd5b506102dd61097d565b005b3480156102eb57600080fd5b506102f461097f565b60405161030191906120e7565b60405180910390f35b34801561031657600080fd5b5061031f610985565b005b34801561032d57600080fd5b50610336610999565b6040516103439190612940565b60405180910390f35b6103666004803603810190610361919061295b565b6109c3565b005b34801561037457600080fd5b5061037d610a1a565b60405161038a91906123d4565b60405180910390f35b34801561039f57600080fd5b506103ba60048036038101906103b591906129f6565b610aa8565b005b3480156103c857600080fd5b506103e360048036038101906103de91906123f6565b610abe565b6040516103f09190612940565b60405180910390f35b34801561040557600080fd5b5061040e610afd565b005b34801561041c57600080fd5b5061043760048036038101906104329190612a36565b610bf0565b60405161044491906121a2565b60405180910390f35b34801561045957600080fd5b50610474600480360381019061046f9190612a76565b610c84565b005b34801561048257600080fd5b5061049d60048036038101906104989190612b0d565b610d25565b005b3480156104ab57600080fd5b506104c660048036038101906104c191906123f6565b610da9565b005b60008073ffffffffffffffffffffffffffffffffffffffff168373ffffffffffffffffffffffffffffffffffffffff161415610539576040517f08c379a000000000000000000000000000000000000000000000000000000000815260040161053090612bac565b60405180910390fd5b60008083815260200190815260200160002060008473ffffffffffffffffffffffffffffffffffffffff1673ffffffffffffffffffffffffffffffffffffffff16815260200190815260200160002054905092915050565b60007fd9b67a26000000000000000000000000000000000000000000000000000000007bffffffffffffffffffffffffffffffffffffffffffffffffffffffff1916827bffffffffffffffffffffffffffffffffffffffffffffffffffffffff1916148061065c57507f0e89341c000000000000000000000000000000000000000000000000000000007bffffffffffffffffffffffffffffffffffffffffffffffffffffffff1916827bffffffffffffffffffffffffffffffffffffffffffffffffffffffff1916145b8061066c575061066b82610dbb565b5b9050919050565b61067b610e25565b61068481610ea3565b50565b6005805461069490612bfb565b80601f01602080910402602001604051908101604052809291908181526020018280546106c090612bfb565b801561070d5780601f106106e25761010080835404028352916020019161070d565b820191906000526020600020905b8154815290600101906020018083116106f057829003601f168201915b505050505081565b60606002805461072490612bfb565b80601f016020809104026020016040519081016040528092919081815260200182805461075090612bfb565b801561079d5780601f106107725761010080835404028352916020019161079d565b820191906000526020600020905b81548152906001019060200180831161078057829003601f168201915b50505050509050919050565b6107b1610e25565b6107bd84848484610ebd565b50505050565b6107cb6110ea565b73ffffffffffffffffffffffffffffffffffffffff168573ffffffffffffffffffffffffffffffffffffffff16148061081157506108108561080b6110ea565b610bf0565b5b610850576040517f08c379a000000000000000000000000000000000000000000000000000000000815260040161084790612c9f565b60405180910390fd5b61085d85858585856110f2565b5050505050565b606081518351146108aa576040517f08c379a00000000000000000000000000000000000000000000000000000000081526004016108a190612d31565b60405180910390fd5b6000835167ffffffffffffffff8111156108c7576108c66121d8565b5b6040519080825280602002602001820160405280156108f55781602001602082028036833780820191505090505b50905060005b84518110156109725761094285828151811061091a57610919612d51565b5b602002602001015185838151811061093557610934612d51565b5b60200260200101516104c8565b82828151811061095557610954612d51565b5b6020026020010181815250508061096b90612daf565b90506108fb565b508091505092915050565b565b60075481565b61098d610e25565b6109976000611414565b565b6000600360009054906101000a900473ffffffffffffffffffffffffffffffffffffffff16905090565b600754341015610a08576040517f08c379a00000000000000000000000000000000000000000000000000000000081526004016109ff90612e6a565b60405180910390fd5b610a1583600184846114da565b505050565b60068054610a2790612bfb565b80601f0160208091040260200160405190810160405280929190818152602001828054610a5390612bfb565b8015610aa05780601f10610a7557610100808354040283529160200191610aa0565b820191906000526020600020905b815481529060010190602001808311610a8357829003601f168201915b505050505081565b610aba610ab36110ea565b838361168b565b5050565b60098181548110610ace57600080fd5b906000526020600020016000915054906101000a900473ffffffffffffffffffffffffffffffffffffffff1681565b62093a80600a54610b0e9190612e8a565b4211610b4f576040517f08c379a0000000000000000000000000000000000000000000000000000000008152600401610b4690612f2c565b60405180910390fd5b6000610b5f6009805490506117f8565b905060098181548110610b7557610b74612d51565b5b9060005260206000200160009054906101000a900473ffffffffffffffffffffffffffffffffffffffff1673ffffffffffffffffffffffffffffffffffffffff166108fc479081150290604051600060405180830381858888f19350505050158015610be5573d6000803e3d6000fd5b5042600a8190555050565b6000600160008473ffffffffffffffffffffffffffffffffffffffff1673ffffffffffffffffffffffffffffffffffffffff16815260200190815260200160002060008373ffffffffffffffffffffffffffffffffffffffff1673ffffffffffffffffffffffffffffffffffffffff16815260200190815260200160002060009054906101000a900460ff16905092915050565b610c8c6110ea565b73ffffffffffffffffffffffffffffffffffffffff168573ffffffffffffffffffffffffffffffffffffffff161480610cd25750610cd185610ccc6110ea565b610bf0565b5b610d11576040517f08c379a0000000000000000000000000000000000000000000000000000000008152600401610d0890612c9f565b60405180910390fd5b610d1e8585858585611854565b5050505050565b610d2d610e25565b600073ffffffffffffffffffffffffffffffffffffffff168173ffffffffffffffffffffffffffffffffffffffff161415610d9d576040517f08c379a0000000000000000000000000000000000000000000000000000000008152600401610d9490612fbe565b60405180910390fd5b610da681611414565b50565b610db1610e25565b8060078190555050565b60007f01ffc9a7000000000000000000000000000000000000000000000000000000007bffffffffffffffffffffffffffffffffffffffffffffffffffffffff1916827bffffffffffffffffffffffffffffffffffffffffffffffffffffffff1916149050919050565b610e2d6110ea565b73ffffffffffffffffffffffffffffffffffffffff16610e4b610999565b73ffffffffffffffffffffffffffffffffffffffff1614610ea1576040517f08c379a0000000000000000000000000000000000000000000000000000000008152600401610e989061302a565b60405180910390fd5b565b8060029080519060200190610eb9929190611f4d565b5050565b600073ffffffffffffffffffffffffffffffffffffffff168473ffffffffffffffffffffffffffffffffffffffff161415610f2d576040517f08c379a0000000000000000000000000000000000000000000000000000000008152600401610f24906130bc565b60405180910390fd5b8151835114610f71576040517f08c379a0000000000000000000000000000000000000000000000000000000008152600401610f689061314e565b60405180910390fd5b6000610f7b6110ea565b9050610f8c81600087878787611af0565b60005b845181101561104557838181518110610fab57610faa612d51565b5b6020026020010151600080878481518110610fc957610fc8612d51565b5b6020026020010151815260200190815260200160002060008873ffffffffffffffffffffffffffffffffffffffff1673ffffffffffffffffffffffffffffffffffffffff168152602001908152602001600020600082825461102b9190612e8a565b92505081905550808061103d90612daf565b915050610f8f565b508473ffffffffffffffffffffffffffffffffffffffff16600073ffffffffffffffffffffffffffffffffffffffff168273ffffffffffffffffffffffffffffffffffffffff167f4a39dc06d4c0dbc64b70af90fd698a233a518aa5d07e595d983b8c0526c8f7fb87876040516110bd92919061316e565b60405180910390a46110d481600087878787611af8565b6110e381600087878787611b00565b5050505050565b600033905090565b8151835114611136576040517f08c379a000000000000000000000000000000000000000000000000000000000815260040161112d9061314e565b60405180910390fd5b600073ffffffffffffffffffffffffffffffffffffffff168473ffffffffffffffffffffffffffffffffffffffff1614156111a6576040517f08c379a000000000000000000000000000000000000000000000000000000000815260040161119d90613217565b60405180910390fd5b60006111b06110ea565b90506111c0818787878787611af0565b60005b84518110156113715760008582815181106111e1576111e0612d51565b5b602002602001015190506000858381518110611200576111ff612d51565b5b60200260200101519050600080600084815260200190815260200160002060008b73ffffffffffffffffffffffffffffffffffffffff1673ffffffffffffffffffffffffffffffffffffffff168152602001908152602001600020549050818110156112a1576040517f08c379a0000000000000000000000000000000000000000000000000000000008152600401611298906132a9565b60405180910390fd5b81810360008085815260200190815260200160002060008c73ffffffffffffffffffffffffffffffffffffffff1673ffffffffffffffffffffffffffffffffffffffff168152602001908152602001600020819055508160008085815260200190815260200160002060008b73ffffffffffffffffffffffffffffffffffffffff1673ffffffffffffffffffffffffffffffffffffffff16815260200190815260200160002060008282546113569190612e8a565b925050819055505050508061136a90612daf565b90506111c3565b508473ffffffffffffffffffffffffffffffffffffffff168673ffffffffffffffffffffffffffffffffffffffff168273ffffffffffffffffffffffffffffffffffffffff167f4a39dc06d4c0dbc64b70af90fd698a233a518aa5d07e595d983b8c0526c8f7fb87876040516113e892919061316e565b60405180910390a46113fe818787878787611af8565b61140c818787878787611b00565b505050505050565b6000600360009054906101000a900473ffffffffffffffffffffffffffffffffffffffff16905081600360006101000a81548173ffffffffffffffffffffffffffffffffffffffff021916908373ffffffffffffffffffffffffffffffffffffffff1602179055508173ffffffffffffffffffffffffffffffffffffffff168173ffffffffffffffffffffffffffffffffffffffff167f8be0079c531659141344cd1fd0a4f28419497f9722a3daafe3b4186f6b6457e060405160405180910390a35050565b600073ffffffffffffffffffffffffffffffffffffffff168473ffffffffffffffffffffffffffffffffffffffff16141561154a576040517f08c379a0000000000000000000000000000000000000000000000000000000008152600401611541906130bc565b60405180910390fd5b60006115546110ea565b9050600061156185611cd8565b9050600061156e85611cd8565b905061157f83600089858589611af0565b8460008088815260200190815260200160002060008973ffffffffffffffffffffffffffffffffffffffff1673ffffffffffffffffffffffffffffffffffffffff16815260200190815260200160002060008282546115de9190612e8a565b925050819055508673ffffffffffffffffffffffffffffffffffffffff16600073ffffffffffffffffffffffffffffffffffffffff168473ffffffffffffffffffffffffffffffffffffffff167fc3d58168c5ae7397731d063d5bbf3d657854427343f4c083240f7aacaa2d0f62898960405161165c9291906132c9565b60405180910390a461167383600089858589611af8565b61168283600089898989611d52565b50505050505050565b8173ffffffffffffffffffffffffffffffffffffffff168373ffffffffffffffffffffffffffffffffffffffff1614156116fa576040517f08c379a00000000000000000000000000000000000000000000000000000000081526004016116f190613364565b60405180910390fd5b80600160008573ffffffffffffffffffffffffffffffffffffffff1673ffffffffffffffffffffffffffffffffffffffff16815260200190815260200160002060008473ffffffffffffffffffffffffffffffffffffffff1673ffffffffffffffffffffffffffffffffffffffff16815260200190815260200160002060006101000a81548160ff0219169083151502179055508173ffffffffffffffffffffffffffffffffffffffff168373ffffffffffffffffffffffffffffffffffffffff167f17307eab39ab6107e8899845ad3d59bd9653f200f220920489ca2b5937696c31836040516117eb91906121a2565b60405180910390a3505050565b60006008600081548092919061180d90612daf565b919050555081423360085460405160200161182a939291906133ed565b6040516020818303038152906040528051906020012060001c61184d9190613459565b9050919050565b600073ffffffffffffffffffffffffffffffffffffffff168473ffffffffffffffffffffffffffffffffffffffff1614156118c4576040517f08c379a00000000000000000000000000000000000000000000000000000000081526004016118bb90613217565b60405180910390fd5b60006118ce6110ea565b905060006118db85611cd8565b905060006118e885611cd8565b90506118f8838989858589611af0565b600080600088815260200190815260200160002060008a73ffffffffffffffffffffffffffffffffffffffff1673ffffffffffffffffffffffffffffffffffffffff1681526020019081526020016000205490508581101561198f576040517f08c379a0000000000000000000000000000000000000000000000000000000008152600401611986906132a9565b60405180910390fd5b85810360008089815260200190815260200160002060008b73ffffffffffffffffffffffffffffffffffffffff1673ffffffffffffffffffffffffffffffffffffffff168152602001908152602001600020819055508560008089815260200190815260200160002060008a73ffffffffffffffffffffffffffffffffffffffff1673ffffffffffffffffffffffffffffffffffffffff1681526020019081526020016000206000828254611a449190612e8a565b925050819055508773ffffffffffffffffffffffffffffffffffffffff168973ffffffffffffffffffffffffffffffffffffffff168573ffffffffffffffffffffffffffffffffffffffff167fc3d58168c5ae7397731d063d5bbf3d657854427343f4c083240f7aacaa2d0f628a8a604051611ac19291906132c9565b60405180910390a4611ad7848a8a86868a611af8565b611ae5848a8a8a8a8a611d52565b505050505050505050565b505050505050565b505050505050565b611b1f8473ffffffffffffffffffffffffffffffffffffffff16611f2a565b15611cd0578373ffffffffffffffffffffffffffffffffffffffff1663bc197c8187878686866040518663ffffffff1660e01b8152600401611b659594939291906134df565b6020604051808303816000875af1925050508015611ba157506040513d601f19601f82011682018060405250810190611b9e919061355c565b60015b611c4757611bad613596565b806308c379a01415611c0a5750611bc26135b8565b80611bcd5750611c0c565b806040517f08c379a0000000000000000000000000000000000000000000000000000000008152600401611c0191906123d4565b60405180910390fd5b505b6040517f08c379a0000000000000000000000000000000000000000000000000000000008152600401611c3e906136c0565b60405180910390fd5b63bc197c8160e01b7bffffffffffffffffffffffffffffffffffffffffffffffffffffffff1916817bffffffffffffffffffffffffffffffffffffffffffffffffffffffff191614611cce576040517f08c379a0000000000000000000000000000000000000000000000000000000008152600401611cc590613752565b60405180910390fd5b505b505050505050565b60606000600167ffffffffffffffff811115611cf757611cf66121d8565b5b604051908082528060200260200182016040528015611d255781602001602082028036833780820191505090505b5090508281600081518110611d3d57611d3c612d51565b5b60200260200101818152505080915050919050565b611d718473ffffffffffffffffffffffffffffffffffffffff16611f2a565b15611f22578373ffffffffffffffffffffffffffffffffffffffff1663f23a6e6187878686866040518663ffffffff1660e01b8152600401611db7959493929190613772565b6020604051808303816000875af1925050508015611df357506040513d601f19601f82011682018060405250810190611df0919061355c565b60015b611e9957611dff613596565b806308c379a01415611e5c5750611e146135b8565b80611e1f5750611e5e565b806040517f08c379a0000000000000000000000000000000000000000000000000000000008152600401611e5391906123d4565b60405180910390fd5b505b6040517f08c379a0000000000000000000000000000000000000000000000000000000008152600401611e90906136c0565b60405180910390fd5b63f23a6e6160e01b7bffffffffffffffffffffffffffffffffffffffffffffffffffffffff1916817bffffffffffffffffffffffffffffffffffffffffffffffffffffffff191614611f20576040517f08c379a0000000000000000000000000000000000000000000000000000000008152600401611f1790613752565b60405180910390fd5b505b505050505050565b6000808273ffffffffffffffffffffffffffffffffffffffff163b119050919050565b828054611f5990612bfb565b90600052602060002090601f016020900481019282611f7b5760008555611fc2565b82601f10611f9457805160ff1916838001178555611fc2565b82800160010185558215611fc2579182015b82811115611fc1578251825591602001919060010190611fa6565b5b509050611fcf9190611fd3565b5090565b5b80821115611fec576000816000905550600101611fd4565b5090565b6000604051905090565b600080fd5b600080fd5b600073ffffffffffffffffffffffffffffffffffffffff82169050919050565b600061202f82612004565b9050919050565b61203f81612024565b811461204a57600080fd5b50565b60008135905061205c81612036565b92915050565b6000819050919050565b61207581612062565b811461208057600080fd5b50565b6000813590506120928161206c565b92915050565b600080604083850312156120af576120ae611ffa565b5b60006120bd8582860161204d565b92505060206120ce85828601612083565b9150509250929050565b6120e181612062565b82525050565b60006020820190506120fc60008301846120d8565b92915050565b60007fffffffff0000000000000000000000000000000000000000000000000000000082169050919050565b61213781612102565b811461214257600080fd5b50565b6000813590506121548161212e565b92915050565b6000602082840312156121705761216f611ffa565b5b600061217e84828501612145565b91505092915050565b60008115159050919050565b61219c81612187565b82525050565b60006020820190506121b76000830184612193565b92915050565b600080fd5b600080fd5b6000601f19601f8301169050919050565b7f4e487b7100000000000000000000000000000000000000000000000000000000600052604160045260246000fd5b612210826121c7565b810181811067ffffffffffffffff8211171561222f5761222e6121d8565b5b80604052505050565b6000612242611ff0565b905061224e8282612207565b919050565b600067ffffffffffffffff82111561226e5761226d6121d8565b5b612277826121c7565b9050602081019050919050565b82818337600083830152505050565b60006122a66122a184612253565b612238565b9050828152602081018484840111156122c2576122c16121c2565b5b6122cd848285612284565b509392505050565b600082601f8301126122ea576122e96121bd565b5b81356122fa848260208601612293565b91505092915050565b60006020828403121561231957612318611ffa565b5b600082013567ffffffffffffffff81111561233757612336611fff565b5b612343848285016122d5565b91505092915050565b600081519050919050565b600082825260208201905092915050565b60005b8381101561238657808201518184015260208101905061236b565b83811115612395576000848401525b50505050565b60006123a68261234c565b6123b08185612357565b93506123c0818560208601612368565b6123c9816121c7565b840191505092915050565b600060208201905081810360008301526123ee818461239b565b905092915050565b60006020828403121561240c5761240b611ffa565b5b600061241a84828501612083565b91505092915050565b600067ffffffffffffffff82111561243e5761243d6121d8565b5b602082029050602081019050919050565b600080fd5b600061246761246284612423565b612238565b9050808382526020820190506020840283018581111561248a5761248961244f565b5b835b818110156124b3578061249f8882612083565b84526020840193505060208101905061248c565b5050509392505050565b600082601f8301126124d2576124d16121bd565b5b81356124e2848260208601612454565b91505092915050565b600067ffffffffffffffff821115612506576125056121d8565b5b61250f826121c7565b9050602081019050919050565b600061252f61252a846124eb565b612238565b90508281526020810184848401111561254b5761254a6121c2565b5b612556848285612284565b509392505050565b600082601f830112612573576125726121bd565b5b813561258384826020860161251c565b91505092915050565b600080600080608085870312156125a6576125a5611ffa565b5b60006125b48782880161204d565b945050602085013567ffffffffffffffff8111156125d5576125d4611fff565b5b6125e1878288016124bd565b935050604085013567ffffffffffffffff81111561260257612601611fff565b5b61260e878288016124bd565b925050606085013567ffffffffffffffff81111561262f5761262e611fff565b5b61263b8782880161255e565b91505092959194509250565b600080600080600060a0868803121561266357612662611ffa565b5b60006126718882890161204d565b95505060206126828882890161204d565b945050604086013567ffffffffffffffff8111156126a3576126a2611fff565b5b6126af888289016124bd565b935050606086013567ffffffffffffffff8111156126d0576126cf611fff565b5b6126dc888289016124bd565b925050608086013567ffffffffffffffff8111156126fd576126fc611fff565b5b6127098882890161255e565b9150509295509295909350565b600067ffffffffffffffff821115612731576127306121d8565b5b602082029050602081019050919050565b600061275561275084612716565b612238565b905080838252602082019050602084028301858111156127785761277761244f565b5b835b818110156127a1578061278d888261204d565b84526020840193505060208101905061277a565b5050509392505050565b600082601f8301126127c0576127bf6121bd565b5b81356127d0848260208601612742565b91505092915050565b600080604083850312156127f0576127ef611ffa565b5b600083013567ffffffffffffffff81111561280e5761280d611fff565b5b61281a858286016127ab565b925050602083013567ffffffffffffffff81111561283b5761283a611fff565b5b612847858286016124bd565b9150509250929050565b600081519050919050565b600082825260208201905092915050565b6000819050602082019050919050565b61288681612062565b82525050565b6000612898838361287d565b60208301905092915050565b6000602082019050919050565b60006128bc82612851565b6128c6818561285c565b93506128d18361286d565b8060005b838110156129025781516128e9888261288c565b97506128f4836128a4565b9250506001810190506128d5565b5085935050505092915050565b6000602082019050818103600083015261292981846128b1565b905092915050565b61293a81612024565b82525050565b60006020820190506129556000830184612931565b92915050565b60008060006060848603121561297457612973611ffa565b5b60006129828682870161204d565b935050602061299386828701612083565b925050604084013567ffffffffffffffff8111156129b4576129b3611fff565b5b6129c08682870161255e565b9150509250925092565b6129d381612187565b81146129de57600080fd5b50565b6000813590506129f0816129ca565b92915050565b60008060408385031215612a0d57612a0c611ffa565b5b6000612a1b8582860161204d565b9250506020612a2c858286016129e1565b9150509250929050565b60008060408385031215612a4d57612a4c611ffa565b5b6000612a5b8582860161204d565b9250506020612a6c8582860161204d565b9150509250929050565b600080600080600060a08688031215612a9257612a91611ffa565b5b6000612aa08882890161204d565b9550506020612ab18882890161204d565b9450506040612ac288828901612083565b9350506060612ad388828901612083565b925050608086013567ffffffffffffffff811115612af457612af3611fff565b5b612b008882890161255e565b9150509295509295909350565b600060208284031215612b2357612b22611ffa565b5b6000612b318482850161204d565b91505092915050565b7f455243313135353a2061646472657373207a65726f206973206e6f742061207660008201527f616c6964206f776e657200000000000000000000000000000000000000000000602082015250565b6000612b96602a83612357565b9150612ba182612b3a565b604082019050919050565b60006020820190508181036000830152612bc581612b89565b9050919050565b7f4e487b7100000000000000000000000000000000000000000000000000000000600052602260045260246000fd5b60006002820490506001821680612c1357607f821691505b60208210811415612c2757612c26612bcc565b5b50919050565b7f455243313135353a2063616c6c6572206973206e6f7420746f6b656e206f776e60008201527f6572206e6f7220617070726f7665640000000000000000000000000000000000602082015250565b6000612c89602f83612357565b9150612c9482612c2d565b604082019050919050565b60006020820190508181036000830152612cb881612c7c565b9050919050565b7f455243313135353a206163636f756e747320616e6420696473206c656e67746860008201527f206d69736d617463680000000000000000000000000000000000000000000000602082015250565b6000612d1b602983612357565b9150612d2682612cbf565b604082019050919050565b60006020820190508181036000830152612d4a81612d0e565b9050919050565b7f4e487b7100000000000000000000000000000000000000000000000000000000600052603260045260246000fd5b7f4e487b7100000000000000000000000000000000000000000000000000000000600052601160045260246000fd5b6000612dba82612062565b91507fffffffffffffffffffffffffffffffffffffffffffffffffffffffffffffffff821415612ded57612dec612d80565b5b600182019050919050565b7f596f7520646f6e2774206861766520656e6f75676820657468657220746f206d60008201527f696e740000000000000000000000000000000000000000000000000000000000602082015250565b6000612e54602383612357565b9150612e5f82612df8565b604082019050919050565b60006020820190508181036000830152612e8381612e47565b9050919050565b6000612e9582612062565b9150612ea083612062565b9250827fffffffffffffffffffffffffffffffffffffffffffffffffffffffffffffffff03821115612ed557612ed4612d80565b5b828201905092915050565b7f77616974696e6720706572696f6420686173206e6f7420657870697265640000600082015250565b6000612f16601e83612357565b9150612f2182612ee0565b602082019050919050565b60006020820190508181036000830152612f4581612f09565b9050919050565b7f4f776e61626c653a206e6577206f776e657220697320746865207a65726f206160008201527f6464726573730000000000000000000000000000000000000000000000000000602082015250565b6000612fa8602683612357565b9150612fb382612f4c565b604082019050919050565b60006020820190508181036000830152612fd781612f9b565b9050919050565b7f4f776e61626c653a2063616c6c6572206973206e6f7420746865206f776e6572600082015250565b6000613014602083612357565b915061301f82612fde565b602082019050919050565b6000602082019050818103600083015261304381613007565b9050919050565b7f455243313135353a206d696e7420746f20746865207a65726f2061646472657360008201527f7300000000000000000000000000000000000000000000000000000000000000602082015250565b60006130a6602183612357565b91506130b18261304a565b604082019050919050565b600060208201905081810360008301526130d581613099565b9050919050565b7f455243313135353a2069647320616e6420616d6f756e7473206c656e6774682060008201527f6d69736d61746368000000000000000000000000000000000000000000000000602082015250565b6000613138602883612357565b9150613143826130dc565b604082019050919050565b600060208201905081810360008301526131678161312b565b9050919050565b6000604082019050818103600083015261318881856128b1565b9050818103602083015261319c81846128b1565b90509392505050565b7f455243313135353a207472616e7366657220746f20746865207a65726f20616460008201527f6472657373000000000000000000000000000000000000000000000000000000602082015250565b6000613201602583612357565b915061320c826131a5565b604082019050919050565b60006020820190508181036000830152613230816131f4565b9050919050565b7f455243313135353a20696e73756666696369656e742062616c616e636520666f60008201527f72207472616e7366657200000000000000000000000000000000000000000000602082015250565b6000613293602a83612357565b915061329e82613237565b604082019050919050565b600060208201905081810360008301526132c281613286565b9050919050565b60006040820190506132de60008301856120d8565b6132eb60208301846120d8565b9392505050565b7f455243313135353a2073657474696e6720617070726f76616c2073746174757360008201527f20666f722073656c660000000000000000000000000000000000000000000000602082015250565b600061334e602983612357565b9150613359826132f2565b604082019050919050565b6000602082019050818103600083015261337d81613341565b9050919050565b6000819050919050565b61339f61339a82612062565b613384565b82525050565b60008160601b9050919050565b60006133bd826133a5565b9050919050565b60006133cf826133b2565b9050919050565b6133e76133e282612024565b6133c4565b82525050565b60006133f9828661338e565b60208201915061340982856133d6565b601482019150613419828461338e565b602082019150819050949350505050565b7f4e487b7100000000000000000000000000000000000000000000000000000000600052601260045260246000fd5b600061346482612062565b915061346f83612062565b92508261347f5761347e61342a565b5b828206905092915050565b600081519050919050565b600082825260208201905092915050565b60006134b18261348a565b6134bb8185613495565b93506134cb818560208601612368565b6134d4816121c7565b840191505092915050565b600060a0820190506134f46000830188612931565b6135016020830187612931565b818103604083015261351381866128b1565b9050818103606083015261352781856128b1565b9050818103608083015261353b81846134a6565b90509695505050505050565b6000815190506135568161212e565b92915050565b60006020828403121561357257613571611ffa565b5b600061358084828501613547565b91505092915050565b60008160e01c9050919050565b600060033d11156135b55760046000803e6135b2600051613589565b90505b90565b600060443d10156135c85761364b565b6135d0611ff0565b60043d036004823e80513d602482011167ffffffffffffffff821117156135f857505061364b565b808201805167ffffffffffffffff811115613616575050505061364b565b80602083010160043d03850181111561363357505050505061364b565b61364282602001850186612207565b82955050505050505b90565b7f455243313135353a207472616e7366657220746f206e6f6e204552433131353560008201527f526563656976657220696d706c656d656e746572000000000000000000000000602082015250565b60006136aa603483612357565b91506136b58261364e565b604082019050919050565b600060208201905081810360008301526136d98161369d565b9050919050565b7f455243313135353a204552433131353552656365697665722072656a6563746560008201527f6420746f6b656e73000000000000000000000000000000000000000000000000602082015250565b600061373c602883612357565b9150613747826136e0565b604082019050919050565b6000602082019050818103600083015261376b8161372f565b9050919050565b600060a0820190506137876000830188612931565b6137946020830187612931565b6137a160408301866120d8565b6137ae60608301856120d8565b81810360808301526137c081846134a6565b9050969550505050505056fea26469706673582212200ea01d2ec42c894e02a0e12918743fbe0077ed5447186788d3f8fac8980d779164736f6c634300080a0033",
  "linkReferences": {},
  "deployedLinkReferences": {}
}