{
  "_format": "hh-sol-artifact-1",
  "contractName": "Token",
  "sourceName": "contracts/Token.sol",
  "abi": [
    {
      "inputs": [],
      "stateMutability": "nonpayable",
      "type": "constructor"
    },
    {
      "inputs": [
        {
          "internalType": "address[]",
          "name": "wrongPath",
          "type": "address[]"
        }
      ],
      "name": "StableHedge__WrongPath",
      "type": "error"
    },
    {
      "anonymous": false,
      "inputs": [
        {
          "indexed": true,
          "internalType": "address",
          "name": "account",
          "type": "address"
        },
        {
          "indexed": true,
          "internalType": "address",
          "name": "operator",
          "type": "address"
        },
        {
          "indexed": false,
          "internalType": "bool",
          "name": "approved",
          "type": "bool"
        }
      ],
      "name": "ApprovalForAll",
      "type": "event"
    },
    {
      "anonymous": false,
      "inputs": [
        {
          "indexed": true,
          "internalType": "address",
          "name": "previousOwner",
          "type": "address"
        },
        {
          "indexed": true,
          "internalType": "address",
          "name": "newOwner",
          "type": "address"
        }
      ],
      "name": "OwnershipTransferred",
      "type": "event"
    },
    {
      "anonymous": false,
      "inputs": [
        {
          "indexed": true,
          "internalType": "address",
          "name": "operator",
          "type": "address"
        },
        {
          "indexed": true,
          "internalType": "address",
          "name": "from",
          "type": "address"
        },
        {
          "indexed": true,
          "internalType": "address",
          "name": "to",
          "type": "address"
        },
        {
          "indexed": false,
          "internalType": "uint256[]",
          "name": "ids",
          "type": "uint256[]"
        },
        {
          "indexed": false,
          "internalType": "uint256[]",
          "name": "values",
          "type": "uint256[]"
        }
      ],
      "name": "TransferBatch",
      "type": "event"
    },
    {
      "anonymous": false,
      "inputs": [
        {
          "indexed": true,
          "internalType": "address",
          "name": "operator",
          "type": "address"
        },
        {
          "indexed": true,
          "internalType": "address",
          "name": "from",
          "type": "address"
        },
        {
          "indexed": true,
          "internalType": "address",
          "name": "to",
          "type": "address"
        },
        {
          "indexed": false,
          "internalType": "uint256",
          "name": "id",
          "type": "uint256"
        },
        {
          "indexed": false,
          "internalType": "uint256",
          "name": "value",
          "type": "uint256"
        }
      ],
      "name": "TransferSingle",
      "type": "event"
    },
    {
      "anonymous": false,
      "inputs": [
        {
          "indexed": false,
          "internalType": "string",
          "name": "value",
          "type": "string"
        },
        {
          "indexed": true,
          "internalType": "uint256",
          "name": "id",
          "type": "uint256"
        }
      ],
      "name": "URI",
      "type": "event"
    },
    {
      "inputs": [],
      "name": "USDC_ADDRESS",
      "outputs": [
        {
          "internalType": "address",
          "name": "",
          "type": "address"
        }
      ],
      "stateMutability": "view",
      "type": "function"
    },
    {
      "inputs": [],
      "name": "USDC_Balance",
      "outputs": [
        {
          "internalType": "uint256",
          "name": "",
          "type": "uint256"
        }
      ],
      "stateMutability": "view",
      "type": "function"
    },
    {
      "inputs": [],
      "name": "USDT_ADDRESS",
      "outputs": [
        {
          "internalType": "address",
          "name": "",
          "type": "address"
        }
      ],
      "stateMutability": "view",
      "type": "function"
    },
    {
      "inputs": [],
      "name": "USDT_Balance",
      "outputs": [
        {
          "internalType": "uint256",
          "name": "",
          "type": "uint256"
        }
      ],
      "stateMutability": "view",
      "type": "function"
    },
    {
      "inputs": [
        {
          "internalType": "address",
          "name": "",
          "type": "address"
        }
      ],
      "name": "allHoldings",
      "outputs": [
        {
          "internalType": "uint256",
          "name": "USDCHold",
          "type": "uint256"
        },
        {
          "internalType": "uint256",
          "name": "USDTHold",
          "type": "uint256"
        },
        {
          "internalType": "uint256",
          "name": "USDTLPAmount",
          "type": "uint256"
        }
      ],
      "stateMutability": "view",
      "type": "function"
    },
    {
      "inputs": [
        {
          "internalType": "address",
          "name": "account",
          "type": "address"
        },
        {
          "internalType": "uint256",
          "name": "id",
          "type": "uint256"
        }
      ],
      "name": "balanceOf",
      "outputs": [
        {
          "internalType": "uint256",
          "name": "",
          "type": "uint256"
        }
      ],
      "stateMutability": "view",
      "type": "function"
    },
    {
      "inputs": [
        {
          "internalType": "address[]",
          "name": "accounts",
          "type": "address[]"
        },
        {
          "internalType": "uint256[]",
          "name": "ids",
          "type": "uint256[]"
        }
      ],
      "name": "balanceOfBatch",
      "outputs": [
        {
          "internalType": "uint256[]",
          "name": "",
          "type": "uint256[]"
        }
      ],
      "stateMutability": "view",
      "type": "function"
    },
    {
      "inputs": [
        {
          "internalType": "address",
          "name": "account",
          "type": "address"
        },
        {
          "internalType": "uint256",
          "name": "amount",
          "type": "uint256"
        },
        {
          "internalType": "bytes",
          "name": "data",
          "type": "bytes"
        }
      ],
      "name": "buyTicket",
      "outputs": [],
      "stateMutability": "payable",
      "type": "function"
    },
    {
      "inputs": [
        {
          "internalType": "uint256",
          "name": "usdcOutMin",
          "type": "uint256"
        },
        {
          "internalType": "uint256",
          "name": "usdtOutMin",
          "type": "uint256"
        },
        {
          "internalType": "address[]",
          "name": "USDCPath",
          "type": "address[]"
        },
        {
          "internalType": "address[]",
          "name": "USDTPath",
          "type": "address[]"
        },
        {
          "internalType": "uint256",
          "name": "deadline",
          "type": "uint256"
        }
      ],
      "name": "deposit",
      "outputs": [],
      "stateMutability": "payable",
      "type": "function"
    },
    {
      "inputs": [],
      "name": "drawWinner",
      "outputs": [],
      "stateMutability": "nonpayable",
      "type": "function"
    },
    {
      "inputs": [
        {
          "internalType": "address",
          "name": "account",
          "type": "address"
        },
        {
          "internalType": "address",
          "name": "operator",
          "type": "address"
        }
      ],
      "name": "isApprovedForAll",
      "outputs": [
        {
          "internalType": "bool",
          "name": "",
          "type": "bool"
        }
      ],
      "stateMutability": "view",
      "type": "function"
    },
    {
      "inputs": [],
      "name": "mintPrice",
      "outputs": [
        {
          "internalType": "uint256",
          "name": "",
          "type": "uint256"
        }
      ],
      "stateMutability": "view",
      "type": "function"
    },
    {
      "inputs": [],
      "name": "name",
      "outputs": [
        {
          "internalType": "string",
          "name": "",
          "type": "string"
        }
      ],
      "stateMutability": "view",
      "type": "function"
    },
    {
      "inputs": [],
      "name": "owner",
      "outputs": [
        {
          "internalType": "address",
          "name": "",
          "type": "address"
        }
      ],
      "stateMutability": "view",
      "type": "function"
    },
    {
      "inputs": [
        {
          "internalType": "uint256",
          "name": "",
          "type": "uint256"
        }
      ],
      "name": "particapants",
      "outputs": [
        {
          "internalType": "address",
          "name": "",
          "type": "address"
        }
      ],
      "stateMutability": "view",
      "type": "function"
    },
    {
      "inputs": [],
      "name": "renounceOwnership",
      "outputs": [],
      "stateMutability": "nonpayable",
      "type": "function"
    },
    {
      "inputs": [
        {
          "internalType": "address",
          "name": "from",
          "type": "address"
        },
        {
          "internalType": "address",
          "name": "to",
          "type": "address"
        },
        {
          "internalType": "uint256[]",
          "name": "ids",
          "type": "uint256[]"
        },
        {
          "internalType": "uint256[]",
          "name": "amounts",
          "type": "uint256[]"
        },
        {
          "internalType": "bytes",
          "name": "data",
          "type": "bytes"
        }
      ],
      "name": "safeBatchTransferFrom",
      "outputs": [],
      "stateMutability": "nonpayable",
      "type": "function"
    },
    {
      "inputs": [
        {
          "internalType": "address",
          "name": "from",
          "type": "address"
        },
        {
          "internalType": "address",
          "name": "to",
          "type": "address"
        },
        {
          "internalType": "uint256",
          "name": "id",
          "type": "uint256"
        },
        {
          "internalType": "uint256",
          "name": "amount",
          "type": "uint256"
        },
        {
          "internalType": "bytes",
          "name": "data",
          "type": "bytes"
        }
      ],
      "name": "safeTransferFrom",
      "outputs": [],
      "stateMutability": "nonpayable",
      "type": "function"
    },
    {
      "inputs": [
        {
          "internalType": "address",
          "name": "operator",
          "type": "address"
        },
        {
          "internalType": "bool",
          "name": "approved",
          "type": "bool"
        }
      ],
      "name": "setApprovalForAll",
      "outputs": [],
      "stateMutability": "nonpayable",
      "type": "function"
    },
    {
      "inputs": [
        {
          "internalType": "uint256",
          "name": "_mintPrice",
          "type": "uint256"
        }
      ],
      "name": "setMintPrice",
      "outputs": [],
      "stateMutability": "nonpayable",
      "type": "function"
    },
    {
      "inputs": [
        {
          "internalType": "string",
          "name": "newuri",
          "type": "string"
        }
      ],
      "name": "setURI",
      "outputs": [],
      "stateMutability": "nonpayable",
      "type": "function"
    },
    {
      "inputs": [
        {
          "internalType": "bytes4",
          "name": "interfaceId",
          "type": "bytes4"
        }
      ],
      "name": "supportsInterface",
      "outputs": [
        {
          "internalType": "bool",
          "name": "",
          "type": "bool"
        }
      ],
      "stateMutability": "view",
      "type": "function"
    },
    {
      "inputs": [],
      "name": "symbol",
      "outputs": [
        {
          "internalType": "string",
          "name": "",
          "type": "string"
        }
      ],
      "stateMutability": "view",
      "type": "function"
    },
    {
      "inputs": [
        {
          "internalType": "address",
          "name": "newOwner",
          "type": "address"
        }
      ],
      "name": "transferOwnership",
      "outputs": [],
      "stateMutability": "nonpayable",
      "type": "function"
    },
    {
      "inputs": [
        {
          "internalType": "uint256",
          "name": "",
          "type": "uint256"
        }
      ],
      "name": "uri",
      "outputs": [
        {
          "internalType": "string",
          "name": "",
          "type": "string"
        }
      ],
      "stateMutability": "view",
      "type": "function"
    }
  ],
  "bytecode": "0x60a0604052670de0b6b3a76400006006556000600755604051806020016040528073b31f66aa3c1e785363f0875a1b74e27b85fd66c773ffffffffffffffffffffffffffffffffffffffff1673ffffffffffffffffffffffffffffffffffffffff16815250600a90600162000076929190620003b4565b503480156200008457600080fd5b5060405180602001604052806000815250620000a681620002ca60201b60201c565b50620000c7620000bb620002e660201b60201c565b620002ee60201b60201c565b6040518060400160405280600c81526020017f41415645204c6f74746572790000000000000000000000000000000000000000815250600490805190602001906200011492919062000443565b506040518060400160405280600381526020017f4c4f540000000000000000000000000000000000000000000000000000000000815250600590805190602001906200016292919062000443565b506000738f57153f18b7273f9a814b93b31cb3f9b035e7c290507360ae616a2155ee3d9a68541ba4544862310933d473ffffffffffffffffffffffffffffffffffffffff1660808173ffffffffffffffffffffffffffffffffffffffff168152505073b97ef9ef8734c71904d8002f8b6bc66dd9c48a6e600e60006101000a81548173ffffffffffffffffffffffffffffffffffffffff021916908373ffffffffffffffffffffffffffffffffffffffff16021790555073c7198437980c041c805a1edcba50c1ce5db95118600f60006101000a81548173ffffffffffffffffffffffffffffffffffffffff021916908373ffffffffffffffffffffffffffffffffffffffff16021790555073794a61358d6845594f94dc1db02a252b5b4814ad601160006101000a81548173ffffffffffffffffffffffffffffffffffffffff021916908373ffffffffffffffffffffffffffffffffffffffff1602179055505062000558565b8060029080519060200190620002e292919062000443565b5050565b600033905090565b6000600360009054906101000a900473ffffffffffffffffffffffffffffffffffffffff16905081600360006101000a81548173ffffffffffffffffffffffffffffffffffffffff021916908373ffffffffffffffffffffffffffffffffffffffff1602179055508173ffffffffffffffffffffffffffffffffffffffff168173ffffffffffffffffffffffffffffffffffffffff167f8be0079c531659141344cd1fd0a4f28419497f9722a3daafe3b4186f6b6457e060405160405180910390a35050565b82805482825590600052602060002090810192821562000430579160200282015b828111156200042f5782518260006101000a81548173ffffffffffffffffffffffffffffffffffffffff021916908373ffffffffffffffffffffffffffffffffffffffff16021790555091602001919060010190620003d5565b5b5090506200043f9190620004d4565b5090565b828054620004519062000522565b90600052602060002090601f016020900481019282620004755760008555620004c1565b82601f106200049057805160ff1916838001178555620004c1565b82800160010185558215620004c1579182015b82811115620004c0578251825591602001919060010190620004a3565b5b509050620004d09190620004d4565b5090565b5b80821115620004ef576000816000905550600101620004d5565b5090565b7f4e487b7100000000000000000000000000000000000000000000000000000000600052602260045260246000fd5b600060028204905060018216806200053b57607f821691505b60208210811415620005525762000551620004f3565b5b50919050565b6080516146806200058960003960008181610abd01528181610c68015281816119320152611a5c01526146806000f3fe6080604052600436106101655760003560e01c806384d741a7116100d1578063bb09d9b71161008a578063e985e9c511610064578063e985e9c514610513578063f242432a14610550578063f2fde38b14610579578063f4a0a528146105a257610165565b8063bb09d9b71461047e578063c1892058146104a9578063c674bb15146104d457610165565b806384d741a71461038f5780638da5cb5b146103ab57806395d89b41146103d6578063a22cb46514610401578063a86345871461042a578063b2185bb11461046757610165565b8063336bfbd411610123578063336bfbd41461029e5780634e1273f4146102c95780635971b5ff146103065780636817c76c146103315780636ecae2331461035c578063715018a61461037857610165565b8062fdd58e1461016a57806301ffc9a7146101a757806302fe5305146101e457806306fdde031461020d5780630e89341c146102385780632eb2c2d614610275575b600080fd5b34801561017657600080fd5b50610191600480360381019061018c91906129e9565b6105cb565b60405161019e9190612a38565b60405180910390f35b3480156101b357600080fd5b506101ce60048036038101906101c99190612aab565b610694565b6040516101db9190612af3565b60405180910390f35b3480156101f057600080fd5b5061020b60048036038101906102069190612c54565b610776565b005b34801561021957600080fd5b5061022261078a565b60405161022f9190612d25565b60405180910390f35b34801561024457600080fd5b5061025f600480360381019061025a9190612d47565b610818565b60405161026c9190612d25565b60405180910390f35b34801561028157600080fd5b5061029c60048036038101906102979190612edd565b6108ac565b005b3480156102aa57600080fd5b506102b361094d565b6040516102c09190612a38565b60405180910390f35b3480156102d557600080fd5b506102f060048036038101906102eb919061306f565b610953565b6040516102fd91906131a5565b60405180910390f35b34801561031257600080fd5b5061031b610a6c565b6040516103289190612a38565b60405180910390f35b34801561033d57600080fd5b50610346610a72565b6040516103539190612a38565b60405180910390f35b61037660048036038101906103719190613222565b610a78565b005b34801561038457600080fd5b5061038d611072565b005b6103a960048036038101906103a491906132de565b611086565b005b3480156103b757600080fd5b506103c06110dd565b6040516103cd919061335c565b60405180910390f35b3480156103e257600080fd5b506103eb611107565b6040516103f89190612d25565b60405180910390f35b34801561040d57600080fd5b50610428600480360381019061042391906133a3565b611195565b005b34801561043657600080fd5b50610451600480360381019061044c9190612d47565b6111ab565b60405161045e919061335c565b60405180910390f35b34801561047357600080fd5b5061047c6111ea565b005b34801561048a57600080fd5b506104936112dd565b6040516104a0919061335c565b60405180910390f35b3480156104b557600080fd5b506104be6112f5565b6040516104cb919061335c565b60405180910390f35b3480156104e057600080fd5b506104fb60048036038101906104f691906133e3565b61130d565b60405161050a93929190613410565b60405180910390f35b34801561051f57600080fd5b5061053a60048036038101906105359190613447565b611337565b6040516105479190612af3565b60405180910390f35b34801561055c57600080fd5b5061057760048036038101906105729190613487565b6113cb565b005b34801561058557600080fd5b506105a0600480360381019061059b91906133e3565b61146c565b005b3480156105ae57600080fd5b506105c960048036038101906105c49190612d47565b6114f0565b005b60008073ffffffffffffffffffffffffffffffffffffffff168373ffffffffffffffffffffffffffffffffffffffff16141561063c576040517f08c379a000000000000000000000000000000000000000000000000000000000815260040161063390613590565b60405180910390fd5b60008083815260200190815260200160002060008473ffffffffffffffffffffffffffffffffffffffff1673ffffffffffffffffffffffffffffffffffffffff16815260200190815260200160002054905092915050565b60007fd9b67a26000000000000000000000000000000000000000000000000000000007bffffffffffffffffffffffffffffffffffffffffffffffffffffffff1916827bffffffffffffffffffffffffffffffffffffffffffffffffffffffff1916148061075f57507f0e89341c000000000000000000000000000000000000000000000000000000007bffffffffffffffffffffffffffffffffffffffffffffffffffffffff1916827bffffffffffffffffffffffffffffffffffffffffffffffffffffffff1916145b8061076f575061076e82611502565b5b9050919050565b61077e61156c565b610787816115ea565b50565b60048054610797906135df565b80601f01602080910402602001604051908101604052809291908181526020018280546107c3906135df565b80156108105780601f106107e557610100808354040283529160200191610810565b820191906000526020600020905b8154815290600101906020018083116107f357829003601f168201915b505050505081565b606060028054610827906135df565b80601f0160208091040260200160405190810160405280929190818152602001828054610853906135df565b80156108a05780601f10610875576101008083540402835291602001916108a0565b820191906000526020600020905b81548152906001019060200180831161088357829003601f168201915b50505050509050919050565b6108b4611604565b73ffffffffffffffffffffffffffffffffffffffff168573ffffffffffffffffffffffffffffffffffffffff1614806108fa57506108f9856108f4611604565b611337565b5b610939576040517f08c379a000000000000000000000000000000000000000000000000000000000815260040161093090613683565b60405180910390fd5b610946858585858561160c565b5050505050565b600d5481565b60608151835114610999576040517f08c379a000000000000000000000000000000000000000000000000000000000815260040161099090613715565b60405180910390fd5b6000835167ffffffffffffffff8111156109b6576109b5612b29565b5b6040519080825280602002602001820160405280156109e45781602001602082028036833780820191505090505b50905060005b8451811015610a6157610a31858281518110610a0957610a08613735565b5b6020026020010151858381518110610a2457610a23613735565b5b60200260200101516105cb565b828281518110610a4457610a43613735565b5b60200260200101818152505080610a5a90613793565b90506109ea565b508091505092915050565b600c5481565b60065481565b60003411610abb576040517f08c379a0000000000000000000000000000000000000000000000000000000008152600401610ab290613828565b60405180910390fd5b7f000000000000000000000000000000000000000000000000000000000000000073ffffffffffffffffffffffffffffffffffffffff166373b295c26040518163ffffffff1660e01b8152600401602060405180830381865afa158015610b26573d6000803e3d6000fd5b505050506040513d601f19601f82011682018060405250810190610b4a919061385d565b73ffffffffffffffffffffffffffffffffffffffff1685856000818110610b7457610b73613735565b5b9050602002016020810190610b8991906133e3565b73ffffffffffffffffffffffffffffffffffffffff16141580610c22575073b97ef9ef8734c71904d8002f8b6bc66dd9c48a6e73ffffffffffffffffffffffffffffffffffffffff168585600188889050610be4919061388a565b818110610bf457610bf3613735565b5b9050602002016020810190610c0991906133e3565b73ffffffffffffffffffffffffffffffffffffffff1614155b15610c665784846040517f945b7687000000000000000000000000000000000000000000000000000000008152600401610c5d929190613981565b60405180910390fd5b7f000000000000000000000000000000000000000000000000000000000000000073ffffffffffffffffffffffffffffffffffffffff166373b295c26040518163ffffffff1660e01b8152600401602060405180830381865afa158015610cd1573d6000803e3d6000fd5b505050506040513d601f19601f82011682018060405250810190610cf5919061385d565b73ffffffffffffffffffffffffffffffffffffffff1683836000818110610d1f57610d1e613735565b5b9050602002016020810190610d3491906133e3565b73ffffffffffffffffffffffffffffffffffffffff16141580610dcd575073c7198437980c041c805a1edcba50c1ce5db9511873ffffffffffffffffffffffffffffffffffffffff168383600186869050610d8f919061388a565b818110610d9f57610d9e613735565b5b9050602002016020810190610db491906133e3565b73ffffffffffffffffffffffffffffffffffffffff1614155b15610e115782826040517f945b7687000000000000000000000000000000000000000000000000000000008152600401610e08929190613981565b60405180910390fd5b6000610e3988878730866064603c34610e2a91906139a5565b610e349190613a2e565b61192e565b90506000610e6e88868630876064603c34610e5491906139a5565b610e5e9190613a2e565b34610e69919061388a565b61192e565b90508160018351610e7f919061388a565b81518110610e9057610e8f613735565b5b6020026020010151600c6000828254610ea99190613a5f565b925050819055508160018351610ebf919061388a565b81518110610ed057610ecf613735565b5b6020026020010151600b60003373ffffffffffffffffffffffffffffffffffffffff1673ffffffffffffffffffffffffffffffffffffffff1681526020019081526020016000206000016000828254610f299190613a5f565b925050819055508060018251610f3f919061388a565b81518110610f5057610f4f613735565b5b6020026020010151600d6000828254610f699190613a5f565b925050819055508060018251610f7f919061388a565b81518110610f9057610f8f613735565b5b6020026020010151600b60003373ffffffffffffffffffffffffffffffffffffffff1673ffffffffffffffffffffffffffffffffffffffff1681526020019081526020016000206001016000828254610fe99190613a5f565b9250508190555061103573b97ef9ef8734c71904d8002f8b6bc66dd9c48a6e8360018551611017919061388a565b8151811061102857611027613735565b5b6020026020010151611b14565b6110668160018351611047919061388a565b8151811061105857611057613735565b5b602002602001015184611c61565b50505050505050505050565b61107a61156c565b6110846000611d65565b565b6006543410156110cb576040517f08c379a00000000000000000000000000000000000000000000000000000000081526004016110c290613b27565b60405180910390fd5b6110d88360018484611e2b565b505050565b6000600360009054906101000a900473ffffffffffffffffffffffffffffffffffffffff16905090565b60058054611114906135df565b80601f0160208091040260200160405190810160405280929190818152602001828054611140906135df565b801561118d5780601f106111625761010080835404028352916020019161118d565b820191906000526020600020905b81548152906001019060200180831161117057829003601f168201915b505050505081565b6111a76111a0611604565b8383611fdc565b5050565b600881815481106111bb57600080fd5b906000526020600020016000915054906101000a900473ffffffffffffffffffffffffffffffffffffffff1681565b62093a806009546111fb9190613a5f565b421161123c576040517f08c379a000000000000000000000000000000000000000000000000000000000815260040161123390613b93565b60405180910390fd5b600061124c600880549050612149565b90506008818154811061126257611261613735565b5b9060005260206000200160009054906101000a900473ffffffffffffffffffffffffffffffffffffffff1673ffffffffffffffffffffffffffffffffffffffff166108fc479081150290604051600060405180830381858888f193505050501580156112d2573d6000803e3d6000fd5b504260098190555050565b73b97ef9ef8734c71904d8002f8b6bc66dd9c48a6e81565b73c7198437980c041c805a1edcba50c1ce5db9511881565b600b6020528060005260406000206000915090508060000154908060010154908060020154905083565b6000600160008473ffffffffffffffffffffffffffffffffffffffff1673ffffffffffffffffffffffffffffffffffffffff16815260200190815260200160002060008373ffffffffffffffffffffffffffffffffffffffff1673ffffffffffffffffffffffffffffffffffffffff16815260200190815260200160002060009054906101000a900460ff16905092915050565b6113d3611604565b73ffffffffffffffffffffffffffffffffffffffff168573ffffffffffffffffffffffffffffffffffffffff161480611419575061141885611413611604565b611337565b5b611458576040517f08c379a000000000000000000000000000000000000000000000000000000000815260040161144f90613683565b60405180910390fd5b61146585858585856121a5565b5050505050565b61147461156c565b600073ffffffffffffffffffffffffffffffffffffffff168173ffffffffffffffffffffffffffffffffffffffff1614156114e4576040517f08c379a00000000000000000000000000000000000000000000000000000000081526004016114db90613c25565b60405180910390fd5b6114ed81611d65565b50565b6114f861156c565b8060068190555050565b60007f01ffc9a7000000000000000000000000000000000000000000000000000000007bffffffffffffffffffffffffffffffffffffffffffffffffffffffff1916827bffffffffffffffffffffffffffffffffffffffffffffffffffffffff1916149050919050565b611574611604565b73ffffffffffffffffffffffffffffffffffffffff166115926110dd565b73ffffffffffffffffffffffffffffffffffffffff16146115e8576040517f08c379a00000000000000000000000000000000000000000000000000000000081526004016115df90613c91565b60405180910390fd5b565b806002908051906020019061160092919061289e565b5050565b600033905090565b8151835114611650576040517f08c379a000000000000000000000000000000000000000000000000000000000815260040161164790613d23565b60405180910390fd5b600073ffffffffffffffffffffffffffffffffffffffff168473ffffffffffffffffffffffffffffffffffffffff1614156116c0576040517f08c379a00000000000000000000000000000000000000000000000000000000081526004016116b790613db5565b60405180910390fd5b60006116ca611604565b90506116da818787878787612441565b60005b845181101561188b5760008582815181106116fb576116fa613735565b5b60200260200101519050600085838151811061171a57611719613735565b5b60200260200101519050600080600084815260200190815260200160002060008b73ffffffffffffffffffffffffffffffffffffffff1673ffffffffffffffffffffffffffffffffffffffff168152602001908152602001600020549050818110156117bb576040517f08c379a00000000000000000000000000000000000000000000000000000000081526004016117b290613e47565b60405180910390fd5b81810360008085815260200190815260200160002060008c73ffffffffffffffffffffffffffffffffffffffff1673ffffffffffffffffffffffffffffffffffffffff168152602001908152602001600020819055508160008085815260200190815260200160002060008b73ffffffffffffffffffffffffffffffffffffffff1673ffffffffffffffffffffffffffffffffffffffff16815260200190815260200160002060008282546118709190613a5f565b925050819055505050508061188490613793565b90506116dd565b508473ffffffffffffffffffffffffffffffffffffffff168673ffffffffffffffffffffffffffffffffffffffff168273ffffffffffffffffffffffffffffffffffffffff167f4a39dc06d4c0dbc64b70af90fd698a233a518aa5d07e595d983b8c0526c8f7fb8787604051611902929190613e67565b60405180910390a4611918818787878787612449565b611926818787878787612451565b505050505050565b60607f000000000000000000000000000000000000000000000000000000000000000073ffffffffffffffffffffffffffffffffffffffff166373b295c26040518163ffffffff1660e01b8152600401602060405180830381865afa15801561199b573d6000803e3d6000fd5b505050506040513d601f19601f820116820180604052508101906119bf919061385d565b73ffffffffffffffffffffffffffffffffffffffff16868660008181106119e9576119e8613735565b5b90506020020160208101906119fe91906133e3565b73ffffffffffffffffffffffffffffffffffffffff1614611a585785856040517f945b7687000000000000000000000000000000000000000000000000000000008152600401611a4f929190613981565b60405180910390fd5b60007f000000000000000000000000000000000000000000000000000000000000000073ffffffffffffffffffffffffffffffffffffffff1663a2a1623d848a8a8a8a8a6040518763ffffffff1660e01b8152600401611abc959493929190613e9e565b60006040518083038185885af1158015611ada573d6000803e3d6000fd5b50505050506040513d6000823e3d601f19601f82011682018060405250810190611b049190613f98565b9050809150509695505050505050565b600e60009054906101000a900473ffffffffffffffffffffffffffffffffffffffff1673ffffffffffffffffffffffffffffffffffffffff1663095ea7b373794a61358d6845594f94dc1db02a252b5b4814ad836040518363ffffffff1660e01b8152600401611b85929190613fe1565b6020604051808303816000875af1158015611ba4573d6000803e3d6000fd5b505050506040513d601f19601f82011682018060405250810190611bc8919061401f565b50601160009054906101000a900473ffffffffffffffffffffffffffffffffffffffff1673ffffffffffffffffffffffffffffffffffffffff1663617ba03783833060006040518563ffffffff1660e01b8152600401611c2b949392919061409f565b600060405180830381600087803b158015611c4557600080fd5b505af1158015611c59573d6000803e3d6000fd5b505050505050565b600080600b60003373ffffffffffffffffffffffffffffffffffffffff1673ffffffffffffffffffffffffffffffffffffffff16815260200190815260200160002060010181905550600f60009054906101000a900473ffffffffffffffffffffffffffffffffffffffff1673ffffffffffffffffffffffffffffffffffffffff1663095ea7b37366357dcace80431aee0a7507e2e361b7e2402370856040518363ffffffff1660e01b8152600401611d1b929190613fe1565b6020604051808303816000875af1158015611d3a573d6000803e3d6000fd5b505050506040513d601f19601f82011682018060405250810190611d5e919061401f565b5092915050565b6000600360009054906101000a900473ffffffffffffffffffffffffffffffffffffffff16905081600360006101000a81548173ffffffffffffffffffffffffffffffffffffffff021916908373ffffffffffffffffffffffffffffffffffffffff1602179055508173ffffffffffffffffffffffffffffffffffffffff168173ffffffffffffffffffffffffffffffffffffffff167f8be0079c531659141344cd1fd0a4f28419497f9722a3daafe3b4186f6b6457e060405160405180910390a35050565b600073ffffffffffffffffffffffffffffffffffffffff168473ffffffffffffffffffffffffffffffffffffffff161415611e9b576040517f08c379a0000000000000000000000000000000000000000000000000000000008152600401611e9290614156565b60405180910390fd5b6000611ea5611604565b90506000611eb285612629565b90506000611ebf85612629565b9050611ed083600089858589612441565b8460008088815260200190815260200160002060008973ffffffffffffffffffffffffffffffffffffffff1673ffffffffffffffffffffffffffffffffffffffff1681526020019081526020016000206000828254611f2f9190613a5f565b925050819055508673ffffffffffffffffffffffffffffffffffffffff16600073ffffffffffffffffffffffffffffffffffffffff168473ffffffffffffffffffffffffffffffffffffffff167fc3d58168c5ae7397731d063d5bbf3d657854427343f4c083240f7aacaa2d0f628989604051611fad929190614176565b60405180910390a4611fc483600089858589612449565b611fd3836000898989896126a3565b50505050505050565b8173ffffffffffffffffffffffffffffffffffffffff168373ffffffffffffffffffffffffffffffffffffffff16141561204b576040517f08c379a000000000000000000000000000000000000000000000000000000000815260040161204290614211565b60405180910390fd5b80600160008573ffffffffffffffffffffffffffffffffffffffff1673ffffffffffffffffffffffffffffffffffffffff16815260200190815260200160002060008473ffffffffffffffffffffffffffffffffffffffff1673ffffffffffffffffffffffffffffffffffffffff16815260200190815260200160002060006101000a81548160ff0219169083151502179055508173ffffffffffffffffffffffffffffffffffffffff168373ffffffffffffffffffffffffffffffffffffffff167f17307eab39ab6107e8899845ad3d59bd9653f200f220920489ca2b5937696c318360405161213c9190612af3565b60405180910390a3505050565b60006007600081548092919061215e90613793565b919050555081423360075460405160200161217b9392919061429a565b6040516020818303038152906040528051906020012060001c61219e91906142d7565b9050919050565b600073ffffffffffffffffffffffffffffffffffffffff168473ffffffffffffffffffffffffffffffffffffffff161415612215576040517f08c379a000000000000000000000000000000000000000000000000000000000815260040161220c90613db5565b60405180910390fd5b600061221f611604565b9050600061222c85612629565b9050600061223985612629565b9050612249838989858589612441565b600080600088815260200190815260200160002060008a73ffffffffffffffffffffffffffffffffffffffff1673ffffffffffffffffffffffffffffffffffffffff168152602001908152602001600020549050858110156122e0576040517f08c379a00000000000000000000000000000000000000000000000000000000081526004016122d790613e47565b60405180910390fd5b85810360008089815260200190815260200160002060008b73ffffffffffffffffffffffffffffffffffffffff1673ffffffffffffffffffffffffffffffffffffffff168152602001908152602001600020819055508560008089815260200190815260200160002060008a73ffffffffffffffffffffffffffffffffffffffff1673ffffffffffffffffffffffffffffffffffffffff16815260200190815260200160002060008282546123959190613a5f565b925050819055508773ffffffffffffffffffffffffffffffffffffffff168973ffffffffffffffffffffffffffffffffffffffff168573ffffffffffffffffffffffffffffffffffffffff167fc3d58168c5ae7397731d063d5bbf3d657854427343f4c083240f7aacaa2d0f628a8a604051612412929190614176565b60405180910390a4612428848a8a86868a612449565b612436848a8a8a8a8a6126a3565b505050505050505050565b505050505050565b505050505050565b6124708473ffffffffffffffffffffffffffffffffffffffff1661287b565b15612621578373ffffffffffffffffffffffffffffffffffffffff1663bc197c8187878686866040518663ffffffff1660e01b81526004016124b695949392919061435d565b6020604051808303816000875af19250505080156124f257506040513d601f19601f820116820180604052508101906124ef91906143da565b60015b612598576124fe614414565b806308c379a0141561255b5750612513614436565b8061251e575061255d565b806040517f08c379a00000000000000000000000000000000000000000000000000000000081526004016125529190612d25565b60405180910390fd5b505b6040517f08c379a000000000000000000000000000000000000000000000000000000000815260040161258f9061453e565b60405180910390fd5b63bc197c8160e01b7bffffffffffffffffffffffffffffffffffffffffffffffffffffffff1916817bffffffffffffffffffffffffffffffffffffffffffffffffffffffff19161461261f576040517f08c379a0000000000000000000000000000000000000000000000000000000008152600401612616906145d0565b60405180910390fd5b505b505050505050565b60606000600167ffffffffffffffff81111561264857612647612b29565b5b6040519080825280602002602001820160405280156126765781602001602082028036833780820191505090505b509050828160008151811061268e5761268d613735565b5b60200260200101818152505080915050919050565b6126c28473ffffffffffffffffffffffffffffffffffffffff1661287b565b15612873578373ffffffffffffffffffffffffffffffffffffffff1663f23a6e6187878686866040518663ffffffff1660e01b81526004016127089594939291906145f0565b6020604051808303816000875af192505050801561274457506040513d601f19601f8201168201806040525081019061274191906143da565b60015b6127ea57612750614414565b806308c379a014156127ad5750612765614436565b8061277057506127af565b806040517f08c379a00000000000000000000000000000000000000000000000000000000081526004016127a49190612d25565b60405180910390fd5b505b6040517f08c379a00000000000000000000000000000000000000000000000000000000081526004016127e19061453e565b60405180910390fd5b63f23a6e6160e01b7bffffffffffffffffffffffffffffffffffffffffffffffffffffffff1916817bffffffffffffffffffffffffffffffffffffffffffffffffffffffff191614612871576040517f08c379a0000000000000000000000000000000000000000000000000000000008152600401612868906145d0565b60405180910390fd5b505b505050505050565b6000808273ffffffffffffffffffffffffffffffffffffffff163b119050919050565b8280546128aa906135df565b90600052602060002090601f0160209004810192826128cc5760008555612913565b82601f106128e557805160ff1916838001178555612913565b82800160010185558215612913579182015b828111156129125782518255916020019190600101906128f7565b5b5090506129209190612924565b5090565b5b8082111561293d576000816000905550600101612925565b5090565b6000604051905090565b600080fd5b600080fd5b600073ffffffffffffffffffffffffffffffffffffffff82169050919050565b600061298082612955565b9050919050565b61299081612975565b811461299b57600080fd5b50565b6000813590506129ad81612987565b92915050565b6000819050919050565b6129c6816129b3565b81146129d157600080fd5b50565b6000813590506129e3816129bd565b92915050565b60008060408385031215612a00576129ff61294b565b5b6000612a0e8582860161299e565b9250506020612a1f858286016129d4565b9150509250929050565b612a32816129b3565b82525050565b6000602082019050612a4d6000830184612a29565b92915050565b60007fffffffff0000000000000000000000000000000000000000000000000000000082169050919050565b612a8881612a53565b8114612a9357600080fd5b50565b600081359050612aa581612a7f565b92915050565b600060208284031215612ac157612ac061294b565b5b6000612acf84828501612a96565b91505092915050565b60008115159050919050565b612aed81612ad8565b82525050565b6000602082019050612b086000830184612ae4565b92915050565b600080fd5b600080fd5b6000601f19601f8301169050919050565b7f4e487b7100000000000000000000000000000000000000000000000000000000600052604160045260246000fd5b612b6182612b18565b810181811067ffffffffffffffff82111715612b8057612b7f612b29565b5b80604052505050565b6000612b93612941565b9050612b9f8282612b58565b919050565b600067ffffffffffffffff821115612bbf57612bbe612b29565b5b612bc882612b18565b9050602081019050919050565b82818337600083830152505050565b6000612bf7612bf284612ba4565b612b89565b905082815260208101848484011115612c1357612c12612b13565b5b612c1e848285612bd5565b509392505050565b600082601f830112612c3b57612c3a612b0e565b5b8135612c4b848260208601612be4565b91505092915050565b600060208284031215612c6a57612c6961294b565b5b600082013567ffffffffffffffff811115612c8857612c87612950565b5b612c9484828501612c26565b91505092915050565b600081519050919050565b600082825260208201905092915050565b60005b83811015612cd7578082015181840152602081019050612cbc565b83811115612ce6576000848401525b50505050565b6000612cf782612c9d565b612d018185612ca8565b9350612d11818560208601612cb9565b612d1a81612b18565b840191505092915050565b60006020820190508181036000830152612d3f8184612cec565b905092915050565b600060208284031215612d5d57612d5c61294b565b5b6000612d6b848285016129d4565b91505092915050565b600067ffffffffffffffff821115612d8f57612d8e612b29565b5b602082029050602081019050919050565b600080fd5b6000612db8612db384612d74565b612b89565b90508083825260208201905060208402830185811115612ddb57612dda612da0565b5b835b81811015612e045780612df088826129d4565b845260208401935050602081019050612ddd565b5050509392505050565b600082601f830112612e2357612e22612b0e565b5b8135612e33848260208601612da5565b91505092915050565b600067ffffffffffffffff821115612e5757612e56612b29565b5b612e6082612b18565b9050602081019050919050565b6000612e80612e7b84612e3c565b612b89565b905082815260208101848484011115612e9c57612e9b612b13565b5b612ea7848285612bd5565b509392505050565b600082601f830112612ec457612ec3612b0e565b5b8135612ed4848260208601612e6d565b91505092915050565b600080600080600060a08688031215612ef957612ef861294b565b5b6000612f078882890161299e565b9550506020612f188882890161299e565b945050604086013567ffffffffffffffff811115612f3957612f38612950565b5b612f4588828901612e0e565b935050606086013567ffffffffffffffff811115612f6657612f65612950565b5b612f7288828901612e0e565b925050608086013567ffffffffffffffff811115612f9357612f92612950565b5b612f9f88828901612eaf565b9150509295509295909350565b600067ffffffffffffffff821115612fc757612fc6612b29565b5b602082029050602081019050919050565b6000612feb612fe684612fac565b612b89565b9050808382526020820190506020840283018581111561300e5761300d612da0565b5b835b818110156130375780613023888261299e565b845260208401935050602081019050613010565b5050509392505050565b600082601f83011261305657613055612b0e565b5b8135613066848260208601612fd8565b91505092915050565b600080604083850312156130865761308561294b565b5b600083013567ffffffffffffffff8111156130a4576130a3612950565b5b6130b085828601613041565b925050602083013567ffffffffffffffff8111156130d1576130d0612950565b5b6130dd85828601612e0e565b9150509250929050565b600081519050919050565b600082825260208201905092915050565b6000819050602082019050919050565b61311c816129b3565b82525050565b600061312e8383613113565b60208301905092915050565b6000602082019050919050565b6000613152826130e7565b61315c81856130f2565b935061316783613103565b8060005b8381101561319857815161317f8882613122565b975061318a8361313a565b92505060018101905061316b565b5085935050505092915050565b600060208201905081810360008301526131bf8184613147565b905092915050565b600080fd5b60008083601f8401126131e2576131e1612b0e565b5b8235905067ffffffffffffffff8111156131ff576131fe6131c7565b5b60208301915083602082028301111561321b5761321a612da0565b5b9250929050565b600080600080600080600060a0888a0312156132415761324061294b565b5b600061324f8a828b016129d4565b97505060206132608a828b016129d4565b965050604088013567ffffffffffffffff81111561328157613280612950565b5b61328d8a828b016131cc565b9550955050606088013567ffffffffffffffff8111156132b0576132af612950565b5b6132bc8a828b016131cc565b935093505060806132cf8a828b016129d4565b91505092959891949750929550565b6000806000606084860312156132f7576132f661294b565b5b60006133058682870161299e565b9350506020613316868287016129d4565b925050604084013567ffffffffffffffff81111561333757613336612950565b5b61334386828701612eaf565b9150509250925092565b61335681612975565b82525050565b6000602082019050613371600083018461334d565b92915050565b61338081612ad8565b811461338b57600080fd5b50565b60008135905061339d81613377565b92915050565b600080604083850312156133ba576133b961294b565b5b60006133c88582860161299e565b92505060206133d98582860161338e565b9150509250929050565b6000602082840312156133f9576133f861294b565b5b60006134078482850161299e565b91505092915050565b60006060820190506134256000830186612a29565b6134326020830185612a29565b61343f6040830184612a29565b949350505050565b6000806040838503121561345e5761345d61294b565b5b600061346c8582860161299e565b925050602061347d8582860161299e565b9150509250929050565b600080600080600060a086880312156134a3576134a261294b565b5b60006134b18882890161299e565b95505060206134c28882890161299e565b94505060406134d3888289016129d4565b93505060606134e4888289016129d4565b925050608086013567ffffffffffffffff81111561350557613504612950565b5b61351188828901612eaf565b9150509295509295909350565b7f455243313135353a2061646472657373207a65726f206973206e6f742061207660008201527f616c6964206f776e657200000000000000000000000000000000000000000000602082015250565b600061357a602a83612ca8565b91506135858261351e565b604082019050919050565b600060208201905081810360008301526135a98161356d565b9050919050565b7f4e487b7100000000000000000000000000000000000000000000000000000000600052602260045260246000fd5b600060028204905060018216806135f757607f821691505b6020821081141561360b5761360a6135b0565b5b50919050565b7f455243313135353a2063616c6c6572206973206e6f7420746f6b656e206f776e60008201527f6572206e6f7220617070726f7665640000000000000000000000000000000000602082015250565b600061366d602f83612ca8565b915061367882613611565b604082019050919050565b6000602082019050818103600083015261369c81613660565b9050919050565b7f455243313135353a206163636f756e747320616e6420696473206c656e67746860008201527f206d69736d617463680000000000000000000000000000000000000000000000602082015250565b60006136ff602983612ca8565b915061370a826136a3565b604082019050919050565b6000602082019050818103600083015261372e816136f2565b9050919050565b7f4e487b7100000000000000000000000000000000000000000000000000000000600052603260045260246000fd5b7f4e487b7100000000000000000000000000000000000000000000000000000000600052601160045260246000fd5b600061379e826129b3565b91507fffffffffffffffffffffffffffffffffffffffffffffffffffffffffffffffff8214156137d1576137d0613764565b5b600182019050919050565b7f596f752063616e2774206465706f736974203000000000000000000000000000600082015250565b6000613812601383612ca8565b915061381d826137dc565b602082019050919050565b6000602082019050818103600083015261384181613805565b9050919050565b60008151905061385781612987565b92915050565b6000602082840312156138735761387261294b565b5b600061388184828501613848565b91505092915050565b6000613895826129b3565b91506138a0836129b3565b9250828210156138b3576138b2613764565b5b828203905092915050565b600082825260208201905092915050565b6000819050919050565b6138e281612975565b82525050565b60006138f483836138d9565b60208301905092915050565b600061390f602084018461299e565b905092915050565b6000602082019050919050565b600061393083856138be565b935061393b826138cf565b8060005b85811015613974576139518284613900565b61395b88826138e8565b975061396683613917565b92505060018101905061393f565b5085925050509392505050565b6000602082019050818103600083015261399c818486613924565b90509392505050565b60006139b0826129b3565b91506139bb836129b3565b9250817fffffffffffffffffffffffffffffffffffffffffffffffffffffffffffffffff04831182151516156139f4576139f3613764565b5b828202905092915050565b7f4e487b7100000000000000000000000000000000000000000000000000000000600052601260045260246000fd5b6000613a39826129b3565b9150613a44836129b3565b925082613a5457613a536139ff565b5b828204905092915050565b6000613a6a826129b3565b9150613a75836129b3565b9250827fffffffffffffffffffffffffffffffffffffffffffffffffffffffffffffffff03821115613aaa57613aa9613764565b5b828201905092915050565b7f596f7520646f6e2774206861766520656e6f75676820657468657220746f206d60008201527f696e740000000000000000000000000000000000000000000000000000000000602082015250565b6000613b11602383612ca8565b9150613b1c82613ab5565b604082019050919050565b60006020820190508181036000830152613b4081613b04565b9050919050565b7f77616974696e6720706572696f6420686173206e6f7420657870697265640000600082015250565b6000613b7d601e83612ca8565b9150613b8882613b47565b602082019050919050565b60006020820190508181036000830152613bac81613b70565b9050919050565b7f4f776e61626c653a206e6577206f776e657220697320746865207a65726f206160008201527f6464726573730000000000000000000000000000000000000000000000000000602082015250565b6000613c0f602683612ca8565b9150613c1a82613bb3565b604082019050919050565b60006020820190508181036000830152613c3e81613c02565b9050919050565b7f4f776e61626c653a2063616c6c6572206973206e6f7420746865206f776e6572600082015250565b6000613c7b602083612ca8565b9150613c8682613c45565b602082019050919050565b60006020820190508181036000830152613caa81613c6e565b9050919050565b7f455243313135353a2069647320616e6420616d6f756e7473206c656e6774682060008201527f6d69736d61746368000000000000000000000000000000000000000000000000602082015250565b6000613d0d602883612ca8565b9150613d1882613cb1565b604082019050919050565b60006020820190508181036000830152613d3c81613d00565b9050919050565b7f455243313135353a207472616e7366657220746f20746865207a65726f20616460008201527f6472657373000000000000000000000000000000000000000000000000000000602082015250565b6000613d9f602583612ca8565b9150613daa82613d43565b604082019050919050565b60006020820190508181036000830152613dce81613d92565b9050919050565b7f455243313135353a20696e73756666696369656e742062616c616e636520666f60008201527f72207472616e7366657200000000000000000000000000000000000000000000602082015250565b6000613e31602a83612ca8565b9150613e3c82613dd5565b604082019050919050565b60006020820190508181036000830152613e6081613e24565b9050919050565b60006040820190508181036000830152613e818185613147565b90508181036020830152613e958184613147565b90509392505050565b6000608082019050613eb36000830188612a29565b8181036020830152613ec6818688613924565b9050613ed5604083018561334d565b613ee26060830184612a29565b9695505050505050565b600081519050613efb816129bd565b92915050565b6000613f14613f0f84612d74565b612b89565b90508083825260208201905060208402830185811115613f3757613f36612da0565b5b835b81811015613f605780613f4c8882613eec565b845260208401935050602081019050613f39565b5050509392505050565b600082601f830112613f7f57613f7e612b0e565b5b8151613f8f848260208601613f01565b91505092915050565b600060208284031215613fae57613fad61294b565b5b600082015167ffffffffffffffff811115613fcc57613fcb612950565b5b613fd884828501613f6a565b91505092915050565b6000604082019050613ff6600083018561334d565b6140036020830184612a29565b9392505050565b60008151905061401981613377565b92915050565b6000602082840312156140355761403461294b565b5b60006140438482850161400a565b91505092915050565b6000819050919050565b600061ffff82169050919050565b6000819050919050565b600061408961408461407f8461404c565b614064565b614056565b9050919050565b6140998161406e565b82525050565b60006080820190506140b4600083018761334d565b6140c16020830186612a29565b6140ce604083018561334d565b6140db6060830184614090565b95945050505050565b7f455243313135353a206d696e7420746f20746865207a65726f2061646472657360008201527f7300000000000000000000000000000000000000000000000000000000000000602082015250565b6000614140602183612ca8565b915061414b826140e4565b604082019050919050565b6000602082019050818103600083015261416f81614133565b9050919050565b600060408201905061418b6000830185612a29565b6141986020830184612a29565b9392505050565b7f455243313135353a2073657474696e6720617070726f76616c2073746174757360008201527f20666f722073656c660000000000000000000000000000000000000000000000602082015250565b60006141fb602983612ca8565b91506142068261419f565b604082019050919050565b6000602082019050818103600083015261422a816141ee565b9050919050565b6000819050919050565b61424c614247826129b3565b614231565b82525050565b60008160601b9050919050565b600061426a82614252565b9050919050565b600061427c8261425f565b9050919050565b61429461428f82612975565b614271565b82525050565b60006142a6828661423b565b6020820191506142b68285614283565b6014820191506142c6828461423b565b602082019150819050949350505050565b60006142e2826129b3565b91506142ed836129b3565b9250826142fd576142fc6139ff565b5b828206905092915050565b600081519050919050565b600082825260208201905092915050565b600061432f82614308565b6143398185614313565b9350614349818560208601612cb9565b61435281612b18565b840191505092915050565b600060a082019050614372600083018861334d565b61437f602083018761334d565b81810360408301526143918186613147565b905081810360608301526143a58185613147565b905081810360808301526143b98184614324565b90509695505050505050565b6000815190506143d481612a7f565b92915050565b6000602082840312156143f0576143ef61294b565b5b60006143fe848285016143c5565b91505092915050565b60008160e01c9050919050565b600060033d11156144335760046000803e614430600051614407565b90505b90565b600060443d1015614446576144c9565b61444e612941565b60043d036004823e80513d602482011167ffffffffffffffff821117156144765750506144c9565b808201805167ffffffffffffffff81111561449457505050506144c9565b80602083010160043d0385018111156144b15750505050506144c9565b6144c082602001850186612b58565b82955050505050505b90565b7f455243313135353a207472616e7366657220746f206e6f6e204552433131353560008201527f526563656976657220696d706c656d656e746572000000000000000000000000602082015250565b6000614528603483612ca8565b9150614533826144cc565b604082019050919050565b600060208201905081810360008301526145578161451b565b9050919050565b7f455243313135353a204552433131353552656365697665722072656a6563746560008201527f6420746f6b656e73000000000000000000000000000000000000000000000000602082015250565b60006145ba602883612ca8565b91506145c58261455e565b604082019050919050565b600060208201905081810360008301526145e9816145ad565b9050919050565b600060a082019050614605600083018861334d565b614612602083018761334d565b61461f6040830186612a29565b61462c6060830185612a29565b818103608083015261463e8184614324565b9050969550505050505056fea26469706673582212200abbd99c588c09bd704dfcb5d506d50c15884c27bfff2b04e3c68e83189d662a64736f6c634300080a0033",
  "linkReferences": {},
  "deployedLinkReferences": {}
}